{
  "contractName": "HealthManagement",
  "abi": [
    {
      "inputs": [],
      "stateMutability": "nonpayable",
      "type": "constructor"
    },
    {
      "inputs": [
        {
          "internalType": "string",
          "name": "name",
          "type": "string"
        },
        {
          "internalType": "uint256",
          "name": "phone",
          "type": "uint256"
        },
        {
          "internalType": "uint256",
          "name": "age",
          "type": "uint256"
        },
        {
          "internalType": "uint256",
          "name": "dob",
          "type": "uint256"
        },
        {
          "internalType": "string",
          "name": "email",
          "type": "string"
        }
      ],
      "name": "addPatient",
      "outputs": [],
      "stateMutability": "nonpayable",
      "type": "function"
    },
    {
      "inputs": [
        {
          "internalType": "string",
          "name": "currentfiles",
          "type": "string"
        },
        {
          "internalType": "string",
          "name": "presciptions",
          "type": "string"
        },
        {
          "internalType": "string",
          "name": "finalRemarks",
          "type": "string"
        },
        {
          "internalType": "address",
          "name": "doctor_",
          "type": "address"
        },
        {
          "internalType": "address",
          "name": "patientaddr",
          "type": "address"
        }
      ],
      "name": "addPatientRecord",
      "outputs": [],
      "stateMutability": "payable",
      "type": "function",
      "payable": true
    },
    {
      "inputs": [
        {
          "internalType": "uint256",
          "name": "",
          "type": "uint256"
        }
      ],
      "name": "allAppointments",
      "outputs": [
        {
          "internalType": "bool",
          "name": "status",
          "type": "bool"
        },
        {
          "internalType": "address payable",
          "name": "patient_",
          "type": "address"
        },
        {
          "internalType": "address payable",
          "name": "doctor_",
          "type": "address"
        },
        {
          "internalType": "string",
          "name": "patientName",
          "type": "string"
        },
        {
          "internalType": "string",
          "name": "docname",
          "type": "string"
        },
        {
          "internalType": "uint256",
          "name": "timeslot_",
          "type": "uint256"
        },
        {
          "internalType": "uint256",
          "name": "timeStart",
          "type": "uint256"
        },
        {
          "internalType": "uint256",
          "name": "timeEnd",
          "type": "uint256"
        }
      ],
      "stateMutability": "view",
      "type": "function",
      "constant": true
    },
    {
      "inputs": [
        {
          "internalType": "address",
          "name": "",
          "type": "address"
        }
      ],
      "name": "allDoctors",
      "outputs": [
        {
          "internalType": "string",
          "name": "name",
          "type": "string"
        },
        {
          "internalType": "string",
          "name": "email",
          "type": "string"
        },
        {
          "internalType": "address payable",
          "name": "address_",
          "type": "address"
        },
        {
          "internalType": "uint256",
          "name": "basefee",
          "type": "uint256"
        },
        {
          "internalType": "uint256",
          "name": "starCount",
          "type": "uint256"
        },
        {
          "internalType": "uint256",
          "name": "totalPatients",
          "type": "uint256"
        }
      ],
      "stateMutability": "view",
      "type": "function",
      "constant": true
    },
    {
      "inputs": [
        {
          "internalType": "address",
          "name": "",
          "type": "address"
        }
      ],
      "name": "allPatients",
      "outputs": [
        {
          "internalType": "string",
          "name": "name",
          "type": "string"
        },
        {
          "internalType": "string",
          "name": "email",
          "type": "string"
        },
        {
          "internalType": "address payable",
          "name": "address_",
          "type": "address"
        },
        {
          "internalType": "uint256",
          "name": "phone",
          "type": "uint256"
        },
        {
          "internalType": "uint256",
          "name": "age",
          "type": "uint256"
        },
        {
          "internalType": "string",
          "name": "bloodgroup",
          "type": "string"
        },
        {
          "internalType": "uint256",
          "name": "dob",
          "type": "uint256"
        }
      ],
      "stateMutability": "view",
      "type": "function",
      "constant": true
    },
    {
      "inputs": [
        {
          "internalType": "uint256",
          "name": "",
          "type": "uint256"
        }
      ],
      "name": "allPatientsList",
      "outputs": [
        {
          "internalType": "address",
          "name": "",
          "type": "address"
        }
      ],
      "stateMutability": "view",
      "type": "function",
      "constant": true
    },
    {
      "inputs": [
        {
          "internalType": "uint256",
          "name": "",
          "type": "uint256"
        }
      ],
      "name": "alldoctors",
      "outputs": [
        {
          "internalType": "address",
          "name": "",
          "type": "address"
        }
      ],
      "stateMutability": "view",
      "type": "function",
      "constant": true
    },
    {
      "inputs": [
        {
          "internalType": "address",
          "name": "docAdd",
          "type": "address"
        }
      ],
      "name": "getDoctorAppointment",
      "outputs": [
        {
          "components": [
            {
              "internalType": "bool",
              "name": "status",
              "type": "bool"
            },
            {
              "internalType": "address payable",
              "name": "patient_",
              "type": "address"
            },
            {
              "internalType": "address payable",
              "name": "doctor_",
              "type": "address"
            },
            {
              "internalType": "string",
              "name": "patientName",
              "type": "string"
            },
            {
              "internalType": "string",
              "name": "docname",
              "type": "string"
            },
            {
              "internalType": "uint256",
              "name": "timeslot_",
              "type": "uint256"
            },
            {
              "internalType": "uint256",
              "name": "timeStart",
              "type": "uint256"
            },
            {
              "internalType": "uint256",
              "name": "timeEnd",
              "type": "uint256"
            }
          ],
          "internalType": "struct HealthManagement2.Appointment[]",
          "name": "app",
          "type": "tuple[]"
        }
      ],
      "stateMutability": "view",
      "type": "function",
      "constant": true
    },
    {
      "inputs": [
        {
          "internalType": "address",
          "name": "addr",
          "type": "address"
        },
        {
          "internalType": "uint256",
          "name": "index",
          "type": "uint256"
        }
      ],
      "name": "getOneRecord",
      "outputs": [
        {
          "components": [
            {
              "internalType": "string",
              "name": "docname",
              "type": "string"
            },
            {
              "internalType": "string",
              "name": "fileHashes",
              "type": "string"
            },
            {
              "internalType": "string",
              "name": "presciptions",
              "type": "string"
            },
            {
              "internalType": "string",
              "name": "finalRemarks",
              "type": "string"
            },
            {
              "internalType": "address payable",
              "name": "doctor_",
              "type": "address"
            },
            {
              "internalType": "uint256",
              "name": "timeStamp",
              "type": "uint256"
            },
            {
              "internalType": "uint256",
              "name": "amount",
              "type": "uint256"
            },
            {
              "internalType": "string",
              "name": "patientName",
              "type": "string"
            },
            {
              "internalType": "address payable",
              "name": "patientaddr",
              "type": "address"
            }
          ],
          "internalType": "struct HealthManagement2.Record",
          "name": "rec",
          "type": "tuple"
        }
      ],
      "stateMutability": "view",
      "type": "function",
      "constant": true
    },
    {
      "inputs": [
        {
          "internalType": "address",
          "name": "patAdd",
          "type": "address"
        }
      ],
      "name": "getPatientAppointment",
      "outputs": [
        {
          "components": [
            {
              "internalType": "bool",
              "name": "status",
              "type": "bool"
            },
            {
              "internalType": "address payable",
              "name": "patient_",
              "type": "address"
            },
            {
              "internalType": "address payable",
              "name": "doctor_",
              "type": "address"
            },
            {
              "internalType": "string",
              "name": "patientName",
              "type": "string"
            },
            {
              "internalType": "string",
              "name": "docname",
              "type": "string"
            },
            {
              "internalType": "uint256",
              "name": "timeslot_",
              "type": "uint256"
            },
            {
              "internalType": "uint256",
              "name": "timeStart",
              "type": "uint256"
            },
            {
              "internalType": "uint256",
              "name": "timeEnd",
              "type": "uint256"
            }
          ],
          "internalType": "struct HealthManagement2.Appointment[]",
          "name": "app",
          "type": "tuple[]"
        }
      ],
      "stateMutability": "view",
      "type": "function",
      "constant": true
    },
    {
      "inputs": [
        {
          "internalType": "address",
          "name": "addr",
          "type": "address"
        }
      ],
      "name": "getPatientDetails",
      "outputs": [
        {
          "internalType": "string",
          "name": "name",
          "type": "string"
        },
        {
          "internalType": "string",
          "name": "email",
          "type": "string"
        },
        {
          "internalType": "uint256",
          "name": "age",
          "type": "uint256"
        },
        {
          "internalType": "uint256",
          "name": "phone",
          "type": "uint256"
        },
        {
          "internalType": "string",
          "name": "bloodgroup",
          "type": "string"
        },
        {
          "internalType": "uint256",
          "name": "dob",
          "type": "uint256"
        },
        {
          "components": [
            {
              "internalType": "string",
              "name": "docname",
              "type": "string"
            },
            {
              "internalType": "string",
              "name": "fileHashes",
              "type": "string"
            },
            {
              "internalType": "string",
              "name": "presciptions",
              "type": "string"
            },
            {
              "internalType": "string",
              "name": "finalRemarks",
              "type": "string"
            },
            {
              "internalType": "address payable",
              "name": "doctor_",
              "type": "address"
            },
            {
              "internalType": "uint256",
              "name": "timeStamp",
              "type": "uint256"
            },
            {
              "internalType": "uint256",
              "name": "amount",
              "type": "uint256"
            },
            {
              "internalType": "string",
              "name": "patientName",
              "type": "string"
            },
            {
              "internalType": "address payable",
              "name": "patientaddr",
              "type": "address"
            }
          ],
          "internalType": "struct HealthManagement2.Record[]",
          "name": "recordss",
          "type": "tuple[]"
        }
      ],
      "stateMutability": "view",
      "type": "function",
      "constant": true
    },
    {
      "inputs": [
        {
          "internalType": "address",
          "name": "addr",
          "type": "address"
        }
      ],
      "name": "getPatientRecords",
      "outputs": [
        {
          "components": [
            {
              "internalType": "string",
              "name": "docname",
              "type": "string"
            },
            {
              "internalType": "string",
              "name": "fileHashes",
              "type": "string"
            },
            {
              "internalType": "string",
              "name": "presciptions",
              "type": "string"
            },
            {
              "internalType": "string",
              "name": "finalRemarks",
              "type": "string"
            },
            {
              "internalType": "address payable",
              "name": "doctor_",
              "type": "address"
            },
            {
              "internalType": "uint256",
              "name": "timeStamp",
              "type": "uint256"
            },
            {
              "internalType": "uint256",
              "name": "amount",
              "type": "uint256"
            },
            {
              "internalType": "string",
              "name": "patientName",
              "type": "string"
            },
            {
              "internalType": "address payable",
              "name": "patientaddr",
              "type": "address"
            }
          ],
          "internalType": "struct HealthManagement2.Record[]",
          "name": "records",
          "type": "tuple[]"
        }
      ],
      "stateMutability": "view",
      "type": "function",
      "constant": true
    },
    {
      "inputs": [
        {
          "internalType": "address",
          "name": "p",
          "type": "address"
        }
      ],
      "name": "getRecordOfOnePatient",
      "outputs": [
        {
          "components": [
            {
              "internalType": "string",
              "name": "docname",
              "type": "string"
            },
            {
              "internalType": "string",
              "name": "fileHashes",
              "type": "string"
            },
            {
              "internalType": "string",
              "name": "presciptions",
              "type": "string"
            },
            {
              "internalType": "string",
              "name": "finalRemarks",
              "type": "string"
            },
            {
              "internalType": "address payable",
              "name": "doctor_",
              "type": "address"
            },
            {
              "internalType": "uint256",
              "name": "timeStamp",
              "type": "uint256"
            },
            {
              "internalType": "uint256",
              "name": "amount",
              "type": "uint256"
            },
            {
              "internalType": "string",
              "name": "patientName",
              "type": "string"
            },
            {
              "internalType": "address payable",
              "name": "patientaddr",
              "type": "address"
            }
          ],
          "internalType": "struct HealthManagement2.Record[]",
          "name": "doctorRecord",
          "type": "tuple[]"
        }
      ],
      "stateMutability": "view",
      "type": "function",
      "constant": true
    },
    {
      "inputs": [
        {
          "internalType": "address",
          "name": "",
          "type": "address"
        }
      ],
      "name": "isDoctor",
      "outputs": [
        {
          "internalType": "bool",
          "name": "",
          "type": "bool"
        }
      ],
      "stateMutability": "view",
      "type": "function",
      "constant": true
    },
    {
      "inputs": [
        {
          "internalType": "address",
          "name": "",
          "type": "address"
        }
      ],
      "name": "isPatient",
      "outputs": [
        {
          "internalType": "bool",
          "name": "",
          "type": "bool"
        }
      ],
      "stateMutability": "view",
      "type": "function",
      "constant": true
    },
    {
      "inputs": [
        {
          "internalType": "address",
          "name": "docAddr",
          "type": "address"
        }
      ],
      "name": "updateRecordAccess",
      "outputs": [],
      "stateMutability": "nonpayable",
      "type": "function"
    },
    {
      "inputs": [
        {
          "internalType": "string",
          "name": "name",
          "type": "string"
        },
        {
          "internalType": "string",
          "name": "email",
          "type": "string"
        },
        {
          "internalType": "address payable",
          "name": "address_",
          "type": "address"
        },
        {
          "internalType": "uint256",
          "name": "basefee",
          "type": "uint256"
        }
      ],
      "name": "addDoctor",
      "outputs": [],
      "stateMutability": "nonpayable",
      "type": "function"
    },
    {
      "inputs": [
        {
          "internalType": "address",
          "name": "to",
          "type": "address"
        }
      ],
      "name": "payFees",
      "outputs": [
        {
          "internalType": "bool",
          "name": "sentt",
          "type": "bool"
        }
      ],
      "stateMutability": "payable",
      "type": "function",
      "payable": true
    },
    {
      "inputs": [
        {
          "internalType": "address",
          "name": "docAddr",
          "type": "address"
        },
        {
          "internalType": "uint256",
          "name": "slot",
          "type": "uint256"
        }
      ],
      "name": "takeAppointment",
      "outputs": [],
      "stateMutability": "nonpayable",
      "type": "function"
    },
    {
      "inputs": [
        {
          "internalType": "uint256",
          "name": "index",
          "type": "uint256"
        },
        {
          "internalType": "uint256",
          "name": "start",
          "type": "uint256"
        }
      ],
      "name": "startAppointment",
      "outputs": [],
      "stateMutability": "nonpayable",
      "type": "function"
    },
    {
      "inputs": [
        {
          "internalType": "uint256",
          "name": "index",
          "type": "uint256"
        },
        {
          "internalType": "uint256",
          "name": "end",
          "type": "uint256"
        }
      ],
      "name": "endAppointment",
      "outputs": [],
      "stateMutability": "nonpayable",
      "type": "function"
    },
    {
      "inputs": [],
      "name": "getAllDoctor",
      "outputs": [
        {
          "components": [
            {
              "internalType": "string",
              "name": "name",
              "type": "string"
            },
            {
              "internalType": "string",
              "name": "email",
              "type": "string"
            },
            {
              "internalType": "address payable",
              "name": "address_",
              "type": "address"
            },
            {
              "internalType": "uint256",
              "name": "basefee",
              "type": "uint256"
            },
            {
              "internalType": "uint256",
              "name": "starCount",
              "type": "uint256"
            },
            {
              "internalType": "uint256",
              "name": "totalPatients",
              "type": "uint256"
            },
            {
              "components": [
                {
                  "internalType": "bool",
                  "name": "status",
                  "type": "bool"
                },
                {
                  "internalType": "address payable",
                  "name": "patient_",
                  "type": "address"
                },
                {
                  "internalType": "address payable",
                  "name": "doctor_",
                  "type": "address"
                },
                {
                  "internalType": "string",
                  "name": "patientName",
                  "type": "string"
                },
                {
                  "internalType": "string",
                  "name": "docname",
                  "type": "string"
                },
                {
                  "internalType": "uint256",
                  "name": "timeslot_",
                  "type": "uint256"
                },
                {
                  "internalType": "uint256",
                  "name": "timeStart",
                  "type": "uint256"
                },
                {
                  "internalType": "uint256",
                  "name": "timeEnd",
                  "type": "uint256"
                }
              ],
              "internalType": "struct HealthManagement2.Appointment[]",
              "name": "appointments_",
              "type": "tuple[]"
            },
            {
              "components": [
                {
                  "internalType": "string",
                  "name": "docname",
                  "type": "string"
                },
                {
                  "internalType": "string",
                  "name": "fileHashes",
                  "type": "string"
                },
                {
                  "internalType": "string",
                  "name": "presciptions",
                  "type": "string"
                },
                {
                  "internalType": "string",
                  "name": "finalRemarks",
                  "type": "string"
                },
                {
                  "internalType": "address payable",
                  "name": "doctor_",
                  "type": "address"
                },
                {
                  "internalType": "uint256",
                  "name": "timeStamp",
                  "type": "uint256"
                },
                {
                  "internalType": "uint256",
                  "name": "amount",
                  "type": "uint256"
                },
                {
                  "internalType": "string",
                  "name": "patientName",
                  "type": "string"
                },
                {
                  "internalType": "address payable",
                  "name": "patientaddr",
                  "type": "address"
                }
              ],
              "internalType": "struct HealthManagement2.Record[]",
              "name": "records_",
              "type": "tuple[]"
            }
          ],
          "internalType": "struct HealthManagement2.Doctor[]",
          "name": "alldocs",
          "type": "tuple[]"
        }
      ],
      "stateMutability": "view",
      "type": "function",
      "constant": true
    },
    {
      "inputs": [
        {
          "internalType": "address",
          "name": "addr",
          "type": "address"
        }
      ],
      "name": "getOneDoctor",
      "outputs": [
        {
          "components": [
            {
              "internalType": "string",
              "name": "name",
              "type": "string"
            },
            {
              "internalType": "string",
              "name": "email",
              "type": "string"
            },
            {
              "internalType": "address payable",
              "name": "address_",
              "type": "address"
            },
            {
              "internalType": "uint256",
              "name": "basefee",
              "type": "uint256"
            },
            {
              "internalType": "uint256",
              "name": "starCount",
              "type": "uint256"
            },
            {
              "internalType": "uint256",
              "name": "totalPatients",
              "type": "uint256"
            },
            {
              "components": [
                {
                  "internalType": "bool",
                  "name": "status",
                  "type": "bool"
                },
                {
                  "internalType": "address payable",
                  "name": "patient_",
                  "type": "address"
                },
                {
                  "internalType": "address payable",
                  "name": "doctor_",
                  "type": "address"
                },
                {
                  "internalType": "string",
                  "name": "patientName",
                  "type": "string"
                },
                {
                  "internalType": "string",
                  "name": "docname",
                  "type": "string"
                },
                {
                  "internalType": "uint256",
                  "name": "timeslot_",
                  "type": "uint256"
                },
                {
                  "internalType": "uint256",
                  "name": "timeStart",
                  "type": "uint256"
                },
                {
                  "internalType": "uint256",
                  "name": "timeEnd",
                  "type": "uint256"
                }
              ],
              "internalType": "struct HealthManagement2.Appointment[]",
              "name": "appointments_",
              "type": "tuple[]"
            },
            {
              "components": [
                {
                  "internalType": "string",
                  "name": "docname",
                  "type": "string"
                },
                {
                  "internalType": "string",
                  "name": "fileHashes",
                  "type": "string"
                },
                {
                  "internalType": "string",
                  "name": "presciptions",
                  "type": "string"
                },
                {
                  "internalType": "string",
                  "name": "finalRemarks",
                  "type": "string"
                },
                {
                  "internalType": "address payable",
                  "name": "doctor_",
                  "type": "address"
                },
                {
                  "internalType": "uint256",
                  "name": "timeStamp",
                  "type": "uint256"
                },
                {
                  "internalType": "uint256",
                  "name": "amount",
                  "type": "uint256"
                },
                {
                  "internalType": "string",
                  "name": "patientName",
                  "type": "string"
                },
                {
                  "internalType": "address payable",
                  "name": "patientaddr",
                  "type": "address"
                }
              ],
              "internalType": "struct HealthManagement2.Record[]",
              "name": "records_",
              "type": "tuple[]"
            }
          ],
          "internalType": "struct HealthManagement2.Doctor",
          "name": "doc",
          "type": "tuple"
        }
      ],
      "stateMutability": "view",
      "type": "function",
      "constant": true
    }
  ],
  "bytecode": "0x608060405234801561001057600080fd5b50600060088190556009819055600a8190558054600160a060020a03191633179055614a6f806100416000396000f3fe60806040526004361061015d576000357c010000000000000000000000000000000000000000000000000000000090048063996440c6116100d3578063cd25d7be1161008c578063cd25d7be14610410578063e3a3bf9c14610443578063efe2ccc114610477578063fc8a4de4146104aa578063fddfa7f2146104ca578063ff68115b146104dd57600080fd5b8063996440c61461033b5780639cf3cbae1461036b5780639e066d041461038b578063a39b6643146103ab578063b6ad1015146103cb578063b8f9197b146103fd57600080fd5b806350a8a0581161012557806350a8a0581461023f57806359e9bf55146102615780637966c8021461028e5780638b0920fe146102bb5780638f9c79ed146102db57806393699ad01461031b57600080fd5b8063036d6b311461016257806318bd4847146101985780631a7906fa146101b8578063285a3807146101da5780633da2887514610212575b600080fd5b34801561016e57600080fd5b5061018261017d366004613f2a565b6104fd565b60405161018f91906140c0565b60405180910390f35b3480156101a457600080fd5b506101826101b3366004613f2a565b610a20565b3480156101c457600080fd5b506101cd610e7f565b60405161018f9190614296565b3480156101e657600080fd5b506101fa6101f53660046142f7565b611625565b604051600160a060020a03909116815260200161018f565b34801561021e57600080fd5b5061023261022d366004613f2a565b61164f565b60405161018f9190614310565b34801561024b57600080fd5b5061025f61025a36600461448a565b61183d565b005b34801561026d57600080fd5b5061028161027c366004613f2a565b6119af565b60405161018f9190614508565b34801561029a57600080fd5b506102ae6102a936600461451b565b6120a1565b60405161018f9190614547565b3480156102c757600080fd5b5061025f6102d636600461455a565b612414565b3480156102e757600080fd5b5061030b6102f6366004613f2a565b60066020526000908152604090205460ff1681565b604051901515815260200161018f565b34801561032757600080fd5b5061025f6103363660046145db565b612552565b34801561034757600080fd5b5061030b610356366004613f2a565b60046020526000908152604090205460ff1681565b34801561037757600080fd5b5061025f610386366004613f2a565b612644565b34801561039757600080fd5b5061025f6103a636600461451b565b6126e9565b3480156103b757600080fd5b5061025f6103c63660046145db565b612a53565b3480156103d757600080fd5b506103eb6103e6366004613f2a565b612b89565b60405161018f969594939291906145fd565b61030b61040b366004613f2a565b612cd8565b34801561041c57600080fd5b5061043061042b366004613f2a565b612da4565b60405161018f9796959493929190614651565b34801561044f57600080fd5b5061046361045e3660046142f7565b612f85565b60405161018f9897969594939291906146ba565b34801561048357600080fd5b50610497610492366004613f2a565b6130f9565b60405161018f9796959493929190614724565b3480156104b657600080fd5b506102326104c5366004613f2a565b6136bc565b61025f6104d8366004614791565b61389f565b3480156104e957600080fd5b506101fa6104f83660046142f7565b613e56565b600160a060020a038116600090815260076020526040812060058101546060929081816105745760405160e560020a62461bcd02815260206004820152600760248201527f4e6f20646174610000000000000000000000000000000000000000000000000060448201526064015b60405180910390fd5b60005b60058501548110156105e45733600160a060020a03168560050182815481106105a2576105a2614841565b6000918252602090912060046009909202010154600160a060020a0316036105d2576105cf600185614873565b93505b806105dc81614886565b915050610577565b5060008367ffffffffffffffff811115610600576106006143e4565b60405190808252806020026020018201604052801561063957816020015b610626613e66565b81526020019060019003908161061e5790505b50905060005b6005860154811015610a155733600160a060020a031686600501828154811061066a5761066a614841565b6000918252602090912060046009909202010154600160a060020a031603610a03578560050181815481106106a1576106a1614841565b9060005260206000209060090201604051806101200160405290816000820180546106cb9061489f565b80601f01602080910402602001604051908101604052809291908181526020018280546106f79061489f565b80156107445780601f1061071957610100808354040283529160200191610744565b820191906000526020600020905b81548152906001019060200180831161072757829003601f168201915b5050505050815260200160018201805461075d9061489f565b80601f01602080910402602001604051908101604052809291908181526020018280546107899061489f565b80156107d65780601f106107ab576101008083540402835291602001916107d6565b820191906000526020600020905b8154815290600101906020018083116107b957829003601f168201915b505050505081526020016002820180546107ef9061489f565b80601f016020809104026020016040519081016040528092919081815260200182805461081b9061489f565b80156108685780601f1061083d57610100808354040283529160200191610868565b820191906000526020600020905b81548152906001019060200180831161084b57829003601f168201915b505050505081526020016003820180546108819061489f565b80601f01602080910402602001604051908101604052809291908181526020018280546108ad9061489f565b80156108fa5780601f106108cf576101008083540402835291602001916108fa565b820191906000526020600020905b8154815290600101906020018083116108dd57829003601f168201915b50505091835250506004820154600160a060020a03166020820152600582015460408201526006820154606082015260078201805460809092019161093e9061489f565b80601f016020809104026020016040519081016040528092919081815260200182805461096a9061489f565b80156109b75780601f1061098c576101008083540402835291602001916109b7565b820191906000526020600020905b81548152906001019060200180831161099a57829003601f168201915b505050918352505060089190910154600160a060020a031660209091015282518390859081106109e9576109e9614841565b602002602001018190525082806109ff90614886565b9350505b80610a0d81614886565b91505061063f565b509695505050505050565b600160a060020a03811660009081526006602052604090205460609060ff16610a5e5760405160e560020a62461bcd02815260040161056b906148d6565b33600160a060020a03831614610aec57600160a060020a038216600090815260076020908152604080832033845260090190915290205460ff161515600114610aec5760405160e560020a62461bcd02815260206004820152601e60248201527f596f7520617265206e6f7420617574686f72697a656420746f20766965770000604482015260640161056b565b600160a060020a038216600090815260076020908152604080832060050180548251818502810185019093528083529192909190849084015b82821015610e73578382906000526020600020906009020160405180610120016040529081600082018054610b599061489f565b80601f0160208091040260200160405190810160405280929190818152602001828054610b859061489f565b8015610bd25780601f10610ba757610100808354040283529160200191610bd2565b820191906000526020600020905b815481529060010190602001808311610bb557829003601f168201915b50505050508152602001600182018054610beb9061489f565b80601f0160208091040260200160405190810160405280929190818152602001828054610c179061489f565b8015610c645780601f10610c3957610100808354040283529160200191610c64565b820191906000526020600020905b815481529060010190602001808311610c4757829003601f168201915b50505050508152602001600282018054610c7d9061489f565b80601f0160208091040260200160405190810160405280929190818152602001828054610ca99061489f565b8015610cf65780601f10610ccb57610100808354040283529160200191610cf6565b820191906000526020600020905b815481529060010190602001808311610cd957829003601f168201915b50505050508152602001600382018054610d0f9061489f565b80601f0160208091040260200160405190810160405280929190818152602001828054610d3b9061489f565b8015610d885780601f10610d5d57610100808354040283529160200191610d88565b820191906000526020600020905b815481529060010190602001808311610d6b57829003601f168201915b50505091835250506004820154600160a060020a031660208201526005820154604082015260068201546060820152600782018054608090920191610dcc9061489f565b80601f0160208091040260200160405190810160405280929190818152602001828054610df89061489f565b8015610e455780601f10610e1a57610100808354040283529160200191610e45565b820191906000526020600020905b815481529060010190602001808311610e2857829003601f168201915b505050918352505060089190910154600160a060020a03166020918201529082526001929092019101610b25565b50929695505050505050565b6060600060095467ffffffffffffffff811115610e9e57610e9e6143e4565b604051908082528060200260200182016040528015610ed757816020015b610ec4613ec4565b815260200190600190039081610ebc5790505b50905060005b60095481101561161f576005600060028381548110610efe57610efe614841565b6000918252602080832090910154600160a060020a03168352820192909252604090810190912081516101008101909252805482908290610f3e9061489f565b80601f0160208091040260200160405190810160405280929190818152602001828054610f6a9061489f565b8015610fb75780601f10610f8c57610100808354040283529160200191610fb7565b820191906000526020600020905b815481529060010190602001808311610f9a57829003601f168201915b50505050508152602001600182018054610fd09061489f565b80601f0160208091040260200160405190810160405280929190818152602001828054610ffc9061489f565b80156110495780601f1061101e57610100808354040283529160200191611049565b820191906000526020600020905b81548152906001019060200180831161102c57829003601f168201915b505050505081526020016002820160009054906101000a9004600160a060020a0316600160a060020a0316600160a060020a0316815260200160038201548152602001600482015481526020016005820154815260200160068201805480602002602001604051908101604052809291908181526020016000905b8282101561126c57600084815260209081902060408051610100808201835260078702909301805460ff81161515835293909304600160a060020a039081169482019490945260018301549093169083015260028101805460608401919061112b9061489f565b80601f01602080910402602001604051908101604052809291908181526020018280546111579061489f565b80156111a45780601f10611179576101008083540402835291602001916111a4565b820191906000526020600020905b81548152906001019060200180831161118757829003601f168201915b505050505081526020016003820180546111bd9061489f565b80601f01602080910402602001604051908101604052809291908181526020018280546111e99061489f565b80156112365780601f1061120b57610100808354040283529160200191611236565b820191906000526020600020905b81548152906001019060200180831161121957829003601f168201915b505050505081526020016004820154815260200160058201548152602001600682015481525050815260200190600101906110c4565b50505050815260200160078201805480602002602001604051908101604052809291908181526020016000905b828210156115e75783829060005260206000209060090201604051806101200160405290816000820180546112cd9061489f565b80601f01602080910402602001604051908101604052809291908181526020018280546112f99061489f565b80156113465780601f1061131b57610100808354040283529160200191611346565b820191906000526020600020905b81548152906001019060200180831161132957829003601f168201915b5050505050815260200160018201805461135f9061489f565b80601f016020809104026020016040519081016040528092919081815260200182805461138b9061489f565b80156113d85780601f106113ad576101008083540402835291602001916113d8565b820191906000526020600020905b8154815290600101906020018083116113bb57829003601f168201915b505050505081526020016002820180546113f19061489f565b80601f016020809104026020016040519081016040528092919081815260200182805461141d9061489f565b801561146a5780601f1061143f5761010080835404028352916020019161146a565b820191906000526020600020905b81548152906001019060200180831161144d57829003601f168201915b505050505081526020016003820180546114839061489f565b80601f01602080910402602001604051908101604052809291908181526020018280546114af9061489f565b80156114fc5780601f106114d1576101008083540402835291602001916114fc565b820191906000526020600020905b8154815290600101906020018083116114df57829003601f168201915b50505091835250506004820154600160a060020a0316602082015260058201546040820152600682015460608201526007820180546080909201916115409061489f565b80601f016020809104026020016040519081016040528092919081815260200182805461156c9061489f565b80156115b95780601f1061158e576101008083540402835291602001916115b9565b820191906000526020600020905b81548152906001019060200180831161159c57829003601f168201915b505050918352505060089190910154600160a060020a03166020918201529082526001929092019101611299565b505050508152505082828151811061160157611601614841565b6020026020010181905250808061161790614886565b915050610edd565b50919050565b6002818154811061163557600080fd5b600091825260209091200154600160a060020a0316905081565b600160a060020a0381166000908152600560209081526040808320600601805482518185028101850190935280835260609492939192909184015b8282101561183257600084815260209081902060408051610100808201835260078702909301805460ff81161515835293909304600160a060020a03908116948201949094526001830154909316908301526002810180546060840191906116f19061489f565b80601f016020809104026020016040519081016040528092919081815260200182805461171d9061489f565b801561176a5780601f1061173f5761010080835404028352916020019161176a565b820191906000526020600020905b81548152906001019060200180831161174d57829003601f168201915b505050505081526020016003820180546117839061489f565b80601f01602080910402602001604051908101604052809291908181526020018280546117af9061489f565b80156117fc5780601f106117d1576101008083540402835291602001916117fc565b820191906000526020600020905b8154815290600101906020018083116117df57829003601f168201915b5050505050815260200160048201548152602001600582015481526020016006820154815250508152602001906001019061168a565b505050509050919050565b3360009081526004602052604090205460ff16156118a05760405160e560020a62461bcd02815260206004820152601960248201527f596f752061726520616c7265616479206120646f63746f722000000000000000604482015260640161056b565b60028054600181019091557f405787fa12a823e0f2b7631cc41b3ba8828b3321ca811111fa75cd3aa3bb5ace018054600160a060020a0319163390811790915560009081526005602052604090206118f8858261495c565b50336000908152600560205260409020600101611915848261495c565b503360009081526005602052604090206002018054600160a060020a031916600160a060020a03841617905561195381670de0b6b3a7640000614a22565b336000908152600560208181526040808420600381019590955560048086018590559490920183905592909252908120805460ff1916600190811790915560098054919290916119a4908490614873565b909155505050505050565b6119b7613ec4565b600160a060020a038216600090815260056020526040808220815161010081019092528054829082906119e99061489f565b80601f0160208091040260200160405190810160405280929190818152602001828054611a159061489f565b8015611a625780601f10611a3757610100808354040283529160200191611a62565b820191906000526020600020905b815481529060010190602001808311611a4557829003601f168201915b50505050508152602001600182018054611a7b9061489f565b80601f0160208091040260200160405190810160405280929190818152602001828054611aa79061489f565b8015611af45780601f10611ac957610100808354040283529160200191611af4565b820191906000526020600020905b815481529060010190602001808311611ad757829003601f168201915b505050505081526020016002820160009054906101000a9004600160a060020a0316600160a060020a0316600160a060020a0316815260200160038201548152602001600482015481526020016005820154815260200160068201805480602002602001604051908101604052809291908181526020016000905b82821015611d1757600084815260209081902060408051610100808201835260078702909301805460ff81161515835293909304600160a060020a0390811694820194909452600183015490931690830152600281018054606084019190611bd69061489f565b80601f0160208091040260200160405190810160405280929190818152602001828054611c029061489f565b8015611c4f5780601f10611c2457610100808354040283529160200191611c4f565b820191906000526020600020905b815481529060010190602001808311611c3257829003601f168201915b50505050508152602001600382018054611c689061489f565b80601f0160208091040260200160405190810160405280929190818152602001828054611c949061489f565b8015611ce15780601f10611cb657610100808354040283529160200191611ce1565b820191906000526020600020905b815481529060010190602001808311611cc457829003601f168201915b50505050508152602001600482015481526020016005820154815260200160068201548152505081526020019060010190611b6f565b50505050815260200160078201805480602002602001604051908101604052809291908181526020016000905b82821015612092578382906000526020600020906009020160405180610120016040529081600082018054611d789061489f565b80601f0160208091040260200160405190810160405280929190818152602001828054611da49061489f565b8015611df15780601f10611dc657610100808354040283529160200191611df1565b820191906000526020600020905b815481529060010190602001808311611dd457829003601f168201915b50505050508152602001600182018054611e0a9061489f565b80601f0160208091040260200160405190810160405280929190818152602001828054611e369061489f565b8015611e835780601f10611e5857610100808354040283529160200191611e83565b820191906000526020600020905b815481529060010190602001808311611e6657829003601f168201915b50505050508152602001600282018054611e9c9061489f565b80601f0160208091040260200160405190810160405280929190818152602001828054611ec89061489f565b8015611f155780601f10611eea57610100808354040283529160200191611f15565b820191906000526020600020905b815481529060010190602001808311611ef857829003601f168201915b50505050508152602001600382018054611f2e9061489f565b80601f0160208091040260200160405190810160405280929190818152602001828054611f5a9061489f565b8015611fa75780601f10611f7c57610100808354040283529160200191611fa7565b820191906000526020600020905b815481529060010190602001808311611f8a57829003601f168201915b50505091835250506004820154600160a060020a031660208201526005820154604082015260068201546060820152600782018054608090920191611feb9061489f565b80601f01602080910402602001604051908101604052809291908181526020018280546120179061489f565b80156120645780601f1061203957610100808354040283529160200191612064565b820191906000526020600020905b81548152906001019060200180831161204757829003601f168201915b505050918352505060089190910154600160a060020a03166020918201529082526001929092019101611d44565b50505091525090949350505050565b6120a9613e66565b600160a060020a03831660009081526007602052604081206005018054849081106120d6576120d6614841565b9060005260206000209060090201604051806101200160405290816000820180546121009061489f565b80601f016020809104026020016040519081016040528092919081815260200182805461212c9061489f565b80156121795780601f1061214e57610100808354040283529160200191612179565b820191906000526020600020905b81548152906001019060200180831161215c57829003601f168201915b505050505081526020016001820180546121929061489f565b80601f01602080910402602001604051908101604052809291908181526020018280546121be9061489f565b801561220b5780601f106121e05761010080835404028352916020019161220b565b820191906000526020600020905b8154815290600101906020018083116121ee57829003601f168201915b505050505081526020016002820180546122249061489f565b80601f01602080910402602001604051908101604052809291908181526020018280546122509061489f565b801561229d5780601f106122725761010080835404028352916020019161229d565b820191906000526020600020905b81548152906001019060200180831161228057829003601f168201915b505050505081526020016003820180546122b69061489f565b80601f01602080910402602001604051908101604052809291908181526020018280546122e29061489f565b801561232f5780601f106123045761010080835404028352916020019161232f565b820191906000526020600020905b81548152906001019060200180831161231257829003601f168201915b50505091835250506004820154600160a060020a0316602082015260058201546040820152600682015460608201526007820180546080909201916123739061489f565b80601f016020809104026020016040519081016040528092919081815260200182805461239f9061489f565b80156123ec5780601f106123c1576101008083540402835291602001916123ec565b820191906000526020600020905b8154815290600101906020018083116123cf57829003601f168201915b505050918352505060089190910154600160a060020a03166020909101529150505b92915050565b3360009081526006602052604090205460ff16156124775760405160e560020a62461bcd02815260206004820152601a60248201527f596f752061726520616c726561647920612070617469656e7420000000000000604482015260640161056b565b336000908152600660209081526040808320805460ff19166001179055600790915290206124a5868261495c565b50336000818152600760208190526040909120600281018054600160a060020a031916909317909255600482018590556003820186905581018390556001016124ee828261495c565b50600380546001818101835560009283527fc2575a0e9e593c00f959f8c92f12db2869c3395a3b0502d05e2516446f71f85b9091018054600160a060020a031916331790556008805491929091612546908490614873565b90915550505050505050565b33600090815260056020526040902060060180548390811061257657612576614841565b600091825260209091206007909102015460ff1615156001146126045760405160e560020a62461bcd02815260206004820152602760248201527f596f752068617665206e6f7420636f6d706c657465642074686973206170706f60448201527f696e746d656e7400000000000000000000000000000000000000000000000000606482015260840161056b565b33600090815260056020526040902060060180548291908490811061262b5761262b614841565b9060005260206000209060070201600601819055505050565b336000908152600760209081526040808320600160a060020a0385168452600981019092529091205460ff16156126c05760405160e560020a62461bcd02815260206004820152601860248201527f596f75206861766520616c726561647920757064617465640000000000000000604482015260640161056b565b600160a060020a039091166000908152600990910160205260409020805460ff19166001179055565b60408051610100810182526000808252336020808401829052600160a060020a0387168486015290825260079052918220805460608301919061272b9061489f565b80601f01602080910402602001604051908101604052809291908181526020018280546127579061489f565b80156127a45780601f10612779576101008083540402835291602001916127a4565b820191906000526020600020905b81548152906001019060200180831161278757829003601f168201915b505050505081526020016005600086600160a060020a0316600160a060020a0316815260200190815260200160002060000180546127e19061489f565b80601f016020809104026020016040519081016040528092919081815260200182805461280d9061489f565b801561285a5780601f1061282f5761010080835404028352916020019161285a565b820191906000526020600020905b81548152906001019060200180831161283d57829003601f168201915b50505091835250506020808201859052600060408084018290526060938401829052600160a060020a0380891683526005845281832060060180546001818101835591855293859020875160079095020180549588015183166101000274ffffffffffffffffffffffffffffffffffffffff00199515159590951674ffffffffffffffffffffffffffffffffffffffffff199096169590951793909317845590850151918301805492909116600160a060020a03199092169190911790559082015191925082916002820190612930908261495c565b5060808201516003820190612945908261495c565b5060a0820151600482015560c0820151600582015560e0909101516006909101553360009081526007602081815260408084206008018054600180820183559186529483902086519590940290930180549286015174ffffffffffffffffffffffffffffffffffffffffff1990931694151574ffffffffffffffffffffffffffffffffffffffff00191694909417610100600160a060020a03938416021784558401519183018054600160a060020a0319169290911691909117905560608201518291906002820190612a18908261495c565b5060808201516003820190612a2d908261495c565b5060a0820151816004015560c0820151816005015560e082015181600601555050505050565b336000908152600560205260409020600601805483908110612a7757612a77614841565b600091825260209091206007909102015460ff1615612b015760405160e560020a62461bcd02815260206004820152602360248201527f596f75206861766520636f6d706c657465642074686973206170706f696e746d60448201527f656e740000000000000000000000000000000000000000000000000000000000606482015260840161056b565b33600090815260056020526040902060060180546001919084908110612b2957612b29614841565b60009182526020808320600792909202909101805460ff191693151593909317909255338152600590915260409020600601805482919084908110612b7057612b70614841565b9060005260206000209060070201600501819055505050565b600560205260009081526040902080548190612ba49061489f565b80601f0160208091040260200160405190810160405280929190818152602001828054612bd09061489f565b8015612c1d5780601f10612bf257610100808354040283529160200191612c1d565b820191906000526020600020905b815481529060010190602001808311612c0057829003601f168201915b505050505090806001018054612c329061489f565b80601f0160208091040260200160405190810160405280929190818152602001828054612c5e9061489f565b8015612cab5780601f10612c8057610100808354040283529160200191612cab565b820191906000526020600020905b815481529060010190602001808311612c8e57829003601f168201915b505050506002830154600384015460048501546005909501549394600160a060020a039092169390925086565b600160a060020a038116600090815260056020526040812060030154341015612d465760405160e560020a62461bcd02815260206004820152601460248201527f20496e73756666696369656e742066756e647320000000000000000000000000604482015260640161056b565b60008083600160a060020a03163460405160006040518083038185875af1925050503d8060008114612d94576040519150601f19603f3d011682016040523d82523d6000602084013e612d99565b606091505b509095945050505050565b600760205260009081526040902080548190612dbf9061489f565b80601f0160208091040260200160405190810160405280929190818152602001828054612deb9061489f565b8015612e385780601f10612e0d57610100808354040283529160200191612e38565b820191906000526020600020905b815481529060010190602001808311612e1b57829003601f168201915b505050505090806001018054612e4d9061489f565b80601f0160208091040260200160405190810160405280929190818152602001828054612e799061489f565b8015612ec65780601f10612e9b57610100808354040283529160200191612ec6565b820191906000526020600020905b815481529060010190602001808311612ea957829003601f168201915b5050506002840154600385015460048601546006870180549697600160a060020a039094169692955090935090612efc9061489f565b80601f0160208091040260200160405190810160405280929190818152602001828054612f289061489f565b8015612f755780601f10612f4a57610100808354040283529160200191612f75565b820191906000526020600020905b815481529060010190602001808311612f5857829003601f168201915b5050505050908060070154905087565b60018181548110612f9557600080fd5b600091825260209091206007909102018054600182015460028301805460ff84169550610100909304600160a060020a0390811694921692612fd69061489f565b80601f01602080910402602001604051908101604052809291908181526020018280546130029061489f565b801561304f5780601f106130245761010080835404028352916020019161304f565b820191906000526020600020905b81548152906001019060200180831161303257829003601f168201915b5050505050908060030180546130649061489f565b80601f01602080910402602001604051908101604052809291908181526020018280546130909061489f565b80156130dd5780601f106130b2576101008083540402835291602001916130dd565b820191906000526020600020905b8154815290600101906020018083116130c057829003601f168201915b5050505050908060040154908060050154908060060154905088565b600160a060020a0381166000908152600660205260408120546060918291819083908290829060ff166131415760405160e560020a62461bcd02815260040161056b906148d6565b6000600760008a600160a060020a0316600160a060020a031681526020019081526020016000209050806000018160010182600401548360030154846006018560070154866005018680546131959061489f565b80601f01602080910402602001604051908101604052809291908181526020018280546131c19061489f565b801561320e5780601f106131e35761010080835404028352916020019161320e565b820191906000526020600020905b8154815290600101906020018083116131f157829003601f168201915b505050505096508580546132219061489f565b80601f016020809104026020016040519081016040528092919081815260200182805461324d9061489f565b801561329a5780601f1061326f5761010080835404028352916020019161329a565b820191906000526020600020905b81548152906001019060200180831161327d57829003601f168201915b505050505095508280546132ad9061489f565b80601f01602080910402602001604051908101604052809291908181526020018280546132d99061489f565b80156133265780601f106132fb57610100808354040283529160200191613326565b820191906000526020600020905b81548152906001019060200180831161330957829003601f168201915b5050505050925080805480602002602001604051908101604052809291908181526020016000905b8282101561369c5783829060005260206000209060090201604051806101200160405290816000820180546133829061489f565b80601f01602080910402602001604051908101604052809291908181526020018280546133ae9061489f565b80156133fb5780601f106133d0576101008083540402835291602001916133fb565b820191906000526020600020905b8154815290600101906020018083116133de57829003601f168201915b505050505081526020016001820180546134149061489f565b80601f01602080910402602001604051908101604052809291908181526020018280546134409061489f565b801561348d5780601f106134625761010080835404028352916020019161348d565b820191906000526020600020905b81548152906001019060200180831161347057829003601f168201915b505050505081526020016002820180546134a69061489f565b80601f01602080910402602001604051908101604052809291908181526020018280546134d29061489f565b801561351f5780601f106134f45761010080835404028352916020019161351f565b820191906000526020600020905b81548152906001019060200180831161350257829003601f168201915b505050505081526020016003820180546135389061489f565b80601f01602080910402602001604051908101604052809291908181526020018280546135649061489f565b80156135b15780601f10613586576101008083540402835291602001916135b1565b820191906000526020600020905b81548152906001019060200180831161359457829003601f168201915b50505091835250506004820154600160a060020a0316602082015260058201546040820152600682015460608201526007820180546080909201916135f59061489f565b80601f01602080910402602001604051908101604052809291908181526020018280546136219061489f565b801561366e5780601f106136435761010080835404028352916020019161366e565b820191906000526020600020905b81548152906001019060200180831161365157829003601f168201915b505050918352505060089190910154600160a060020a0316602091820152908252600192909201910161334e565b505050509050975097509750975097509750975050919395979092949650565b600160a060020a0381166000908152600760209081526040808320600801805482518185028101850190935280835260609492939192909184015b8282101561183257600084815260209081902060408051610100808201835260078702909301805460ff81161515835293909304600160a060020a039081169482019490945260018301549093169083015260028101805460608401919061375e9061489f565b80601f016020809104026020016040519081016040528092919081815260200182805461378a9061489f565b80156137d75780601f106137ac576101008083540402835291602001916137d7565b820191906000526020600020905b8154815290600101906020018083116137ba57829003601f168201915b505050505081526020016003820180546137f09061489f565b80601f016020809104026020016040519081016040528092919081815260200182805461381c9061489f565b80156138695780601f1061383e57610100808354040283529160200191613869565b820191906000526020600020905b81548152906001019060200180831161384c57829003601f168201915b505050505081526020016004820154815260200160058201548152602001600682015481525050815260200190600101906136f7565b600160a060020a03811660009081526006602052604090205460ff166138da5760405160e560020a62461bcd02815260040161056b906148d6565b3360009081526004602052604090205460ff1661393c5760405160e560020a62461bcd02815260206004820152601460248201527f596f7520617265206e6f74206120446f63746f72000000000000000000000000604482015260640161056b565b600160a060020a03808216600090815260076020908152604080832081516101208101835294871684526005928390529220805491909201929182916139819061489f565b80601f01602080910402602001604051908101604052809291908181526020018280546139ad9061489f565b80156139fa5780601f106139cf576101008083540402835291602001916139fa565b820191906000526020600020905b8154815290600101906020018083116139dd57829003601f168201915b5050505050815260200187815260200186815260200185815260200184600160a060020a031681526020014281526020013481526020016007600085600160a060020a0316600160a060020a031681526020019081526020016000206000018054613a649061489f565b80601f0160208091040260200160405190810160405280929190818152602001828054613a909061489f565b8015613add5780601f10613ab257610100808354040283529160200191613add565b820191906000526020600020905b815481529060010190602001808311613ac057829003601f168201915b5050509183525050600160a060020a0384166020918201528254600181018455600093845292208151919260090201908190613b19908261495c565b5060208201516001820190613b2e908261495c565b5060408201516002820190613b43908261495c565b5060608201516003820190613b58908261495c565b506080820151600482018054600160a060020a031916600160a060020a0390921691909117905560a0820151600582015560c0820151600682015560e08201516007820190613ba7908261495c565b50610100919091015160089091018054600160a060020a031916600160a060020a039283161790558216600090815260056020526040908190208151610120810190925280546007820192918291613bfe9061489f565b80601f0160208091040260200160405190810160405280929190818152602001828054613c2a9061489f565b8015613c775780601f10613c4c57610100808354040283529160200191613c77565b820191906000526020600020905b815481529060010190602001808311613c5a57829003601f168201915b5050505050815260200187815260200186815260200185815260200184600160a060020a031681526020014281526020013481526020016007600085600160a060020a0316600160a060020a031681526020019081526020016000206000018054613ce19061489f565b80601f0160208091040260200160405190810160405280929190818152602001828054613d0d9061489f565b8015613d5a5780601f10613d2f57610100808354040283529160200191613d5a565b820191906000526020600020905b815481529060010190602001808311613d3d57829003601f168201915b5050509183525050600160a060020a0384166020918201528254600181018455600093845292208151919260090201908190613d96908261495c565b5060208201516001820190613dab908261495c565b5060408201516002820190613dc0908261495c565b5060608201516003820190613dd5908261495c565b506080820151600482018054600160a060020a031916600160a060020a0390921691909117905560a0820151600582015560c0820151600682015560e08201516007820190613e24908261495c565b50610100919091015160089091018054600160a060020a031916600160a060020a039092169190911790555050505050565b6003818154811061163557600080fd5b604051806101200160405280606081526020016060815260200160608152602001606081526020016000600160a060020a031681526020016000815260200160008152602001606081526020016000600160a060020a031681525090565b60405180610100016040528060608152602001606081526020016000600160a060020a0316815260200160008152602001600081526020016000815260200160608152602001606081525090565b600160a060020a0381168114613f2757600080fd5b50565b600060208284031215613f3c57600080fd5b8135613f4781613f12565b9392505050565b6000815180845260005b81811015613f7457602081850181015186830182015201613f58565b506000602082860101526020601f19601f83011685010191505092915050565b60006101208251818552613faa82860182613f4e565b91505060208301518482036020860152613fc48282613f4e565b91505060408301518482036040860152613fde8282613f4e565b91505060608301518482036060860152613ff88282613f4e565b91505060808301516140156080860182600160a060020a03169052565b5060a083015160a085015260c083015160c085015260e083015184820360e08601526140418282613f4e565b9150506101008084015161405f82870182600160a060020a03169052565b5090949350505050565b6000828251808552602080860195508081830284010181860160005b848110156140b357601f198684030189526140a1838351613f94565b98840198925090830190600101614085565b5090979650505050505050565b602081526000613f476020830184614069565b6000828251808552602080860195508081830284010181860160005b848110156140b357858303601f19018952815180511515845284810151600160a060020a038116868601526101009050604082810151600160a060020a038116878301525050606080830151828288015261414c83880182613f4e565b92505050608080830151868303828801526141678382613f4e565b60a0858101519089015260c0808601519089015260e094850151949097019390935250505097830197908301906001016140ef565b600081518084526020808501808196508284028101915082860160005b858110156141e35782840389526141d1848351613f94565b988501989350908401906001016141b9565b5091979650505050505050565b6000610100825181855261420682860182613f4e565b915050602083015184820360208601526142208282613f4e565b915050604083015161423d6040860182600160a060020a03169052565b50606083015160608501526080830151608085015260a083015160a085015260c083015184820360c086015261427382826140d3565b91505060e083015184820360e086015261428d828261419c565b95945050505050565b600060208083018184528085518083526040860191506040848202870101925083870160005b828110156142ea57603f198886030184526142d88583516141f0565b945092850192908501906001016142bc565b5092979650505050505050565b60006020828403121561430957600080fd5b5035919050565b60208082528251828201819052600091906040908185019080840286018301878501865b838110156143d657603f19898403018552815180511515845287810151600160a060020a0390811689860152878201511687850152606080820151610100828701819052919061438683880182613f4e565b92505050608080830151868303828801526143a18382613f4e565b60a0858101519089015260c0808601519089015260e09485015194909701939093525050509386019390860190600101614334565b509098975050505050505050565b60e060020a634e487b7102600052604160045260246000fd5b600082601f83011261440e57600080fd5b813567ffffffffffffffff80821115614429576144296143e4565b604051601f8301601f19908116603f01168101908282118183101715614451576144516143e4565b8160405283815286602085880101111561446a57600080fd5b836020870160208301376000602085830101528094505050505092915050565b600080600080608085870312156144a057600080fd5b843567ffffffffffffffff808211156144b857600080fd5b6144c4888389016143fd565b955060208701359150808211156144da57600080fd5b506144e7878288016143fd565b93505060408501356144f881613f12565b9396929550929360600135925050565b602081526000613f4760208301846141f0565b6000806040838503121561452e57600080fd5b823561453981613f12565b946020939093013593505050565b602081526000613f476020830184613f94565b600080600080600060a0868803121561457257600080fd5b853567ffffffffffffffff8082111561458a57600080fd5b61459689838a016143fd565b965060208801359550604088013594506060880135935060808801359150808211156145c157600080fd5b506145ce888289016143fd565b9150509295509295909350565b600080604083850312156145ee57600080fd5b50508035926020909101359150565b60c08152600061461060c0830189613f4e565b82810360208401526146228189613f4e565b915050600160a060020a03861660408301528460608301528360808301528260a0830152979650505050505050565b60e08152600061466460e083018a613f4e565b8281036020840152614676818a613f4e565b9050600160a060020a038816604084015286606084015285608084015282810360a08401526146a58186613f4e565b9150508260c083015298975050505050505050565b60006101008a15158352600160a060020a03808b166020850152808a166040850152508060608401526146ef81840189613f4e565b905082810360808401526147038188613f4e565b60a0840196909652505060c081019290925260e09091015295945050505050565b60e08152600061473760e083018a613f4e565b8281036020840152614749818a613f4e565b905087604084015286606084015282810360808401526147698187613f4e565b90508460a084015282810360c08401526147838185614069565b9a9950505050505050505050565b600080600080600060a086880312156147a957600080fd5b853567ffffffffffffffff808211156147c157600080fd5b6147cd89838a016143fd565b965060208801359150808211156147e357600080fd5b6147ef89838a016143fd565b9550604088013591508082111561480557600080fd5b50614812888289016143fd565b935050606086013561482381613f12565b9150608086013561483381613f12565b809150509295509295909350565b60e060020a634e487b7102600052603260045260246000fd5b60e060020a634e487b7102600052601160045260246000fd5b8082018082111561240e5761240e61485a565b6000600182016148985761489861485a565b5060010190565b6002810460018216806148b357607f821691505b60208210810361161f5760e060020a634e487b7102600052602260045260246000fd5b60208082526015908201527f596f7520617265206e6f7420612070617469656e740000000000000000000000604082015260600190565b601f821115614957576000818152602081206020601f860104810160208610156149345750805b6020601f860104820191505b8181101561495357828155600101614940565b5050505b505050565b815167ffffffffffffffff811115614976576149766143e4565b61498a81614984845461489f565b8461490d565b602080601f8311600181146149c357600084156149a75750858301515b60028086026008870290910a6000190419821617865550614953565b600085815260208120601f198616915b828110156149f2578886015182559484019460019091019084016149d3565b5085821015614a1257878501516008601f88160260020a60001904191681555b5050505050600202600101905550565b808202811582820484141761240e5761240e61485a56fea264697066735822122066a5f9dc0a104ea038511acb95e7662900ab09fc5c2cc67088b882c9cdc7d8bb64736f6c63430008120033",
  "immutableReferences": {},
  "source": "// SPDX-License-Identifier: GPL-3.0\r\npragma solidity >=0.7.0 <0.9.0;\r\n\r\nimport \"./Medical_2.sol\";\r\n\r\ncontract HealthManagement is HealthManagement2 {\r\n\r\n    constructor(){\r\n        patientCount = 0;\r\n        doctorCount = 0;\r\n        appointmentCount = 0;\r\n        owner_ = msg.sender;\r\n    }\r\n    \r\n   function addDoctor(\r\n        string memory name,\r\n        string memory email,\r\n        address payable address_,\r\n        uint256 basefee\r\n        ) public  {\r\n\r\n        require(isDoctor[msg.sender] == false,\"You are already a doctor \");\r\n        \r\n        alldoctors.push(msg.sender);\r\n        allDoctors[msg.sender].name = name;\r\n        allDoctors[msg.sender].email = email;\r\n        allDoctors[msg.sender].address_ = address_;\r\n        allDoctors[msg.sender].basefee = basefee*(1 ether);\r\n        allDoctors[msg.sender].starCount = 0;\r\n        allDoctors[msg.sender].totalPatients = 0;\r\n        isDoctor[msg.sender] = true;\r\n        // allDoctors[msg.sender].records_ = Record [](0);\r\n        doctorCount += 1;\r\n        \r\n   }\r\n\r\n   function payFees(address to)public payable returns (bool sentt) {\r\n       require(msg.value >= allDoctors[to].basefee , \" Insufficient funds \");\r\n       (bool sent, bytes memory data) = (address(payable(to))).call{value: msg.value}(\"\");\r\n        return sent;\r\n        // require(sent, \"Failed to send Ether\");\r\n   }\r\n\r\n   function takeAppointment(address docAddr,uint256 slot) public {\r\n\r\n        Appointment memory a = Appointment(false, payable(msg.sender),payable(docAddr),allPatients[msg.sender].name , allDoctors[docAddr].name , slot,0,0);\r\n        allDoctors[docAddr].appointments_.push(a);\r\n        allPatients[msg.sender].myAppointments.push(a);\r\n        // add to patients appointments too \r\n   }\r\n\r\n    function startAppointment(uint256 index,uint256 start) public {\r\n        require(allDoctors[msg.sender].appointments_[index].status == false,\"You have completed this appointment\");\r\n        allDoctors[msg.sender].appointments_[index].status = true;\r\n        allDoctors[msg.sender].appointments_[index].timeStart = start;\r\n    }\r\n\r\n    function endAppointment(uint256 index,uint256 end) public{\r\n       require(allDoctors[msg.sender].appointments_[index].status == true,\"You have not completed this appointment\");\r\n        allDoctors[msg.sender].appointments_[index].timeEnd = end;\r\n    }\r\n    \r\n    function getAllDoctor() public view returns(Doctor [] memory alldocs ) {\r\n        Doctor [] memory docs = new Doctor[](doctorCount);\r\n        for(uint i = 0; i < doctorCount ; i++)docs[i] = allDoctors[ alldoctors[i] ];\r\n        return docs;\r\n    }\r\n\r\n    function getOneDoctor(address addr) public view returns (Doctor memory doc){\r\n        Doctor memory d = allDoctors[addr];\r\n        return d;\r\n    }\r\n\r\n}",
  "sourcePath": "G:\\coding\\Projects\\pro-10-bc\\front-2\\truffle\\contracts\\Medical.sol",
  "compiler": {
    "name": "solc",
    "version": "0.8.18+commit.87f61d96.Emscripten.clang"
  },
  "schemaVersion": "3.4.12",
  "updatedAt": "2023-04-29T11:12:30.585Z",
  "networkType": "ethereum",
  "devdoc": {
    "kind": "dev",
    "methods": {},
    "version": 1
  },
  "userdoc": {
    "kind": "user",
    "methods": {},
    "version": 1
  }
}