{
  "contractName": "HealthManagement",
  "abi": [
    {
      "inputs": [],
      "stateMutability": "nonpayable",
      "type": "constructor"
    },
    {
      "inputs": [
        {
          "internalType": "string",
          "name": "name",
          "type": "string"
        },
        {
          "internalType": "uint256",
          "name": "phone",
          "type": "uint256"
        },
        {
          "internalType": "uint256",
          "name": "age",
          "type": "uint256"
        },
        {
          "internalType": "uint256",
          "name": "dob",
          "type": "uint256"
        },
        {
          "internalType": "string",
          "name": "email",
          "type": "string"
        }
      ],
      "name": "addPatient",
      "outputs": [],
      "stateMutability": "nonpayable",
      "type": "function"
    },
    {
      "inputs": [
        {
          "internalType": "string",
          "name": "currentfiles",
          "type": "string"
        },
        {
          "internalType": "string",
          "name": "presciptions",
          "type": "string"
        },
        {
          "internalType": "address",
          "name": "doctor_",
          "type": "address"
        },
        {
          "internalType": "string",
          "name": "docname",
          "type": "string"
        },
        {
          "internalType": "string",
          "name": "patientName",
          "type": "string"
        },
        {
          "internalType": "address",
          "name": "patientaddr",
          "type": "address"
        }
      ],
      "name": "addPatientRecord",
      "outputs": [],
      "stateMutability": "payable",
      "type": "function",
      "payable": true
    },
    {
      "inputs": [
        {
          "internalType": "uint256",
          "name": "",
          "type": "uint256"
        }
      ],
      "name": "allAppointments",
      "outputs": [
        {
          "internalType": "bool",
          "name": "status",
          "type": "bool"
        },
        {
          "internalType": "address payable",
          "name": "patient_",
          "type": "address"
        },
        {
          "internalType": "address payable",
          "name": "doctor_",
          "type": "address"
        },
        {
          "internalType": "string",
          "name": "patientName",
          "type": "string"
        },
        {
          "internalType": "string",
          "name": "docname",
          "type": "string"
        },
        {
          "internalType": "uint256",
          "name": "timeslot_",
          "type": "uint256"
        },
        {
          "internalType": "uint256",
          "name": "timeStart",
          "type": "uint256"
        },
        {
          "internalType": "uint256",
          "name": "timeEnd",
          "type": "uint256"
        }
      ],
      "stateMutability": "view",
      "type": "function",
      "constant": true
    },
    {
      "inputs": [
        {
          "internalType": "address",
          "name": "",
          "type": "address"
        }
      ],
      "name": "allDoctors",
      "outputs": [
        {
          "internalType": "string",
          "name": "name",
          "type": "string"
        },
        {
          "internalType": "string",
          "name": "email",
          "type": "string"
        },
        {
          "internalType": "address payable",
          "name": "address_",
          "type": "address"
        },
        {
          "internalType": "uint256",
          "name": "basefee",
          "type": "uint256"
        },
        {
          "internalType": "uint256",
          "name": "starCount",
          "type": "uint256"
        },
        {
          "internalType": "uint256",
          "name": "totalPatients",
          "type": "uint256"
        }
      ],
      "stateMutability": "view",
      "type": "function",
      "constant": true
    },
    {
      "inputs": [
        {
          "internalType": "address",
          "name": "",
          "type": "address"
        }
      ],
      "name": "allPatients",
      "outputs": [
        {
          "internalType": "string",
          "name": "name",
          "type": "string"
        },
        {
          "internalType": "string",
          "name": "email",
          "type": "string"
        },
        {
          "internalType": "address payable",
          "name": "address_",
          "type": "address"
        },
        {
          "internalType": "uint256",
          "name": "phone",
          "type": "uint256"
        },
        {
          "internalType": "uint256",
          "name": "age",
          "type": "uint256"
        },
        {
          "internalType": "string",
          "name": "bloodgroup",
          "type": "string"
        },
        {
          "internalType": "uint256",
          "name": "dob",
          "type": "uint256"
        }
      ],
      "stateMutability": "view",
      "type": "function",
      "constant": true
    },
    {
      "inputs": [
        {
          "internalType": "uint256",
          "name": "",
          "type": "uint256"
        }
      ],
      "name": "allPatientsList",
      "outputs": [
        {
          "internalType": "address",
          "name": "",
          "type": "address"
        }
      ],
      "stateMutability": "view",
      "type": "function",
      "constant": true
    },
    {
      "inputs": [
        {
          "internalType": "uint256",
          "name": "",
          "type": "uint256"
        }
      ],
      "name": "alldoctors",
      "outputs": [
        {
          "internalType": "address",
          "name": "",
          "type": "address"
        }
      ],
      "stateMutability": "view",
      "type": "function",
      "constant": true
    },
    {
      "inputs": [
        {
          "internalType": "address",
          "name": "docAdd",
          "type": "address"
        }
      ],
      "name": "getDoctorAppointment",
      "outputs": [
        {
          "components": [
            {
              "internalType": "bool",
              "name": "status",
              "type": "bool"
            },
            {
              "internalType": "address payable",
              "name": "patient_",
              "type": "address"
            },
            {
              "internalType": "address payable",
              "name": "doctor_",
              "type": "address"
            },
            {
              "internalType": "string",
              "name": "patientName",
              "type": "string"
            },
            {
              "internalType": "string",
              "name": "docname",
              "type": "string"
            },
            {
              "internalType": "uint256",
              "name": "timeslot_",
              "type": "uint256"
            },
            {
              "internalType": "uint256",
              "name": "timeStart",
              "type": "uint256"
            },
            {
              "internalType": "uint256",
              "name": "timeEnd",
              "type": "uint256"
            }
          ],
          "internalType": "struct HealthManagement2.Appointment[]",
          "name": "app",
          "type": "tuple[]"
        }
      ],
      "stateMutability": "view",
      "type": "function",
      "constant": true
    },
    {
      "inputs": [
        {
          "internalType": "address",
          "name": "addr",
          "type": "address"
        },
        {
          "internalType": "uint256",
          "name": "index",
          "type": "uint256"
        }
      ],
      "name": "getOneRecord",
      "outputs": [
        {
          "components": [
            {
              "internalType": "string",
              "name": "docname",
              "type": "string"
            },
            {
              "internalType": "string",
              "name": "fileHashes",
              "type": "string"
            },
            {
              "internalType": "string",
              "name": "presciptions",
              "type": "string"
            },
            {
              "internalType": "address payable",
              "name": "doctor_",
              "type": "address"
            },
            {
              "internalType": "uint256",
              "name": "timeStamp",
              "type": "uint256"
            },
            {
              "internalType": "uint256",
              "name": "amount",
              "type": "uint256"
            },
            {
              "internalType": "string",
              "name": "patientName",
              "type": "string"
            },
            {
              "internalType": "address payable",
              "name": "patientaddr",
              "type": "address"
            }
          ],
          "internalType": "struct HealthManagement2.Record",
          "name": "rec",
          "type": "tuple"
        }
      ],
      "stateMutability": "view",
      "type": "function",
      "constant": true
    },
    {
      "inputs": [
        {
          "internalType": "address",
          "name": "patAdd",
          "type": "address"
        }
      ],
      "name": "getPatientAppointment",
      "outputs": [
        {
          "components": [
            {
              "internalType": "bool",
              "name": "status",
              "type": "bool"
            },
            {
              "internalType": "address payable",
              "name": "patient_",
              "type": "address"
            },
            {
              "internalType": "address payable",
              "name": "doctor_",
              "type": "address"
            },
            {
              "internalType": "string",
              "name": "patientName",
              "type": "string"
            },
            {
              "internalType": "string",
              "name": "docname",
              "type": "string"
            },
            {
              "internalType": "uint256",
              "name": "timeslot_",
              "type": "uint256"
            },
            {
              "internalType": "uint256",
              "name": "timeStart",
              "type": "uint256"
            },
            {
              "internalType": "uint256",
              "name": "timeEnd",
              "type": "uint256"
            }
          ],
          "internalType": "struct HealthManagement2.Appointment[]",
          "name": "app",
          "type": "tuple[]"
        }
      ],
      "stateMutability": "view",
      "type": "function",
      "constant": true
    },
    {
      "inputs": [
        {
          "internalType": "address",
          "name": "addr",
          "type": "address"
        }
      ],
      "name": "getPatientDetails",
      "outputs": [
        {
          "internalType": "string",
          "name": "name",
          "type": "string"
        },
        {
          "internalType": "string",
          "name": "email",
          "type": "string"
        },
        {
          "internalType": "uint256",
          "name": "age",
          "type": "uint256"
        },
        {
          "internalType": "uint256",
          "name": "phone",
          "type": "uint256"
        },
        {
          "internalType": "string",
          "name": "bloodgroup",
          "type": "string"
        },
        {
          "internalType": "uint256",
          "name": "dob",
          "type": "uint256"
        },
        {
          "components": [
            {
              "internalType": "string",
              "name": "docname",
              "type": "string"
            },
            {
              "internalType": "string",
              "name": "fileHashes",
              "type": "string"
            },
            {
              "internalType": "string",
              "name": "presciptions",
              "type": "string"
            },
            {
              "internalType": "address payable",
              "name": "doctor_",
              "type": "address"
            },
            {
              "internalType": "uint256",
              "name": "timeStamp",
              "type": "uint256"
            },
            {
              "internalType": "uint256",
              "name": "amount",
              "type": "uint256"
            },
            {
              "internalType": "string",
              "name": "patientName",
              "type": "string"
            },
            {
              "internalType": "address payable",
              "name": "patientaddr",
              "type": "address"
            }
          ],
          "internalType": "struct HealthManagement2.Record[]",
          "name": "recordss",
          "type": "tuple[]"
        }
      ],
      "stateMutability": "view",
      "type": "function",
      "constant": true
    },
    {
      "inputs": [
        {
          "internalType": "address",
          "name": "addr",
          "type": "address"
        }
      ],
      "name": "getPatientRecords",
      "outputs": [
        {
          "components": [
            {
              "internalType": "string",
              "name": "docname",
              "type": "string"
            },
            {
              "internalType": "string",
              "name": "fileHashes",
              "type": "string"
            },
            {
              "internalType": "string",
              "name": "presciptions",
              "type": "string"
            },
            {
              "internalType": "address payable",
              "name": "doctor_",
              "type": "address"
            },
            {
              "internalType": "uint256",
              "name": "timeStamp",
              "type": "uint256"
            },
            {
              "internalType": "uint256",
              "name": "amount",
              "type": "uint256"
            },
            {
              "internalType": "string",
              "name": "patientName",
              "type": "string"
            },
            {
              "internalType": "address payable",
              "name": "patientaddr",
              "type": "address"
            }
          ],
          "internalType": "struct HealthManagement2.Record[]",
          "name": "records",
          "type": "tuple[]"
        }
      ],
      "stateMutability": "view",
      "type": "function",
      "constant": true
    },
    {
      "inputs": [
        {
          "internalType": "address",
          "name": "p",
          "type": "address"
        }
      ],
      "name": "getRecordOfOnePatient",
      "outputs": [
        {
          "components": [
            {
              "internalType": "string",
              "name": "docname",
              "type": "string"
            },
            {
              "internalType": "string",
              "name": "fileHashes",
              "type": "string"
            },
            {
              "internalType": "string",
              "name": "presciptions",
              "type": "string"
            },
            {
              "internalType": "address payable",
              "name": "doctor_",
              "type": "address"
            },
            {
              "internalType": "uint256",
              "name": "timeStamp",
              "type": "uint256"
            },
            {
              "internalType": "uint256",
              "name": "amount",
              "type": "uint256"
            },
            {
              "internalType": "string",
              "name": "patientName",
              "type": "string"
            },
            {
              "internalType": "address payable",
              "name": "patientaddr",
              "type": "address"
            }
          ],
          "internalType": "struct HealthManagement2.Record[]",
          "name": "doctorRecord",
          "type": "tuple[]"
        }
      ],
      "stateMutability": "view",
      "type": "function",
      "constant": true
    },
    {
      "inputs": [
        {
          "internalType": "address",
          "name": "",
          "type": "address"
        }
      ],
      "name": "isDoctor",
      "outputs": [
        {
          "internalType": "bool",
          "name": "",
          "type": "bool"
        }
      ],
      "stateMutability": "view",
      "type": "function",
      "constant": true
    },
    {
      "inputs": [
        {
          "internalType": "address",
          "name": "",
          "type": "address"
        }
      ],
      "name": "isPatient",
      "outputs": [
        {
          "internalType": "bool",
          "name": "",
          "type": "bool"
        }
      ],
      "stateMutability": "view",
      "type": "function",
      "constant": true
    },
    {
      "inputs": [
        {
          "internalType": "string",
          "name": "name",
          "type": "string"
        },
        {
          "internalType": "string",
          "name": "email",
          "type": "string"
        },
        {
          "internalType": "address payable",
          "name": "address_",
          "type": "address"
        },
        {
          "internalType": "uint256",
          "name": "basefee",
          "type": "uint256"
        }
      ],
      "name": "addDoctor",
      "outputs": [],
      "stateMutability": "nonpayable",
      "type": "function"
    },
    {
      "inputs": [
        {
          "internalType": "address",
          "name": "to",
          "type": "address"
        }
      ],
      "name": "payFees",
      "outputs": [
        {
          "internalType": "bool",
          "name": "sentt",
          "type": "bool"
        }
      ],
      "stateMutability": "payable",
      "type": "function",
      "payable": true
    },
    {
      "inputs": [
        {
          "internalType": "address",
          "name": "docAddr",
          "type": "address"
        },
        {
          "internalType": "uint256",
          "name": "slot",
          "type": "uint256"
        }
      ],
      "name": "takeAppointment",
      "outputs": [],
      "stateMutability": "nonpayable",
      "type": "function"
    },
    {
      "inputs": [
        {
          "internalType": "uint256",
          "name": "index",
          "type": "uint256"
        },
        {
          "internalType": "uint256",
          "name": "start",
          "type": "uint256"
        }
      ],
      "name": "startAppointment",
      "outputs": [],
      "stateMutability": "nonpayable",
      "type": "function"
    },
    {
      "inputs": [
        {
          "internalType": "uint256",
          "name": "index",
          "type": "uint256"
        },
        {
          "internalType": "uint256",
          "name": "end",
          "type": "uint256"
        }
      ],
      "name": "endAppointment",
      "outputs": [],
      "stateMutability": "nonpayable",
      "type": "function"
    },
    {
      "inputs": [],
      "name": "getAllDoctor",
      "outputs": [
        {
          "components": [
            {
              "internalType": "string",
              "name": "name",
              "type": "string"
            },
            {
              "internalType": "string",
              "name": "email",
              "type": "string"
            },
            {
              "internalType": "address payable",
              "name": "address_",
              "type": "address"
            },
            {
              "internalType": "uint256",
              "name": "basefee",
              "type": "uint256"
            },
            {
              "internalType": "uint256",
              "name": "starCount",
              "type": "uint256"
            },
            {
              "internalType": "uint256",
              "name": "totalPatients",
              "type": "uint256"
            },
            {
              "components": [
                {
                  "internalType": "bool",
                  "name": "status",
                  "type": "bool"
                },
                {
                  "internalType": "address payable",
                  "name": "patient_",
                  "type": "address"
                },
                {
                  "internalType": "address payable",
                  "name": "doctor_",
                  "type": "address"
                },
                {
                  "internalType": "string",
                  "name": "patientName",
                  "type": "string"
                },
                {
                  "internalType": "string",
                  "name": "docname",
                  "type": "string"
                },
                {
                  "internalType": "uint256",
                  "name": "timeslot_",
                  "type": "uint256"
                },
                {
                  "internalType": "uint256",
                  "name": "timeStart",
                  "type": "uint256"
                },
                {
                  "internalType": "uint256",
                  "name": "timeEnd",
                  "type": "uint256"
                }
              ],
              "internalType": "struct HealthManagement2.Appointment[]",
              "name": "appointments_",
              "type": "tuple[]"
            },
            {
              "components": [
                {
                  "internalType": "string",
                  "name": "docname",
                  "type": "string"
                },
                {
                  "internalType": "string",
                  "name": "fileHashes",
                  "type": "string"
                },
                {
                  "internalType": "string",
                  "name": "presciptions",
                  "type": "string"
                },
                {
                  "internalType": "address payable",
                  "name": "doctor_",
                  "type": "address"
                },
                {
                  "internalType": "uint256",
                  "name": "timeStamp",
                  "type": "uint256"
                },
                {
                  "internalType": "uint256",
                  "name": "amount",
                  "type": "uint256"
                },
                {
                  "internalType": "string",
                  "name": "patientName",
                  "type": "string"
                },
                {
                  "internalType": "address payable",
                  "name": "patientaddr",
                  "type": "address"
                }
              ],
              "internalType": "struct HealthManagement2.Record[]",
              "name": "records_",
              "type": "tuple[]"
            }
          ],
          "internalType": "struct HealthManagement2.Doctor[]",
          "name": "alldocs",
          "type": "tuple[]"
        }
      ],
      "stateMutability": "view",
      "type": "function",
      "constant": true
    },
    {
      "inputs": [
        {
          "internalType": "address",
          "name": "addr",
          "type": "address"
        }
      ],
      "name": "getOneDoctor",
      "outputs": [
        {
          "components": [
            {
              "internalType": "string",
              "name": "name",
              "type": "string"
            },
            {
              "internalType": "string",
              "name": "email",
              "type": "string"
            },
            {
              "internalType": "address payable",
              "name": "address_",
              "type": "address"
            },
            {
              "internalType": "uint256",
              "name": "basefee",
              "type": "uint256"
            },
            {
              "internalType": "uint256",
              "name": "starCount",
              "type": "uint256"
            },
            {
              "internalType": "uint256",
              "name": "totalPatients",
              "type": "uint256"
            },
            {
              "components": [
                {
                  "internalType": "bool",
                  "name": "status",
                  "type": "bool"
                },
                {
                  "internalType": "address payable",
                  "name": "patient_",
                  "type": "address"
                },
                {
                  "internalType": "address payable",
                  "name": "doctor_",
                  "type": "address"
                },
                {
                  "internalType": "string",
                  "name": "patientName",
                  "type": "string"
                },
                {
                  "internalType": "string",
                  "name": "docname",
                  "type": "string"
                },
                {
                  "internalType": "uint256",
                  "name": "timeslot_",
                  "type": "uint256"
                },
                {
                  "internalType": "uint256",
                  "name": "timeStart",
                  "type": "uint256"
                },
                {
                  "internalType": "uint256",
                  "name": "timeEnd",
                  "type": "uint256"
                }
              ],
              "internalType": "struct HealthManagement2.Appointment[]",
              "name": "appointments_",
              "type": "tuple[]"
            },
            {
              "components": [
                {
                  "internalType": "string",
                  "name": "docname",
                  "type": "string"
                },
                {
                  "internalType": "string",
                  "name": "fileHashes",
                  "type": "string"
                },
                {
                  "internalType": "string",
                  "name": "presciptions",
                  "type": "string"
                },
                {
                  "internalType": "address payable",
                  "name": "doctor_",
                  "type": "address"
                },
                {
                  "internalType": "uint256",
                  "name": "timeStamp",
                  "type": "uint256"
                },
                {
                  "internalType": "uint256",
                  "name": "amount",
                  "type": "uint256"
                },
                {
                  "internalType": "string",
                  "name": "patientName",
                  "type": "string"
                },
                {
                  "internalType": "address payable",
                  "name": "patientaddr",
                  "type": "address"
                }
              ],
              "internalType": "struct HealthManagement2.Record[]",
              "name": "records_",
              "type": "tuple[]"
            }
          ],
          "internalType": "struct HealthManagement2.Doctor",
          "name": "doc",
          "type": "tuple"
        }
      ],
      "stateMutability": "view",
      "type": "function",
      "constant": true
    }
  ],
  "bytecode": "0x608060405234801561001057600080fd5b50600060088190556009819055600a8190558054600160a060020a03191633179055614b78806100416000396000f3fe608060405260043610610152576000357c01000000000000000000000000000000000000000000000000000000009004806393699ad0116100c8578063b8f9197b1161008c578063b8f9197b146103e5578063cd25d7be146103f8578063e3a3bf9c1461042b578063efe2ccc11461045f578063fc8a4de414610492578063ff68115b146104b257600080fd5b806393699ad014610323578063996440c6146103435780639e066d0414610373578063a39b664314610393578063b6ad1015146103b357600080fd5b80633da288751161011a5780633da288751461021c57806350a8a0581461024957806359e9bf55146102695780637966c802146102965780638b0920fe146102c35780638f9c79ed146102e357600080fd5b8063036d6b311461015757806318bd48471461018d5780631a7906fa146101ad578063285a3807146101cf57806338638c8114610207575b600080fd5b34801561016357600080fd5b5061017761017236600461403d565b6104d2565b60405161018491906141b6565b60405180910390f35b34801561019957600080fd5b506101776101a836600461403d565b610d8f565b3480156101b957600080fd5b506101c26110ce565b6040516101849190614382565b3480156101db57600080fd5b506101ef6101ea3660046143e3565b6117e2565b604051600160a060020a039091168152602001610184565b61021a6102153660046144a2565b61180c565b005b34801561022857600080fd5b5061023c61023736600461403d565b611ae9565b604051610184919061456f565b34801561025557600080fd5b5061021a610264366004614643565b611cd7565b34801561027557600080fd5b5061028961028436600461403d565b611e49565b60405161018491906146c1565b3480156102a257600080fd5b506102b66102b13660046146d4565b6124a9565b6040516101849190614700565b3480156102cf57600080fd5b5061021a6102de366004614713565b61278a565b3480156102ef57600080fd5b506103136102fe36600461403d565b60066020526000908152604090205460ff1681565b6040519015158152602001610184565b34801561032f57600080fd5b5061021a61033e366004614794565b612b19565b34801561034f57600080fd5b5061031361035e36600461403d565b60046020526000908152604090205460ff1681565b34801561037f57600080fd5b5061021a61038e3660046146d4565b612c0b565b34801561039f57600080fd5b5061021a6103ae366004614794565b612f75565b3480156103bf57600080fd5b506103d36103ce36600461403d565b6130ab565b604051610184969594939291906147b6565b6103136103f336600461403d565b6131fa565b34801561040457600080fd5b5061041861041336600461403d565b6132c6565b604051610184979695949392919061480a565b34801561043757600080fd5b5061044b6104463660046143e3565b6134a7565b604051610184989796959493929190614873565b34801561046b57600080fd5b5061047f61047a36600461403d565b61361b565b60405161018497969594939291906148dd565b34801561049e57600080fd5b5061023c6104ad36600461403d565b613d7d565b3480156104be57600080fd5b506101ef6104cd3660046143e3565b613f60565b600160a060020a0381166000908152600760205260408082208151610120810190925280546060939291908290829061050a9061494a565b80601f01602080910402602001604051908101604052809291908181526020018280546105369061494a565b80156105835780601f1061055857610100808354040283529160200191610583565b820191906000526020600020905b81548152906001019060200180831161056657829003601f168201915b5050505050815260200160018201805461059c9061494a565b80601f01602080910402602001604051908101604052809291908181526020018280546105c89061494a565b80156106155780601f106105ea57610100808354040283529160200191610615565b820191906000526020600020905b8154815290600101906020018083116105f857829003601f168201915b505050505081526020016002820160009054906101000a9004600160a060020a0316600160a060020a0316600160a060020a03168152602001600382015481526020016004820154815260200160058201805480602002602001604051908101604052809291908181526020016000905b828210156109425783829060005260206000209060080201604051806101000160405290816000820180546106ba9061494a565b80601f01602080910402602001604051908101604052809291908181526020018280546106e69061494a565b80156107335780601f1061070857610100808354040283529160200191610733565b820191906000526020600020905b81548152906001019060200180831161071657829003601f168201915b5050505050815260200160018201805461074c9061494a565b80601f01602080910402602001604051908101604052809291908181526020018280546107789061494a565b80156107c55780601f1061079a576101008083540402835291602001916107c5565b820191906000526020600020905b8154815290600101906020018083116107a857829003601f168201915b505050505081526020016002820180546107de9061494a565b80601f016020809104026020016040519081016040528092919081815260200182805461080a9061494a565b80156108575780601f1061082c57610100808354040283529160200191610857565b820191906000526020600020905b81548152906001019060200180831161083a57829003601f168201915b50505091835250506003820154600160a060020a03166020820152600482015460408201526005820154606082015260068201805460809092019161089b9061494a565b80601f01602080910402602001604051908101604052809291908181526020018280546108c79061494a565b80156109145780601f106108e957610100808354040283529160200191610914565b820191906000526020600020905b8154815290600101906020018083116108f757829003601f168201915b505050918352505060079190910154600160a060020a03166020918201529082526001929092019101610686565b50505050815260200160068201805461095a9061494a565b80601f01602080910402602001604051908101604052809291908181526020018280546109869061494a565b80156109d35780601f106109a8576101008083540402835291602001916109d3565b820191906000526020600020905b8154815290600101906020018083116109b657829003601f168201915b505050505081526020016007820154815260200160088201805480602002602001604051908101604052809291908181526020016000905b82821015610bb357600084815260209081902060408051610100808201835260078702909301805460ff81161515835293909304600160a060020a0390811694820194909452600183015490931690830152600281018054606084019190610a729061494a565b80601f0160208091040260200160405190810160405280929190818152602001828054610a9e9061494a565b8015610aeb5780601f10610ac057610100808354040283529160200191610aeb565b820191906000526020600020905b815481529060010190602001808311610ace57829003601f168201915b50505050508152602001600382018054610b049061494a565b80601f0160208091040260200160405190810160405280929190818152602001828054610b309061494a565b8015610b7d5780601f10610b5257610100808354040283529160200191610b7d565b820191906000526020600020905b815481529060010190602001808311610b6057829003601f168201915b50505050508152602001600482015481526020016005820154815260200160068201548152505081526020019060010190610a0b565b5050509152505060a0810151519091506000908181610c1c5760405160e560020a62461bcd02815260206004820152600760248201527f4e6f20646174610000000000000000000000000000000000000000000000000060448201526064015b60405180910390fd5b60005b8460a0015151811015610c865733600160a060020a03168560a001518281518110610c4c57610c4c614981565b602002602001015160600151600160a060020a031603610c7457610c716001856149b3565b93505b80610c7e816149c6565b915050610c1f565b5060008367ffffffffffffffff811115610ca257610ca26143fc565b604051908082528060200260200182016040528015610cdb57816020015b610cc8613f70565b815260200190600190039081610cc05790505b50905060005b8560a0015151811015610d845733600160a060020a03168660a001518281518110610d0e57610d0e614981565b602002602001015160600151600160a060020a031603610d72578560a001518181518110610d3e57610d3e614981565b6020026020010151828481518110610d5857610d58614981565b60200260200101819052508280610d6e906149c6565b9350505b80610d7c816149c6565b915050610ce1565b509695505050505050565b600160a060020a03811660009081526006602052604090205460609060ff16610dcd5760405160e560020a62461bcd028152600401610c13906149df565b600160a060020a038216600090815260076020908152604080832060050180548251818502810185019093528083529192909190849084015b828210156110c2578382906000526020600020906008020160405180610100016040529081600082018054610e3a9061494a565b80601f0160208091040260200160405190810160405280929190818152602001828054610e669061494a565b8015610eb35780601f10610e8857610100808354040283529160200191610eb3565b820191906000526020600020905b815481529060010190602001808311610e9657829003601f168201915b50505050508152602001600182018054610ecc9061494a565b80601f0160208091040260200160405190810160405280929190818152602001828054610ef89061494a565b8015610f455780601f10610f1a57610100808354040283529160200191610f45565b820191906000526020600020905b815481529060010190602001808311610f2857829003601f168201915b50505050508152602001600282018054610f5e9061494a565b80601f0160208091040260200160405190810160405280929190818152602001828054610f8a9061494a565b8015610fd75780601f10610fac57610100808354040283529160200191610fd7565b820191906000526020600020905b815481529060010190602001808311610fba57829003601f168201915b50505091835250506003820154600160a060020a03166020820152600482015460408201526005820154606082015260068201805460809092019161101b9061494a565b80601f01602080910402602001604051908101604052809291908181526020018280546110479061494a565b80156110945780601f1061106957610100808354040283529160200191611094565b820191906000526020600020905b81548152906001019060200180831161107757829003601f168201915b505050918352505060079190910154600160a060020a03166020918201529082526001929092019101610e06565b50929695505050505050565b6060600060095467ffffffffffffffff8111156110ed576110ed6143fc565b60405190808252806020026020018201604052801561112657816020015b611113613fc7565b81526020019060019003908161110b5790505b50905060005b6009548110156117dc57600560006002838154811061114d5761114d614981565b6000918252602080832090910154600160a060020a0316835282019290925260409081019091208151610100810190925280548290829061118d9061494a565b80601f01602080910402602001604051908101604052809291908181526020018280546111b99061494a565b80156112065780601f106111db57610100808354040283529160200191611206565b820191906000526020600020905b8154815290600101906020018083116111e957829003601f168201915b5050505050815260200160018201805461121f9061494a565b80601f016020809104026020016040519081016040528092919081815260200182805461124b9061494a565b80156112985780601f1061126d57610100808354040283529160200191611298565b820191906000526020600020905b81548152906001019060200180831161127b57829003601f168201915b505050505081526020016002820160009054906101000a9004600160a060020a0316600160a060020a0316600160a060020a0316815260200160038201548152602001600482015481526020016005820154815260200160068201805480602002602001604051908101604052809291908181526020016000905b828210156114bb57600084815260209081902060408051610100808201835260078702909301805460ff81161515835293909304600160a060020a039081169482019490945260018301549093169083015260028101805460608401919061137a9061494a565b80601f01602080910402602001604051908101604052809291908181526020018280546113a69061494a565b80156113f35780601f106113c8576101008083540402835291602001916113f3565b820191906000526020600020905b8154815290600101906020018083116113d657829003601f168201915b5050505050815260200160038201805461140c9061494a565b80601f01602080910402602001604051908101604052809291908181526020018280546114389061494a565b80156114855780601f1061145a57610100808354040283529160200191611485565b820191906000526020600020905b81548152906001019060200180831161146857829003601f168201915b50505050508152602001600482015481526020016005820154815260200160068201548152505081526020019060010190611313565b50505050815260200160078201805480602002602001604051908101604052809291908181526020016000905b828210156117a457838290600052602060002090600802016040518061010001604052908160008201805461151c9061494a565b80601f01602080910402602001604051908101604052809291908181526020018280546115489061494a565b80156115955780601f1061156a57610100808354040283529160200191611595565b820191906000526020600020905b81548152906001019060200180831161157857829003601f168201915b505050505081526020016001820180546115ae9061494a565b80601f01602080910402602001604051908101604052809291908181526020018280546115da9061494a565b80156116275780601f106115fc57610100808354040283529160200191611627565b820191906000526020600020905b81548152906001019060200180831161160a57829003601f168201915b505050505081526020016002820180546116409061494a565b80601f016020809104026020016040519081016040528092919081815260200182805461166c9061494a565b80156116b95780601f1061168e576101008083540402835291602001916116b9565b820191906000526020600020905b81548152906001019060200180831161169c57829003601f168201915b50505091835250506003820154600160a060020a0316602082015260048201546040820152600582015460608201526006820180546080909201916116fd9061494a565b80601f01602080910402602001604051908101604052809291908181526020018280546117299061494a565b80156117765780601f1061174b57610100808354040283529160200191611776565b820191906000526020600020905b81548152906001019060200180831161175957829003601f168201915b505050918352505060079190910154600160a060020a031660209182015290825260019290920191016114e8565b50505050815250508282815181106117be576117be614981565b602002602001018190525080806117d4906149c6565b91505061112c565b50919050565b600281815481106117f257600080fd5b600091825260209091200154600160a060020a0316905081565b600160a060020a03811660009081526006602052604090205460ff166118475760405160e560020a62461bcd028152600401610c13906149df565b3360009081526004602052604090205460ff166118a95760405160e560020a62461bcd02815260206004820152601460248201527f596f7520617265206e6f74206120446f63746f720000000000000000000000006044820152606401610c13565b600160a060020a0380821660008181526007602090815260408083208151610100810183528981528084018d90529182018b905294891660608201524260808201523460a082015260c0810187905260e08101939093526005909301805460018101825590825292902081519192600802019081906119289082614a65565b506020820151600182019061193d9082614a65565b50604082015160028201906119529082614a65565b506060820151600382018054600160a060020a031916600160a060020a039092169190911790556080820151600482015560a0820151600582015560c082015160068201906119a19082614a65565b5060e09182015160079182018054600160a060020a031916600160a060020a0392831617905586811660008181526005602090815260408083208151610100810183528b81528084018f90529182018d905260608201949094524260808201523460a082015260c081018990529387169584019590955292018054600181018255908352929091208151919260080201908190611a3e9082614a65565b5060208201516001820190611a539082614a65565b5060408201516002820190611a689082614a65565b506060820151600382018054600160a060020a031916600160a060020a039092169190911790556080820151600482015560a0820151600582015560c08201516006820190611ab79082614a65565b5060e0919091015160079091018054600160a060020a031916600160a060020a03909216919091179055505050505050565b600160a060020a0381166000908152600560209081526040808320600601805482518185028101850190935280835260609492939192909184015b82821015611ccc57600084815260209081902060408051610100808201835260078702909301805460ff81161515835293909304600160a060020a0390811694820194909452600183015490931690830152600281018054606084019190611b8b9061494a565b80601f0160208091040260200160405190810160405280929190818152602001828054611bb79061494a565b8015611c045780601f10611bd957610100808354040283529160200191611c04565b820191906000526020600020905b815481529060010190602001808311611be757829003601f168201915b50505050508152602001600382018054611c1d9061494a565b80601f0160208091040260200160405190810160405280929190818152602001828054611c499061494a565b8015611c965780601f10611c6b57610100808354040283529160200191611c96565b820191906000526020600020905b815481529060010190602001808311611c7957829003601f168201915b50505050508152602001600482015481526020016005820154815260200160068201548152505081526020019060010190611b24565b505050509050919050565b3360009081526004602052604090205460ff1615611d3a5760405160e560020a62461bcd02815260206004820152601960248201527f596f752061726520616c7265616479206120646f63746f7220000000000000006044820152606401610c13565b60028054600181019091557f405787fa12a823e0f2b7631cc41b3ba8828b3321ca811111fa75cd3aa3bb5ace018054600160a060020a031916339081179091556000908152600560205260409020611d928582614a65565b50336000908152600560205260409020600101611daf8482614a65565b503360009081526005602052604090206002018054600160a060020a031916600160a060020a038416179055611ded81670de0b6b3a7640000614b2b565b336000908152600560208181526040808420600381019590955560048086018590559490920183905592909252908120805460ff191660019081179091556009805491929091611e3e9084906149b3565b909155505050505050565b611e51613fc7565b600160a060020a03821660009081526005602052604080822081516101008101909252805482908290611e839061494a565b80601f0160208091040260200160405190810160405280929190818152602001828054611eaf9061494a565b8015611efc5780601f10611ed157610100808354040283529160200191611efc565b820191906000526020600020905b815481529060010190602001808311611edf57829003601f168201915b50505050508152602001600182018054611f159061494a565b80601f0160208091040260200160405190810160405280929190818152602001828054611f419061494a565b8015611f8e5780601f10611f6357610100808354040283529160200191611f8e565b820191906000526020600020905b815481529060010190602001808311611f7157829003601f168201915b505050505081526020016002820160009054906101000a9004600160a060020a0316600160a060020a0316600160a060020a0316815260200160038201548152602001600482015481526020016005820154815260200160068201805480602002602001604051908101604052809291908181526020016000905b828210156121b157600084815260209081902060408051610100808201835260078702909301805460ff81161515835293909304600160a060020a03908116948201949094526001830154909316908301526002810180546060840191906120709061494a565b80601f016020809104026020016040519081016040528092919081815260200182805461209c9061494a565b80156120e95780601f106120be576101008083540402835291602001916120e9565b820191906000526020600020905b8154815290600101906020018083116120cc57829003601f168201915b505050505081526020016003820180546121029061494a565b80601f016020809104026020016040519081016040528092919081815260200182805461212e9061494a565b801561217b5780601f106121505761010080835404028352916020019161217b565b820191906000526020600020905b81548152906001019060200180831161215e57829003601f168201915b50505050508152602001600482015481526020016005820154815260200160068201548152505081526020019060010190612009565b50505050815260200160078201805480602002602001604051908101604052809291908181526020016000905b8282101561249a5783829060005260206000209060080201604051806101000160405290816000820180546122129061494a565b80601f016020809104026020016040519081016040528092919081815260200182805461223e9061494a565b801561228b5780601f106122605761010080835404028352916020019161228b565b820191906000526020600020905b81548152906001019060200180831161226e57829003601f168201915b505050505081526020016001820180546122a49061494a565b80601f01602080910402602001604051908101604052809291908181526020018280546122d09061494a565b801561231d5780601f106122f25761010080835404028352916020019161231d565b820191906000526020600020905b81548152906001019060200180831161230057829003601f168201915b505050505081526020016002820180546123369061494a565b80601f01602080910402602001604051908101604052809291908181526020018280546123629061494a565b80156123af5780601f10612384576101008083540402835291602001916123af565b820191906000526020600020905b81548152906001019060200180831161239257829003601f168201915b50505091835250506003820154600160a060020a0316602082015260048201546040820152600582015460608201526006820180546080909201916123f39061494a565b80601f016020809104026020016040519081016040528092919081815260200182805461241f9061494a565b801561246c5780601f106124415761010080835404028352916020019161246c565b820191906000526020600020905b81548152906001019060200180831161244f57829003601f168201915b505050918352505060079190910154600160a060020a031660209182015290825260019290920191016121de565b50505091525090949350505050565b6124b1613f70565b600160a060020a03831660009081526007602052604081206005018054849081106124de576124de614981565b9060005260206000209060080201604051806101000160405290816000820180546125089061494a565b80601f01602080910402602001604051908101604052809291908181526020018280546125349061494a565b80156125815780601f1061255657610100808354040283529160200191612581565b820191906000526020600020905b81548152906001019060200180831161256457829003601f168201915b5050505050815260200160018201805461259a9061494a565b80601f01602080910402602001604051908101604052809291908181526020018280546125c69061494a565b80156126135780601f106125e857610100808354040283529160200191612613565b820191906000526020600020905b8154815290600101906020018083116125f657829003601f168201915b5050505050815260200160028201805461262c9061494a565b80601f01602080910402602001604051908101604052809291908181526020018280546126589061494a565b80156126a55780601f1061267a576101008083540402835291602001916126a5565b820191906000526020600020905b81548152906001019060200180831161268857829003601f168201915b50505091835250506003820154600160a060020a0316602082015260048201546040820152600582015460608201526006820180546080909201916126e99061494a565b80601f01602080910402602001604051908101604052809291908181526020018280546127159061494a565b80156127625780601f1061273757610100808354040283529160200191612762565b820191906000526020600020905b81548152906001019060200180831161274557829003601f168201915b505050918352505060079190910154600160a060020a03166020909101529150505b92915050565b3360009081526006602052604090205460ff16156127ed5760405160e560020a62461bcd02815260206004820152601a60248201527f596f752061726520616c726561647920612070617469656e74200000000000006044820152606401610c13565b336000908152600660209081526040808320805460ff191660011790556007909152902061281b8682614a65565b50336000818152600760208190526040909120600281018054600160a060020a031916909317909255600482018590556003820186905581018390556001016128648282614a65565b506040805161014081018252600161010082018181527f610000000000000000000000000000000000000000000000000000000000000061012084018190529083528351808501855282815260208181018390528085019190915284518086018652838152808201839052848601523360608501819052600a6080860181905260a0860152855180870187528481528083019390935260c085019290925260e084018290526000918252600781529381206005018054928301815581529290922081519192839260089091029091019081906129409082614a65565b50602082015160018201906129559082614a65565b506040820151600282019061296a9082614a65565b506060820151600382018054600160a060020a031916600160a060020a039092169190911790556080820151600482015560a0820151600582015560c082015160068201906129b99082614a65565b5060e0919091015160079182018054600160a060020a031916600160a060020a03909216919091179055336000908152602091825260408120600501805460018101825590825291902082518392600802909101908190612a1a9082614a65565b5060208201516001820190612a2f9082614a65565b5060408201516002820190612a449082614a65565b506060820151600382018054600160a060020a031916600160a060020a039092169190911790556080820151600482015560a0820151600582015560c08201516006820190612a939082614a65565b5060e0919091015160079091018054600160a060020a03909216600160a060020a0319928316179055600380546001818101835560009283527fc2575a0e9e593c00f959f8c92f12db2869c3395a3b0502d05e2516446f71f85b9091018054909316331790925560088054909190612b0c9084906149b3565b9091555050505050505050565b336000908152600560205260409020600601805483908110612b3d57612b3d614981565b600091825260209091206007909102015460ff161515600114612bcb5760405160e560020a62461bcd02815260206004820152602760248201527f596f752068617665206e6f7420636f6d706c657465642074686973206170706f60448201527f696e746d656e74000000000000000000000000000000000000000000000000006064820152608401610c13565b336000908152600560205260409020600601805482919084908110612bf257612bf2614981565b9060005260206000209060070201600601819055505050565b60408051610100810182526000808252336020808401829052600160a060020a03871684860152908252600790529182208054606083019190612c4d9061494a565b80601f0160208091040260200160405190810160405280929190818152602001828054612c799061494a565b8015612cc65780601f10612c9b57610100808354040283529160200191612cc6565b820191906000526020600020905b815481529060010190602001808311612ca957829003601f168201915b505050505081526020016005600086600160a060020a0316600160a060020a031681526020019081526020016000206000018054612d039061494a565b80601f0160208091040260200160405190810160405280929190818152602001828054612d2f9061494a565b8015612d7c5780601f10612d5157610100808354040283529160200191612d7c565b820191906000526020600020905b815481529060010190602001808311612d5f57829003601f168201915b50505091835250506020808201859052600060408084018290526060938401829052600160a060020a0380891683526005845281832060060180546001818101835591855293859020875160079095020180549588015183166101000274ffffffffffffffffffffffffffffffffffffffff00199515159590951674ffffffffffffffffffffffffffffffffffffffffff199096169590951793909317845590850151918301805492909116600160a060020a03199092169190911790559082015191925082916002820190612e529082614a65565b5060808201516003820190612e679082614a65565b5060a0820151600482015560c0820151600582015560e0909101516006909101553360009081526007602081815260408084206008018054600180820183559186529483902086519590940290930180549286015174ffffffffffffffffffffffffffffffffffffffffff1990931694151574ffffffffffffffffffffffffffffffffffffffff00191694909417610100600160a060020a03938416021784558401519183018054600160a060020a0319169290911691909117905560608201518291906002820190612f3a9082614a65565b5060808201516003820190612f4f9082614a65565b5060a0820151816004015560c0820151816005015560e082015181600601555050505050565b336000908152600560205260409020600601805483908110612f9957612f99614981565b600091825260209091206007909102015460ff16156130235760405160e560020a62461bcd02815260206004820152602360248201527f596f75206861766520636f6d706c657465642074686973206170706f696e746d60448201527f656e7400000000000000000000000000000000000000000000000000000000006064820152608401610c13565b3360009081526005602052604090206006018054600191908490811061304b5761304b614981565b60009182526020808320600792909202909101805460ff19169315159390931790925533815260059091526040902060060180548291908490811061309257613092614981565b9060005260206000209060070201600501819055505050565b6005602052600090815260409020805481906130c69061494a565b80601f01602080910402602001604051908101604052809291908181526020018280546130f29061494a565b801561313f5780601f106131145761010080835404028352916020019161313f565b820191906000526020600020905b81548152906001019060200180831161312257829003601f168201915b5050505050908060010180546131549061494a565b80601f01602080910402602001604051908101604052809291908181526020018280546131809061494a565b80156131cd5780601f106131a2576101008083540402835291602001916131cd565b820191906000526020600020905b8154815290600101906020018083116131b057829003601f168201915b505050506002830154600384015460048501546005909501549394600160a060020a039092169390925086565b600160a060020a0381166000908152600560205260408120600301543410156132685760405160e560020a62461bcd02815260206004820152601460248201527f20496e73756666696369656e742066756e6473200000000000000000000000006044820152606401610c13565b60008083600160a060020a03163460405160006040518083038185875af1925050503d80600081146132b6576040519150601f19603f3d011682016040523d82523d6000602084013e6132bb565b606091505b509095945050505050565b6007602052600090815260409020805481906132e19061494a565b80601f016020809104026020016040519081016040528092919081815260200182805461330d9061494a565b801561335a5780601f1061332f5761010080835404028352916020019161335a565b820191906000526020600020905b81548152906001019060200180831161333d57829003601f168201915b50505050509080600101805461336f9061494a565b80601f016020809104026020016040519081016040528092919081815260200182805461339b9061494a565b80156133e85780601f106133bd576101008083540402835291602001916133e8565b820191906000526020600020905b8154815290600101906020018083116133cb57829003601f168201915b5050506002840154600385015460048601546006870180549697600160a060020a03909416969295509093509061341e9061494a565b80601f016020809104026020016040519081016040528092919081815260200182805461344a9061494a565b80156134975780601f1061346c57610100808354040283529160200191613497565b820191906000526020600020905b81548152906001019060200180831161347a57829003601f168201915b5050505050908060070154905087565b600181815481106134b757600080fd5b600091825260209091206007909102018054600182015460028301805460ff84169550610100909304600160a060020a03908116949216926134f89061494a565b80601f01602080910402602001604051908101604052809291908181526020018280546135249061494a565b80156135715780601f1061354657610100808354040283529160200191613571565b820191906000526020600020905b81548152906001019060200180831161355457829003601f168201915b5050505050908060030180546135869061494a565b80601f01602080910402602001604051908101604052809291908181526020018280546135b29061494a565b80156135ff5780601f106135d4576101008083540402835291602001916135ff565b820191906000526020600020905b8154815290600101906020018083116135e257829003601f168201915b5050505050908060040154908060050154908060060154905088565b600160a060020a0381166000908152600660205260408120546060918291819083908290829060ff166136635760405160e560020a62461bcd028152600401610c13906149df565b600160a060020a038816600090815260076020526040808220815161012081019092528054829082906136959061494a565b80601f01602080910402602001604051908101604052809291908181526020018280546136c19061494a565b801561370e5780601f106136e35761010080835404028352916020019161370e565b820191906000526020600020905b8154815290600101906020018083116136f157829003601f168201915b505050505081526020016001820180546137279061494a565b80601f01602080910402602001604051908101604052809291908181526020018280546137539061494a565b80156137a05780601f10613775576101008083540402835291602001916137a0565b820191906000526020600020905b81548152906001019060200180831161378357829003601f168201915b505050505081526020016002820160009054906101000a9004600160a060020a0316600160a060020a0316600160a060020a03168152602001600382015481526020016004820154815260200160058201805480602002602001604051908101604052809291908181526020016000905b82821015613acd5783829060005260206000209060080201604051806101000160405290816000820180546138459061494a565b80601f01602080910402602001604051908101604052809291908181526020018280546138719061494a565b80156138be5780601f10613893576101008083540402835291602001916138be565b820191906000526020600020905b8154815290600101906020018083116138a157829003601f168201915b505050505081526020016001820180546138d79061494a565b80601f01602080910402602001604051908101604052809291908181526020018280546139039061494a565b80156139505780601f1061392557610100808354040283529160200191613950565b820191906000526020600020905b81548152906001019060200180831161393357829003601f168201915b505050505081526020016002820180546139699061494a565b80601f01602080910402602001604051908101604052809291908181526020018280546139959061494a565b80156139e25780601f106139b7576101008083540402835291602001916139e2565b820191906000526020600020905b8154815290600101906020018083116139c557829003601f168201915b50505091835250506003820154600160a060020a031660208201526004820154604082015260058201546060820152600682018054608090920191613a269061494a565b80601f0160208091040260200160405190810160405280929190818152602001828054613a529061494a565b8015613a9f5780601f10613a7457610100808354040283529160200191613a9f565b820191906000526020600020905b815481529060010190602001808311613a8257829003601f168201915b505050918352505060079190910154600160a060020a03166020918201529082526001929092019101613811565b505050508152602001600682018054613ae59061494a565b80601f0160208091040260200160405190810160405280929190818152602001828054613b119061494a565b8015613b5e5780601f10613b3357610100808354040283529160200191613b5e565b820191906000526020600020905b815481529060010190602001808311613b4157829003601f168201915b505050505081526020016007820154815260200160088201805480602002602001604051908101604052809291908181526020016000905b82821015613d3e57600084815260209081902060408051610100808201835260078702909301805460ff81161515835293909304600160a060020a0390811694820194909452600183015490931690830152600281018054606084019190613bfd9061494a565b80601f0160208091040260200160405190810160405280929190818152602001828054613c299061494a565b8015613c765780601f10613c4b57610100808354040283529160200191613c76565b820191906000526020600020905b815481529060010190602001808311613c5957829003601f168201915b50505050508152602001600382018054613c8f9061494a565b80601f0160208091040260200160405190810160405280929190818152602001828054613cbb9061494a565b8015613d085780601f10613cdd57610100808354040283529160200191613d08565b820191906000526020600020905b815481529060010190602001808311613ceb57829003601f168201915b50505050508152602001600482015481526020016005820154815260200160068201548152505081526020019060010190613b96565b50505091525050805160208201516080830151606084015160c085015160e086015160a090960151949f939e50919c509a509850919650945092505050565b600160a060020a0381166000908152600760209081526040808320600801805482518185028101850190935280835260609492939192909184015b82821015611ccc57600084815260209081902060408051610100808201835260078702909301805460ff81161515835293909304600160a060020a0390811694820194909452600183015490931690830152600281018054606084019190613e1f9061494a565b80601f0160208091040260200160405190810160405280929190818152602001828054613e4b9061494a565b8015613e985780601f10613e6d57610100808354040283529160200191613e98565b820191906000526020600020905b815481529060010190602001808311613e7b57829003601f168201915b50505050508152602001600382018054613eb19061494a565b80601f0160208091040260200160405190810160405280929190818152602001828054613edd9061494a565b8015613f2a5780601f10613eff57610100808354040283529160200191613f2a565b820191906000526020600020905b815481529060010190602001808311613f0d57829003601f168201915b50505050508152602001600482015481526020016005820154815260200160068201548152505081526020019060010190613db8565b600381815481106117f257600080fd5b6040518061010001604052806060815260200160608152602001606081526020016000600160a060020a031681526020016000815260200160008152602001606081526020016000600160a060020a031681525090565b60405180610100016040528060608152602001606081526020016000600160a060020a0316815260200160008152602001600081526020016000815260200160608152602001606081525090565b600160a060020a038116811461402a57600080fd5b50565b803561403881614015565b919050565b60006020828403121561404f57600080fd5b813561405a81614015565b9392505050565b6000815180845260005b818110156140875760208185018101518683018201520161406b565b506000602082860101526020601f19601f83011685010191505092915050565b600061010082518185526140bd82860182614061565b915050602083015184820360208601526140d78282614061565b915050604083015184820360408601526140f18282614061565b915050606083015161410e6060860182600160a060020a03169052565b506080830151608085015260a083015160a085015260c083015184820360c086015261413a8282614061565b91505060e083015161415760e0860182600160a060020a03169052565b509392505050565b6000828251808552602080860195508081830284010181860160005b848110156141a957601f198684030189526141978383516140a7565b9884019892509083019060010161417b565b5090979650505050505050565b60208152600061405a602083018461415f565b6000828251808552602080860195508081830284010181860160005b848110156141a957858303601f19018952815180511515845284810151600160a060020a038116868601526101009050604082810151600160a060020a038116878301525050606080830151828288015261424283880182614061565b925050506080808301518683038288015261425d8382614061565b60a0858101519089015260c0808601519089015260e094850151949097019390935250505097830197908301906001016141e5565b6000828251808552602080860195508081830284010181860160005b848110156141a957601f198684030189526142ca8383516140a7565b988401989250908301906001016142ae565b600061010082518185526142f282860182614061565b9150506020830151848203602086015261430c8282614061565b91505060408301516143296040860182600160a060020a03169052565b50606083015160608501526080830151608085015260a083015160a085015260c083015184820360c086015261435f82826141c9565b91505060e083015184820360e08601526143798282614292565b95945050505050565b600060208083018184528085518083526040860191506040848202870101925083870160005b828110156143d657603f198886030184526143c48583516142dc565b945092850192908501906001016143a8565b5092979650505050505050565b6000602082840312156143f557600080fd5b5035919050565b60e060020a634e487b7102600052604160045260246000fd5b600082601f83011261442657600080fd5b813567ffffffffffffffff80821115614441576144416143fc565b604051601f8301601f19908116603f01168101908282118183101715614469576144696143fc565b8160405283815286602085880101111561448257600080fd5b836020870160208301376000602085830101528094505050505092915050565b60008060008060008060c087890312156144bb57600080fd5b863567ffffffffffffffff808211156144d357600080fd5b6144df8a838b01614415565b975060208901359150808211156144f557600080fd5b6145018a838b01614415565b965061450f60408a0161402d565b9550606089013591508082111561452557600080fd5b6145318a838b01614415565b9450608089013591508082111561454757600080fd5b5061455489828a01614415565b92505061456360a0880161402d565b90509295509295509295565b60208082528251828201819052600091906040908185019080840286018301878501865b8381101561463557603f19898403018552815180511515845287810151600160a060020a039081168986015287820151168785015260608082015161010082870181905291906145e583880182614061565b92505050608080830151868303828801526146008382614061565b60a0858101519089015260c0808601519089015260e09485015194909701939093525050509386019390860190600101614593565b509098975050505050505050565b6000806000806080858703121561465957600080fd5b843567ffffffffffffffff8082111561467157600080fd5b61467d88838901614415565b9550602087013591508082111561469357600080fd5b506146a087828801614415565b93505060408501356146b181614015565b9396929550929360600135925050565b60208152600061405a60208301846142dc565b600080604083850312156146e757600080fd5b82356146f281614015565b946020939093013593505050565b60208152600061405a60208301846140a7565b600080600080600060a0868803121561472b57600080fd5b853567ffffffffffffffff8082111561474357600080fd5b61474f89838a01614415565b9650602088013595506040880135945060608801359350608088013591508082111561477a57600080fd5b5061478788828901614415565b9150509295509295909350565b600080604083850312156147a757600080fd5b50508035926020909101359150565b60c0815260006147c960c0830189614061565b82810360208401526147db8189614061565b915050600160a060020a03861660408301528460608301528360808301528260a0830152979650505050505050565b60e08152600061481d60e083018a614061565b828103602084015261482f818a614061565b9050600160a060020a038816604084015286606084015285608084015282810360a084015261485e8186614061565b9150508260c083015298975050505050505050565b60006101008a15158352600160a060020a03808b166020850152808a166040850152508060608401526148a881840189614061565b905082810360808401526148bc8188614061565b60a0840196909652505060c081019290925260e09091015295945050505050565b60e0815260006148f060e083018a614061565b8281036020840152614902818a614061565b905087604084015286606084015282810360808401526149228187614061565b90508460a084015282810360c084015261493c818561415f565b9a9950505050505050505050565b60028104600182168061495e57607f821691505b6020821081036117dc5760e060020a634e487b7102600052602260045260246000fd5b60e060020a634e487b7102600052603260045260246000fd5b60e060020a634e487b7102600052601160045260246000fd5b808201808211156127845761278461499a565b6000600182016149d8576149d861499a565b5060010190565b60208082526015908201527f596f7520617265206e6f7420612070617469656e740000000000000000000000604082015260600190565b601f821115614a60576000818152602081206020601f86010481016020861015614a3d5750805b6020601f860104820191505b81811015614a5c57828155600101614a49565b5050505b505050565b815167ffffffffffffffff811115614a7f57614a7f6143fc565b614a9381614a8d845461494a565b84614a16565b602080601f831160018114614acc5760008415614ab05750858301515b60028086026008870290910a6000190419821617865550614a5c565b600085815260208120601f198616915b82811015614afb57888601518255948401946001909101908401614adc565b5085821015614b1b57878501516008601f88160260020a60001904191681555b5050505050600202600101905550565b80820281158282048414176127845761278461499a56fea2646970667358221220b7d1a15e3d673cfa95923eb518a8e7564795131c17bdfd9e27d7e1d89bd197a564736f6c63430008120033",
  "immutableReferences": {},
  "source": "// SPDX-License-Identifier: GPL-3.0\r\npragma solidity >=0.7.0 <0.9.0;\r\n\r\nimport \"./Medical_2.sol\";\r\n\r\ncontract HealthManagement is HealthManagement2 {\r\n\r\n    constructor(){\r\n        patientCount = 0;\r\n        doctorCount = 0;\r\n        appointmentCount = 0;\r\n        owner_ = msg.sender;\r\n    }\r\n    \r\n   function addDoctor(\r\n        string memory name,\r\n        string memory email,\r\n        address payable address_,\r\n        uint256 basefee\r\n        ) public  {\r\n\r\n        require(isDoctor[msg.sender] == false,\"You are already a doctor \");\r\n        \r\n        alldoctors.push(msg.sender);\r\n        allDoctors[msg.sender].name = name;\r\n        allDoctors[msg.sender].email = email;\r\n        allDoctors[msg.sender].address_ = address_;\r\n        allDoctors[msg.sender].basefee = basefee*(1 ether);\r\n        allDoctors[msg.sender].starCount = 0;\r\n        allDoctors[msg.sender].totalPatients = 0;\r\n        isDoctor[msg.sender] = true;\r\n        // allDoctors[msg.sender].records_ = Record [](0);\r\n        doctorCount += 1;\r\n        \r\n   }\r\n\r\n   function payFees(address to)public payable returns (bool sentt) {\r\n       require(msg.value >= allDoctors[to].basefee , \" Insufficient funds \");\r\n       (bool sent, bytes memory data) = (address(payable(to))).call{value: msg.value}(\"\");\r\n        return sent;\r\n        // require(sent, \"Failed to send Ether\");\r\n   }\r\n\r\n   function takeAppointment(address docAddr,uint256 slot) public {\r\n\r\n        Appointment memory a = Appointment(false, payable(msg.sender),payable(docAddr),allPatients[msg.sender].name , allDoctors[docAddr].name , slot,0,0);\r\n        allDoctors[docAddr].appointments_.push(a);\r\n        allPatients[msg.sender].myAppointments.push(a);\r\n        // add to patients appointments too \r\n   }\r\n\r\n    function startAppointment(uint256 index,uint256 start) public {\r\n        require(allDoctors[msg.sender].appointments_[index].status == false,\"You have completed this appointment\");\r\n        allDoctors[msg.sender].appointments_[index].status = true;\r\n        allDoctors[msg.sender].appointments_[index].timeStart = start;\r\n    }\r\n\r\n    function endAppointment(uint256 index,uint256 end) public{\r\n       require(allDoctors[msg.sender].appointments_[index].status == true,\"You have not completed this appointment\");\r\n        allDoctors[msg.sender].appointments_[index].timeEnd = end;\r\n    }\r\n    \r\n    function getAllDoctor() public view returns(Doctor [] memory alldocs ) {\r\n        Doctor [] memory docs = new Doctor[](doctorCount);\r\n        for(uint i = 0; i < doctorCount ; i++)docs[i] = allDoctors[ alldoctors[i] ];\r\n        return docs;\r\n    }\r\n\r\n    function getOneDoctor(address addr) public view returns (Doctor memory doc){\r\n        Doctor memory d = allDoctors[addr];\r\n        return d;\r\n    }\r\n\r\n}",
  "sourcePath": "G:\\coding\\Projects\\pro-10-bc\\front-2\\truffle\\contracts\\Medical.sol",
  "compiler": {
    "name": "solc",
    "version": "0.8.18+commit.87f61d96.Emscripten.clang"
  },
  "schemaVersion": "3.4.12",
  "updatedAt": "2023-04-17T10:16:34.504Z",
  "networkType": "ethereum",
  "devdoc": {
    "kind": "dev",
    "methods": {},
    "version": 1
  },
  "userdoc": {
    "kind": "user",
    "methods": {},
    "version": 1
  }
}