{
  "contractName": "HealthManagement2",
  "abi": [
    {
      "inputs": [
        {
          "internalType": "uint256",
          "name": "",
          "type": "uint256"
        }
      ],
      "name": "allAppointments",
      "outputs": [
        {
          "internalType": "bool",
          "name": "status",
          "type": "bool"
        },
        {
          "internalType": "address payable",
          "name": "patient_",
          "type": "address"
        },
        {
          "internalType": "address payable",
          "name": "doctor_",
          "type": "address"
        },
        {
          "internalType": "string",
          "name": "patientName",
          "type": "string"
        },
        {
          "internalType": "string",
          "name": "docname",
          "type": "string"
        },
        {
          "internalType": "uint256",
          "name": "timeslot_",
          "type": "uint256"
        },
        {
          "internalType": "uint256",
          "name": "timeStart",
          "type": "uint256"
        },
        {
          "internalType": "uint256",
          "name": "timeEnd",
          "type": "uint256"
        }
      ],
      "stateMutability": "view",
      "type": "function",
      "constant": true
    },
    {
      "inputs": [
        {
          "internalType": "address",
          "name": "",
          "type": "address"
        }
      ],
      "name": "allDoctors",
      "outputs": [
        {
          "internalType": "string",
          "name": "name",
          "type": "string"
        },
        {
          "internalType": "string",
          "name": "email",
          "type": "string"
        },
        {
          "internalType": "address payable",
          "name": "address_",
          "type": "address"
        },
        {
          "internalType": "uint256",
          "name": "basefee",
          "type": "uint256"
        },
        {
          "internalType": "uint256",
          "name": "starCount",
          "type": "uint256"
        },
        {
          "internalType": "uint256",
          "name": "totalPatients",
          "type": "uint256"
        }
      ],
      "stateMutability": "view",
      "type": "function",
      "constant": true
    },
    {
      "inputs": [
        {
          "internalType": "address",
          "name": "",
          "type": "address"
        }
      ],
      "name": "allPatients",
      "outputs": [
        {
          "internalType": "string",
          "name": "name",
          "type": "string"
        },
        {
          "internalType": "string",
          "name": "email",
          "type": "string"
        },
        {
          "internalType": "address payable",
          "name": "address_",
          "type": "address"
        },
        {
          "internalType": "uint256",
          "name": "phone",
          "type": "uint256"
        },
        {
          "internalType": "uint256",
          "name": "age",
          "type": "uint256"
        },
        {
          "internalType": "string",
          "name": "bloodgroup",
          "type": "string"
        },
        {
          "internalType": "uint256",
          "name": "dob",
          "type": "uint256"
        }
      ],
      "stateMutability": "view",
      "type": "function",
      "constant": true
    },
    {
      "inputs": [
        {
          "internalType": "uint256",
          "name": "",
          "type": "uint256"
        }
      ],
      "name": "allPatientsList",
      "outputs": [
        {
          "internalType": "address",
          "name": "",
          "type": "address"
        }
      ],
      "stateMutability": "view",
      "type": "function",
      "constant": true
    },
    {
      "inputs": [
        {
          "internalType": "uint256",
          "name": "",
          "type": "uint256"
        }
      ],
      "name": "alldoctors",
      "outputs": [
        {
          "internalType": "address",
          "name": "",
          "type": "address"
        }
      ],
      "stateMutability": "view",
      "type": "function",
      "constant": true
    },
    {
      "inputs": [
        {
          "internalType": "address",
          "name": "",
          "type": "address"
        }
      ],
      "name": "isDoctor",
      "outputs": [
        {
          "internalType": "bool",
          "name": "",
          "type": "bool"
        }
      ],
      "stateMutability": "view",
      "type": "function",
      "constant": true
    },
    {
      "inputs": [
        {
          "internalType": "address",
          "name": "",
          "type": "address"
        }
      ],
      "name": "isPatient",
      "outputs": [
        {
          "internalType": "bool",
          "name": "",
          "type": "bool"
        }
      ],
      "stateMutability": "view",
      "type": "function",
      "constant": true
    },
    {
      "inputs": [
        {
          "internalType": "string",
          "name": "name",
          "type": "string"
        },
        {
          "internalType": "uint256",
          "name": "phone",
          "type": "uint256"
        },
        {
          "internalType": "uint256",
          "name": "age",
          "type": "uint256"
        },
        {
          "internalType": "uint256",
          "name": "dob",
          "type": "uint256"
        },
        {
          "internalType": "string",
          "name": "email",
          "type": "string"
        }
      ],
      "name": "addPatient",
      "outputs": [],
      "stateMutability": "nonpayable",
      "type": "function"
    },
    {
      "inputs": [
        {
          "internalType": "address",
          "name": "addr",
          "type": "address"
        }
      ],
      "name": "getPatientDetails",
      "outputs": [
        {
          "internalType": "string",
          "name": "name",
          "type": "string"
        },
        {
          "internalType": "string",
          "name": "email",
          "type": "string"
        },
        {
          "internalType": "uint256",
          "name": "age",
          "type": "uint256"
        },
        {
          "internalType": "uint256",
          "name": "phone",
          "type": "uint256"
        },
        {
          "internalType": "string",
          "name": "bloodgroup",
          "type": "string"
        },
        {
          "internalType": "uint256",
          "name": "dob",
          "type": "uint256"
        },
        {
          "components": [
            {
              "internalType": "string",
              "name": "docname",
              "type": "string"
            },
            {
              "internalType": "string",
              "name": "fileHashes",
              "type": "string"
            },
            {
              "internalType": "string",
              "name": "presciptions",
              "type": "string"
            },
            {
              "internalType": "address payable",
              "name": "doctor_",
              "type": "address"
            },
            {
              "internalType": "uint256",
              "name": "timeStamp",
              "type": "uint256"
            },
            {
              "internalType": "uint256",
              "name": "amount",
              "type": "uint256"
            },
            {
              "internalType": "string",
              "name": "patientName",
              "type": "string"
            },
            {
              "internalType": "address payable",
              "name": "patientaddr",
              "type": "address"
            }
          ],
          "internalType": "struct HealthManagement2.Record[]",
          "name": "recordss",
          "type": "tuple[]"
        }
      ],
      "stateMutability": "view",
      "type": "function",
      "constant": true
    },
    {
      "inputs": [
        {
          "internalType": "string",
          "name": "currentfiles",
          "type": "string"
        },
        {
          "internalType": "string",
          "name": "presciptions",
          "type": "string"
        },
        {
          "internalType": "address",
          "name": "doctor_",
          "type": "address"
        },
        {
          "internalType": "string",
          "name": "docname",
          "type": "string"
        },
        {
          "internalType": "string",
          "name": "patientName",
          "type": "string"
        },
        {
          "internalType": "address",
          "name": "patientaddr",
          "type": "address"
        }
      ],
      "name": "addPatientRecord",
      "outputs": [],
      "stateMutability": "payable",
      "type": "function",
      "payable": true
    },
    {
      "inputs": [
        {
          "internalType": "address",
          "name": "addr",
          "type": "address"
        }
      ],
      "name": "getPatientRecords",
      "outputs": [
        {
          "components": [
            {
              "internalType": "string",
              "name": "docname",
              "type": "string"
            },
            {
              "internalType": "string",
              "name": "fileHashes",
              "type": "string"
            },
            {
              "internalType": "string",
              "name": "presciptions",
              "type": "string"
            },
            {
              "internalType": "address payable",
              "name": "doctor_",
              "type": "address"
            },
            {
              "internalType": "uint256",
              "name": "timeStamp",
              "type": "uint256"
            },
            {
              "internalType": "uint256",
              "name": "amount",
              "type": "uint256"
            },
            {
              "internalType": "string",
              "name": "patientName",
              "type": "string"
            },
            {
              "internalType": "address payable",
              "name": "patientaddr",
              "type": "address"
            }
          ],
          "internalType": "struct HealthManagement2.Record[]",
          "name": "records",
          "type": "tuple[]"
        }
      ],
      "stateMutability": "view",
      "type": "function",
      "constant": true
    },
    {
      "inputs": [
        {
          "internalType": "address",
          "name": "addr",
          "type": "address"
        },
        {
          "internalType": "uint256",
          "name": "index",
          "type": "uint256"
        }
      ],
      "name": "getOneRecord",
      "outputs": [
        {
          "components": [
            {
              "internalType": "string",
              "name": "docname",
              "type": "string"
            },
            {
              "internalType": "string",
              "name": "fileHashes",
              "type": "string"
            },
            {
              "internalType": "string",
              "name": "presciptions",
              "type": "string"
            },
            {
              "internalType": "address payable",
              "name": "doctor_",
              "type": "address"
            },
            {
              "internalType": "uint256",
              "name": "timeStamp",
              "type": "uint256"
            },
            {
              "internalType": "uint256",
              "name": "amount",
              "type": "uint256"
            },
            {
              "internalType": "string",
              "name": "patientName",
              "type": "string"
            },
            {
              "internalType": "address payable",
              "name": "patientaddr",
              "type": "address"
            }
          ],
          "internalType": "struct HealthManagement2.Record",
          "name": "rec",
          "type": "tuple"
        }
      ],
      "stateMutability": "view",
      "type": "function",
      "constant": true
    },
    {
      "inputs": [
        {
          "internalType": "address",
          "name": "p",
          "type": "address"
        }
      ],
      "name": "getRecordOfOnePatient",
      "outputs": [
        {
          "components": [
            {
              "internalType": "string",
              "name": "docname",
              "type": "string"
            },
            {
              "internalType": "string",
              "name": "fileHashes",
              "type": "string"
            },
            {
              "internalType": "string",
              "name": "presciptions",
              "type": "string"
            },
            {
              "internalType": "address payable",
              "name": "doctor_",
              "type": "address"
            },
            {
              "internalType": "uint256",
              "name": "timeStamp",
              "type": "uint256"
            },
            {
              "internalType": "uint256",
              "name": "amount",
              "type": "uint256"
            },
            {
              "internalType": "string",
              "name": "patientName",
              "type": "string"
            },
            {
              "internalType": "address payable",
              "name": "patientaddr",
              "type": "address"
            }
          ],
          "internalType": "struct HealthManagement2.Record[]",
          "name": "doctorRecord",
          "type": "tuple[]"
        }
      ],
      "stateMutability": "view",
      "type": "function",
      "constant": true
    },
    {
      "inputs": [
        {
          "internalType": "address",
          "name": "docAdd",
          "type": "address"
        }
      ],
      "name": "getDoctorAppointment",
      "outputs": [
        {
          "components": [
            {
              "internalType": "bool",
              "name": "status",
              "type": "bool"
            },
            {
              "internalType": "address payable",
              "name": "patient_",
              "type": "address"
            },
            {
              "internalType": "address payable",
              "name": "doctor_",
              "type": "address"
            },
            {
              "internalType": "string",
              "name": "patientName",
              "type": "string"
            },
            {
              "internalType": "string",
              "name": "docname",
              "type": "string"
            },
            {
              "internalType": "uint256",
              "name": "timeslot_",
              "type": "uint256"
            },
            {
              "internalType": "uint256",
              "name": "timeStart",
              "type": "uint256"
            },
            {
              "internalType": "uint256",
              "name": "timeEnd",
              "type": "uint256"
            }
          ],
          "internalType": "struct HealthManagement2.Appointment[]",
          "name": "app",
          "type": "tuple[]"
        }
      ],
      "stateMutability": "view",
      "type": "function",
      "constant": true
    },
    {
      "inputs": [
        {
          "internalType": "address",
          "name": "patAdd",
          "type": "address"
        }
      ],
      "name": "getPatientAppointment",
      "outputs": [
        {
          "components": [
            {
              "internalType": "bool",
              "name": "status",
              "type": "bool"
            },
            {
              "internalType": "address payable",
              "name": "patient_",
              "type": "address"
            },
            {
              "internalType": "address payable",
              "name": "doctor_",
              "type": "address"
            },
            {
              "internalType": "string",
              "name": "patientName",
              "type": "string"
            },
            {
              "internalType": "string",
              "name": "docname",
              "type": "string"
            },
            {
              "internalType": "uint256",
              "name": "timeslot_",
              "type": "uint256"
            },
            {
              "internalType": "uint256",
              "name": "timeStart",
              "type": "uint256"
            },
            {
              "internalType": "uint256",
              "name": "timeEnd",
              "type": "uint256"
            }
          ],
          "internalType": "struct HealthManagement2.Appointment[]",
          "name": "app",
          "type": "tuple[]"
        }
      ],
      "stateMutability": "view",
      "type": "function",
      "constant": true
    }
  ],
  "bytecode": "0x608060405234801561001057600080fd5b506131c6806100206000396000f3fe608060405260043610610105576000357c0100000000000000000000000000000000000000000000000000000000900480638f9c79ed116100a7578063e3a3bf9c11610076578063e3a3bf9c146102fc578063efe2ccc114610330578063fc8a4de414610363578063ff68115b1461038357600080fd5b80638f9c79ed14610227578063996440c614610267578063b6ad101514610297578063cd25d7be146102c957600080fd5b806338638c81116100e357806338638c81146101985780633da28875146101ad5780637966c802146101da5780638b0920fe1461020757600080fd5b8063036d6b311461010a57806318bd484714610140578063285a380714610160575b600080fd5b34801561011657600080fd5b5061012a610125366004612970565b6103a3565b6040516101379190612ae4565b60405180910390f35b34801561014c57600080fd5b5061012a61015b366004612970565b610c60565b34801561016c57600080fd5b5061018061017b366004612af7565b610f9f565b604051600160a060020a039091168152602001610137565b6101ab6101a6366004612bb6565b610fc9565b005b3480156101b957600080fd5b506101cd6101c8366004612970565b6112a6565b6040516101379190612c83565b3480156101e657600080fd5b506101fa6101f5366004612d57565b611494565b6040516101379190612d81565b34801561021357600080fd5b506101ab610222366004612d94565b611775565b34801561023357600080fd5b50610257610242366004612970565b60066020526000908152604090205460ff1681565b6040519015158152602001610137565b34801561027357600080fd5b50610257610282366004612970565b60046020526000908152604090205460ff1681565b3480156102a357600080fd5b506102b76102b2366004612970565b611b04565b60405161013796959493929190612e15565b3480156102d557600080fd5b506102e96102e4366004612970565b611c53565b6040516101379796959493929190612e69565b34801561030857600080fd5b5061031c610317366004612af7565b611e34565b604051610137989796959493929190612ed2565b34801561033c57600080fd5b5061035061034b366004612970565b611fa8565b6040516101379796959493929190612f3c565b34801561036f57600080fd5b506101cd61037e366004612970565b61270a565b34801561038f57600080fd5b5061018061039e366004612af7565b6128ed565b600160a060020a038116600090815260076020526040808220815161012081019092528054606093929190829082906103db90612fa9565b80601f016020809104026020016040519081016040528092919081815260200182805461040790612fa9565b80156104545780601f1061042957610100808354040283529160200191610454565b820191906000526020600020905b81548152906001019060200180831161043757829003601f168201915b5050505050815260200160018201805461046d90612fa9565b80601f016020809104026020016040519081016040528092919081815260200182805461049990612fa9565b80156104e65780601f106104bb576101008083540402835291602001916104e6565b820191906000526020600020905b8154815290600101906020018083116104c957829003601f168201915b505050505081526020016002820160009054906101000a9004600160a060020a0316600160a060020a0316600160a060020a03168152602001600382015481526020016004820154815260200160058201805480602002602001604051908101604052809291908181526020016000905b8282101561081357838290600052602060002090600802016040518061010001604052908160008201805461058b90612fa9565b80601f01602080910402602001604051908101604052809291908181526020018280546105b790612fa9565b80156106045780601f106105d957610100808354040283529160200191610604565b820191906000526020600020905b8154815290600101906020018083116105e757829003601f168201915b5050505050815260200160018201805461061d90612fa9565b80601f016020809104026020016040519081016040528092919081815260200182805461064990612fa9565b80156106965780601f1061066b57610100808354040283529160200191610696565b820191906000526020600020905b81548152906001019060200180831161067957829003601f168201915b505050505081526020016002820180546106af90612fa9565b80601f01602080910402602001604051908101604052809291908181526020018280546106db90612fa9565b80156107285780601f106106fd57610100808354040283529160200191610728565b820191906000526020600020905b81548152906001019060200180831161070b57829003601f168201915b50505091835250506003820154600160a060020a03166020820152600482015460408201526005820154606082015260068201805460809092019161076c90612fa9565b80601f016020809104026020016040519081016040528092919081815260200182805461079890612fa9565b80156107e55780601f106107ba576101008083540402835291602001916107e5565b820191906000526020600020905b8154815290600101906020018083116107c857829003601f168201915b505050918352505060079190910154600160a060020a03166020918201529082526001929092019101610557565b50505050815260200160068201805461082b90612fa9565b80601f016020809104026020016040519081016040528092919081815260200182805461085790612fa9565b80156108a45780601f10610879576101008083540402835291602001916108a4565b820191906000526020600020905b81548152906001019060200180831161088757829003601f168201915b505050505081526020016007820154815260200160088201805480602002602001604051908101604052809291908181526020016000905b82821015610a8457600084815260209081902060408051610100808201835260078702909301805460ff81161515835293909304600160a060020a039081169482019490945260018301549093169083015260028101805460608401919061094390612fa9565b80601f016020809104026020016040519081016040528092919081815260200182805461096f90612fa9565b80156109bc5780601f10610991576101008083540402835291602001916109bc565b820191906000526020600020905b81548152906001019060200180831161099f57829003601f168201915b505050505081526020016003820180546109d590612fa9565b80601f0160208091040260200160405190810160405280929190818152602001828054610a0190612fa9565b8015610a4e5780601f10610a2357610100808354040283529160200191610a4e565b820191906000526020600020905b815481529060010190602001808311610a3157829003601f168201915b505050505081526020016004820154815260200160058201548152602001600682015481525050815260200190600101906108dc565b5050509152505060a0810151519091506000908181610aed5760405160e560020a62461bcd02815260206004820152600760248201527f4e6f20646174610000000000000000000000000000000000000000000000000060448201526064015b60405180910390fd5b60005b8460a0015151811015610b575733600160a060020a03168560a001518281518110610b1d57610b1d612fe6565b602002602001015160600151600160a060020a031603610b4557610b42600185613018565b93505b80610b4f8161302b565b915050610af0565b5060008367ffffffffffffffff811115610b7357610b73612b10565b604051908082528060200260200182016040528015610bac57816020015b610b996128fd565b815260200190600190039081610b915790505b50905060005b8560a0015151811015610c555733600160a060020a03168660a001518281518110610bdf57610bdf612fe6565b602002602001015160600151600160a060020a031603610c43578560a001518181518110610c0f57610c0f612fe6565b6020026020010151828481518110610c2957610c29612fe6565b60200260200101819052508280610c3f9061302b565b9350505b80610c4d8161302b565b915050610bb2565b509695505050505050565b600160a060020a03811660009081526006602052604090205460609060ff16610c9e5760405160e560020a62461bcd028152600401610ae490613044565b600160a060020a038216600090815260076020908152604080832060050180548251818502810185019093528083529192909190849084015b82821015610f93578382906000526020600020906008020160405180610100016040529081600082018054610d0b90612fa9565b80601f0160208091040260200160405190810160405280929190818152602001828054610d3790612fa9565b8015610d845780601f10610d5957610100808354040283529160200191610d84565b820191906000526020600020905b815481529060010190602001808311610d6757829003601f168201915b50505050508152602001600182018054610d9d90612fa9565b80601f0160208091040260200160405190810160405280929190818152602001828054610dc990612fa9565b8015610e165780601f10610deb57610100808354040283529160200191610e16565b820191906000526020600020905b815481529060010190602001808311610df957829003601f168201915b50505050508152602001600282018054610e2f90612fa9565b80601f0160208091040260200160405190810160405280929190818152602001828054610e5b90612fa9565b8015610ea85780601f10610e7d57610100808354040283529160200191610ea8565b820191906000526020600020905b815481529060010190602001808311610e8b57829003601f168201915b50505091835250506003820154600160a060020a031660208201526004820154604082015260058201546060820152600682018054608090920191610eec90612fa9565b80601f0160208091040260200160405190810160405280929190818152602001828054610f1890612fa9565b8015610f655780601f10610f3a57610100808354040283529160200191610f65565b820191906000526020600020905b815481529060010190602001808311610f4857829003601f168201915b505050918352505060079190910154600160a060020a03166020918201529082526001929092019101610cd7565b50929695505050505050565b60028181548110610faf57600080fd5b600091825260209091200154600160a060020a0316905081565b600160a060020a03811660009081526006602052604090205460ff166110045760405160e560020a62461bcd028152600401610ae490613044565b3360009081526004602052604090205460ff166110665760405160e560020a62461bcd02815260206004820152601460248201527f596f7520617265206e6f74206120446f63746f720000000000000000000000006044820152606401610ae4565b600160a060020a0380821660008181526007602090815260408083208151610100810183528981528084018d90529182018b905294891660608201524260808201523460a082015260c0810187905260e08101939093526005909301805460018101825590825292902081519192600802019081906110e590826130ca565b50602082015160018201906110fa90826130ca565b506040820151600282019061110f90826130ca565b506060820151600382018054600160a060020a031916600160a060020a039092169190911790556080820151600482015560a0820151600582015560c0820151600682019061115e90826130ca565b5060e09182015160079182018054600160a060020a031916600160a060020a0392831617905586811660008181526005602090815260408083208151610100810183528b81528084018f90529182018d905260608201949094524260808201523460a082015260c0810189905293871695840195909552920180546001810182559083529290912081519192600802019081906111fb90826130ca565b506020820151600182019061121090826130ca565b506040820151600282019061122590826130ca565b506060820151600382018054600160a060020a031916600160a060020a039092169190911790556080820151600482015560a0820151600582015560c0820151600682019061127490826130ca565b5060e0919091015160079091018054600160a060020a031916600160a060020a03909216919091179055505050505050565b600160a060020a0381166000908152600560209081526040808320600601805482518185028101850190935280835260609492939192909184015b8282101561148957600084815260209081902060408051610100808201835260078702909301805460ff81161515835293909304600160a060020a039081169482019490945260018301549093169083015260028101805460608401919061134890612fa9565b80601f016020809104026020016040519081016040528092919081815260200182805461137490612fa9565b80156113c15780601f10611396576101008083540402835291602001916113c1565b820191906000526020600020905b8154815290600101906020018083116113a457829003601f168201915b505050505081526020016003820180546113da90612fa9565b80601f016020809104026020016040519081016040528092919081815260200182805461140690612fa9565b80156114535780601f1061142857610100808354040283529160200191611453565b820191906000526020600020905b81548152906001019060200180831161143657829003601f168201915b505050505081526020016004820154815260200160058201548152602001600682015481525050815260200190600101906112e1565b505050509050919050565b61149c6128fd565b600160a060020a03831660009081526007602052604081206005018054849081106114c9576114c9612fe6565b9060005260206000209060080201604051806101000160405290816000820180546114f390612fa9565b80601f016020809104026020016040519081016040528092919081815260200182805461151f90612fa9565b801561156c5780601f106115415761010080835404028352916020019161156c565b820191906000526020600020905b81548152906001019060200180831161154f57829003601f168201915b5050505050815260200160018201805461158590612fa9565b80601f01602080910402602001604051908101604052809291908181526020018280546115b190612fa9565b80156115fe5780601f106115d3576101008083540402835291602001916115fe565b820191906000526020600020905b8154815290600101906020018083116115e157829003601f168201915b5050505050815260200160028201805461161790612fa9565b80601f016020809104026020016040519081016040528092919081815260200182805461164390612fa9565b80156116905780601f1061166557610100808354040283529160200191611690565b820191906000526020600020905b81548152906001019060200180831161167357829003601f168201915b50505091835250506003820154600160a060020a0316602082015260048201546040820152600582015460608201526006820180546080909201916116d490612fa9565b80601f016020809104026020016040519081016040528092919081815260200182805461170090612fa9565b801561174d5780601f106117225761010080835404028352916020019161174d565b820191906000526020600020905b81548152906001019060200180831161173057829003601f168201915b505050918352505060079190910154600160a060020a03166020909101529150505b92915050565b3360009081526006602052604090205460ff16156117d85760405160e560020a62461bcd02815260206004820152601a60248201527f596f752061726520616c726561647920612070617469656e74200000000000006044820152606401610ae4565b336000908152600660209081526040808320805460ff191660011790556007909152902061180686826130ca565b50336000818152600760208190526040909120600281018054600160a060020a0319169093179092556004820185905560038201869055810183905560010161184f82826130ca565b506040805161014081018252600161010082018181527f610000000000000000000000000000000000000000000000000000000000000061012084018190529083528351808501855282815260208181018390528085019190915284518086018652838152808201839052848601523360608501819052600a6080860181905260a0860152855180870187528481528083019390935260c085019290925260e0840182905260009182526007815293812060050180549283018155815292909220815191928392600890910290910190819061192b90826130ca565b506020820151600182019061194090826130ca565b506040820151600282019061195590826130ca565b506060820151600382018054600160a060020a031916600160a060020a039092169190911790556080820151600482015560a0820151600582015560c082015160068201906119a490826130ca565b5060e0919091015160079182018054600160a060020a031916600160a060020a03909216919091179055336000908152602091825260408120600501805460018101825590825291902082518392600802909101908190611a0590826130ca565b5060208201516001820190611a1a90826130ca565b5060408201516002820190611a2f90826130ca565b506060820151600382018054600160a060020a031916600160a060020a039092169190911790556080820151600482015560a0820151600582015560c08201516006820190611a7e90826130ca565b5060e0919091015160079091018054600160a060020a03909216600160a060020a0319928316179055600380546001818101835560009283527fc2575a0e9e593c00f959f8c92f12db2869c3395a3b0502d05e2516446f71f85b9091018054909316331790925560088054909190611af7908490613018565b9091555050505050505050565b600560205260009081526040902080548190611b1f90612fa9565b80601f0160208091040260200160405190810160405280929190818152602001828054611b4b90612fa9565b8015611b985780601f10611b6d57610100808354040283529160200191611b98565b820191906000526020600020905b815481529060010190602001808311611b7b57829003601f168201915b505050505090806001018054611bad90612fa9565b80601f0160208091040260200160405190810160405280929190818152602001828054611bd990612fa9565b8015611c265780601f10611bfb57610100808354040283529160200191611c26565b820191906000526020600020905b815481529060010190602001808311611c0957829003601f168201915b505050506002830154600384015460048501546005909501549394600160a060020a039092169390925086565b600760205260009081526040902080548190611c6e90612fa9565b80601f0160208091040260200160405190810160405280929190818152602001828054611c9a90612fa9565b8015611ce75780601f10611cbc57610100808354040283529160200191611ce7565b820191906000526020600020905b815481529060010190602001808311611cca57829003601f168201915b505050505090806001018054611cfc90612fa9565b80601f0160208091040260200160405190810160405280929190818152602001828054611d2890612fa9565b8015611d755780601f10611d4a57610100808354040283529160200191611d75565b820191906000526020600020905b815481529060010190602001808311611d5857829003601f168201915b5050506002840154600385015460048601546006870180549697600160a060020a039094169692955090935090611dab90612fa9565b80601f0160208091040260200160405190810160405280929190818152602001828054611dd790612fa9565b8015611e245780601f10611df957610100808354040283529160200191611e24565b820191906000526020600020905b815481529060010190602001808311611e0757829003601f168201915b5050505050908060070154905087565b60018181548110611e4457600080fd5b600091825260209091206007909102018054600182015460028301805460ff84169550610100909304600160a060020a0390811694921692611e8590612fa9565b80601f0160208091040260200160405190810160405280929190818152602001828054611eb190612fa9565b8015611efe5780601f10611ed357610100808354040283529160200191611efe565b820191906000526020600020905b815481529060010190602001808311611ee157829003601f168201915b505050505090806003018054611f1390612fa9565b80601f0160208091040260200160405190810160405280929190818152602001828054611f3f90612fa9565b8015611f8c5780601f10611f6157610100808354040283529160200191611f8c565b820191906000526020600020905b815481529060010190602001808311611f6f57829003601f168201915b5050505050908060040154908060050154908060060154905088565b600160a060020a0381166000908152600660205260408120546060918291819083908290829060ff16611ff05760405160e560020a62461bcd028152600401610ae490613044565b600160a060020a0388166000908152600760205260408082208151610120810190925280548290829061202290612fa9565b80601f016020809104026020016040519081016040528092919081815260200182805461204e90612fa9565b801561209b5780601f106120705761010080835404028352916020019161209b565b820191906000526020600020905b81548152906001019060200180831161207e57829003601f168201915b505050505081526020016001820180546120b490612fa9565b80601f01602080910402602001604051908101604052809291908181526020018280546120e090612fa9565b801561212d5780601f106121025761010080835404028352916020019161212d565b820191906000526020600020905b81548152906001019060200180831161211057829003601f168201915b505050505081526020016002820160009054906101000a9004600160a060020a0316600160a060020a0316600160a060020a03168152602001600382015481526020016004820154815260200160058201805480602002602001604051908101604052809291908181526020016000905b8282101561245a5783829060005260206000209060080201604051806101000160405290816000820180546121d290612fa9565b80601f01602080910402602001604051908101604052809291908181526020018280546121fe90612fa9565b801561224b5780601f106122205761010080835404028352916020019161224b565b820191906000526020600020905b81548152906001019060200180831161222e57829003601f168201915b5050505050815260200160018201805461226490612fa9565b80601f016020809104026020016040519081016040528092919081815260200182805461229090612fa9565b80156122dd5780601f106122b2576101008083540402835291602001916122dd565b820191906000526020600020905b8154815290600101906020018083116122c057829003601f168201915b505050505081526020016002820180546122f690612fa9565b80601f016020809104026020016040519081016040528092919081815260200182805461232290612fa9565b801561236f5780601f106123445761010080835404028352916020019161236f565b820191906000526020600020905b81548152906001019060200180831161235257829003601f168201915b50505091835250506003820154600160a060020a0316602082015260048201546040820152600582015460608201526006820180546080909201916123b390612fa9565b80601f01602080910402602001604051908101604052809291908181526020018280546123df90612fa9565b801561242c5780601f106124015761010080835404028352916020019161242c565b820191906000526020600020905b81548152906001019060200180831161240f57829003601f168201915b505050918352505060079190910154600160a060020a0316602091820152908252600192909201910161219e565b50505050815260200160068201805461247290612fa9565b80601f016020809104026020016040519081016040528092919081815260200182805461249e90612fa9565b80156124eb5780601f106124c0576101008083540402835291602001916124eb565b820191906000526020600020905b8154815290600101906020018083116124ce57829003601f168201915b505050505081526020016007820154815260200160088201805480602002602001604051908101604052809291908181526020016000905b828210156126cb57600084815260209081902060408051610100808201835260078702909301805460ff81161515835293909304600160a060020a039081169482019490945260018301549093169083015260028101805460608401919061258a90612fa9565b80601f01602080910402602001604051908101604052809291908181526020018280546125b690612fa9565b80156126035780601f106125d857610100808354040283529160200191612603565b820191906000526020600020905b8154815290600101906020018083116125e657829003601f168201915b5050505050815260200160038201805461261c90612fa9565b80601f016020809104026020016040519081016040528092919081815260200182805461264890612fa9565b80156126955780601f1061266a57610100808354040283529160200191612695565b820191906000526020600020905b81548152906001019060200180831161267857829003601f168201915b50505050508152602001600482015481526020016005820154815260200160068201548152505081526020019060010190612523565b50505091525050805160208201516080830151606084015160c085015160e086015160a090960151949f939e50919c509a509850919650945092505050565b600160a060020a0381166000908152600760209081526040808320600801805482518185028101850190935280835260609492939192909184015b8282101561148957600084815260209081902060408051610100808201835260078702909301805460ff81161515835293909304600160a060020a03908116948201949094526001830154909316908301526002810180546060840191906127ac90612fa9565b80601f01602080910402602001604051908101604052809291908181526020018280546127d890612fa9565b80156128255780601f106127fa57610100808354040283529160200191612825565b820191906000526020600020905b81548152906001019060200180831161280857829003601f168201915b5050505050815260200160038201805461283e90612fa9565b80601f016020809104026020016040519081016040528092919081815260200182805461286a90612fa9565b80156128b75780601f1061288c576101008083540402835291602001916128b7565b820191906000526020600020905b81548152906001019060200180831161289a57829003601f168201915b50505050508152602001600482015481526020016005820154815260200160068201548152505081526020019060010190612745565b60038181548110610faf57600080fd5b6040518061010001604052806060815260200160608152602001606081526020016000600160a060020a031681526020016000815260200160008152602001606081526020016000600160a060020a031681525090565b8035600160a060020a038116811461296b57600080fd5b919050565b60006020828403121561298257600080fd5b61298b82612954565b9392505050565b6000815180845260005b818110156129b85760208185018101518683018201520161299c565b506000602082860101526020601f19601f83011685010191505092915050565b600061010082518185526129ee82860182612992565b91505060208301518482036020860152612a088282612992565b91505060408301518482036040860152612a228282612992565b9150506060830151612a3f6060860182600160a060020a03169052565b506080830151608085015260a083015160a085015260c083015184820360c0860152612a6b8282612992565b91505060e0830151612a8860e0860182600160a060020a03169052565b509392505050565b600081518084526020808501808196508284028101915082860160005b85811015612ad7578284038952612ac58483516129d8565b98850198935090840190600101612aad565b5091979650505050505050565b60208152600061298b6020830184612a90565b600060208284031215612b0957600080fd5b5035919050565b60e060020a634e487b7102600052604160045260246000fd5b600082601f830112612b3a57600080fd5b813567ffffffffffffffff80821115612b5557612b55612b10565b604051601f8301601f19908116603f01168101908282118183101715612b7d57612b7d612b10565b81604052838152866020858801011115612b9657600080fd5b836020870160208301376000602085830101528094505050505092915050565b60008060008060008060c08789031215612bcf57600080fd5b863567ffffffffffffffff80821115612be757600080fd5b612bf38a838b01612b29565b97506020890135915080821115612c0957600080fd5b612c158a838b01612b29565b9650612c2360408a01612954565b95506060890135915080821115612c3957600080fd5b612c458a838b01612b29565b94506080890135915080821115612c5b57600080fd5b50612c6889828a01612b29565b925050612c7760a08801612954565b90509295509295509295565b60208082528251828201819052600091906040908185019080840286018301878501865b83811015612d4957603f19898403018552815180511515845287810151600160a060020a03908116898601528782015116878501526060808201516101008287018190529190612cf983880182612992565b9250505060808083015186830382880152612d148382612992565b60a0858101519089015260c0808601519089015260e09485015194909701939093525050509386019390860190600101612ca7565b509098975050505050505050565b60008060408385031215612d6a57600080fd5b612d7383612954565b946020939093013593505050565b60208152600061298b60208301846129d8565b600080600080600060a08688031215612dac57600080fd5b853567ffffffffffffffff80821115612dc457600080fd5b612dd089838a01612b29565b96506020880135955060408801359450606088013593506080880135915080821115612dfb57600080fd5b50612e0888828901612b29565b9150509295509295909350565b60c081526000612e2860c0830189612992565b8281036020840152612e3a8189612992565b915050600160a060020a03861660408301528460608301528360808301528260a0830152979650505050505050565b60e081526000612e7c60e083018a612992565b8281036020840152612e8e818a612992565b9050600160a060020a038816604084015286606084015285608084015282810360a0840152612ebd8186612992565b9150508260c083015298975050505050505050565b60006101008a15158352600160a060020a03808b166020850152808a16604085015250806060840152612f0781840189612992565b90508281036080840152612f1b8188612992565b60a0840196909652505060c081019290925260e09091015295945050505050565b60e081526000612f4f60e083018a612992565b8281036020840152612f61818a612992565b90508760408401528660608401528281036080840152612f818187612992565b90508460a084015282810360c0840152612f9b8185612a90565b9a9950505050505050505050565b600281046001821680612fbd57607f821691505b602082108103612fe05760e060020a634e487b7102600052602260045260246000fd5b50919050565b60e060020a634e487b7102600052603260045260246000fd5b60e060020a634e487b7102600052601160045260246000fd5b8082018082111561176f5761176f612fff565b60006001820161303d5761303d612fff565b5060010190565b60208082526015908201527f596f7520617265206e6f7420612070617469656e740000000000000000000000604082015260600190565b601f8211156130c5576000818152602081206020601f860104810160208610156130a25750805b6020601f860104820191505b818110156130c1578281556001016130ae565b5050505b505050565b815167ffffffffffffffff8111156130e4576130e4612b10565b6130f8816130f28454612fa9565b8461307b565b602080601f83116001811461313157600084156131155750858301515b60028086026008870290910a60001904198216178655506130c1565b600085815260208120601f198616915b8281101561316057888601518255948401946001909101908401613141565b508582101561318057878501516008601f88160260020a60001904191681555b505050505060020260010190555056fea2646970667358221220d855ee901a8b1cd814ffb104d01b2472c21da65084d3249fc3ea0cd187e8222c64736f6c63430008120033",
  "immutableReferences": {},
  "source": "// SPDX-License-Identifier: GPL-3.0\r\npragma solidity >=0.7.0 <0.9.0;\r\n\r\ncontract HealthManagement2 {\r\n  struct Record{\r\n        // string [] fileHashes;\r\n        string docname;\r\n        string fileHashes;\r\n        string presciptions;\r\n        address payable doctor_;\r\n        uint256 timeStamp;\r\n        uint256 amount;\r\n        string patientName;\r\n        address payable patientaddr;\r\n        // MedicinePrescription[] medicines;    \r\n    }\r\n\r\n    struct Appointment{\r\n        // address doctor_;\r\n        bool status;\r\n        address payable patient_;\r\n        address payable doctor_;\r\n        string patientName;\r\n        string docname;\r\n        uint256 timeslot_;\r\n        uint256 timeStart;\r\n        uint256 timeEnd;\r\n    }\r\n\r\n    // PATIENTS :\r\n    struct Patient{\r\n        string name;\r\n        string email;\r\n        address payable address_;\r\n        uint256 phone;\r\n        uint256 age;\r\n        Record [] records_;\r\n        string bloodgroup;\r\n        uint256 dob;\r\n        Appointment [] myAppointments;\r\n    }\r\n\r\n    struct Doctor{\r\n        string name;\r\n        string email;\r\n        address payable address_;\r\n        // address [] doctorToPatient;\r\n        uint256 basefee;\r\n        uint256 starCount;\r\n        uint256 totalPatients;\r\n        Appointment []  appointments_;\r\n        Record [] records_;\r\n        // mapping( address => uint) myPatients;\r\n    }\r\n\r\n    address owner_;\r\n\r\n    Appointment [] public allAppointments;\r\n    address [] public alldoctors;\r\n    address []public allPatientsList;\r\n\r\n    mapping (address=>bool)public isDoctor;\r\n    mapping (address => Doctor)public allDoctors;\r\n    mapping( address => bool)public isPatient;\r\n    // mapping( address => bool)public isDoctor;\r\n    mapping( address => Patient) public allPatients;\r\n    // mapping( address => Record []) public patientRecords;\r\n\r\n    uint256 patientCount;\r\n    uint256 doctorCount ;\r\n    uint256 appointmentCount;\r\n\r\n    \r\n    function  addPatient(string memory name,uint256 phone,uint256 age,uint256 dob,string memory email) public {\r\n        require(isPatient[msg.sender] == false,\"You are already a patient \");\r\n        isPatient[msg.sender] = true;\r\n        allPatients[msg.sender].name= name;\r\n        allPatients[msg.sender].address_= payable((msg.sender));\r\n        allPatients[msg.sender].age= age;\r\n        allPatients[msg.sender].phone= phone;\r\n        allPatients[msg.sender].dob= dob;\r\n        allPatients[msg.sender].email= email;\r\n        Record memory r1= Record(\r\n            \"a\",\"a\",\"a\",payable(msg.sender),10,10,\"a\",payable(msg.sender)\r\n        );\r\n        allPatients[msg.sender].records_.push(r1);\r\n        allPatients[msg.sender].records_.push(r1);\r\n        allPatientsList.push(msg.sender);\r\n        patientCount+=1;\r\n    } \r\n\r\n    function getPatientDetails(address addr) public view returns(\r\n        string memory name,string memory email,uint256  age, uint256  phone,\r\n        string memory bloodgroup , uint256  dob ,Record [] memory recordss) {\r\n\r\n        require(isPatient[addr],\"You are not a patient\");\r\n        Patient memory p = allPatients[addr];\r\n        return (p.name,p.email,p.age,p.phone,p.bloodgroup,p.dob,p.records_);\r\n    }\r\n    \r\n    function addPatientRecord(\r\n        string memory currentfiles,\r\n        string memory presciptions,\r\n        address doctor_,\r\n        string memory docname,\r\n        string memory patientName,\r\n        address  patientaddr\r\n        ) public payable {\r\n\r\n        require(isPatient[patientaddr],\"You are not a patient\");\r\n        require(isDoctor[msg.sender],\"You are not a Doctor\");\r\n        // might have to do storage\r\n\r\n        allPatients[patientaddr].records_.push(Record(docname,currentfiles,presciptions,payable(doctor_),block.timestamp,msg.value  ,patientName,payable(patientaddr)));\r\n        allDoctors[doctor_].records_.push(Record(docname,currentfiles,presciptions,payable(doctor_),block.timestamp,msg.value,patientName,payable(patientaddr)));\r\n        \r\n    }\r\n    \r\n    function getPatientRecords(address addr) public view returns( Record[] memory records ) {\r\n        require(isPatient[addr],\"You are not a patient\");\r\n        Record [] memory r = allPatients[addr].records_;\r\n        return (r);\r\n    }\r\n\r\n    function getOneRecord(address addr,uint256 index) public view returns (Record memory rec) {\r\n        Record memory r = allPatients[addr].records_[index];\r\n        return (r);\r\n    }\r\n\r\n    function getRecordOfOnePatient(address p) public view returns ( Record[] memory doctorRecord ){\r\n        Patient memory P = allPatients[p];\r\n        uint count = 0;\r\n        uint len = P.records_.length;\r\n        uint pos = 0;\r\n        require(len > 0 ,\"No data\");\r\n        // if(len == 0)return ;\r\n        for(uint i=0 ; i < P.records_.length  ;i++)\r\n            if(P.records_[i].doctor_ == msg.sender)count+=1;\r\n        \r\n        Record [] memory temp = new Record[](count) ;\r\n\r\n        for(uint i=0 ; i < P.records_.length  ;i++)\r\n            if(P.records_[i].doctor_ == msg.sender){\r\n               temp[pos] = P.records_[i];\r\n               pos++;\r\n            }\r\n\r\n        return (temp);\r\n    }\r\n    \r\n    function getDoctorAppointment(address docAdd)public view returns(Appointment [] memory app ){\r\n        return (allDoctors[docAdd].appointments_);\r\n    }\r\n\r\n    function getPatientAppointment(address patAdd)public view returns(Appointment [] memory app ){\r\n        return (allPatients[patAdd].myAppointments);\r\n    }\r\n}",
  "sourcePath": "G:\\coding\\Projects\\pro-10-bc\\front-2\\truffle\\contracts\\Medical_2.sol",
  "compiler": {
    "name": "solc",
    "version": "0.8.18+commit.87f61d96.Emscripten.clang"
  },
  "schemaVersion": "3.4.12",
  "updatedAt": "2023-04-17T10:16:35.740Z",
  "networkType": "ethereum",
  "devdoc": {
    "kind": "dev",
    "methods": {},
    "version": 1
  },
  "userdoc": {
    "kind": "user",
    "methods": {},
    "version": 1
  }
}