{
  "contractName": "HealthManagement2",
  "abi": [
    {
      "inputs": [
        {
          "internalType": "uint256",
          "name": "",
          "type": "uint256"
        }
      ],
      "name": "allAppointments",
      "outputs": [
        {
          "internalType": "bool",
          "name": "status",
          "type": "bool"
        },
        {
          "internalType": "address payable",
          "name": "patient_",
          "type": "address"
        },
        {
          "internalType": "address payable",
          "name": "doctor_",
          "type": "address"
        },
        {
          "internalType": "string",
          "name": "patientName",
          "type": "string"
        },
        {
          "internalType": "string",
          "name": "docname",
          "type": "string"
        },
        {
          "internalType": "uint256",
          "name": "timeslot_",
          "type": "uint256"
        },
        {
          "internalType": "uint256",
          "name": "timeStart",
          "type": "uint256"
        },
        {
          "internalType": "uint256",
          "name": "timeEnd",
          "type": "uint256"
        },
        {
          "internalType": "uint256",
          "name": "id",
          "type": "uint256"
        }
      ],
      "stateMutability": "view",
      "type": "function",
      "constant": true
    },
    {
      "inputs": [
        {
          "internalType": "address",
          "name": "",
          "type": "address"
        }
      ],
      "name": "allDoctors",
      "outputs": [
        {
          "internalType": "string",
          "name": "name",
          "type": "string"
        },
        {
          "internalType": "string",
          "name": "email",
          "type": "string"
        },
        {
          "internalType": "string",
          "name": "gender",
          "type": "string"
        },
        {
          "internalType": "string",
          "name": "introduction",
          "type": "string"
        },
        {
          "internalType": "uint256",
          "name": "age",
          "type": "uint256"
        },
        {
          "internalType": "string",
          "name": "location",
          "type": "string"
        },
        {
          "internalType": "address payable",
          "name": "address_",
          "type": "address"
        },
        {
          "internalType": "uint256",
          "name": "basefee",
          "type": "uint256"
        },
        {
          "internalType": "uint256",
          "name": "starCount",
          "type": "uint256"
        },
        {
          "internalType": "uint256",
          "name": "totalPatients",
          "type": "uint256"
        }
      ],
      "stateMutability": "view",
      "type": "function",
      "constant": true
    },
    {
      "inputs": [
        {
          "internalType": "address",
          "name": "",
          "type": "address"
        }
      ],
      "name": "allPatients",
      "outputs": [
        {
          "internalType": "string",
          "name": "name",
          "type": "string"
        },
        {
          "internalType": "string",
          "name": "email",
          "type": "string"
        },
        {
          "internalType": "address payable",
          "name": "address_",
          "type": "address"
        },
        {
          "internalType": "uint256",
          "name": "phone",
          "type": "uint256"
        },
        {
          "internalType": "uint256",
          "name": "age",
          "type": "uint256"
        },
        {
          "internalType": "string",
          "name": "bloodgroup",
          "type": "string"
        },
        {
          "internalType": "uint256",
          "name": "dob",
          "type": "uint256"
        }
      ],
      "stateMutability": "view",
      "type": "function",
      "constant": true
    },
    {
      "inputs": [
        {
          "internalType": "uint256",
          "name": "",
          "type": "uint256"
        }
      ],
      "name": "allPatientsList",
      "outputs": [
        {
          "internalType": "address",
          "name": "",
          "type": "address"
        }
      ],
      "stateMutability": "view",
      "type": "function",
      "constant": true
    },
    {
      "inputs": [
        {
          "internalType": "uint256",
          "name": "",
          "type": "uint256"
        }
      ],
      "name": "alldoctors",
      "outputs": [
        {
          "internalType": "address",
          "name": "",
          "type": "address"
        }
      ],
      "stateMutability": "view",
      "type": "function",
      "constant": true
    },
    {
      "inputs": [
        {
          "internalType": "address",
          "name": "",
          "type": "address"
        }
      ],
      "name": "isDoctor",
      "outputs": [
        {
          "internalType": "bool",
          "name": "",
          "type": "bool"
        }
      ],
      "stateMutability": "view",
      "type": "function",
      "constant": true
    },
    {
      "inputs": [
        {
          "internalType": "address",
          "name": "",
          "type": "address"
        }
      ],
      "name": "isPatient",
      "outputs": [
        {
          "internalType": "bool",
          "name": "",
          "type": "bool"
        }
      ],
      "stateMutability": "view",
      "type": "function",
      "constant": true
    },
    {
      "inputs": [
        {
          "internalType": "string",
          "name": "name",
          "type": "string"
        },
        {
          "internalType": "uint256",
          "name": "phone",
          "type": "uint256"
        },
        {
          "internalType": "uint256",
          "name": "age",
          "type": "uint256"
        },
        {
          "internalType": "uint256",
          "name": "dob",
          "type": "uint256"
        },
        {
          "internalType": "string",
          "name": "email",
          "type": "string"
        }
      ],
      "name": "addPatient",
      "outputs": [],
      "stateMutability": "nonpayable",
      "type": "function"
    },
    {
      "inputs": [
        {
          "internalType": "address",
          "name": "addr",
          "type": "address"
        }
      ],
      "name": "getPatientDetails",
      "outputs": [
        {
          "internalType": "string",
          "name": "name",
          "type": "string"
        },
        {
          "internalType": "string",
          "name": "email",
          "type": "string"
        },
        {
          "internalType": "uint256",
          "name": "age",
          "type": "uint256"
        },
        {
          "internalType": "uint256",
          "name": "phone",
          "type": "uint256"
        },
        {
          "internalType": "string",
          "name": "bloodgroup",
          "type": "string"
        },
        {
          "internalType": "uint256",
          "name": "dob",
          "type": "uint256"
        },
        {
          "components": [
            {
              "internalType": "string",
              "name": "docname",
              "type": "string"
            },
            {
              "internalType": "string",
              "name": "fileHashes",
              "type": "string"
            },
            {
              "internalType": "string",
              "name": "presciptions",
              "type": "string"
            },
            {
              "internalType": "string",
              "name": "finalRemarks",
              "type": "string"
            },
            {
              "internalType": "address payable",
              "name": "doctor_",
              "type": "address"
            },
            {
              "internalType": "uint256",
              "name": "timeStamp",
              "type": "uint256"
            },
            {
              "internalType": "uint256",
              "name": "amount",
              "type": "uint256"
            },
            {
              "internalType": "string",
              "name": "patientName",
              "type": "string"
            },
            {
              "internalType": "address payable",
              "name": "patientaddr",
              "type": "address"
            }
          ],
          "internalType": "struct HealthManagement2.Record[]",
          "name": "recordss",
          "type": "tuple[]"
        }
      ],
      "stateMutability": "view",
      "type": "function",
      "constant": true
    },
    {
      "inputs": [
        {
          "internalType": "string",
          "name": "currentfiles",
          "type": "string"
        },
        {
          "internalType": "string",
          "name": "presciptions",
          "type": "string"
        },
        {
          "internalType": "string",
          "name": "finalRemarks",
          "type": "string"
        },
        {
          "internalType": "address",
          "name": "doctor_",
          "type": "address"
        },
        {
          "internalType": "address",
          "name": "patientaddr",
          "type": "address"
        }
      ],
      "name": "addPatientRecord",
      "outputs": [],
      "stateMutability": "payable",
      "type": "function",
      "payable": true
    },
    {
      "inputs": [
        {
          "internalType": "address",
          "name": "addr",
          "type": "address"
        }
      ],
      "name": "getPatientRecords",
      "outputs": [
        {
          "components": [
            {
              "internalType": "string",
              "name": "docname",
              "type": "string"
            },
            {
              "internalType": "string",
              "name": "fileHashes",
              "type": "string"
            },
            {
              "internalType": "string",
              "name": "presciptions",
              "type": "string"
            },
            {
              "internalType": "string",
              "name": "finalRemarks",
              "type": "string"
            },
            {
              "internalType": "address payable",
              "name": "doctor_",
              "type": "address"
            },
            {
              "internalType": "uint256",
              "name": "timeStamp",
              "type": "uint256"
            },
            {
              "internalType": "uint256",
              "name": "amount",
              "type": "uint256"
            },
            {
              "internalType": "string",
              "name": "patientName",
              "type": "string"
            },
            {
              "internalType": "address payable",
              "name": "patientaddr",
              "type": "address"
            }
          ],
          "internalType": "struct HealthManagement2.Record[]",
          "name": "records",
          "type": "tuple[]"
        }
      ],
      "stateMutability": "view",
      "type": "function",
      "constant": true
    },
    {
      "inputs": [
        {
          "internalType": "address",
          "name": "addr",
          "type": "address"
        },
        {
          "internalType": "uint256",
          "name": "index",
          "type": "uint256"
        }
      ],
      "name": "getOneRecord",
      "outputs": [
        {
          "components": [
            {
              "internalType": "string",
              "name": "docname",
              "type": "string"
            },
            {
              "internalType": "string",
              "name": "fileHashes",
              "type": "string"
            },
            {
              "internalType": "string",
              "name": "presciptions",
              "type": "string"
            },
            {
              "internalType": "string",
              "name": "finalRemarks",
              "type": "string"
            },
            {
              "internalType": "address payable",
              "name": "doctor_",
              "type": "address"
            },
            {
              "internalType": "uint256",
              "name": "timeStamp",
              "type": "uint256"
            },
            {
              "internalType": "uint256",
              "name": "amount",
              "type": "uint256"
            },
            {
              "internalType": "string",
              "name": "patientName",
              "type": "string"
            },
            {
              "internalType": "address payable",
              "name": "patientaddr",
              "type": "address"
            }
          ],
          "internalType": "struct HealthManagement2.Record",
          "name": "rec",
          "type": "tuple"
        }
      ],
      "stateMutability": "view",
      "type": "function",
      "constant": true
    },
    {
      "inputs": [
        {
          "internalType": "address",
          "name": "p",
          "type": "address"
        }
      ],
      "name": "getRecordOfOnePatient",
      "outputs": [
        {
          "components": [
            {
              "internalType": "string",
              "name": "docname",
              "type": "string"
            },
            {
              "internalType": "string",
              "name": "fileHashes",
              "type": "string"
            },
            {
              "internalType": "string",
              "name": "presciptions",
              "type": "string"
            },
            {
              "internalType": "string",
              "name": "finalRemarks",
              "type": "string"
            },
            {
              "internalType": "address payable",
              "name": "doctor_",
              "type": "address"
            },
            {
              "internalType": "uint256",
              "name": "timeStamp",
              "type": "uint256"
            },
            {
              "internalType": "uint256",
              "name": "amount",
              "type": "uint256"
            },
            {
              "internalType": "string",
              "name": "patientName",
              "type": "string"
            },
            {
              "internalType": "address payable",
              "name": "patientaddr",
              "type": "address"
            }
          ],
          "internalType": "struct HealthManagement2.Record[]",
          "name": "doctorRecord",
          "type": "tuple[]"
        }
      ],
      "stateMutability": "view",
      "type": "function",
      "constant": true
    },
    {
      "inputs": [
        {
          "internalType": "address",
          "name": "docAdd",
          "type": "address"
        }
      ],
      "name": "getDoctorAppointment",
      "outputs": [
        {
          "components": [
            {
              "internalType": "bool",
              "name": "status",
              "type": "bool"
            },
            {
              "internalType": "address payable",
              "name": "patient_",
              "type": "address"
            },
            {
              "internalType": "address payable",
              "name": "doctor_",
              "type": "address"
            },
            {
              "internalType": "string",
              "name": "patientName",
              "type": "string"
            },
            {
              "internalType": "string",
              "name": "docname",
              "type": "string"
            },
            {
              "internalType": "uint256",
              "name": "timeslot_",
              "type": "uint256"
            },
            {
              "internalType": "uint256",
              "name": "timeStart",
              "type": "uint256"
            },
            {
              "internalType": "uint256",
              "name": "timeEnd",
              "type": "uint256"
            },
            {
              "internalType": "uint256",
              "name": "id",
              "type": "uint256"
            }
          ],
          "internalType": "struct HealthManagement2.Appointment[]",
          "name": "app",
          "type": "tuple[]"
        }
      ],
      "stateMutability": "view",
      "type": "function",
      "constant": true
    },
    {
      "inputs": [
        {
          "internalType": "address",
          "name": "patAdd",
          "type": "address"
        }
      ],
      "name": "getPatientAppointment",
      "outputs": [
        {
          "components": [
            {
              "internalType": "bool",
              "name": "status",
              "type": "bool"
            },
            {
              "internalType": "address payable",
              "name": "patient_",
              "type": "address"
            },
            {
              "internalType": "address payable",
              "name": "doctor_",
              "type": "address"
            },
            {
              "internalType": "string",
              "name": "patientName",
              "type": "string"
            },
            {
              "internalType": "string",
              "name": "docname",
              "type": "string"
            },
            {
              "internalType": "uint256",
              "name": "timeslot_",
              "type": "uint256"
            },
            {
              "internalType": "uint256",
              "name": "timeStart",
              "type": "uint256"
            },
            {
              "internalType": "uint256",
              "name": "timeEnd",
              "type": "uint256"
            },
            {
              "internalType": "uint256",
              "name": "id",
              "type": "uint256"
            }
          ],
          "internalType": "struct HealthManagement2.Appointment[]",
          "name": "app",
          "type": "tuple[]"
        }
      ],
      "stateMutability": "view",
      "type": "function",
      "constant": true
    },
    {
      "inputs": [
        {
          "internalType": "address",
          "name": "docAddr",
          "type": "address"
        }
      ],
      "name": "updateRecordAccess",
      "outputs": [],
      "stateMutability": "nonpayable",
      "type": "function"
    }
  ],
  "bytecode": "0x608060405234801561001057600080fd5b50613232806100206000396000f3fe608060405260043610610110576000357c0100000000000000000000000000000000000000000000000000000000900480639cf3cbae116100a7578063efe2ccc111610076578063efe2ccc11461034d578063fc8a4de414610380578063fddfa7f2146103a0578063ff68115b146103b357600080fd5b80639cf3cbae1461028f578063b6ad1015146102af578063cd25d7be146102e5578063e3a3bf9c1461031857600080fd5b80637966c802116100e35780637966c802146101d05780638b0920fe146101fd5780638f9c79ed1461021f578063996440c61461025f57600080fd5b8063036d6b311461011557806318bd48471461014b578063285a38071461016b5780633da28875146101a3575b600080fd5b34801561012157600080fd5b50610135610130366004612979565b6103d3565b6040516101429190612b0d565b60405180910390f35b34801561015757600080fd5b50610135610166366004612979565b6108f6565b34801561017757600080fd5b5061018b610186366004612b20565b610d55565b604051600160a060020a039091168152602001610142565b3480156101af57600080fd5b506101c36101be366004612979565b610d7f565b6040516101429190612b39565b3480156101dc57600080fd5b506101f06101eb366004612c1f565b610f7a565b6040516101429190612c49565b34801561020957600080fd5b5061021d610218366004612d02565b6112ed565b005b34801561022b57600080fd5b5061024f61023a366004612979565b60066020526000908152604090205460ff1681565b6040519015158152602001610142565b34801561026b57600080fd5b5061024f61027a366004612979565b60046020526000908152604090205460ff1681565b34801561029b57600080fd5b5061021d6102aa366004612979565b611445565b3480156102bb57600080fd5b506102cf6102ca366004612979565b6114f7565b6040516101429a99989796959493929190612d83565b3480156102f157600080fd5b50610305610300366004612979565b6117f6565b6040516101429796959493929190612e22565b34801561032457600080fd5b50610338610333366004612b20565b6119d7565b60405161014299989796959493929190612e8b565b34801561035957600080fd5b5061036d610368366004612979565b611b51565b6040516101429796959493929190612efe565b34801561038c57600080fd5b506101c361039b366004612979565b612114565b61021d6103ae366004612f6b565b612304565b3480156103bf57600080fd5b5061018b6103ce366004612b20565b6128ef565b600160a060020a0381166000908152600760205260408120600581015460609290818161044a5760405160e560020a62461bcd02815260206004820152600760248201527f4e6f20646174610000000000000000000000000000000000000000000000000060448201526064015b60405180910390fd5b60005b60058501548110156104ba5733600160a060020a031685600501828154811061047857610478613015565b6000918252602090912060046009909202010154600160a060020a0316036104a8576104a5600185613047565b93505b806104b28161305a565b91505061044d565b5060008367ffffffffffffffff8111156104d6576104d6612c5c565b60405190808252806020026020018201604052801561050f57816020015b6104fc6128ff565b8152602001906001900390816104f45790505b50905060005b60058601548110156108eb5733600160a060020a031686600501828154811061054057610540613015565b6000918252602090912060046009909202010154600160a060020a0316036108d95785600501818154811061057757610577613015565b9060005260206000209060090201604051806101200160405290816000820180546105a190613073565b80601f01602080910402602001604051908101604052809291908181526020018280546105cd90613073565b801561061a5780601f106105ef5761010080835404028352916020019161061a565b820191906000526020600020905b8154815290600101906020018083116105fd57829003601f168201915b5050505050815260200160018201805461063390613073565b80601f016020809104026020016040519081016040528092919081815260200182805461065f90613073565b80156106ac5780601f10610681576101008083540402835291602001916106ac565b820191906000526020600020905b81548152906001019060200180831161068f57829003601f168201915b505050505081526020016002820180546106c590613073565b80601f01602080910402602001604051908101604052809291908181526020018280546106f190613073565b801561073e5780601f106107135761010080835404028352916020019161073e565b820191906000526020600020905b81548152906001019060200180831161072157829003601f168201915b5050505050815260200160038201805461075790613073565b80601f016020809104026020016040519081016040528092919081815260200182805461078390613073565b80156107d05780601f106107a5576101008083540402835291602001916107d0565b820191906000526020600020905b8154815290600101906020018083116107b357829003601f168201915b50505091835250506004820154600160a060020a03166020820152600582015460408201526006820154606082015260078201805460809092019161081490613073565b80601f016020809104026020016040519081016040528092919081815260200182805461084090613073565b801561088d5780601f106108625761010080835404028352916020019161088d565b820191906000526020600020905b81548152906001019060200180831161087057829003601f168201915b505050918352505060089190910154600160a060020a031660209091015282518390859081106108bf576108bf613015565b602002602001018190525082806108d59061305a565b9350505b806108e38161305a565b915050610515565b509695505050505050565b600160a060020a03811660009081526006602052604090205460609060ff166109345760405160e560020a62461bcd028152600401610441906130b0565b33600160a060020a038316146109c257600160a060020a038216600090815260076020908152604080832033845260090190915290205460ff1615156001146109c25760405160e560020a62461bcd02815260206004820152601e60248201527f596f7520617265206e6f7420617574686f72697a656420746f207669657700006044820152606401610441565b600160a060020a038216600090815260076020908152604080832060050180548251818502810185019093528083529192909190849084015b82821015610d49578382906000526020600020906009020160405180610120016040529081600082018054610a2f90613073565b80601f0160208091040260200160405190810160405280929190818152602001828054610a5b90613073565b8015610aa85780601f10610a7d57610100808354040283529160200191610aa8565b820191906000526020600020905b815481529060010190602001808311610a8b57829003601f168201915b50505050508152602001600182018054610ac190613073565b80601f0160208091040260200160405190810160405280929190818152602001828054610aed90613073565b8015610b3a5780601f10610b0f57610100808354040283529160200191610b3a565b820191906000526020600020905b815481529060010190602001808311610b1d57829003601f168201915b50505050508152602001600282018054610b5390613073565b80601f0160208091040260200160405190810160405280929190818152602001828054610b7f90613073565b8015610bcc5780601f10610ba157610100808354040283529160200191610bcc565b820191906000526020600020905b815481529060010190602001808311610baf57829003601f168201915b50505050508152602001600382018054610be590613073565b80601f0160208091040260200160405190810160405280929190818152602001828054610c1190613073565b8015610c5e5780601f10610c3357610100808354040283529160200191610c5e565b820191906000526020600020905b815481529060010190602001808311610c4157829003601f168201915b50505091835250506004820154600160a060020a031660208201526005820154604082015260068201546060820152600782018054608090920191610ca290613073565b80601f0160208091040260200160405190810160405280929190818152602001828054610cce90613073565b8015610d1b5780601f10610cf057610100808354040283529160200191610d1b565b820191906000526020600020905b815481529060010190602001808311610cfe57829003601f168201915b505050918352505060089190910154600160a060020a031660209182015290825260019290920191016109fb565b50929695505050505050565b60028181548110610d6557600080fd5b600091825260209091200154600160a060020a0316905081565b600160a060020a0381166000908152600560209081526040808320600a01805482518185028101850190935280835260609492939192909184015b82821015610f6f576000848152602090819020604080516101208101825260088602909201805460ff811615158452600160a060020a03610100909104811694840194909452600181015490931690820152600282018054919291606084019190610e2490613073565b80601f0160208091040260200160405190810160405280929190818152602001828054610e5090613073565b8015610e9d5780601f10610e7257610100808354040283529160200191610e9d565b820191906000526020600020905b815481529060010190602001808311610e8057829003601f168201915b50505050508152602001600382018054610eb690613073565b80601f0160208091040260200160405190810160405280929190818152602001828054610ee290613073565b8015610f2f5780601f10610f0457610100808354040283529160200191610f2f565b820191906000526020600020905b815481529060010190602001808311610f1257829003601f168201915b5050505050815260200160048201548152602001600582015481526020016006820154815260200160078201548152505081526020019060010190610dba565b505050509050919050565b610f826128ff565b600160a060020a0383166000908152600760205260408120600501805484908110610faf57610faf613015565b906000526020600020906009020160405180610120016040529081600082018054610fd990613073565b80601f016020809104026020016040519081016040528092919081815260200182805461100590613073565b80156110525780601f1061102757610100808354040283529160200191611052565b820191906000526020600020905b81548152906001019060200180831161103557829003601f168201915b5050505050815260200160018201805461106b90613073565b80601f016020809104026020016040519081016040528092919081815260200182805461109790613073565b80156110e45780601f106110b9576101008083540402835291602001916110e4565b820191906000526020600020905b8154815290600101906020018083116110c757829003601f168201915b505050505081526020016002820180546110fd90613073565b80601f016020809104026020016040519081016040528092919081815260200182805461112990613073565b80156111765780601f1061114b57610100808354040283529160200191611176565b820191906000526020600020905b81548152906001019060200180831161115957829003601f168201915b5050505050815260200160038201805461118f90613073565b80601f01602080910402602001604051908101604052809291908181526020018280546111bb90613073565b80156112085780601f106111dd57610100808354040283529160200191611208565b820191906000526020600020905b8154815290600101906020018083116111eb57829003601f168201915b50505091835250506004820154600160a060020a03166020820152600582015460408201526006820154606082015260078201805460809092019161124c90613073565b80601f016020809104026020016040519081016040528092919081815260200182805461127890613073565b80156112c55780601f1061129a576101008083540402835291602001916112c5565b820191906000526020600020905b8154815290600101906020018083116112a857829003601f168201915b505050918352505060089190910154600160a060020a03166020909101529150505b92915050565b3360009081526006602052604090205460ff16156113505760405160e560020a62461bcd02815260206004820152601a60248201527f596f752061726520616c726561647920612070617469656e74200000000000006044820152606401610441565b336000908152600660209081526040808320805460ff191660011790556007909152902061137e8682613136565b5033600081815260076020819052604090912060028101805473ffffffffffffffffffffffffffffffffffffffff1916909317909255600482018590556003820186905581018390556001016113d48282613136565b50600380546001818101835560009283527fc2575a0e9e593c00f959f8c92f12db2869c3395a3b0502d05e2516446f71f85b909101805473ffffffffffffffffffffffffffffffffffffffff1916331790556008805491929091611439908490613047565b90915550505050505050565b336000908152600760209081526040808320600160a060020a0385168452600981019092529091205460ff16156114c15760405160e560020a62461bcd02815260206004820152601860248201527f596f75206861766520616c7265616479207570646174656400000000000000006044820152606401610441565b50336000908152600760209081526040808320600160a060020a039490941683526009909301905220805460ff19166001179055565b60056020526000908152604090208054819061151290613073565b80601f016020809104026020016040519081016040528092919081815260200182805461153e90613073565b801561158b5780601f106115605761010080835404028352916020019161158b565b820191906000526020600020905b81548152906001019060200180831161156e57829003601f168201915b5050505050908060010180546115a090613073565b80601f01602080910402602001604051908101604052809291908181526020018280546115cc90613073565b80156116195780601f106115ee57610100808354040283529160200191611619565b820191906000526020600020905b8154815290600101906020018083116115fc57829003601f168201915b50505050509080600201805461162e90613073565b80601f016020809104026020016040519081016040528092919081815260200182805461165a90613073565b80156116a75780601f1061167c576101008083540402835291602001916116a7565b820191906000526020600020905b81548152906001019060200180831161168a57829003601f168201915b5050505050908060030180546116bc90613073565b80601f01602080910402602001604051908101604052809291908181526020018280546116e890613073565b80156117355780601f1061170a57610100808354040283529160200191611735565b820191906000526020600020905b81548152906001019060200180831161171857829003601f168201915b50505050509080600401549080600501805461175090613073565b80601f016020809104026020016040519081016040528092919081815260200182805461177c90613073565b80156117c95780601f1061179e576101008083540402835291602001916117c9565b820191906000526020600020905b8154815290600101906020018083116117ac57829003601f168201915b505050506006830154600784015460088501546009909501549394600160a060020a03909216939092508a565b60076020526000908152604090208054819061181190613073565b80601f016020809104026020016040519081016040528092919081815260200182805461183d90613073565b801561188a5780601f1061185f5761010080835404028352916020019161188a565b820191906000526020600020905b81548152906001019060200180831161186d57829003601f168201915b50505050509080600101805461189f90613073565b80601f01602080910402602001604051908101604052809291908181526020018280546118cb90613073565b80156119185780601f106118ed57610100808354040283529160200191611918565b820191906000526020600020905b8154815290600101906020018083116118fb57829003601f168201915b5050506002840154600385015460048601546006870180549697600160a060020a03909416969295509093509061194e90613073565b80601f016020809104026020016040519081016040528092919081815260200182805461197a90613073565b80156119c75780601f1061199c576101008083540402835291602001916119c7565b820191906000526020600020905b8154815290600101906020018083116119aa57829003601f168201915b5050505050908060070154905087565b600181815481106119e757600080fd5b600091825260209091206008909102018054600182015460028301805460ff84169550610100909304600160a060020a0390811694921692611a2890613073565b80601f0160208091040260200160405190810160405280929190818152602001828054611a5490613073565b8015611aa15780601f10611a7657610100808354040283529160200191611aa1565b820191906000526020600020905b815481529060010190602001808311611a8457829003601f168201915b505050505090806003018054611ab690613073565b80601f0160208091040260200160405190810160405280929190818152602001828054611ae290613073565b8015611b2f5780601f10611b0457610100808354040283529160200191611b2f565b820191906000526020600020905b815481529060010190602001808311611b1257829003601f168201915b5050505050908060040154908060050154908060060154908060070154905089565b600160a060020a0381166000908152600660205260408120546060918291819083908290829060ff16611b995760405160e560020a62461bcd028152600401610441906130b0565b6000600760008a600160a060020a0316600160a060020a03168152602001908152602001600020905080600001816001018260040154836003015484600601856007015486600501868054611bed90613073565b80601f0160208091040260200160405190810160405280929190818152602001828054611c1990613073565b8015611c665780601f10611c3b57610100808354040283529160200191611c66565b820191906000526020600020905b815481529060010190602001808311611c4957829003601f168201915b50505050509650858054611c7990613073565b80601f0160208091040260200160405190810160405280929190818152602001828054611ca590613073565b8015611cf25780601f10611cc757610100808354040283529160200191611cf2565b820191906000526020600020905b815481529060010190602001808311611cd557829003601f168201915b50505050509550828054611d0590613073565b80601f0160208091040260200160405190810160405280929190818152602001828054611d3190613073565b8015611d7e5780601f10611d5357610100808354040283529160200191611d7e565b820191906000526020600020905b815481529060010190602001808311611d6157829003601f168201915b5050505050925080805480602002602001604051908101604052809291908181526020016000905b828210156120f4578382906000526020600020906009020160405180610120016040529081600082018054611dda90613073565b80601f0160208091040260200160405190810160405280929190818152602001828054611e0690613073565b8015611e535780601f10611e2857610100808354040283529160200191611e53565b820191906000526020600020905b815481529060010190602001808311611e3657829003601f168201915b50505050508152602001600182018054611e6c90613073565b80601f0160208091040260200160405190810160405280929190818152602001828054611e9890613073565b8015611ee55780601f10611eba57610100808354040283529160200191611ee5565b820191906000526020600020905b815481529060010190602001808311611ec857829003601f168201915b50505050508152602001600282018054611efe90613073565b80601f0160208091040260200160405190810160405280929190818152602001828054611f2a90613073565b8015611f775780601f10611f4c57610100808354040283529160200191611f77565b820191906000526020600020905b815481529060010190602001808311611f5a57829003601f168201915b50505050508152602001600382018054611f9090613073565b80601f0160208091040260200160405190810160405280929190818152602001828054611fbc90613073565b80156120095780601f10611fde57610100808354040283529160200191612009565b820191906000526020600020905b815481529060010190602001808311611fec57829003601f168201915b50505091835250506004820154600160a060020a03166020820152600582015460408201526006820154606082015260078201805460809092019161204d90613073565b80601f016020809104026020016040519081016040528092919081815260200182805461207990613073565b80156120c65780601f1061209b576101008083540402835291602001916120c6565b820191906000526020600020905b8154815290600101906020018083116120a957829003601f168201915b505050918352505060089190910154600160a060020a03166020918201529082526001929092019101611da6565b505050509050975097509750975097509750975050919395979092949650565b600160a060020a0381166000908152600760209081526040808320600801805482518185028101850190935280835260609492939192909184015b82821015610f6f576000848152602090819020604080516101208101825260088602909201805460ff811615158452600160a060020a036101009091048116948401949094526001810154909316908201526002820180549192916060840191906121b990613073565b80601f01602080910402602001604051908101604052809291908181526020018280546121e590613073565b80156122325780601f1061220757610100808354040283529160200191612232565b820191906000526020600020905b81548152906001019060200180831161221557829003601f168201915b5050505050815260200160038201805461224b90613073565b80601f016020809104026020016040519081016040528092919081815260200182805461227790613073565b80156122c45780601f10612299576101008083540402835291602001916122c4565b820191906000526020600020905b8154815290600101906020018083116122a757829003601f168201915b505050505081526020016004820154815260200160058201548152602001600682015481526020016007820154815250508152602001906001019061214f565b600160a060020a03811660009081526006602052604090205460ff1661233f5760405160e560020a62461bcd028152600401610441906130b0565b3360009081526004602052604090205460ff166123a15760405160e560020a62461bcd02815260206004820152601460248201527f596f7520617265206e6f74206120446f63746f720000000000000000000000006044820152606401610441565b600160a060020a03808216600090815260076020908152604080832081516101208101835294871684526005928390529220805491909201929182916123e690613073565b80601f016020809104026020016040519081016040528092919081815260200182805461241290613073565b801561245f5780601f106124345761010080835404028352916020019161245f565b820191906000526020600020905b81548152906001019060200180831161244257829003601f168201915b5050505050815260200187815260200186815260200185815260200184600160a060020a031681526020014281526020013481526020016007600085600160a060020a0316600160a060020a0316815260200190815260200160002060000180546124c990613073565b80601f01602080910402602001604051908101604052809291908181526020018280546124f590613073565b80156125425780601f1061251757610100808354040283529160200191612542565b820191906000526020600020905b81548152906001019060200180831161252557829003601f168201915b5050509183525050600160a060020a038416602091820152825460018101845560009384529220815191926009020190819061257e9082613136565b50602082015160018201906125939082613136565b50604082015160028201906125a89082613136565b50606082015160038201906125bd9082613136565b50608082015160048201805473ffffffffffffffffffffffffffffffffffffffff1916600160a060020a0390921691909117905560a0820151600582015560c0820151600682015560e082015160078201906126199082613136565b5061010091909101516008909101805473ffffffffffffffffffffffffffffffffffffffff1916600160a060020a03928316179055821660009081526005602052604090819020815161012081019092528054600b82019291829161267d90613073565b80601f01602080910402602001604051908101604052809291908181526020018280546126a990613073565b80156126f65780601f106126cb576101008083540402835291602001916126f6565b820191906000526020600020905b8154815290600101906020018083116126d957829003601f168201915b5050505050815260200187815260200186815260200185815260200184600160a060020a031681526020014281526020013481526020016007600085600160a060020a0316600160a060020a03168152602001908152602001600020600001805461276090613073565b80601f016020809104026020016040519081016040528092919081815260200182805461278c90613073565b80156127d95780601f106127ae576101008083540402835291602001916127d9565b820191906000526020600020905b8154815290600101906020018083116127bc57829003601f168201915b5050509183525050600160a060020a03841660209182015282546001810184556000938452922081519192600902019081906128159082613136565b506020820151600182019061282a9082613136565b506040820151600282019061283f9082613136565b50606082015160038201906128549082613136565b50608082015160048201805473ffffffffffffffffffffffffffffffffffffffff1916600160a060020a0390921691909117905560a0820151600582015560c0820151600682015560e082015160078201906128b09082613136565b5061010091909101516008909101805473ffffffffffffffffffffffffffffffffffffffff1916600160a060020a039092169190911790555050505050565b60038181548110610d6557600080fd5b604051806101200160405280606081526020016060815260200160608152602001606081526020016000600160a060020a031681526020016000815260200160008152602001606081526020016000600160a060020a031681525090565b8035600160a060020a038116811461297457600080fd5b919050565b60006020828403121561298b57600080fd5b6129948261295d565b9392505050565b6000815180845260005b818110156129c1576020818501810151868301820152016129a5565b506000602082860101526020601f19601f83011685010191505092915050565b600061012082518185526129f78286018261299b565b91505060208301518482036020860152612a11828261299b565b91505060408301518482036040860152612a2b828261299b565b91505060608301518482036060860152612a45828261299b565b9150506080830151612a626080860182600160a060020a03169052565b5060a083015160a085015260c083015160c085015260e083015184820360e0860152612a8e828261299b565b91505061010080840151612aac82870182600160a060020a03169052565b5090949350505050565b6000828251808552602080860195508081830284010181860160005b84811015612b0057601f19868403018952612aee8383516129e1565b98840198925090830190600101612ad2565b5090979650505050505050565b6020815260006129946020830184612ab6565b600060208284031215612b3257600080fd5b5035919050565b60208082528251828201819052600091906040908185019080840286018301878501865b83811015612c1157888303603f19018552815180511515845261012081890151600160a060020a038116868b01525081880151600160a060020a038116868a0152506060808301518282880152612bb68388018261299b565b9250505060808083015186830382880152612bd1838261299b565b60a0858101519089015260c0808601519089015260e080860151908901526101009485015194909701939093525050509386019390860190600101612b5d565b509098975050505050505050565b60008060408385031215612c3257600080fd5b612c3b8361295d565b946020939093013593505050565b60208152600061299460208301846129e1565b60e060020a634e487b7102600052604160045260246000fd5b600082601f830112612c8657600080fd5b813567ffffffffffffffff80821115612ca157612ca1612c5c565b604051601f8301601f19908116603f01168101908282118183101715612cc957612cc9612c5c565b81604052838152866020858801011115612ce257600080fd5b836020870160208301376000602085830101528094505050505092915050565b600080600080600060a08688031215612d1a57600080fd5b853567ffffffffffffffff80821115612d3257600080fd5b612d3e89838a01612c75565b96506020880135955060408801359450606088013593506080880135915080821115612d6957600080fd5b50612d7688828901612c75565b9150509295509295909350565b6000610140808352612d978184018e61299b565b90508281036020840152612dab818d61299b565b90508281036040840152612dbf818c61299b565b90508281036060840152612dd3818b61299b565b905088608084015282810360a0840152612ded818961299b565b915050600160a060020a03861660c08301528460e083015283610100830152826101208301529b9a5050505050505050505050565b60e081526000612e3560e083018a61299b565b8281036020840152612e47818a61299b565b9050600160a060020a038816604084015286606084015285608084015282810360a0840152612e76818661299b565b9150508260c083015298975050505050505050565b60006101208b15158352600160a060020a03808c166020850152808b16604085015250806060840152612ec08184018a61299b565b90508281036080840152612ed4818961299b565b9150508560a08301528460c08301528360e0830152826101008301529a9950505050505050505050565b60e081526000612f1160e083018a61299b565b8281036020840152612f23818a61299b565b90508760408401528660608401528281036080840152612f43818761299b565b90508460a084015282810360c0840152612f5d8185612ab6565b9a9950505050505050505050565b600080600080600060a08688031215612f8357600080fd5b853567ffffffffffffffff80821115612f9b57600080fd5b612fa789838a01612c75565b96506020880135915080821115612fbd57600080fd5b612fc989838a01612c75565b95506040880135915080821115612fdf57600080fd5b50612fec88828901612c75565b935050612ffb6060870161295d565b91506130096080870161295d565b90509295509295909350565b60e060020a634e487b7102600052603260045260246000fd5b60e060020a634e487b7102600052601160045260246000fd5b808201808211156112e7576112e761302e565b60006001820161306c5761306c61302e565b5060010190565b60028104600182168061308757607f821691505b6020821081036130aa5760e060020a634e487b7102600052602260045260246000fd5b50919050565b60208082526015908201527f596f7520617265206e6f7420612070617469656e740000000000000000000000604082015260600190565b601f821115613131576000818152602081206020601f8601048101602086101561310e5750805b6020601f860104820191505b8181101561312d5782815560010161311a565b5050505b505050565b815167ffffffffffffffff81111561315057613150612c5c565b6131648161315e8454613073565b846130e7565b602080601f83116001811461319d57600084156131815750858301515b60028086026008870290910a600019041982161786555061312d565b600085815260208120601f198616915b828110156131cc578886015182559484019460019091019084016131ad565b50858210156131ec57878501516008601f88160260020a60001904191681555b505050505060020260010190555056fea2646970667358221220c3935ccb6ef36cb5f91798552e56b4b4665c69a826278a223fc25fc007d4a5d564736f6c63430008120033",
  "immutableReferences": {},
  "source": "// SPDX-License-Identifier: GPL-3.0\r\npragma solidity >=0.7.0 <0.9.0;\r\n// Medical_2.sol\r\ncontract HealthManagement2 {\r\n    struct Record{\r\n        // string [] fileHashes;\r\n        string docname;\r\n        string fileHashes;\r\n        string presciptions;\r\n        string finalRemarks;\r\n        address payable doctor_;\r\n        uint256 timeStamp;\r\n        uint256 amount;\r\n        string patientName;\r\n        address payable patientaddr;\r\n        // MedicinePrescription[] medicines;    \r\n    }\r\n\r\n    struct Appointment{\r\n        // address doctor_;\r\n        bool status;\r\n        address payable patient_;\r\n        address payable doctor_;\r\n        string patientName;\r\n        string docname;\r\n        uint256 timeslot_;\r\n        uint256 timeStart;\r\n        uint256 timeEnd;\r\n        uint256 id;\r\n    }\r\n\r\n    // PATIENTS :\r\n    struct Patient{\r\n        string name;\r\n        string email;\r\n        address payable address_;\r\n        uint256 phone;\r\n        uint256 age;\r\n        Record [] records_;\r\n        string bloodgroup;\r\n        uint256 dob;\r\n        Appointment [] myAppointments;\r\n        mapping (address => bool) recordAccess;\r\n    }\r\n\r\n    struct Doctor{\r\n        string name;\r\n        string email;\r\n        string gender;\r\n        string introduction;\r\n        uint256 age;\r\n        string location;\r\n        address payable address_;\r\n        // address [] doctorToPatient;\r\n        uint256 basefee;\r\n        uint256 starCount;\r\n        uint256 totalPatients;\r\n        Appointment []  appointments_;\r\n        Record [] records_;\r\n        // mapping( address => uint) myPatients;\r\n    }\r\n\r\n    address owner_;\r\n\r\n    Appointment [] public allAppointments;\r\n    address [] public alldoctors;\r\n    address []public allPatientsList;\r\n\r\n    mapping (address=>bool)public isDoctor;\r\n    mapping (address => Doctor)public allDoctors;\r\n    mapping( address => bool)public isPatient;\r\n    // mapping( address => bool)public isDoctor;\r\n    mapping( address => Patient) public allPatients;\r\n    // mapping( address => Record []) public patientRecords;\r\n\r\n    uint256 patientCount;\r\n    uint256 doctorCount ;\r\n    uint256 appointmentCount;\r\n\r\n    \r\n    function  addPatient(string memory name,uint256 phone,uint256 age,uint256 dob,string memory email) public {\r\n        require(isPatient[msg.sender] == false,\"You are already a patient \");\r\n        isPatient[msg.sender] = true;\r\n        allPatients[msg.sender].name= name;\r\n        allPatients[msg.sender].address_= payable((msg.sender));\r\n        allPatients[msg.sender].age= age;\r\n        allPatients[msg.sender].phone= phone;\r\n        allPatients[msg.sender].dob= dob;\r\n        allPatients[msg.sender].email= email;\r\n        allPatientsList.push(msg.sender);\r\n        patientCount+=1;\r\n    } \r\n\r\n    function getPatientDetails(address addr) public view returns(\r\n        string memory name,string memory email,uint256  age, uint256  phone,\r\n        string memory bloodgroup , uint256  dob ,Record [] memory recordss) {\r\n\r\n        require(isPatient[addr],\"You are not a patient\");\r\n        Patient storage p = allPatients[addr];\r\n        return (p.name,p.email,p.age,p.phone,p.bloodgroup,p.dob,p.records_);\r\n    \r\n    }\r\n    \r\n    function addPatientRecord(\r\n        string memory currentfiles,\r\n        string memory presciptions,\r\n        string memory finalRemarks,\r\n        address doctor_,\r\n        // string memory docname,\r\n        // string memory patientName,\r\n        address  patientaddr\r\n        ) public payable {\r\n\r\n        require(isPatient[patientaddr],\"You are not a patient\");\r\n        require(isDoctor[msg.sender],\"You are not a Doctor\");\r\n        // might have to do storage\r\n\r\n        allPatients[patientaddr].records_.push(Record(allDoctors[doctor_].name,currentfiles,presciptions,finalRemarks,payable(doctor_),block.timestamp,msg.value,allPatients[patientaddr].name,payable(patientaddr)));\r\n        allDoctors[doctor_].records_.push(Record(allDoctors[doctor_].name,currentfiles,presciptions,finalRemarks,payable(doctor_),block.timestamp,msg.value,allPatients[patientaddr].name,payable(patientaddr)));\r\n        \r\n    }\r\n    \r\n    function getPatientRecords(address addr) public view returns( Record[] memory records ) {\r\n        // require(addr==msg.sender,\"You are not the owner\");\r\n        require(isPatient[addr],\"You are not a patient\");\r\n        if(msg.sender != addr){\r\n            require(allPatients[addr].recordAccess[msg.sender] == true,\"You are not authorized to view\");\r\n        }\r\n        Record [] memory r = allPatients[addr].records_;\r\n        return (r);\r\n    }\r\n\r\n    function getOneRecord(address addr,uint256 index) public view returns (Record memory rec) {\r\n        Record memory r = allPatients[addr].records_[index];\r\n        return (r);\r\n    }\r\n\r\n    function getRecordOfOnePatient(address p) public view returns ( Record[] memory doctorRecord ){\r\n        Patient storage P = allPatients[p];\r\n        uint count = 0;\r\n        uint len = P.records_.length;\r\n        uint pos = 0;\r\n        require(len > 0 ,\"No data\");\r\n        // if(len == 0)return ;\r\n        for(uint i=0 ; i < P.records_.length  ;i++)\r\n            if(P.records_[i].doctor_ == msg.sender)count+=1;\r\n        \r\n        Record [] memory temp = new Record[](count) ;\r\n\r\n        for(uint i=0 ; i < P.records_.length  ;i++)\r\n            if(P.records_[i].doctor_ == msg.sender){\r\n               temp[pos] = P.records_[i];\r\n               pos++;\r\n            }\r\n            \r\n        return (temp);\r\n    }\r\n    \r\n    function getDoctorAppointment(address docAdd)public view returns(Appointment [] memory app ){\r\n        return (allDoctors[docAdd].appointments_);\r\n    }\r\n\r\n    function getPatientAppointment(address patAdd)public view returns(Appointment [] memory app ){\r\n        return (allPatients[patAdd].myAppointments);\r\n    }\r\n\r\n    function updateRecordAccess (address docAddr)public {\r\n        Patient storage P = allPatients[msg.sender];\r\n        require(P.recordAccess[docAddr]==false,\"You have already updated\");\r\n        allPatients[msg.sender].recordAccess[docAddr] = true;\r\n    }\r\n\r\n    // function ve\r\n\r\n    // ADD PPPROVAL\r\n}",
  "sourcePath": "G:\\coding\\Projects\\pro-10-bc\\front-2\\truffle\\contracts\\Medical_2.sol",
  "compiler": {
    "name": "solc",
    "version": "0.8.18+commit.87f61d96.Emscripten.clang"
  },
  "schemaVersion": "3.4.12",
  "updatedAt": "2023-05-03T13:21:58.230Z",
  "networkType": "ethereum",
  "devdoc": {
    "kind": "dev",
    "methods": {},
    "version": 1
  },
  "userdoc": {
    "kind": "user",
    "methods": {},
    "version": 1
  }
}