{
  "contractName": "HealthManagement",
  "abi": [
    {
      "inputs": [],
      "stateMutability": "nonpayable",
      "type": "constructor"
    },
    {
      "inputs": [
        {
          "internalType": "string",
          "name": "name",
          "type": "string"
        },
        {
          "internalType": "uint256",
          "name": "phone",
          "type": "uint256"
        },
        {
          "internalType": "uint256",
          "name": "age",
          "type": "uint256"
        },
        {
          "internalType": "uint256",
          "name": "dob",
          "type": "uint256"
        },
        {
          "internalType": "string",
          "name": "email",
          "type": "string"
        }
      ],
      "name": "addPatient",
      "outputs": [],
      "stateMutability": "nonpayable",
      "type": "function"
    },
    {
      "inputs": [
        {
          "internalType": "string",
          "name": "currentfiles",
          "type": "string"
        },
        {
          "internalType": "string",
          "name": "presciptions",
          "type": "string"
        },
        {
          "internalType": "string",
          "name": "finalRemarks",
          "type": "string"
        },
        {
          "internalType": "address",
          "name": "doctor_",
          "type": "address"
        },
        {
          "internalType": "address",
          "name": "patientaddr",
          "type": "address"
        }
      ],
      "name": "addPatientRecord",
      "outputs": [],
      "stateMutability": "payable",
      "type": "function",
      "payable": true
    },
    {
      "inputs": [
        {
          "internalType": "uint256",
          "name": "",
          "type": "uint256"
        }
      ],
      "name": "allAppointments",
      "outputs": [
        {
          "internalType": "bool",
          "name": "status",
          "type": "bool"
        },
        {
          "internalType": "address payable",
          "name": "patient_",
          "type": "address"
        },
        {
          "internalType": "address payable",
          "name": "doctor_",
          "type": "address"
        },
        {
          "internalType": "string",
          "name": "patientName",
          "type": "string"
        },
        {
          "internalType": "string",
          "name": "docname",
          "type": "string"
        },
        {
          "internalType": "uint256",
          "name": "timeslot_",
          "type": "uint256"
        },
        {
          "internalType": "uint256",
          "name": "timeStart",
          "type": "uint256"
        },
        {
          "internalType": "uint256",
          "name": "timeEnd",
          "type": "uint256"
        },
        {
          "internalType": "uint256",
          "name": "id",
          "type": "uint256"
        }
      ],
      "stateMutability": "view",
      "type": "function",
      "constant": true
    },
    {
      "inputs": [
        {
          "internalType": "address",
          "name": "",
          "type": "address"
        }
      ],
      "name": "allDoctors",
      "outputs": [
        {
          "internalType": "string",
          "name": "name",
          "type": "string"
        },
        {
          "internalType": "string",
          "name": "email",
          "type": "string"
        },
        {
          "internalType": "string",
          "name": "gender",
          "type": "string"
        },
        {
          "internalType": "string",
          "name": "introduction",
          "type": "string"
        },
        {
          "internalType": "uint256",
          "name": "age",
          "type": "uint256"
        },
        {
          "internalType": "string",
          "name": "location",
          "type": "string"
        },
        {
          "internalType": "address payable",
          "name": "address_",
          "type": "address"
        },
        {
          "internalType": "uint256",
          "name": "basefee",
          "type": "uint256"
        },
        {
          "internalType": "uint256",
          "name": "starCount",
          "type": "uint256"
        },
        {
          "internalType": "uint256",
          "name": "totalPatients",
          "type": "uint256"
        }
      ],
      "stateMutability": "view",
      "type": "function",
      "constant": true
    },
    {
      "inputs": [
        {
          "internalType": "address",
          "name": "",
          "type": "address"
        }
      ],
      "name": "allPatients",
      "outputs": [
        {
          "internalType": "string",
          "name": "name",
          "type": "string"
        },
        {
          "internalType": "string",
          "name": "email",
          "type": "string"
        },
        {
          "internalType": "address payable",
          "name": "address_",
          "type": "address"
        },
        {
          "internalType": "uint256",
          "name": "phone",
          "type": "uint256"
        },
        {
          "internalType": "uint256",
          "name": "age",
          "type": "uint256"
        },
        {
          "internalType": "string",
          "name": "bloodgroup",
          "type": "string"
        },
        {
          "internalType": "uint256",
          "name": "dob",
          "type": "uint256"
        }
      ],
      "stateMutability": "view",
      "type": "function",
      "constant": true
    },
    {
      "inputs": [
        {
          "internalType": "uint256",
          "name": "",
          "type": "uint256"
        }
      ],
      "name": "allPatientsList",
      "outputs": [
        {
          "internalType": "address",
          "name": "",
          "type": "address"
        }
      ],
      "stateMutability": "view",
      "type": "function",
      "constant": true
    },
    {
      "inputs": [
        {
          "internalType": "uint256",
          "name": "",
          "type": "uint256"
        }
      ],
      "name": "alldoctors",
      "outputs": [
        {
          "internalType": "address",
          "name": "",
          "type": "address"
        }
      ],
      "stateMutability": "view",
      "type": "function",
      "constant": true
    },
    {
      "inputs": [
        {
          "internalType": "address",
          "name": "docAdd",
          "type": "address"
        }
      ],
      "name": "getDoctorAppointment",
      "outputs": [
        {
          "components": [
            {
              "internalType": "bool",
              "name": "status",
              "type": "bool"
            },
            {
              "internalType": "address payable",
              "name": "patient_",
              "type": "address"
            },
            {
              "internalType": "address payable",
              "name": "doctor_",
              "type": "address"
            },
            {
              "internalType": "string",
              "name": "patientName",
              "type": "string"
            },
            {
              "internalType": "string",
              "name": "docname",
              "type": "string"
            },
            {
              "internalType": "uint256",
              "name": "timeslot_",
              "type": "uint256"
            },
            {
              "internalType": "uint256",
              "name": "timeStart",
              "type": "uint256"
            },
            {
              "internalType": "uint256",
              "name": "timeEnd",
              "type": "uint256"
            },
            {
              "internalType": "uint256",
              "name": "id",
              "type": "uint256"
            }
          ],
          "internalType": "struct HealthManagement2.Appointment[]",
          "name": "app",
          "type": "tuple[]"
        }
      ],
      "stateMutability": "view",
      "type": "function",
      "constant": true
    },
    {
      "inputs": [
        {
          "internalType": "address",
          "name": "addr",
          "type": "address"
        },
        {
          "internalType": "uint256",
          "name": "index",
          "type": "uint256"
        }
      ],
      "name": "getOneRecord",
      "outputs": [
        {
          "components": [
            {
              "internalType": "string",
              "name": "docname",
              "type": "string"
            },
            {
              "internalType": "string",
              "name": "fileHashes",
              "type": "string"
            },
            {
              "internalType": "string",
              "name": "presciptions",
              "type": "string"
            },
            {
              "internalType": "string",
              "name": "finalRemarks",
              "type": "string"
            },
            {
              "internalType": "address payable",
              "name": "doctor_",
              "type": "address"
            },
            {
              "internalType": "uint256",
              "name": "timeStamp",
              "type": "uint256"
            },
            {
              "internalType": "uint256",
              "name": "amount",
              "type": "uint256"
            },
            {
              "internalType": "string",
              "name": "patientName",
              "type": "string"
            },
            {
              "internalType": "address payable",
              "name": "patientaddr",
              "type": "address"
            }
          ],
          "internalType": "struct HealthManagement2.Record",
          "name": "rec",
          "type": "tuple"
        }
      ],
      "stateMutability": "view",
      "type": "function",
      "constant": true
    },
    {
      "inputs": [
        {
          "internalType": "address",
          "name": "patAdd",
          "type": "address"
        }
      ],
      "name": "getPatientAppointment",
      "outputs": [
        {
          "components": [
            {
              "internalType": "bool",
              "name": "status",
              "type": "bool"
            },
            {
              "internalType": "address payable",
              "name": "patient_",
              "type": "address"
            },
            {
              "internalType": "address payable",
              "name": "doctor_",
              "type": "address"
            },
            {
              "internalType": "string",
              "name": "patientName",
              "type": "string"
            },
            {
              "internalType": "string",
              "name": "docname",
              "type": "string"
            },
            {
              "internalType": "uint256",
              "name": "timeslot_",
              "type": "uint256"
            },
            {
              "internalType": "uint256",
              "name": "timeStart",
              "type": "uint256"
            },
            {
              "internalType": "uint256",
              "name": "timeEnd",
              "type": "uint256"
            },
            {
              "internalType": "uint256",
              "name": "id",
              "type": "uint256"
            }
          ],
          "internalType": "struct HealthManagement2.Appointment[]",
          "name": "app",
          "type": "tuple[]"
        }
      ],
      "stateMutability": "view",
      "type": "function",
      "constant": true
    },
    {
      "inputs": [
        {
          "internalType": "address",
          "name": "addr",
          "type": "address"
        }
      ],
      "name": "getPatientDetails",
      "outputs": [
        {
          "internalType": "string",
          "name": "name",
          "type": "string"
        },
        {
          "internalType": "string",
          "name": "email",
          "type": "string"
        },
        {
          "internalType": "uint256",
          "name": "age",
          "type": "uint256"
        },
        {
          "internalType": "uint256",
          "name": "phone",
          "type": "uint256"
        },
        {
          "internalType": "string",
          "name": "bloodgroup",
          "type": "string"
        },
        {
          "internalType": "uint256",
          "name": "dob",
          "type": "uint256"
        },
        {
          "components": [
            {
              "internalType": "string",
              "name": "docname",
              "type": "string"
            },
            {
              "internalType": "string",
              "name": "fileHashes",
              "type": "string"
            },
            {
              "internalType": "string",
              "name": "presciptions",
              "type": "string"
            },
            {
              "internalType": "string",
              "name": "finalRemarks",
              "type": "string"
            },
            {
              "internalType": "address payable",
              "name": "doctor_",
              "type": "address"
            },
            {
              "internalType": "uint256",
              "name": "timeStamp",
              "type": "uint256"
            },
            {
              "internalType": "uint256",
              "name": "amount",
              "type": "uint256"
            },
            {
              "internalType": "string",
              "name": "patientName",
              "type": "string"
            },
            {
              "internalType": "address payable",
              "name": "patientaddr",
              "type": "address"
            }
          ],
          "internalType": "struct HealthManagement2.Record[]",
          "name": "recordss",
          "type": "tuple[]"
        }
      ],
      "stateMutability": "view",
      "type": "function",
      "constant": true
    },
    {
      "inputs": [
        {
          "internalType": "address",
          "name": "addr",
          "type": "address"
        }
      ],
      "name": "getPatientRecords",
      "outputs": [
        {
          "components": [
            {
              "internalType": "string",
              "name": "docname",
              "type": "string"
            },
            {
              "internalType": "string",
              "name": "fileHashes",
              "type": "string"
            },
            {
              "internalType": "string",
              "name": "presciptions",
              "type": "string"
            },
            {
              "internalType": "string",
              "name": "finalRemarks",
              "type": "string"
            },
            {
              "internalType": "address payable",
              "name": "doctor_",
              "type": "address"
            },
            {
              "internalType": "uint256",
              "name": "timeStamp",
              "type": "uint256"
            },
            {
              "internalType": "uint256",
              "name": "amount",
              "type": "uint256"
            },
            {
              "internalType": "string",
              "name": "patientName",
              "type": "string"
            },
            {
              "internalType": "address payable",
              "name": "patientaddr",
              "type": "address"
            }
          ],
          "internalType": "struct HealthManagement2.Record[]",
          "name": "records",
          "type": "tuple[]"
        }
      ],
      "stateMutability": "view",
      "type": "function",
      "constant": true
    },
    {
      "inputs": [
        {
          "internalType": "address",
          "name": "p",
          "type": "address"
        }
      ],
      "name": "getRecordOfOnePatient",
      "outputs": [
        {
          "components": [
            {
              "internalType": "string",
              "name": "docname",
              "type": "string"
            },
            {
              "internalType": "string",
              "name": "fileHashes",
              "type": "string"
            },
            {
              "internalType": "string",
              "name": "presciptions",
              "type": "string"
            },
            {
              "internalType": "string",
              "name": "finalRemarks",
              "type": "string"
            },
            {
              "internalType": "address payable",
              "name": "doctor_",
              "type": "address"
            },
            {
              "internalType": "uint256",
              "name": "timeStamp",
              "type": "uint256"
            },
            {
              "internalType": "uint256",
              "name": "amount",
              "type": "uint256"
            },
            {
              "internalType": "string",
              "name": "patientName",
              "type": "string"
            },
            {
              "internalType": "address payable",
              "name": "patientaddr",
              "type": "address"
            }
          ],
          "internalType": "struct HealthManagement2.Record[]",
          "name": "doctorRecord",
          "type": "tuple[]"
        }
      ],
      "stateMutability": "view",
      "type": "function",
      "constant": true
    },
    {
      "inputs": [
        {
          "internalType": "address",
          "name": "",
          "type": "address"
        }
      ],
      "name": "isDoctor",
      "outputs": [
        {
          "internalType": "bool",
          "name": "",
          "type": "bool"
        }
      ],
      "stateMutability": "view",
      "type": "function",
      "constant": true
    },
    {
      "inputs": [
        {
          "internalType": "address",
          "name": "",
          "type": "address"
        }
      ],
      "name": "isPatient",
      "outputs": [
        {
          "internalType": "bool",
          "name": "",
          "type": "bool"
        }
      ],
      "stateMutability": "view",
      "type": "function",
      "constant": true
    },
    {
      "inputs": [
        {
          "internalType": "address",
          "name": "docAddr",
          "type": "address"
        }
      ],
      "name": "updateRecordAccess",
      "outputs": [],
      "stateMutability": "nonpayable",
      "type": "function"
    },
    {
      "inputs": [
        {
          "internalType": "string",
          "name": "name",
          "type": "string"
        },
        {
          "internalType": "string",
          "name": "email",
          "type": "string"
        },
        {
          "internalType": "string",
          "name": "gender",
          "type": "string"
        },
        {
          "internalType": "string",
          "name": "introduction",
          "type": "string"
        },
        {
          "internalType": "uint256",
          "name": "age",
          "type": "uint256"
        },
        {
          "internalType": "string",
          "name": "location",
          "type": "string"
        },
        {
          "internalType": "address payable",
          "name": "address_",
          "type": "address"
        },
        {
          "internalType": "uint256",
          "name": "basefee",
          "type": "uint256"
        }
      ],
      "name": "addDoctor",
      "outputs": [],
      "stateMutability": "nonpayable",
      "type": "function"
    },
    {
      "inputs": [
        {
          "internalType": "address",
          "name": "to",
          "type": "address"
        }
      ],
      "name": "payFees",
      "outputs": [
        {
          "internalType": "bool",
          "name": "sentt",
          "type": "bool"
        }
      ],
      "stateMutability": "payable",
      "type": "function",
      "payable": true
    },
    {
      "inputs": [
        {
          "internalType": "address",
          "name": "docAddr",
          "type": "address"
        },
        {
          "internalType": "uint256",
          "name": "slot",
          "type": "uint256"
        },
        {
          "internalType": "uint256",
          "name": "id",
          "type": "uint256"
        }
      ],
      "name": "takeAppointment",
      "outputs": [],
      "stateMutability": "nonpayable",
      "type": "function"
    },
    {
      "inputs": [
        {
          "internalType": "uint256",
          "name": "index",
          "type": "uint256"
        },
        {
          "internalType": "uint256",
          "name": "start",
          "type": "uint256"
        }
      ],
      "name": "startAppointment",
      "outputs": [],
      "stateMutability": "nonpayable",
      "type": "function"
    },
    {
      "inputs": [
        {
          "internalType": "uint256",
          "name": "index",
          "type": "uint256"
        },
        {
          "internalType": "uint256",
          "name": "end",
          "type": "uint256"
        }
      ],
      "name": "endAppointment",
      "outputs": [],
      "stateMutability": "nonpayable",
      "type": "function"
    },
    {
      "inputs": [],
      "name": "getAllDoctor",
      "outputs": [
        {
          "components": [
            {
              "internalType": "string",
              "name": "name",
              "type": "string"
            },
            {
              "internalType": "string",
              "name": "email",
              "type": "string"
            },
            {
              "internalType": "string",
              "name": "gender",
              "type": "string"
            },
            {
              "internalType": "string",
              "name": "introduction",
              "type": "string"
            },
            {
              "internalType": "uint256",
              "name": "age",
              "type": "uint256"
            },
            {
              "internalType": "string",
              "name": "location",
              "type": "string"
            },
            {
              "internalType": "address payable",
              "name": "address_",
              "type": "address"
            },
            {
              "internalType": "uint256",
              "name": "basefee",
              "type": "uint256"
            },
            {
              "internalType": "uint256",
              "name": "starCount",
              "type": "uint256"
            },
            {
              "internalType": "uint256",
              "name": "totalPatients",
              "type": "uint256"
            },
            {
              "components": [
                {
                  "internalType": "bool",
                  "name": "status",
                  "type": "bool"
                },
                {
                  "internalType": "address payable",
                  "name": "patient_",
                  "type": "address"
                },
                {
                  "internalType": "address payable",
                  "name": "doctor_",
                  "type": "address"
                },
                {
                  "internalType": "string",
                  "name": "patientName",
                  "type": "string"
                },
                {
                  "internalType": "string",
                  "name": "docname",
                  "type": "string"
                },
                {
                  "internalType": "uint256",
                  "name": "timeslot_",
                  "type": "uint256"
                },
                {
                  "internalType": "uint256",
                  "name": "timeStart",
                  "type": "uint256"
                },
                {
                  "internalType": "uint256",
                  "name": "timeEnd",
                  "type": "uint256"
                },
                {
                  "internalType": "uint256",
                  "name": "id",
                  "type": "uint256"
                }
              ],
              "internalType": "struct HealthManagement2.Appointment[]",
              "name": "appointments_",
              "type": "tuple[]"
            },
            {
              "components": [
                {
                  "internalType": "string",
                  "name": "docname",
                  "type": "string"
                },
                {
                  "internalType": "string",
                  "name": "fileHashes",
                  "type": "string"
                },
                {
                  "internalType": "string",
                  "name": "presciptions",
                  "type": "string"
                },
                {
                  "internalType": "string",
                  "name": "finalRemarks",
                  "type": "string"
                },
                {
                  "internalType": "address payable",
                  "name": "doctor_",
                  "type": "address"
                },
                {
                  "internalType": "uint256",
                  "name": "timeStamp",
                  "type": "uint256"
                },
                {
                  "internalType": "uint256",
                  "name": "amount",
                  "type": "uint256"
                },
                {
                  "internalType": "string",
                  "name": "patientName",
                  "type": "string"
                },
                {
                  "internalType": "address payable",
                  "name": "patientaddr",
                  "type": "address"
                }
              ],
              "internalType": "struct HealthManagement2.Record[]",
              "name": "records_",
              "type": "tuple[]"
            }
          ],
          "internalType": "struct HealthManagement2.Doctor[]",
          "name": "alldocs",
          "type": "tuple[]"
        }
      ],
      "stateMutability": "view",
      "type": "function",
      "constant": true
    },
    {
      "inputs": [
        {
          "internalType": "address",
          "name": "addr",
          "type": "address"
        }
      ],
      "name": "getOneDoctor",
      "outputs": [
        {
          "components": [
            {
              "internalType": "string",
              "name": "name",
              "type": "string"
            },
            {
              "internalType": "string",
              "name": "email",
              "type": "string"
            },
            {
              "internalType": "string",
              "name": "gender",
              "type": "string"
            },
            {
              "internalType": "string",
              "name": "introduction",
              "type": "string"
            },
            {
              "internalType": "uint256",
              "name": "age",
              "type": "uint256"
            },
            {
              "internalType": "string",
              "name": "location",
              "type": "string"
            },
            {
              "internalType": "address payable",
              "name": "address_",
              "type": "address"
            },
            {
              "internalType": "uint256",
              "name": "basefee",
              "type": "uint256"
            },
            {
              "internalType": "uint256",
              "name": "starCount",
              "type": "uint256"
            },
            {
              "internalType": "uint256",
              "name": "totalPatients",
              "type": "uint256"
            },
            {
              "components": [
                {
                  "internalType": "bool",
                  "name": "status",
                  "type": "bool"
                },
                {
                  "internalType": "address payable",
                  "name": "patient_",
                  "type": "address"
                },
                {
                  "internalType": "address payable",
                  "name": "doctor_",
                  "type": "address"
                },
                {
                  "internalType": "string",
                  "name": "patientName",
                  "type": "string"
                },
                {
                  "internalType": "string",
                  "name": "docname",
                  "type": "string"
                },
                {
                  "internalType": "uint256",
                  "name": "timeslot_",
                  "type": "uint256"
                },
                {
                  "internalType": "uint256",
                  "name": "timeStart",
                  "type": "uint256"
                },
                {
                  "internalType": "uint256",
                  "name": "timeEnd",
                  "type": "uint256"
                },
                {
                  "internalType": "uint256",
                  "name": "id",
                  "type": "uint256"
                }
              ],
              "internalType": "struct HealthManagement2.Appointment[]",
              "name": "appointments_",
              "type": "tuple[]"
            },
            {
              "components": [
                {
                  "internalType": "string",
                  "name": "docname",
                  "type": "string"
                },
                {
                  "internalType": "string",
                  "name": "fileHashes",
                  "type": "string"
                },
                {
                  "internalType": "string",
                  "name": "presciptions",
                  "type": "string"
                },
                {
                  "internalType": "string",
                  "name": "finalRemarks",
                  "type": "string"
                },
                {
                  "internalType": "address payable",
                  "name": "doctor_",
                  "type": "address"
                },
                {
                  "internalType": "uint256",
                  "name": "timeStamp",
                  "type": "uint256"
                },
                {
                  "internalType": "uint256",
                  "name": "amount",
                  "type": "uint256"
                },
                {
                  "internalType": "string",
                  "name": "patientName",
                  "type": "string"
                },
                {
                  "internalType": "address payable",
                  "name": "patientaddr",
                  "type": "address"
                }
              ],
              "internalType": "struct HealthManagement2.Record[]",
              "name": "records_",
              "type": "tuple[]"
            }
          ],
          "internalType": "struct HealthManagement2.Doctor",
          "name": "doc",
          "type": "tuple"
        }
      ],
      "stateMutability": "view",
      "type": "function",
      "constant": true
    }
  ],
  "bytecode": "0x608060405234801561001057600080fd5b50600060088190556009819055600a8190558054600160a060020a03191633179055615206806100416000396000f3fe60806040526004361061015d576000357c0100000000000000000000000000000000000000000000000000000000900480639cf3cbae116100d3578063e3a3bf9c1161008c578063e3a3bf9c14610427578063efe2ccc11461045c578063f1e85ee51461048f578063fc8a4de4146104af578063fddfa7f2146104cf578063ff68115b146104e257600080fd5b80639cf3cbae1461034b578063a39b66431461036b578063b6ad10151461038b578063b8f9197b146103c1578063c7e8cacf146103d4578063cd25d7be146103f457600080fd5b806359e9bf551161012557806359e9bf551461023f5780637966c8021461026c5780638b0920fe146102995780638f9c79ed146102bb57806393699ad0146102fb578063996440c61461031b57600080fd5b8063036d6b311461016257806318bd4847146101985780631a7906fa146101b8578063285a3807146101da5780633da2887514610212575b600080fd5b34801561016e57600080fd5b5061018261017d366004614536565b610502565b60405161018f91906146cc565b60405180910390f35b3480156101a457600080fd5b506101826101b3366004614536565b610a25565b3480156101c457600080fd5b506101cd610e84565b60405161018f919061490a565b3480156101e657600080fd5b506101fa6101f536600461496b565b6117f7565b604051600160a060020a03909116815260200161018f565b34801561021e57600080fd5b5061023261022d366004614536565b611821565b60405161018f9190614984565b34801561024b57600080fd5b5061025f61025a366004614536565b611a1c565b60405161018f9190614a6a565b34801561027857600080fd5b5061028c610287366004614a7d565b6122db565b60405161018f9190614aa9565b3480156102a557600080fd5b506102b96102b4366004614b62565b61264e565b005b3480156102c757600080fd5b506102eb6102d6366004614536565b60066020526000908152604090205460ff1681565b604051901515815260200161018f565b34801561030757600080fd5b506102b9610316366004614be3565b61278c565b34801561032757600080fd5b506102eb610336366004614536565b60046020526000908152604090205460ff1681565b34801561035757600080fd5b506102b9610366366004614536565b61287e565b34801561037757600080fd5b506102b9610386366004614be3565b612930565b34801561039757600080fd5b506103ab6103a6366004614536565b612a66565b60405161018f9a99989796959493929190614c05565b6102eb6103cf366004614536565b612d65565b3480156103e057600080fd5b506102b96103ef366004614cb4565b612e31565b34801561040057600080fd5b5061041461040f366004614536565b612ff6565b60405161018f9796959493929190614daa565b34801561043357600080fd5b5061044761044236600461496b565b6131d7565b60405161018f99989796959493929190614e13565b34801561046857600080fd5b5061047c610477366004614536565b613351565b60405161018f9796959493929190614e86565b34801561049b57600080fd5b506102b96104aa366004614ef3565b613914565b3480156104bb57600080fd5b506102326104ca366004614536565b613c9f565b6102b96104dd366004614f28565b613e8f565b3480156104ee57600080fd5b506101fa6104fd36600461496b565b614446565b600160a060020a038116600090815260076020526040812060058101546060929081816105795760405160e560020a62461bcd02815260206004820152600760248201527f4e6f20646174610000000000000000000000000000000000000000000000000060448201526064015b60405180910390fd5b60005b60058501548110156105e95733600160a060020a03168560050182815481106105a7576105a7614fd8565b6000918252602090912060046009909202010154600160a060020a0316036105d7576105d460018561500a565b93505b806105e18161501d565b91505061057c565b5060008367ffffffffffffffff81111561060557610605614abc565b60405190808252806020026020018201604052801561063e57816020015b61062b614456565b8152602001906001900390816106235790505b50905060005b6005860154811015610a1a5733600160a060020a031686600501828154811061066f5761066f614fd8565b6000918252602090912060046009909202010154600160a060020a031603610a08578560050181815481106106a6576106a6614fd8565b9060005260206000209060090201604051806101200160405290816000820180546106d090615036565b80601f01602080910402602001604051908101604052809291908181526020018280546106fc90615036565b80156107495780601f1061071e57610100808354040283529160200191610749565b820191906000526020600020905b81548152906001019060200180831161072c57829003601f168201915b5050505050815260200160018201805461076290615036565b80601f016020809104026020016040519081016040528092919081815260200182805461078e90615036565b80156107db5780601f106107b0576101008083540402835291602001916107db565b820191906000526020600020905b8154815290600101906020018083116107be57829003601f168201915b505050505081526020016002820180546107f490615036565b80601f016020809104026020016040519081016040528092919081815260200182805461082090615036565b801561086d5780601f106108425761010080835404028352916020019161086d565b820191906000526020600020905b81548152906001019060200180831161085057829003601f168201915b5050505050815260200160038201805461088690615036565b80601f01602080910402602001604051908101604052809291908181526020018280546108b290615036565b80156108ff5780601f106108d4576101008083540402835291602001916108ff565b820191906000526020600020905b8154815290600101906020018083116108e257829003601f168201915b50505091835250506004820154600160a060020a03166020820152600582015460408201526006820154606082015260078201805460809092019161094390615036565b80601f016020809104026020016040519081016040528092919081815260200182805461096f90615036565b80156109bc5780601f10610991576101008083540402835291602001916109bc565b820191906000526020600020905b81548152906001019060200180831161099f57829003601f168201915b505050918352505060089190910154600160a060020a031660209091015282518390859081106109ee576109ee614fd8565b60200260200101819052508280610a049061501d565b9350505b80610a128161501d565b915050610644565b509695505050505050565b600160a060020a03811660009081526006602052604090205460609060ff16610a635760405160e560020a62461bcd0281526004016105709061506d565b33600160a060020a03831614610af157600160a060020a038216600090815260076020908152604080832033845260090190915290205460ff161515600114610af15760405160e560020a62461bcd02815260206004820152601e60248201527f596f7520617265206e6f7420617574686f72697a656420746f207669657700006044820152606401610570565b600160a060020a038216600090815260076020908152604080832060050180548251818502810185019093528083529192909190849084015b82821015610e78578382906000526020600020906009020160405180610120016040529081600082018054610b5e90615036565b80601f0160208091040260200160405190810160405280929190818152602001828054610b8a90615036565b8015610bd75780601f10610bac57610100808354040283529160200191610bd7565b820191906000526020600020905b815481529060010190602001808311610bba57829003601f168201915b50505050508152602001600182018054610bf090615036565b80601f0160208091040260200160405190810160405280929190818152602001828054610c1c90615036565b8015610c695780601f10610c3e57610100808354040283529160200191610c69565b820191906000526020600020905b815481529060010190602001808311610c4c57829003601f168201915b50505050508152602001600282018054610c8290615036565b80601f0160208091040260200160405190810160405280929190818152602001828054610cae90615036565b8015610cfb5780601f10610cd057610100808354040283529160200191610cfb565b820191906000526020600020905b815481529060010190602001808311610cde57829003601f168201915b50505050508152602001600382018054610d1490615036565b80601f0160208091040260200160405190810160405280929190818152602001828054610d4090615036565b8015610d8d5780601f10610d6257610100808354040283529160200191610d8d565b820191906000526020600020905b815481529060010190602001808311610d7057829003601f168201915b50505091835250506004820154600160a060020a031660208201526005820154604082015260068201546060820152600782018054608090920191610dd190615036565b80601f0160208091040260200160405190810160405280929190818152602001828054610dfd90615036565b8015610e4a5780601f10610e1f57610100808354040283529160200191610e4a565b820191906000526020600020905b815481529060010190602001808311610e2d57829003601f168201915b505050918352505060089190910154600160a060020a03166020918201529082526001929092019101610b2a565b50929695505050505050565b6060600060095467ffffffffffffffff811115610ea357610ea3614abc565b604051908082528060200260200182016040528015610edc57816020015b610ec96144b4565b815260200190600190039081610ec15790505b50905060005b6009548110156117f1576005600060028381548110610f0357610f03614fd8565b6000918252602080832090910154600160a060020a03168352820192909252604090810190912081516101808101909252805482908290610f4390615036565b80601f0160208091040260200160405190810160405280929190818152602001828054610f6f90615036565b8015610fbc5780601f10610f9157610100808354040283529160200191610fbc565b820191906000526020600020905b815481529060010190602001808311610f9f57829003601f168201915b50505050508152602001600182018054610fd590615036565b80601f016020809104026020016040519081016040528092919081815260200182805461100190615036565b801561104e5780601f106110235761010080835404028352916020019161104e565b820191906000526020600020905b81548152906001019060200180831161103157829003601f168201915b5050505050815260200160028201805461106790615036565b80601f016020809104026020016040519081016040528092919081815260200182805461109390615036565b80156110e05780601f106110b5576101008083540402835291602001916110e0565b820191906000526020600020905b8154815290600101906020018083116110c357829003601f168201915b505050505081526020016003820180546110f990615036565b80601f016020809104026020016040519081016040528092919081815260200182805461112590615036565b80156111725780601f1061114757610100808354040283529160200191611172565b820191906000526020600020905b81548152906001019060200180831161115557829003601f168201915b505050505081526020016004820154815260200160058201805461119590615036565b80601f01602080910402602001604051908101604052809291908181526020018280546111c190615036565b801561120e5780601f106111e35761010080835404028352916020019161120e565b820191906000526020600020905b8154815290600101906020018083116111f157829003601f168201915b505050505081526020016006820160009054906101000a9004600160a060020a0316600160a060020a0316600160a060020a03168152602001600782015481526020016008820154815260200160098201548152602001600a8201805480602002602001604051908101604052809291908181526020016000905b8282101561143e576000848152602090819020604080516101208101825260088602909201805460ff811615158452600160a060020a036101009091048116948401949094526001810154909316908201526002820180549192916060840191906112f390615036565b80601f016020809104026020016040519081016040528092919081815260200182805461131f90615036565b801561136c5780601f106113415761010080835404028352916020019161136c565b820191906000526020600020905b81548152906001019060200180831161134f57829003601f168201915b5050505050815260200160038201805461138590615036565b80601f01602080910402602001604051908101604052809291908181526020018280546113b190615036565b80156113fe5780601f106113d3576101008083540402835291602001916113fe565b820191906000526020600020905b8154815290600101906020018083116113e157829003601f168201915b5050505050815260200160048201548152602001600582015481526020016006820154815260200160078201548152505081526020019060010190611289565b505050508152602001600b8201805480602002602001604051908101604052809291908181526020016000905b828210156117b957838290600052602060002090600902016040518061012001604052908160008201805461149f90615036565b80601f01602080910402602001604051908101604052809291908181526020018280546114cb90615036565b80156115185780601f106114ed57610100808354040283529160200191611518565b820191906000526020600020905b8154815290600101906020018083116114fb57829003601f168201915b5050505050815260200160018201805461153190615036565b80601f016020809104026020016040519081016040528092919081815260200182805461155d90615036565b80156115aa5780601f1061157f576101008083540402835291602001916115aa565b820191906000526020600020905b81548152906001019060200180831161158d57829003601f168201915b505050505081526020016002820180546115c390615036565b80601f01602080910402602001604051908101604052809291908181526020018280546115ef90615036565b801561163c5780601f106116115761010080835404028352916020019161163c565b820191906000526020600020905b81548152906001019060200180831161161f57829003601f168201915b5050505050815260200160038201805461165590615036565b80601f016020809104026020016040519081016040528092919081815260200182805461168190615036565b80156116ce5780601f106116a3576101008083540402835291602001916116ce565b820191906000526020600020905b8154815290600101906020018083116116b157829003601f168201915b50505091835250506004820154600160a060020a03166020820152600582015460408201526006820154606082015260078201805460809092019161171290615036565b80601f016020809104026020016040519081016040528092919081815260200182805461173e90615036565b801561178b5780601f106117605761010080835404028352916020019161178b565b820191906000526020600020905b81548152906001019060200180831161176e57829003601f168201915b505050918352505060089190910154600160a060020a0316602091820152908252600192909201910161146b565b50505050815250508282815181106117d3576117d3614fd8565b602002602001018190525080806117e99061501d565b915050610ee2565b50919050565b6002818154811061180757600080fd5b600091825260209091200154600160a060020a0316905081565b600160a060020a0381166000908152600560209081526040808320600a01805482518185028101850190935280835260609492939192909184015b82821015611a11576000848152602090819020604080516101208101825260088602909201805460ff811615158452600160a060020a036101009091048116948401949094526001810154909316908201526002820180549192916060840191906118c690615036565b80601f01602080910402602001604051908101604052809291908181526020018280546118f290615036565b801561193f5780601f106119145761010080835404028352916020019161193f565b820191906000526020600020905b81548152906001019060200180831161192257829003601f168201915b5050505050815260200160038201805461195890615036565b80601f016020809104026020016040519081016040528092919081815260200182805461198490615036565b80156119d15780601f106119a6576101008083540402835291602001916119d1565b820191906000526020600020905b8154815290600101906020018083116119b457829003601f168201915b505050505081526020016004820154815260200160058201548152602001600682015481526020016007820154815250508152602001906001019061185c565b505050509050919050565b611a246144b4565b600160a060020a03821660009081526005602052604080822081516101808101909252805482908290611a5690615036565b80601f0160208091040260200160405190810160405280929190818152602001828054611a8290615036565b8015611acf5780601f10611aa457610100808354040283529160200191611acf565b820191906000526020600020905b815481529060010190602001808311611ab257829003601f168201915b50505050508152602001600182018054611ae890615036565b80601f0160208091040260200160405190810160405280929190818152602001828054611b1490615036565b8015611b615780601f10611b3657610100808354040283529160200191611b61565b820191906000526020600020905b815481529060010190602001808311611b4457829003601f168201915b50505050508152602001600282018054611b7a90615036565b80601f0160208091040260200160405190810160405280929190818152602001828054611ba690615036565b8015611bf35780601f10611bc857610100808354040283529160200191611bf3565b820191906000526020600020905b815481529060010190602001808311611bd657829003601f168201915b50505050508152602001600382018054611c0c90615036565b80601f0160208091040260200160405190810160405280929190818152602001828054611c3890615036565b8015611c855780601f10611c5a57610100808354040283529160200191611c85565b820191906000526020600020905b815481529060010190602001808311611c6857829003601f168201915b5050505050815260200160048201548152602001600582018054611ca890615036565b80601f0160208091040260200160405190810160405280929190818152602001828054611cd490615036565b8015611d215780601f10611cf657610100808354040283529160200191611d21565b820191906000526020600020905b815481529060010190602001808311611d0457829003601f168201915b505050505081526020016006820160009054906101000a9004600160a060020a0316600160a060020a0316600160a060020a03168152602001600782015481526020016008820154815260200160098201548152602001600a8201805480602002602001604051908101604052809291908181526020016000905b82821015611f51576000848152602090819020604080516101208101825260088602909201805460ff811615158452600160a060020a03610100909104811694840194909452600181015490931690820152600282018054919291606084019190611e0690615036565b80601f0160208091040260200160405190810160405280929190818152602001828054611e3290615036565b8015611e7f5780601f10611e5457610100808354040283529160200191611e7f565b820191906000526020600020905b815481529060010190602001808311611e6257829003601f168201915b50505050508152602001600382018054611e9890615036565b80601f0160208091040260200160405190810160405280929190818152602001828054611ec490615036565b8015611f115780601f10611ee657610100808354040283529160200191611f11565b820191906000526020600020905b815481529060010190602001808311611ef457829003601f168201915b5050505050815260200160048201548152602001600582015481526020016006820154815260200160078201548152505081526020019060010190611d9c565b505050508152602001600b8201805480602002602001604051908101604052809291908181526020016000905b828210156122cc578382906000526020600020906009020160405180610120016040529081600082018054611fb290615036565b80601f0160208091040260200160405190810160405280929190818152602001828054611fde90615036565b801561202b5780601f106120005761010080835404028352916020019161202b565b820191906000526020600020905b81548152906001019060200180831161200e57829003601f168201915b5050505050815260200160018201805461204490615036565b80601f016020809104026020016040519081016040528092919081815260200182805461207090615036565b80156120bd5780601f10612092576101008083540402835291602001916120bd565b820191906000526020600020905b8154815290600101906020018083116120a057829003601f168201915b505050505081526020016002820180546120d690615036565b80601f016020809104026020016040519081016040528092919081815260200182805461210290615036565b801561214f5780601f106121245761010080835404028352916020019161214f565b820191906000526020600020905b81548152906001019060200180831161213257829003601f168201915b5050505050815260200160038201805461216890615036565b80601f016020809104026020016040519081016040528092919081815260200182805461219490615036565b80156121e15780601f106121b6576101008083540402835291602001916121e1565b820191906000526020600020905b8154815290600101906020018083116121c457829003601f168201915b50505091835250506004820154600160a060020a03166020820152600582015460408201526006820154606082015260078201805460809092019161222590615036565b80601f016020809104026020016040519081016040528092919081815260200182805461225190615036565b801561229e5780601f106122735761010080835404028352916020019161229e565b820191906000526020600020905b81548152906001019060200180831161228157829003601f168201915b505050918352505060089190910154600160a060020a03166020918201529082526001929092019101611f7e565b50505091525090949350505050565b6122e3614456565b600160a060020a038316600090815260076020526040812060050180548490811061231057612310614fd8565b90600052602060002090600902016040518061012001604052908160008201805461233a90615036565b80601f016020809104026020016040519081016040528092919081815260200182805461236690615036565b80156123b35780601f10612388576101008083540402835291602001916123b3565b820191906000526020600020905b81548152906001019060200180831161239657829003601f168201915b505050505081526020016001820180546123cc90615036565b80601f01602080910402602001604051908101604052809291908181526020018280546123f890615036565b80156124455780601f1061241a57610100808354040283529160200191612445565b820191906000526020600020905b81548152906001019060200180831161242857829003601f168201915b5050505050815260200160028201805461245e90615036565b80601f016020809104026020016040519081016040528092919081815260200182805461248a90615036565b80156124d75780601f106124ac576101008083540402835291602001916124d7565b820191906000526020600020905b8154815290600101906020018083116124ba57829003601f168201915b505050505081526020016003820180546124f090615036565b80601f016020809104026020016040519081016040528092919081815260200182805461251c90615036565b80156125695780601f1061253e57610100808354040283529160200191612569565b820191906000526020600020905b81548152906001019060200180831161254c57829003601f168201915b50505091835250506004820154600160a060020a0316602082015260058201546040820152600682015460608201526007820180546080909201916125ad90615036565b80601f01602080910402602001604051908101604052809291908181526020018280546125d990615036565b80156126265780601f106125fb57610100808354040283529160200191612626565b820191906000526020600020905b81548152906001019060200180831161260957829003601f168201915b505050918352505060089190910154600160a060020a03166020909101529150505b92915050565b3360009081526006602052604090205460ff16156126b15760405160e560020a62461bcd02815260206004820152601a60248201527f596f752061726520616c726561647920612070617469656e74200000000000006044820152606401610570565b336000908152600660209081526040808320805460ff19166001179055600790915290206126df86826150f3565b50336000818152600760208190526040909120600281018054600160a060020a0319169093179092556004820185905560038201869055810183905560010161272882826150f3565b50600380546001818101835560009283527fc2575a0e9e593c00f959f8c92f12db2869c3395a3b0502d05e2516446f71f85b9091018054600160a060020a03191633179055600880549192909161278090849061500a565b90915550505050505050565b336000908152600560205260409020600a018054839081106127b0576127b0614fd8565b600091825260209091206008909102015460ff16151560011461283e5760405160e560020a62461bcd02815260206004820152602760248201527f596f752068617665206e6f7420636f6d706c657465642074686973206170706f60448201527f696e746d656e74000000000000000000000000000000000000000000000000006064820152608401610570565b336000908152600560205260409020600a0180548291908490811061286557612865614fd8565b9060005260206000209060080201600601819055505050565b336000908152600760209081526040808320600160a060020a0385168452600981019092529091205460ff16156128fa5760405160e560020a62461bcd02815260206004820152601860248201527f596f75206861766520616c7265616479207570646174656400000000000000006044820152606401610570565b50336000908152600760209081526040808320600160a060020a039490941683526009909301905220805460ff19166001179055565b336000908152600560205260409020600a0180548390811061295457612954614fd8565b600091825260209091206008909102015460ff16156129de5760405160e560020a62461bcd02815260206004820152602360248201527f596f75206861766520636f6d706c657465642074686973206170706f696e746d60448201527f656e7400000000000000000000000000000000000000000000000000000000006064820152608401610570565b336000908152600560205260409020600a0180546001919084908110612a0657612a06614fd8565b60009182526020808320600892909202909101805460ff191693151593909317909255338152600590915260409020600a01805482919084908110612a4d57612a4d614fd8565b9060005260206000209060080201600501819055505050565b600560205260009081526040902080548190612a8190615036565b80601f0160208091040260200160405190810160405280929190818152602001828054612aad90615036565b8015612afa5780601f10612acf57610100808354040283529160200191612afa565b820191906000526020600020905b815481529060010190602001808311612add57829003601f168201915b505050505090806001018054612b0f90615036565b80601f0160208091040260200160405190810160405280929190818152602001828054612b3b90615036565b8015612b885780601f10612b5d57610100808354040283529160200191612b88565b820191906000526020600020905b815481529060010190602001808311612b6b57829003601f168201915b505050505090806002018054612b9d90615036565b80601f0160208091040260200160405190810160405280929190818152602001828054612bc990615036565b8015612c165780601f10612beb57610100808354040283529160200191612c16565b820191906000526020600020905b815481529060010190602001808311612bf957829003601f168201915b505050505090806003018054612c2b90615036565b80601f0160208091040260200160405190810160405280929190818152602001828054612c5790615036565b8015612ca45780601f10612c7957610100808354040283529160200191612ca4565b820191906000526020600020905b815481529060010190602001808311612c8757829003601f168201915b505050505090806004015490806005018054612cbf90615036565b80601f0160208091040260200160405190810160405280929190818152602001828054612ceb90615036565b8015612d385780601f10612d0d57610100808354040283529160200191612d38565b820191906000526020600020905b815481529060010190602001808311612d1b57829003601f168201915b505050506006830154600784015460088501546009909501549394600160a060020a03909216939092508a565b600160a060020a038116600090815260056020526040812060070154341015612dd35760405160e560020a62461bcd02815260206004820152601460248201527f20496e73756666696369656e742066756e6473200000000000000000000000006044820152606401610570565b60008083600160a060020a03163460405160006040518083038185875af1925050503d8060008114612e21576040519150601f19603f3d011682016040523d82523d6000602084013e612e26565b606091505b509095945050505050565b3360009081526004602052604090205460ff1615612e945760405160e560020a62461bcd02815260206004820152601960248201527f596f752061726520616c7265616479206120646f63746f7220000000000000006044820152606401610570565b60028054600181019091557f405787fa12a823e0f2b7631cc41b3ba8828b3321ca811111fa75cd3aa3bb5ace018054600160a060020a031916339081179091556000908152600560205260409020612eec89826150f3565b50336000908152600560205260409020600101612f0988826150f3565b50336000908152600560205260409020600681018054600160a060020a031916600160a060020a038516179055600301612f4386826150f3565b50336000908152600560205260409020600201612f6087826150f3565b503360009081526005602081905260409091206004810186905501612f8584826150f3565b50612f9881670de0b6b3a76400006151b9565b336000908152600560209081526040808320600781019490945560088401839055600993840183905560049091528120805460ff19166001908117909155825490929190612fe790849061500a565b90915550505050505050505050565b60076020526000908152604090208054819061301190615036565b80601f016020809104026020016040519081016040528092919081815260200182805461303d90615036565b801561308a5780601f1061305f5761010080835404028352916020019161308a565b820191906000526020600020905b81548152906001019060200180831161306d57829003601f168201915b50505050509080600101805461309f90615036565b80601f01602080910402602001604051908101604052809291908181526020018280546130cb90615036565b80156131185780601f106130ed57610100808354040283529160200191613118565b820191906000526020600020905b8154815290600101906020018083116130fb57829003601f168201915b5050506002840154600385015460048601546006870180549697600160a060020a03909416969295509093509061314e90615036565b80601f016020809104026020016040519081016040528092919081815260200182805461317a90615036565b80156131c75780601f1061319c576101008083540402835291602001916131c7565b820191906000526020600020905b8154815290600101906020018083116131aa57829003601f168201915b5050505050908060070154905087565b600181815481106131e757600080fd5b600091825260209091206008909102018054600182015460028301805460ff84169550610100909304600160a060020a039081169492169261322890615036565b80601f016020809104026020016040519081016040528092919081815260200182805461325490615036565b80156132a15780601f10613276576101008083540402835291602001916132a1565b820191906000526020600020905b81548152906001019060200180831161328457829003601f168201915b5050505050908060030180546132b690615036565b80601f01602080910402602001604051908101604052809291908181526020018280546132e290615036565b801561332f5780601f106133045761010080835404028352916020019161332f565b820191906000526020600020905b81548152906001019060200180831161331257829003601f168201915b5050505050908060040154908060050154908060060154908060070154905089565b600160a060020a0381166000908152600660205260408120546060918291819083908290829060ff166133995760405160e560020a62461bcd0281526004016105709061506d565b6000600760008a600160a060020a0316600160a060020a031681526020019081526020016000209050806000018160010182600401548360030154846006018560070154866005018680546133ed90615036565b80601f016020809104026020016040519081016040528092919081815260200182805461341990615036565b80156134665780601f1061343b57610100808354040283529160200191613466565b820191906000526020600020905b81548152906001019060200180831161344957829003601f168201915b5050505050965085805461347990615036565b80601f01602080910402602001604051908101604052809291908181526020018280546134a590615036565b80156134f25780601f106134c7576101008083540402835291602001916134f2565b820191906000526020600020905b8154815290600101906020018083116134d557829003601f168201915b5050505050955082805461350590615036565b80601f016020809104026020016040519081016040528092919081815260200182805461353190615036565b801561357e5780601f106135535761010080835404028352916020019161357e565b820191906000526020600020905b81548152906001019060200180831161356157829003601f168201915b5050505050925080805480602002602001604051908101604052809291908181526020016000905b828210156138f45783829060005260206000209060090201604051806101200160405290816000820180546135da90615036565b80601f016020809104026020016040519081016040528092919081815260200182805461360690615036565b80156136535780601f1061362857610100808354040283529160200191613653565b820191906000526020600020905b81548152906001019060200180831161363657829003601f168201915b5050505050815260200160018201805461366c90615036565b80601f016020809104026020016040519081016040528092919081815260200182805461369890615036565b80156136e55780601f106136ba576101008083540402835291602001916136e5565b820191906000526020600020905b8154815290600101906020018083116136c857829003601f168201915b505050505081526020016002820180546136fe90615036565b80601f016020809104026020016040519081016040528092919081815260200182805461372a90615036565b80156137775780601f1061374c57610100808354040283529160200191613777565b820191906000526020600020905b81548152906001019060200180831161375a57829003601f168201915b5050505050815260200160038201805461379090615036565b80601f01602080910402602001604051908101604052809291908181526020018280546137bc90615036565b80156138095780601f106137de57610100808354040283529160200191613809565b820191906000526020600020905b8154815290600101906020018083116137ec57829003601f168201915b50505091835250506004820154600160a060020a03166020820152600582015460408201526006820154606082015260078201805460809092019161384d90615036565b80601f016020809104026020016040519081016040528092919081815260200182805461387990615036565b80156138c65780601f1061389b576101008083540402835291602001916138c6565b820191906000526020600020905b8154815290600101906020018083116138a957829003601f168201915b505050918352505060089190910154600160a060020a031660209182015290825260019290920191016135a6565b505050509050975097509750975097509750975050919395979092949650565b60408051610120810182526000808252336020808401829052600160a060020a0388168486015290825260079052918220805460608301919061395690615036565b80601f016020809104026020016040519081016040528092919081815260200182805461398290615036565b80156139cf5780601f106139a4576101008083540402835291602001916139cf565b820191906000526020600020905b8154815290600101906020018083116139b257829003601f168201915b505050505081526020016005600087600160a060020a0316600160a060020a031681526020019081526020016000206000018054613a0c90615036565b80601f0160208091040260200160405190810160405280929190818152602001828054613a3890615036565b8015613a855780601f10613a5a57610100808354040283529160200191613a85565b820191906000526020600020905b815481529060010190602001808311613a6857829003601f168201915b505050918352505060208082018690526000604080840182905260608085018390526080909401879052600160a060020a03808a16835260058452818320600a0180546001818101835591855293859020875160089095020180549588015183166101000274ffffffffffffffffffffffffffffffffffffffff00199515159590951674ffffffffffffffffffffffffffffffffffffffffff199096169590951793909317845590850151918301805492909116600160a060020a03199092169190911790559082015191925082916002820190613b6390826150f3565b5060808201516003820190613b7890826150f3565b5060a0820151600482015560c0820151600582015560e08201516006820155610100918201516007918201553360009081526020918252604080822060089081018054600180820183559185529385902087519490920290910180549487015174ffffffffffffffffffffffffffffffffffffffffff1990951693151574ffffffffffffffffffffffffffffffffffffffff00191693909317600160a060020a039485169095029490941782558401519281018054600160a060020a0319169390921692909217905560608201518291906002820190613c5890826150f3565b5060808201516003820190613c6d90826150f3565b5060a0820151816004015560c0820151816005015560e082015181600601556101008201518160070155505050505050565b600160a060020a0381166000908152600760209081526040808320600801805482518185028101850190935280835260609492939192909184015b82821015611a11576000848152602090819020604080516101208101825260088602909201805460ff811615158452600160a060020a03610100909104811694840194909452600181015490931690820152600282018054919291606084019190613d4490615036565b80601f0160208091040260200160405190810160405280929190818152602001828054613d7090615036565b8015613dbd5780601f10613d9257610100808354040283529160200191613dbd565b820191906000526020600020905b815481529060010190602001808311613da057829003601f168201915b50505050508152602001600382018054613dd690615036565b80601f0160208091040260200160405190810160405280929190818152602001828054613e0290615036565b8015613e4f5780601f10613e2457610100808354040283529160200191613e4f565b820191906000526020600020905b815481529060010190602001808311613e3257829003601f168201915b5050505050815260200160048201548152602001600582015481526020016006820154815260200160078201548152505081526020019060010190613cda565b600160a060020a03811660009081526006602052604090205460ff16613eca5760405160e560020a62461bcd0281526004016105709061506d565b3360009081526004602052604090205460ff16613f2c5760405160e560020a62461bcd02815260206004820152601460248201527f596f7520617265206e6f74206120446f63746f720000000000000000000000006044820152606401610570565b600160a060020a0380821660009081526007602090815260408083208151610120810183529487168452600592839052922080549190920192918291613f7190615036565b80601f0160208091040260200160405190810160405280929190818152602001828054613f9d90615036565b8015613fea5780601f10613fbf57610100808354040283529160200191613fea565b820191906000526020600020905b815481529060010190602001808311613fcd57829003601f168201915b5050505050815260200187815260200186815260200185815260200184600160a060020a031681526020014281526020013481526020016007600085600160a060020a0316600160a060020a03168152602001908152602001600020600001805461405490615036565b80601f016020809104026020016040519081016040528092919081815260200182805461408090615036565b80156140cd5780601f106140a2576101008083540402835291602001916140cd565b820191906000526020600020905b8154815290600101906020018083116140b057829003601f168201915b5050509183525050600160a060020a038416602091820152825460018101845560009384529220815191926009020190819061410990826150f3565b506020820151600182019061411e90826150f3565b506040820151600282019061413390826150f3565b506060820151600382019061414890826150f3565b506080820151600482018054600160a060020a031916600160a060020a0390921691909117905560a0820151600582015560c0820151600682015560e0820151600782019061419790826150f3565b50610100919091015160089091018054600160a060020a031916600160a060020a03928316179055821660009081526005602052604090819020815161012081019092528054600b8201929182916141ee90615036565b80601f016020809104026020016040519081016040528092919081815260200182805461421a90615036565b80156142675780601f1061423c57610100808354040283529160200191614267565b820191906000526020600020905b81548152906001019060200180831161424a57829003601f168201915b5050505050815260200187815260200186815260200185815260200184600160a060020a031681526020014281526020013481526020016007600085600160a060020a0316600160a060020a0316815260200190815260200160002060000180546142d190615036565b80601f01602080910402602001604051908101604052809291908181526020018280546142fd90615036565b801561434a5780601f1061431f5761010080835404028352916020019161434a565b820191906000526020600020905b81548152906001019060200180831161432d57829003601f168201915b5050509183525050600160a060020a038416602091820152825460018101845560009384529220815191926009020190819061438690826150f3565b506020820151600182019061439b90826150f3565b50604082015160028201906143b090826150f3565b50606082015160038201906143c590826150f3565b506080820151600482018054600160a060020a031916600160a060020a0390921691909117905560a0820151600582015560c0820151600682015560e0820151600782019061441490826150f3565b50610100919091015160089091018054600160a060020a031916600160a060020a039092169190911790555050505050565b6003818154811061180757600080fd5b604051806101200160405280606081526020016060815260200160608152602001606081526020016000600160a060020a031681526020016000815260200160008152602001606081526020016000600160a060020a031681525090565b6040518061018001604052806060815260200160608152602001606081526020016060815260200160008152602001606081526020016000600160a060020a0316815260200160008152602001600081526020016000815260200160608152602001606081525090565b600160a060020a038116811461453357600080fd5b50565b60006020828403121561454857600080fd5b81356145538161451e565b9392505050565b6000815180845260005b8181101561458057602081850181015186830182015201614564565b506000602082860101526020601f19601f83011685010191505092915050565b600061012082518185526145b68286018261455a565b915050602083015184820360208601526145d0828261455a565b915050604083015184820360408601526145ea828261455a565b91505060608301518482036060860152614604828261455a565b91505060808301516146216080860182600160a060020a03169052565b5060a083015160a085015260c083015160c085015260e083015184820360e086015261464d828261455a565b9150506101008084015161466b82870182600160a060020a03169052565b5090949350505050565b6000828251808552602080860195508081830284010181860160005b848110156146bf57601f198684030189526146ad8383516145a0565b98840198925090830190600101614691565b5090979650505050505050565b6020815260006145536020830184614675565b6000828251808552602080860195508081830284010181860160005b848110156146bf57858303601f19018952815180511515845261012081860151600160a060020a0381168688015250604082810151600160a060020a03811687830152505060608083015182828801526147578388018261455a565b9250505060808083015186830382880152614772838261455a565b60a0858101519089015260c0808601519089015260e0808601519089015261010094850151949097019390935250505097830197908301906001016146fb565b600081518084526020808501808196508284028101915082860160005b858110156147f95782840389526147e78483516145a0565b988501989350908401906001016147cf565b5091979650505050505050565b6000610180825181855261481c8286018261455a565b91505060208301518482036020860152614836828261455a565b91505060408301518482036040860152614850828261455a565b9150506060830151848203606086015261486a828261455a565b9150506080830151608085015260a083015184820360a086015261488e828261455a565b91505060c08301516148ab60c0860182600160a060020a03169052565b5060e083810151908501526101008084015190850152610120808401519085015261014080840151858303828701526148e483826146df565b92505050610160808401518583038287015261490083826147b2565b9695505050505050565b600060208083018184528085518083526040860191506040848202870101925083870160005b8281101561495e57603f1988860301845261494c858351614806565b94509285019290850190600101614930565b5092979650505050505050565b60006020828403121561497d57600080fd5b5035919050565b60208082528251828201819052600091906040908185019080840286018301878501865b83811015614a5c57888303603f19018552815180511515845261012081890151600160a060020a038116868b01525081880151600160a060020a038116868a0152506060808301518282880152614a018388018261455a565b9250505060808083015186830382880152614a1c838261455a565b60a0858101519089015260c0808601519089015260e0808601519089015261010094850151949097019390935250505093860193908601906001016149a8565b509098975050505050505050565b6020815260006145536020830184614806565b60008060408385031215614a9057600080fd5b8235614a9b8161451e565b946020939093013593505050565b60208152600061455360208301846145a0565b60e060020a634e487b7102600052604160045260246000fd5b600082601f830112614ae657600080fd5b813567ffffffffffffffff80821115614b0157614b01614abc565b604051601f8301601f19908116603f01168101908282118183101715614b2957614b29614abc565b81604052838152866020858801011115614b4257600080fd5b836020870160208301376000602085830101528094505050505092915050565b600080600080600060a08688031215614b7a57600080fd5b853567ffffffffffffffff80821115614b9257600080fd5b614b9e89838a01614ad5565b96506020880135955060408801359450606088013593506080880135915080821115614bc957600080fd5b50614bd688828901614ad5565b9150509295509295909350565b60008060408385031215614bf657600080fd5b50508035926020909101359150565b6000610140808352614c198184018e61455a565b90508281036020840152614c2d818d61455a565b90508281036040840152614c41818c61455a565b90508281036060840152614c55818b61455a565b905088608084015282810360a0840152614c6f818961455a565b915050600160a060020a03861660c08301528460e083015283610100830152826101208301529b9a5050505050505050505050565b8035614caf8161451e565b919050565b600080600080600080600080610100898b031215614cd157600080fd5b883567ffffffffffffffff80821115614ce957600080fd5b614cf58c838d01614ad5565b995060208b0135915080821115614d0b57600080fd5b614d178c838d01614ad5565b985060408b0135915080821115614d2d57600080fd5b614d398c838d01614ad5565b975060608b0135915080821115614d4f57600080fd5b614d5b8c838d01614ad5565b965060808b0135955060a08b0135915080821115614d7857600080fd5b50614d858b828c01614ad5565b935050614d9460c08a01614ca4565b915060e089013590509295985092959890939650565b60e081526000614dbd60e083018a61455a565b8281036020840152614dcf818a61455a565b9050600160a060020a038816604084015286606084015285608084015282810360a0840152614dfe818661455a565b9150508260c083015298975050505050505050565b60006101208b15158352600160a060020a03808c166020850152808b16604085015250806060840152614e488184018a61455a565b90508281036080840152614e5c818961455a565b9150508560a08301528460c08301528360e0830152826101008301529a9950505050505050505050565b60e081526000614e9960e083018a61455a565b8281036020840152614eab818a61455a565b90508760408401528660608401528281036080840152614ecb818761455a565b90508460a084015282810360c0840152614ee58185614675565b9a9950505050505050505050565b600080600060608486031215614f0857600080fd5b8335614f138161451e565b95602085013595506040909401359392505050565b600080600080600060a08688031215614f4057600080fd5b853567ffffffffffffffff80821115614f5857600080fd5b614f6489838a01614ad5565b96506020880135915080821115614f7a57600080fd5b614f8689838a01614ad5565b95506040880135915080821115614f9c57600080fd5b50614fa988828901614ad5565b9350506060860135614fba8161451e565b91506080860135614fca8161451e565b809150509295509295909350565b60e060020a634e487b7102600052603260045260246000fd5b60e060020a634e487b7102600052601160045260246000fd5b8082018082111561264857612648614ff1565b60006001820161502f5761502f614ff1565b5060010190565b60028104600182168061504a57607f821691505b6020821081036117f15760e060020a634e487b7102600052602260045260246000fd5b60208082526015908201527f596f7520617265206e6f7420612070617469656e740000000000000000000000604082015260600190565b601f8211156150ee576000818152602081206020601f860104810160208610156150cb5750805b6020601f860104820191505b818110156150ea578281556001016150d7565b5050505b505050565b815167ffffffffffffffff81111561510d5761510d614abc565b6151218161511b8454615036565b846150a4565b602080601f83116001811461515a576000841561513e5750858301515b60028086026008870290910a60001904198216178655506150ea565b600085815260208120601f198616915b828110156151895788860151825594840194600190910190840161516a565b50858210156151a957878501516008601f88160260020a60001904191681555b5050505050600202600101905550565b808202811582820484141761264857612648614ff156fea26469706673582212206e036cda23c8eef9e85174ae8b723b0e16018e24ba074782a7f58bfb47e63ac964736f6c63430008120033",
  "immutableReferences": {},
  "source": "// SPDX-License-Identifier: GPL-3.0\r\npragma solidity >=0.7.0 <0.9.0;\r\n\r\nimport \"./Medical_2.sol\";\r\n// Medical.sol\r\ncontract HealthManagement is HealthManagement2 {\r\n\r\n    constructor(){\r\n        patientCount = 0;\r\n        doctorCount = 0;\r\n        appointmentCount = 0;\r\n        owner_ = msg.sender;\r\n    }\r\n    \r\n   function addDoctor(\r\n        string memory name,\r\n        string memory email,\r\n        string memory gender,\r\n        string memory introduction,\r\n        uint age,\r\n        string memory location,\r\n        address payable address_,\r\n        uint256 basefee\r\n        ) public  {\r\n\r\n        require(isDoctor[msg.sender] == false,\"You are already a doctor \");\r\n        \r\n        alldoctors.push(msg.sender);\r\n        allDoctors[msg.sender].name = name;\r\n        allDoctors[msg.sender].email = email;\r\n        allDoctors[msg.sender].address_ = address_;\r\n        allDoctors[msg.sender].introduction = introduction;\r\n        allDoctors[msg.sender].gender = gender;\r\n        allDoctors[msg.sender].age = age;\r\n        allDoctors[msg.sender].location = location;\r\n        allDoctors[msg.sender].basefee = basefee*(1 ether);\r\n        allDoctors[msg.sender].starCount = 0;\r\n        allDoctors[msg.sender].totalPatients = 0;\r\n        isDoctor[msg.sender] = true;\r\n        // allDoctors[msg.sender].records_ = Record [](0);\r\n        doctorCount += 1;\r\n        \r\n   }\r\n\r\n   function payFees(address to)public payable returns (bool sentt) {\r\n       require(msg.value >= allDoctors[to].basefee , \" Insufficient funds \");\r\n       (bool sent, bytes memory data) = (address(payable(to))).call{value: msg.value}(\"\");\r\n        return sent;\r\n        // require(sent, \"Failed to send Ether\");\r\n   }\r\n// uint256 id\r\n   function takeAppointment(address docAddr,uint256 slot,uint256 id) public {\r\n\r\n        Appointment memory a = Appointment(false, payable(msg.sender),payable(docAddr),allPatients[msg.sender].name , allDoctors[docAddr].name , slot,0,0,id);\r\n        allDoctors[docAddr].appointments_.push(a);\r\n        allPatients[msg.sender].myAppointments.push(a);\r\n        // add to patients appointments too \r\n   }\r\n\r\n// uint256 id\r\n    function startAppointment(uint256 index,uint256 start) public {\r\n        require(allDoctors[msg.sender].appointments_[index].status == false,\"You have completed this appointment\");\r\n        allDoctors[msg.sender].appointments_[index].status = true;\r\n        // allDoctors[msg.sender].appointments_[index].id = id;\r\n        // allPatients[msg.sender].appointments_[index].id = id;\r\n        allDoctors[msg.sender].appointments_[index].timeStart = start;\r\n    }\r\n\r\n    function endAppointment(uint256 index,uint256 end) public{\r\n       require(allDoctors[msg.sender].appointments_[index].status == true,\"You have not completed this appointment\");\r\n        allDoctors[msg.sender].appointments_[index].timeEnd = end;\r\n    }\r\n    \r\n    function getAllDoctor() public view returns(Doctor [] memory alldocs ) {\r\n        Doctor [] memory docs = new Doctor[](doctorCount);\r\n        for(uint i = 0; i < doctorCount ; i++)docs[i] = allDoctors[ alldoctors[i] ];\r\n        return docs;\r\n    }\r\n\r\n    function getOneDoctor(address addr) public view returns (Doctor memory doc){\r\n        Doctor memory d = allDoctors[addr];\r\n        return d;\r\n    }\r\n\r\n}",
  "sourcePath": "G:\\coding\\Projects\\pro-10-bc\\front-2\\truffle\\contracts\\Medical.sol",
  "compiler": {
    "name": "solc",
    "version": "0.8.18+commit.87f61d96.Emscripten.clang"
  },
  "schemaVersion": "3.4.12",
  "updatedAt": "2023-05-03T13:21:56.861Z",
  "networkType": "ethereum",
  "devdoc": {
    "kind": "dev",
    "methods": {},
    "version": 1
  },
  "userdoc": {
    "kind": "user",
    "methods": {},
    "version": 1
  }
}