{
  "contractName": "HealthManagement",
  "abi": [
    {
      "inputs": [],
      "stateMutability": "nonpayable",
      "type": "constructor"
    },
    {
      "inputs": [
        {
          "internalType": "string",
          "name": "name",
          "type": "string"
        },
        {
          "internalType": "uint256",
          "name": "phone",
          "type": "uint256"
        },
        {
          "internalType": "uint256",
          "name": "age",
          "type": "uint256"
        },
        {
          "internalType": "uint256",
          "name": "dob",
          "type": "uint256"
        },
        {
          "internalType": "string",
          "name": "email",
          "type": "string"
        }
      ],
      "name": "addPatient",
      "outputs": [],
      "stateMutability": "nonpayable",
      "type": "function"
    },
    {
      "inputs": [
        {
          "internalType": "string",
          "name": "currentfiles",
          "type": "string"
        },
        {
          "internalType": "string",
          "name": "presciptions",
          "type": "string"
        },
        {
          "internalType": "address payable",
          "name": "doctor_",
          "type": "address"
        },
        {
          "internalType": "string",
          "name": "docname",
          "type": "string"
        },
        {
          "internalType": "string",
          "name": "patientName",
          "type": "string"
        },
        {
          "internalType": "address payable",
          "name": "patientaddr",
          "type": "address"
        }
      ],
      "name": "addPatientRecord",
      "outputs": [],
      "stateMutability": "payable",
      "type": "function",
      "payable": true
    },
    {
      "inputs": [
        {
          "internalType": "uint256",
          "name": "",
          "type": "uint256"
        }
      ],
      "name": "allAppointments",
      "outputs": [
        {
          "internalType": "bool",
          "name": "status",
          "type": "bool"
        },
        {
          "internalType": "address payable",
          "name": "patient_",
          "type": "address"
        },
        {
          "internalType": "address payable",
          "name": "doctor_",
          "type": "address"
        },
        {
          "internalType": "string",
          "name": "patientName",
          "type": "string"
        },
        {
          "internalType": "string",
          "name": "docname",
          "type": "string"
        },
        {
          "internalType": "uint256",
          "name": "timeslot_",
          "type": "uint256"
        },
        {
          "internalType": "uint256",
          "name": "timeStart",
          "type": "uint256"
        },
        {
          "internalType": "uint256",
          "name": "timeEnd",
          "type": "uint256"
        }
      ],
      "stateMutability": "view",
      "type": "function",
      "constant": true
    },
    {
      "inputs": [
        {
          "internalType": "address",
          "name": "",
          "type": "address"
        }
      ],
      "name": "allDoctors",
      "outputs": [
        {
          "internalType": "string",
          "name": "name",
          "type": "string"
        },
        {
          "internalType": "address payable",
          "name": "address_",
          "type": "address"
        },
        {
          "internalType": "uint256",
          "name": "basefee",
          "type": "uint256"
        },
        {
          "internalType": "uint256",
          "name": "starCount",
          "type": "uint256"
        },
        {
          "internalType": "uint256",
          "name": "totalPatients",
          "type": "uint256"
        }
      ],
      "stateMutability": "view",
      "type": "function",
      "constant": true
    },
    {
      "inputs": [
        {
          "internalType": "address",
          "name": "",
          "type": "address"
        }
      ],
      "name": "allPatients",
      "outputs": [
        {
          "internalType": "string",
          "name": "name",
          "type": "string"
        },
        {
          "internalType": "string",
          "name": "email",
          "type": "string"
        },
        {
          "internalType": "address payable",
          "name": "address_",
          "type": "address"
        },
        {
          "internalType": "uint256",
          "name": "phone",
          "type": "uint256"
        },
        {
          "internalType": "uint256",
          "name": "age",
          "type": "uint256"
        },
        {
          "internalType": "string",
          "name": "bloodgroup",
          "type": "string"
        },
        {
          "internalType": "uint256",
          "name": "dob",
          "type": "uint256"
        }
      ],
      "stateMutability": "view",
      "type": "function",
      "constant": true
    },
    {
      "inputs": [
        {
          "internalType": "uint256",
          "name": "",
          "type": "uint256"
        }
      ],
      "name": "allPatientsList",
      "outputs": [
        {
          "internalType": "address",
          "name": "",
          "type": "address"
        }
      ],
      "stateMutability": "view",
      "type": "function",
      "constant": true
    },
    {
      "inputs": [
        {
          "internalType": "uint256",
          "name": "",
          "type": "uint256"
        }
      ],
      "name": "alldoctors",
      "outputs": [
        {
          "internalType": "address",
          "name": "",
          "type": "address"
        }
      ],
      "stateMutability": "view",
      "type": "function",
      "constant": true
    },
    {
      "inputs": [
        {
          "internalType": "address",
          "name": "addr",
          "type": "address"
        },
        {
          "internalType": "uint256",
          "name": "index",
          "type": "uint256"
        }
      ],
      "name": "getOneRecord",
      "outputs": [
        {
          "components": [
            {
              "internalType": "string",
              "name": "docname",
              "type": "string"
            },
            {
              "internalType": "string",
              "name": "fileHashes",
              "type": "string"
            },
            {
              "internalType": "string",
              "name": "presciptions",
              "type": "string"
            },
            {
              "internalType": "address payable",
              "name": "doctor_",
              "type": "address"
            },
            {
              "internalType": "uint256",
              "name": "timeStamp",
              "type": "uint256"
            },
            {
              "internalType": "uint256",
              "name": "amount",
              "type": "uint256"
            },
            {
              "internalType": "string",
              "name": "patientName",
              "type": "string"
            },
            {
              "internalType": "address payable",
              "name": "patientaddr",
              "type": "address"
            }
          ],
          "internalType": "struct HealthManagement2.Record",
          "name": "rec",
          "type": "tuple"
        }
      ],
      "stateMutability": "view",
      "type": "function",
      "constant": true
    },
    {
      "inputs": [
        {
          "internalType": "address",
          "name": "addr",
          "type": "address"
        }
      ],
      "name": "getPatientDetails",
      "outputs": [
        {
          "internalType": "string",
          "name": "name",
          "type": "string"
        },
        {
          "internalType": "string",
          "name": "email",
          "type": "string"
        },
        {
          "internalType": "uint256",
          "name": "age",
          "type": "uint256"
        },
        {
          "internalType": "uint256",
          "name": "phone",
          "type": "uint256"
        },
        {
          "internalType": "string",
          "name": "bloodgroup",
          "type": "string"
        },
        {
          "internalType": "uint256",
          "name": "dob",
          "type": "uint256"
        },
        {
          "components": [
            {
              "internalType": "string",
              "name": "docname",
              "type": "string"
            },
            {
              "internalType": "string",
              "name": "fileHashes",
              "type": "string"
            },
            {
              "internalType": "string",
              "name": "presciptions",
              "type": "string"
            },
            {
              "internalType": "address payable",
              "name": "doctor_",
              "type": "address"
            },
            {
              "internalType": "uint256",
              "name": "timeStamp",
              "type": "uint256"
            },
            {
              "internalType": "uint256",
              "name": "amount",
              "type": "uint256"
            },
            {
              "internalType": "string",
              "name": "patientName",
              "type": "string"
            },
            {
              "internalType": "address payable",
              "name": "patientaddr",
              "type": "address"
            }
          ],
          "internalType": "struct HealthManagement2.Record[]",
          "name": "recordss",
          "type": "tuple[]"
        }
      ],
      "stateMutability": "view",
      "type": "function",
      "constant": true
    },
    {
      "inputs": [
        {
          "internalType": "address",
          "name": "addr",
          "type": "address"
        }
      ],
      "name": "getPatientRecords",
      "outputs": [
        {
          "components": [
            {
              "internalType": "string",
              "name": "docname",
              "type": "string"
            },
            {
              "internalType": "string",
              "name": "fileHashes",
              "type": "string"
            },
            {
              "internalType": "string",
              "name": "presciptions",
              "type": "string"
            },
            {
              "internalType": "address payable",
              "name": "doctor_",
              "type": "address"
            },
            {
              "internalType": "uint256",
              "name": "timeStamp",
              "type": "uint256"
            },
            {
              "internalType": "uint256",
              "name": "amount",
              "type": "uint256"
            },
            {
              "internalType": "string",
              "name": "patientName",
              "type": "string"
            },
            {
              "internalType": "address payable",
              "name": "patientaddr",
              "type": "address"
            }
          ],
          "internalType": "struct HealthManagement2.Record[]",
          "name": "records",
          "type": "tuple[]"
        }
      ],
      "stateMutability": "view",
      "type": "function",
      "constant": true
    },
    {
      "inputs": [
        {
          "internalType": "address",
          "name": "",
          "type": "address"
        }
      ],
      "name": "isDoctor",
      "outputs": [
        {
          "internalType": "bool",
          "name": "",
          "type": "bool"
        }
      ],
      "stateMutability": "view",
      "type": "function",
      "constant": true
    },
    {
      "inputs": [
        {
          "internalType": "address",
          "name": "",
          "type": "address"
        }
      ],
      "name": "isPatient",
      "outputs": [
        {
          "internalType": "bool",
          "name": "",
          "type": "bool"
        }
      ],
      "stateMutability": "view",
      "type": "function",
      "constant": true
    },
    {
      "inputs": [
        {
          "internalType": "string",
          "name": "name",
          "type": "string"
        },
        {
          "internalType": "address payable",
          "name": "address_",
          "type": "address"
        },
        {
          "internalType": "uint256",
          "name": "basefee",
          "type": "uint256"
        }
      ],
      "name": "addDoctor",
      "outputs": [],
      "stateMutability": "nonpayable",
      "type": "function"
    },
    {
      "inputs": [
        {
          "internalType": "address",
          "name": "to",
          "type": "address"
        }
      ],
      "name": "payFees",
      "outputs": [
        {
          "internalType": "bool",
          "name": "sentt",
          "type": "bool"
        }
      ],
      "stateMutability": "payable",
      "type": "function",
      "payable": true
    },
    {
      "inputs": [
        {
          "internalType": "address payable",
          "name": "docAddr",
          "type": "address"
        },
        {
          "internalType": "uint256",
          "name": "slot",
          "type": "uint256"
        }
      ],
      "name": "takeAppointment",
      "outputs": [],
      "stateMutability": "nonpayable",
      "type": "function"
    },
    {
      "inputs": [
        {
          "internalType": "uint256",
          "name": "index",
          "type": "uint256"
        },
        {
          "internalType": "uint256",
          "name": "start",
          "type": "uint256"
        }
      ],
      "name": "startAppointment",
      "outputs": [],
      "stateMutability": "nonpayable",
      "type": "function"
    },
    {
      "inputs": [
        {
          "internalType": "uint256",
          "name": "index",
          "type": "uint256"
        },
        {
          "internalType": "uint256",
          "name": "end",
          "type": "uint256"
        }
      ],
      "name": "endAppointment",
      "outputs": [],
      "stateMutability": "nonpayable",
      "type": "function"
    },
    {
      "inputs": [],
      "name": "getAllDoctor",
      "outputs": [
        {
          "components": [
            {
              "internalType": "string",
              "name": "name",
              "type": "string"
            },
            {
              "internalType": "address payable",
              "name": "address_",
              "type": "address"
            },
            {
              "internalType": "uint256",
              "name": "basefee",
              "type": "uint256"
            },
            {
              "internalType": "uint256",
              "name": "starCount",
              "type": "uint256"
            },
            {
              "internalType": "uint256",
              "name": "totalPatients",
              "type": "uint256"
            },
            {
              "components": [
                {
                  "internalType": "bool",
                  "name": "status",
                  "type": "bool"
                },
                {
                  "internalType": "address payable",
                  "name": "patient_",
                  "type": "address"
                },
                {
                  "internalType": "address payable",
                  "name": "doctor_",
                  "type": "address"
                },
                {
                  "internalType": "string",
                  "name": "patientName",
                  "type": "string"
                },
                {
                  "internalType": "string",
                  "name": "docname",
                  "type": "string"
                },
                {
                  "internalType": "uint256",
                  "name": "timeslot_",
                  "type": "uint256"
                },
                {
                  "internalType": "uint256",
                  "name": "timeStart",
                  "type": "uint256"
                },
                {
                  "internalType": "uint256",
                  "name": "timeEnd",
                  "type": "uint256"
                }
              ],
              "internalType": "struct HealthManagement2.Appointment[]",
              "name": "appointments_",
              "type": "tuple[]"
            },
            {
              "components": [
                {
                  "internalType": "string",
                  "name": "docname",
                  "type": "string"
                },
                {
                  "internalType": "string",
                  "name": "fileHashes",
                  "type": "string"
                },
                {
                  "internalType": "string",
                  "name": "presciptions",
                  "type": "string"
                },
                {
                  "internalType": "address payable",
                  "name": "doctor_",
                  "type": "address"
                },
                {
                  "internalType": "uint256",
                  "name": "timeStamp",
                  "type": "uint256"
                },
                {
                  "internalType": "uint256",
                  "name": "amount",
                  "type": "uint256"
                },
                {
                  "internalType": "string",
                  "name": "patientName",
                  "type": "string"
                },
                {
                  "internalType": "address payable",
                  "name": "patientaddr",
                  "type": "address"
                }
              ],
              "internalType": "struct HealthManagement2.Record[]",
              "name": "records_",
              "type": "tuple[]"
            }
          ],
          "internalType": "struct HealthManagement2.Doctor[]",
          "name": "alldocs",
          "type": "tuple[]"
        }
      ],
      "stateMutability": "view",
      "type": "function",
      "constant": true
    },
    {
      "inputs": [
        {
          "internalType": "address",
          "name": "addr",
          "type": "address"
        }
      ],
      "name": "getOneDoctor",
      "outputs": [
        {
          "components": [
            {
              "internalType": "string",
              "name": "name",
              "type": "string"
            },
            {
              "internalType": "address payable",
              "name": "address_",
              "type": "address"
            },
            {
              "internalType": "uint256",
              "name": "basefee",
              "type": "uint256"
            },
            {
              "internalType": "uint256",
              "name": "starCount",
              "type": "uint256"
            },
            {
              "internalType": "uint256",
              "name": "totalPatients",
              "type": "uint256"
            },
            {
              "components": [
                {
                  "internalType": "bool",
                  "name": "status",
                  "type": "bool"
                },
                {
                  "internalType": "address payable",
                  "name": "patient_",
                  "type": "address"
                },
                {
                  "internalType": "address payable",
                  "name": "doctor_",
                  "type": "address"
                },
                {
                  "internalType": "string",
                  "name": "patientName",
                  "type": "string"
                },
                {
                  "internalType": "string",
                  "name": "docname",
                  "type": "string"
                },
                {
                  "internalType": "uint256",
                  "name": "timeslot_",
                  "type": "uint256"
                },
                {
                  "internalType": "uint256",
                  "name": "timeStart",
                  "type": "uint256"
                },
                {
                  "internalType": "uint256",
                  "name": "timeEnd",
                  "type": "uint256"
                }
              ],
              "internalType": "struct HealthManagement2.Appointment[]",
              "name": "appointments_",
              "type": "tuple[]"
            },
            {
              "components": [
                {
                  "internalType": "string",
                  "name": "docname",
                  "type": "string"
                },
                {
                  "internalType": "string",
                  "name": "fileHashes",
                  "type": "string"
                },
                {
                  "internalType": "string",
                  "name": "presciptions",
                  "type": "string"
                },
                {
                  "internalType": "address payable",
                  "name": "doctor_",
                  "type": "address"
                },
                {
                  "internalType": "uint256",
                  "name": "timeStamp",
                  "type": "uint256"
                },
                {
                  "internalType": "uint256",
                  "name": "amount",
                  "type": "uint256"
                },
                {
                  "internalType": "string",
                  "name": "patientName",
                  "type": "string"
                },
                {
                  "internalType": "address payable",
                  "name": "patientaddr",
                  "type": "address"
                }
              ],
              "internalType": "struct HealthManagement2.Record[]",
              "name": "records_",
              "type": "tuple[]"
            }
          ],
          "internalType": "struct HealthManagement2.Doctor",
          "name": "doc",
          "type": "tuple"
        }
      ],
      "stateMutability": "view",
      "type": "function",
      "constant": true
    }
  ],
  "bytecode": "0x608060405234801561001057600080fd5b50600060088190556009819055600a8190558054600160a060020a03191633179055613b50806100416000396000f3fe608060405260043610610131576000357c01000000000000000000000000000000000000000000000000000000009004806393699ad0116100bd578063b8f9197b11610081578063b8f9197b14610376578063cd25d7be14610389578063e3a3bf9c146103bc578063efe2ccc1146103f0578063ff68115b1461042357600080fd5b806393699ad0146102b5578063996440c6146102d55780639e066d0414610305578063a39b664314610325578063b6ad10151461034557600080fd5b806338638c811161010457806338638c81146101e857806359e9bf55146101fb5780637966c802146102285780638b0920fe146102555780638f9c79ed1461027557600080fd5b806318bd4847146101365780631a7906fa1461016c578063285a38071461018e57806330ff6f15146101c6575b600080fd5b34801561014257600080fd5b50610156610151366004613165565b610443565b60405161016391906132de565b60405180910390f35b34801561017857600080fd5b5061018161078b565b604051610163919061346d565b34801561019a57600080fd5b506101ae6101a93660046134ce565b610e0c565b604051600160a060020a039091168152602001610163565b3480156101d257600080fd5b506101e66101e136600461359d565b610e36565b005b6101e66101f63660046135f7565b610f52565b34801561020757600080fd5b5061021b610216366004613165565b611232565b60405161016391906136c4565b34801561023457600080fd5b506102486102433660046136d7565b6117ff565b6040516101639190613703565b34801561026157600080fd5b506101e6610270366004613716565b611b32565b34801561028157600080fd5b506102a5610290366004613165565b60066020526000908152604090205460ff1681565b6040519015158152602001610163565b3480156102c157600080fd5b506101e66102d0366004613797565b611ec1565b3480156102e157600080fd5b506102a56102f0366004613165565b60046020526000908152604090205460ff1681565b34801561031157600080fd5b506101e66103203660046136d7565b611fb5565b34801561033157600080fd5b506101e6610340366004613797565b61237c565b34801561035157600080fd5b50610365610360366004613165565b6124b3565b6040516101639594939291906137b9565b6102a5610384366004613165565b612574565b34801561039557600080fd5b506103a96103a4366004613165565b612640565b60405161016397969594939291906137f9565b3480156103c857600080fd5b506103dc6103d73660046134ce565b612821565b604051610163989796959493929190613862565b3480156103fc57600080fd5b5061041061040b366004613165565b612995565b60405161016397969594939291906138cc565b34801561042f57600080fd5b506101ae61043e3660046134ce565b6130f7565b600160a060020a03811660009081526006602052604090205460609060ff1661048a5760405160e560020a62461bcd02815260040161048190613939565b60405180910390fd5b600160a060020a038216600090815260076020908152604080832060050180548251818502810185019093528083529192909190849084015b8282101561077f5783829060005260206000209060080201604051806101000160405290816000820180546104f790613970565b80601f016020809104026020016040519081016040528092919081815260200182805461052390613970565b80156105705780601f1061054557610100808354040283529160200191610570565b820191906000526020600020905b81548152906001019060200180831161055357829003601f168201915b5050505050815260200160018201805461058990613970565b80601f01602080910402602001604051908101604052809291908181526020018280546105b590613970565b80156106025780601f106105d757610100808354040283529160200191610602565b820191906000526020600020905b8154815290600101906020018083116105e557829003601f168201915b5050505050815260200160028201805461061b90613970565b80601f016020809104026020016040519081016040528092919081815260200182805461064790613970565b80156106945780601f1061066957610100808354040283529160200191610694565b820191906000526020600020905b81548152906001019060200180831161067757829003601f168201915b50505091835250506003820154600160a060020a0316602082015260048201546040820152600582015460608201526006820180546080909201916106d890613970565b80601f016020809104026020016040519081016040528092919081815260200182805461070490613970565b80156107515780601f1061072657610100808354040283529160200191610751565b820191906000526020600020905b81548152906001019060200180831161073457829003601f168201915b505050918352505060079190910154600160a060020a031660209182015290825260019290920191016104c3565b50929695505050505050565b6060600060095467ffffffffffffffff8111156107aa576107aa6134e7565b6040519080825280602002602001820160405280156107e357816020015b6107d0613107565b8152602001906001900390816107c85790505b50905060005b600954811015610e0657600560006002838154811061080a5761080a6139a7565b6000918252602080832090910154600160a060020a031683528201929092526040908101909120815160e0810190925280548290829061084990613970565b80601f016020809104026020016040519081016040528092919081815260200182805461087590613970565b80156108c25780601f10610897576101008083540402835291602001916108c2565b820191906000526020600020905b8154815290600101906020018083116108a557829003601f168201915b505050505081526020016001820160009054906101000a9004600160a060020a0316600160a060020a0316600160a060020a0316815260200160028201548152602001600382015481526020016004820154815260200160058201805480602002602001604051908101604052809291908181526020016000905b82821015610ae557600084815260209081902060408051610100808201835260078702909301805460ff81161515835293909304600160a060020a03908116948201949094526001830154909316908301526002810180546060840191906109a490613970565b80601f01602080910402602001604051908101604052809291908181526020018280546109d090613970565b8015610a1d5780601f106109f257610100808354040283529160200191610a1d565b820191906000526020600020905b815481529060010190602001808311610a0057829003601f168201915b50505050508152602001600382018054610a3690613970565b80601f0160208091040260200160405190810160405280929190818152602001828054610a6290613970565b8015610aaf5780601f10610a8457610100808354040283529160200191610aaf565b820191906000526020600020905b815481529060010190602001808311610a9257829003601f168201915b5050505050815260200160048201548152602001600582015481526020016006820154815250508152602001906001019061093d565b50505050815260200160068201805480602002602001604051908101604052809291908181526020016000905b82821015610dce578382906000526020600020906008020160405180610100016040529081600082018054610b4690613970565b80601f0160208091040260200160405190810160405280929190818152602001828054610b7290613970565b8015610bbf5780601f10610b9457610100808354040283529160200191610bbf565b820191906000526020600020905b815481529060010190602001808311610ba257829003601f168201915b50505050508152602001600182018054610bd890613970565b80601f0160208091040260200160405190810160405280929190818152602001828054610c0490613970565b8015610c515780601f10610c2657610100808354040283529160200191610c51565b820191906000526020600020905b815481529060010190602001808311610c3457829003601f168201915b50505050508152602001600282018054610c6a90613970565b80601f0160208091040260200160405190810160405280929190818152602001828054610c9690613970565b8015610ce35780601f10610cb857610100808354040283529160200191610ce3565b820191906000526020600020905b815481529060010190602001808311610cc657829003601f168201915b50505091835250506003820154600160a060020a031660208201526004820154604082015260058201546060820152600682018054608090920191610d2790613970565b80601f0160208091040260200160405190810160405280929190818152602001828054610d5390613970565b8015610da05780601f10610d7557610100808354040283529160200191610da0565b820191906000526020600020905b815481529060010190602001808311610d8357829003601f168201915b505050918352505060079190910154600160a060020a03166020918201529082526001929092019101610b12565b5050505081525050828281518110610de857610de86139a7565b60200260200101819052508080610dfe906139d9565b9150506107e9565b50919050565b60028181548110610e1c57600080fd5b600091825260209091200154600160a060020a0316905081565b3360009081526004602052604090205460ff1615610e995760405160e560020a62461bcd02815260206004820152601960248201527f596f752061726520616c7265616479206120646f63746f7220000000000000006044820152606401610481565b60028054600181019091557f405787fa12a823e0f2b7631cc41b3ba8828b3321ca811111fa75cd3aa3bb5ace018054600160a060020a031916339081179091556000908152600560205260409020610ef18482613a41565b5033600090815260056020526040812060018082018054600160a060020a031916600160a060020a038716179055600282018490556003820183905560049091018290556009805491929091610f48908490613b07565b9091555050505050565b600160a060020a03811660009081526006602052604090205460ff16610f8d5760405160e560020a62461bcd02815260040161048190613939565b3360009081526004602052604090205460ff16610fef5760405160e560020a62461bcd02815260206004820152601460248201527f596f7520617265206e6f74206120446f63746f720000000000000000000000006044820152606401610481565b600160a060020a0380821660008181526007602090815260408083208151610100810183528981528084018d90529182018b905294891660608201524260808201523460a082015260c0810187905260e081019390935260059093018054600181018255908252929020815191926008020190819061106e9082613a41565b50602082015160018201906110839082613a41565b50604082015160028201906110989082613a41565b506060820151600382018054600160a060020a031916600160a060020a039092169190911790556080820151600482015560a0820151600582015560c082015160068201906110e79082613a41565b5060e0918201516007919091018054600160a060020a031916600160a060020a0392831617905585811660008181526005602090815260408083208151610100810183528a81528084018e90529182018c905260608201949094524260808201523460a082015260c08101889052938616948401949094526006909101805460018101825590825292902081519192600802019081906111879082613a41565b506020820151600182019061119c9082613a41565b50604082015160028201906111b19082613a41565b506060820151600382018054600160a060020a031916600160a060020a039092169190911790556080820151600482015560a0820151600582015560c082015160068201906112009082613a41565b5060e0919091015160079091018054600160a060020a031916600160a060020a03909216919091179055505050505050565b61123a613107565b600160a060020a038216600090815260056020526040808220815160e0810190925280548290829061126b90613970565b80601f016020809104026020016040519081016040528092919081815260200182805461129790613970565b80156112e45780601f106112b9576101008083540402835291602001916112e4565b820191906000526020600020905b8154815290600101906020018083116112c757829003601f168201915b505050505081526020016001820160009054906101000a9004600160a060020a0316600160a060020a0316600160a060020a0316815260200160028201548152602001600382015481526020016004820154815260200160058201805480602002602001604051908101604052809291908181526020016000905b8282101561150757600084815260209081902060408051610100808201835260078702909301805460ff81161515835293909304600160a060020a03908116948201949094526001830154909316908301526002810180546060840191906113c690613970565b80601f01602080910402602001604051908101604052809291908181526020018280546113f290613970565b801561143f5780601f106114145761010080835404028352916020019161143f565b820191906000526020600020905b81548152906001019060200180831161142257829003601f168201915b5050505050815260200160038201805461145890613970565b80601f016020809104026020016040519081016040528092919081815260200182805461148490613970565b80156114d15780601f106114a6576101008083540402835291602001916114d1565b820191906000526020600020905b8154815290600101906020018083116114b457829003601f168201915b5050505050815260200160048201548152602001600582015481526020016006820154815250508152602001906001019061135f565b50505050815260200160068201805480602002602001604051908101604052809291908181526020016000905b828210156117f057838290600052602060002090600802016040518061010001604052908160008201805461156890613970565b80601f016020809104026020016040519081016040528092919081815260200182805461159490613970565b80156115e15780601f106115b6576101008083540402835291602001916115e1565b820191906000526020600020905b8154815290600101906020018083116115c457829003601f168201915b505050505081526020016001820180546115fa90613970565b80601f016020809104026020016040519081016040528092919081815260200182805461162690613970565b80156116735780601f1061164857610100808354040283529160200191611673565b820191906000526020600020905b81548152906001019060200180831161165657829003601f168201915b5050505050815260200160028201805461168c90613970565b80601f01602080910402602001604051908101604052809291908181526020018280546116b890613970565b80156117055780601f106116da57610100808354040283529160200191611705565b820191906000526020600020905b8154815290600101906020018083116116e857829003601f168201915b50505091835250506003820154600160a060020a03166020820152600482015460408201526005820154606082015260068201805460809092019161174990613970565b80601f016020809104026020016040519081016040528092919081815260200182805461177590613970565b80156117c25780601f10611797576101008083540402835291602001916117c2565b820191906000526020600020905b8154815290600101906020018083116117a557829003601f168201915b505050918352505060079190910154600160a060020a03166020918201529082526001929092019101611534565b50505091525090949350505050565b6118596040518061010001604052806060815260200160608152602001606081526020016000600160a060020a031681526020016000815260200160008152602001606081526020016000600160a060020a031681525090565b600160a060020a0383166000908152600760205260408120600501805484908110611886576118866139a7565b9060005260206000209060080201604051806101000160405290816000820180546118b090613970565b80601f01602080910402602001604051908101604052809291908181526020018280546118dc90613970565b80156119295780601f106118fe57610100808354040283529160200191611929565b820191906000526020600020905b81548152906001019060200180831161190c57829003601f168201915b5050505050815260200160018201805461194290613970565b80601f016020809104026020016040519081016040528092919081815260200182805461196e90613970565b80156119bb5780601f10611990576101008083540402835291602001916119bb565b820191906000526020600020905b81548152906001019060200180831161199e57829003601f168201915b505050505081526020016002820180546119d490613970565b80601f0160208091040260200160405190810160405280929190818152602001828054611a0090613970565b8015611a4d5780601f10611a2257610100808354040283529160200191611a4d565b820191906000526020600020905b815481529060010190602001808311611a3057829003601f168201915b50505091835250506003820154600160a060020a031660208201526004820154604082015260058201546060820152600682018054608090920191611a9190613970565b80601f0160208091040260200160405190810160405280929190818152602001828054611abd90613970565b8015611b0a5780601f10611adf57610100808354040283529160200191611b0a565b820191906000526020600020905b815481529060010190602001808311611aed57829003601f168201915b505050918352505060079190910154600160a060020a03166020909101529150505b92915050565b3360009081526006602052604090205460ff1615611b955760405160e560020a62461bcd02815260206004820152601a60248201527f596f752061726520616c726561647920612070617469656e74200000000000006044820152606401610481565b336000908152600660209081526040808320805460ff1916600117905560079091529020611bc38682613a41565b50336000818152600760208190526040909120600281018054600160a060020a03191690931790925560048201859055600382018690558101839055600101611c0c8282613a41565b506040805161014081018252600161010082018181527f610000000000000000000000000000000000000000000000000000000000000061012084018190529083528351808501855282815260208181018390528085019190915284518086018652838152808201839052848601523360608501819052600a6080860181905260a0860152855180870187528481528083019390935260c085019290925260e08401829052600091825260078152938120600501805492830181558152929092208151919283926008909102909101908190611ce89082613a41565b5060208201516001820190611cfd9082613a41565b5060408201516002820190611d129082613a41565b506060820151600382018054600160a060020a031916600160a060020a039092169190911790556080820151600482015560a0820151600582015560c08201516006820190611d619082613a41565b5060e0919091015160079182018054600160a060020a031916600160a060020a03909216919091179055336000908152602091825260408120600501805460018101825590825291902082518392600802909101908190611dc29082613a41565b5060208201516001820190611dd79082613a41565b5060408201516002820190611dec9082613a41565b506060820151600382018054600160a060020a031916600160a060020a039092169190911790556080820151600482015560a0820151600582015560c08201516006820190611e3b9082613a41565b5060e0919091015160079091018054600160a060020a03909216600160a060020a0319928316179055600380546001818101835560009283527fc2575a0e9e593c00f959f8c92f12db2869c3395a3b0502d05e2516446f71f85b9091018054909316331790925560088054909190611eb4908490613b07565b9091555050505050505050565b33600090815260056020819052604090912001805483908110611ee657611ee66139a7565b600091825260209091206007909102015460ff161515600114611f745760405160e560020a62461bcd02815260206004820152602760248201527f596f752068617665206e6f7420636f6d706c657465642074686973206170706f60448201527f696e746d656e74000000000000000000000000000000000000000000000000006064820152608401610481565b33600090815260056020819052604090912001805482919084908110611f9c57611f9c6139a7565b9060005260206000209060070201600601819055505050565b6000611fc083612574565b9050806120125760405160e560020a62461bcd02815260206004820152601460248201527f4661696c656420746f2073656e642045746865720000000000000000000000006044820152606401610481565b60408051610100810182526000808252336020808401829052600160a060020a0388168486015290825260079052918220805460608301919061205490613970565b80601f016020809104026020016040519081016040528092919081815260200182805461208090613970565b80156120cd5780601f106120a2576101008083540402835291602001916120cd565b820191906000526020600020905b8154815290600101906020018083116120b057829003601f168201915b505050505081526020016005600087600160a060020a0316600160a060020a03168152602001908152602001600020600001805461210a90613970565b80601f016020809104026020016040519081016040528092919081815260200182805461213690613970565b80156121835780601f1061215857610100808354040283529160200191612183565b820191906000526020600020905b81548152906001019060200180831161216657829003601f168201915b50505091835250506020808201869052600060408084018290526060938401829052600160a060020a03808a16835260058085528284200180546001818101835591855293859020875160079095020180549588015183166101000274ffffffffffffffffffffffffffffffffffffffff00199515159590951674ffffffffffffffffffffffffffffffffffffffffff199096169590951793909317845590850151918301805492909116600160a060020a031990921691909117905590820151919250829160028201906122589082613a41565b506080820151600382019061226d9082613a41565b5060a0820151600482015560c0820151600582015560e0909101516006909101553360009081526007602081815260408084206008018054600180820183559186529483902086519590940290930180549286015174ffffffffffffffffffffffffffffffffffffffffff1990931694151574ffffffffffffffffffffffffffffffffffffffff00191694909417610100600160a060020a03938416021784558401519183018054600160a060020a03191692909116919091179055606082015182919060028201906123409082613a41565b50608082015160038201906123559082613a41565b5060a0820151816004015560c0820151816005015560e08201518160060155505050505050565b336000908152600560208190526040909120018054839081106123a1576123a16139a7565b600091825260209091206007909102015460ff161561242b5760405160e560020a62461bcd02815260206004820152602360248201527f596f75206861766520636f6d706c657465642074686973206170706f696e746d60448201527f656e7400000000000000000000000000000000000000000000000000000000006064820152608401610481565b3360009081526005602081905260409091200180546001919084908110612454576124546139a7565b60009182526020808320600792909202909101805460ff191693151593909317909255338152600591829052604090200180548291908490811061249a5761249a6139a7565b9060005260206000209060070201600501819055505050565b6005602052600090815260409020805481906124ce90613970565b80601f01602080910402602001604051908101604052809291908181526020018280546124fa90613970565b80156125475780601f1061251c57610100808354040283529160200191612547565b820191906000526020600020905b81548152906001019060200180831161252a57829003601f168201915b505050506001830154600284015460038501546004909501549394600160a060020a039092169390925085565b600160a060020a0381166000908152600560205260408120600201543410156125e25760405160e560020a62461bcd02815260206004820152601460248201527f20496e73756666696369656e742066756e6473200000000000000000000000006044820152606401610481565b60008083600160a060020a03163460405160006040518083038185875af1925050503d8060008114612630576040519150601f19603f3d011682016040523d82523d6000602084013e612635565b606091505b509095945050505050565b60076020526000908152604090208054819061265b90613970565b80601f016020809104026020016040519081016040528092919081815260200182805461268790613970565b80156126d45780601f106126a9576101008083540402835291602001916126d4565b820191906000526020600020905b8154815290600101906020018083116126b757829003601f168201915b5050505050908060010180546126e990613970565b80601f016020809104026020016040519081016040528092919081815260200182805461271590613970565b80156127625780601f1061273757610100808354040283529160200191612762565b820191906000526020600020905b81548152906001019060200180831161274557829003601f168201915b5050506002840154600385015460048601546006870180549697600160a060020a03909416969295509093509061279890613970565b80601f01602080910402602001604051908101604052809291908181526020018280546127c490613970565b80156128115780601f106127e657610100808354040283529160200191612811565b820191906000526020600020905b8154815290600101906020018083116127f457829003601f168201915b5050505050908060070154905087565b6001818154811061283157600080fd5b600091825260209091206007909102018054600182015460028301805460ff84169550610100909304600160a060020a039081169492169261287290613970565b80601f016020809104026020016040519081016040528092919081815260200182805461289e90613970565b80156128eb5780601f106128c0576101008083540402835291602001916128eb565b820191906000526020600020905b8154815290600101906020018083116128ce57829003601f168201915b50505050509080600301805461290090613970565b80601f016020809104026020016040519081016040528092919081815260200182805461292c90613970565b80156129795780601f1061294e57610100808354040283529160200191612979565b820191906000526020600020905b81548152906001019060200180831161295c57829003601f168201915b5050505050908060040154908060050154908060060154905088565b600160a060020a0381166000908152600660205260408120546060918291819083908290829060ff166129dd5760405160e560020a62461bcd02815260040161048190613939565b600160a060020a03881660009081526007602052604080822081516101208101909252805482908290612a0f90613970565b80601f0160208091040260200160405190810160405280929190818152602001828054612a3b90613970565b8015612a885780601f10612a5d57610100808354040283529160200191612a88565b820191906000526020600020905b815481529060010190602001808311612a6b57829003601f168201915b50505050508152602001600182018054612aa190613970565b80601f0160208091040260200160405190810160405280929190818152602001828054612acd90613970565b8015612b1a5780601f10612aef57610100808354040283529160200191612b1a565b820191906000526020600020905b815481529060010190602001808311612afd57829003601f168201915b505050505081526020016002820160009054906101000a9004600160a060020a0316600160a060020a0316600160a060020a03168152602001600382015481526020016004820154815260200160058201805480602002602001604051908101604052809291908181526020016000905b82821015612e47578382906000526020600020906008020160405180610100016040529081600082018054612bbf90613970565b80601f0160208091040260200160405190810160405280929190818152602001828054612beb90613970565b8015612c385780601f10612c0d57610100808354040283529160200191612c38565b820191906000526020600020905b815481529060010190602001808311612c1b57829003601f168201915b50505050508152602001600182018054612c5190613970565b80601f0160208091040260200160405190810160405280929190818152602001828054612c7d90613970565b8015612cca5780601f10612c9f57610100808354040283529160200191612cca565b820191906000526020600020905b815481529060010190602001808311612cad57829003601f168201915b50505050508152602001600282018054612ce390613970565b80601f0160208091040260200160405190810160405280929190818152602001828054612d0f90613970565b8015612d5c5780601f10612d3157610100808354040283529160200191612d5c565b820191906000526020600020905b815481529060010190602001808311612d3f57829003601f168201915b50505091835250506003820154600160a060020a031660208201526004820154604082015260058201546060820152600682018054608090920191612da090613970565b80601f0160208091040260200160405190810160405280929190818152602001828054612dcc90613970565b8015612e195780601f10612dee57610100808354040283529160200191612e19565b820191906000526020600020905b815481529060010190602001808311612dfc57829003601f168201915b505050918352505060079190910154600160a060020a03166020918201529082526001929092019101612b8b565b505050508152602001600682018054612e5f90613970565b80601f0160208091040260200160405190810160405280929190818152602001828054612e8b90613970565b8015612ed85780601f10612ead57610100808354040283529160200191612ed8565b820191906000526020600020905b815481529060010190602001808311612ebb57829003601f168201915b505050505081526020016007820154815260200160088201805480602002602001604051908101604052809291908181526020016000905b828210156130b857600084815260209081902060408051610100808201835260078702909301805460ff81161515835293909304600160a060020a0390811694820194909452600183015490931690830152600281018054606084019190612f7790613970565b80601f0160208091040260200160405190810160405280929190818152602001828054612fa390613970565b8015612ff05780601f10612fc557610100808354040283529160200191612ff0565b820191906000526020600020905b815481529060010190602001808311612fd357829003601f168201915b5050505050815260200160038201805461300990613970565b80601f016020809104026020016040519081016040528092919081815260200182805461303590613970565b80156130825780601f1061305757610100808354040283529160200191613082565b820191906000526020600020905b81548152906001019060200180831161306557829003601f168201915b50505050508152602001600482015481526020016005820154815260200160068201548152505081526020019060010190612f10565b50505091525050805160208201516080830151606084015160c085015160e086015160a090960151949f939e50919c509a509850919650945092505050565b60038181548110610e1c57600080fd5b6040518060e00160405280606081526020016000600160a060020a0316815260200160008152602001600081526020016000815260200160608152602001606081525090565b600160a060020a038116811461316257600080fd5b50565b60006020828403121561317757600080fd5b81356131828161314d565b9392505050565b6000815180845260005b818110156131af57602081850181015186830182015201613193565b506000602082860101526020601f19601f83011685010191505092915050565b600061010082518185526131e582860182613189565b915050602083015184820360208601526131ff8282613189565b915050604083015184820360408601526132198282613189565b91505060608301516132366060860182600160a060020a03169052565b506080830151608085015260a083015160a085015260c083015184820360c08601526132628282613189565b91505060e083015161327f60e0860182600160a060020a03169052565b509392505050565b6000828251808552602080860195508081830284010181860160005b848110156132d157601f198684030189526132bf8383516131cf565b988401989250908301906001016132a3565b5090979650505050505050565b6020815260006131826020830184613287565b6000828251808552602080860195508081830284010181860160005b848110156132d157601f198684030189526133298383516131cf565b9884019892509083019060010161330d565b600060e0825181855261335082860182613189565b90506020600160a060020a038186015116818701526040808601518188015260608087015181890152608080880151818a015260a0808901518a8703828c01528681518089528789019150878882028a0101888401935060005b8281101561344157601f198b830301845284518051151583528a810151600160a060020a039081168c8501528a820151168a840152888101516101008a8501819052906133f982860182613189565b915050888201518482038a8601526134118282613189565b838a0151868b015260c08085015190870152928f0151948f019490945250948a0194938a019391506001016133aa565b5060c08d01519a508d810360c08f015261345b818c6132f1565b9e9d5050505050505050505050505050565b600060208083018184528085518083526040860191506040848202870101925083870160005b828110156134c157603f198886030184526134af85835161333b565b94509285019290850190600101613493565b5092979650505050505050565b6000602082840312156134e057600080fd5b5035919050565b60e060020a634e487b7102600052604160045260246000fd5b600082601f83011261351157600080fd5b813567ffffffffffffffff8082111561352c5761352c6134e7565b604051601f8301601f19908116603f01168101908282118183101715613554576135546134e7565b8160405283815286602085880101111561356d57600080fd5b836020870160208301376000602085830101528094505050505092915050565b80356135988161314d565b919050565b6000806000606084860312156135b257600080fd5b833567ffffffffffffffff8111156135c957600080fd5b6135d586828701613500565b93505060208401356135e68161314d565b929592945050506040919091013590565b60008060008060008060c0878903121561361057600080fd5b863567ffffffffffffffff8082111561362857600080fd5b6136348a838b01613500565b9750602089013591508082111561364a57600080fd5b6136568a838b01613500565b965061366460408a0161358d565b9550606089013591508082111561367a57600080fd5b6136868a838b01613500565b9450608089013591508082111561369c57600080fd5b506136a989828a01613500565b9250506136b860a0880161358d565b90509295509295509295565b602081526000613182602083018461333b565b600080604083850312156136ea57600080fd5b82356136f58161314d565b946020939093013593505050565b60208152600061318260208301846131cf565b600080600080600060a0868803121561372e57600080fd5b853567ffffffffffffffff8082111561374657600080fd5b61375289838a01613500565b9650602088013595506040880135945060608801359350608088013591508082111561377d57600080fd5b5061378a88828901613500565b9150509295509295909350565b600080604083850312156137aa57600080fd5b50508035926020909101359150565b60a0815260006137cc60a0830188613189565b9050600160a060020a03861660208301528460408301528360608301528260808301529695505050505050565b60e08152600061380c60e083018a613189565b828103602084015261381e818a613189565b9050600160a060020a038816604084015286606084015285608084015282810360a084015261384d8186613189565b9150508260c083015298975050505050505050565b60006101008a15158352600160a060020a03808b166020850152808a1660408501525080606084015261389781840189613189565b905082810360808401526138ab8188613189565b60a0840196909652505060c081019290925260e09091015295945050505050565b60e0815260006138df60e083018a613189565b82810360208401526138f1818a613189565b905087604084015286606084015282810360808401526139118187613189565b90508460a084015282810360c084015261392b8185613287565b9a9950505050505050505050565b60208082526015908201527f596f7520617265206e6f7420612070617469656e740000000000000000000000604082015260600190565b60028104600182168061398457607f821691505b602082108103610e065760e060020a634e487b7102600052602260045260246000fd5b60e060020a634e487b7102600052603260045260246000fd5b60e060020a634e487b7102600052601160045260246000fd5b6000600182016139eb576139eb6139c0565b5060010190565b601f821115613a3c576000818152602081206020601f86010481016020861015613a195750805b6020601f860104820191505b81811015613a3857828155600101613a25565b5050505b505050565b815167ffffffffffffffff811115613a5b57613a5b6134e7565b613a6f81613a698454613970565b846139f2565b602080601f831160018114613aa85760008415613a8c5750858301515b60028086026008870290910a6000190419821617865550613a38565b600085815260208120601f198616915b82811015613ad757888601518255948401946001909101908401613ab8565b5085821015613af757878501516008601f88160260020a60001904191681555b5050505050600202600101905550565b80820180821115611b2c57611b2c6139c056fea26469706673582212203dcdc505a996628f18a6bf7063e75aa5af2e0ca71f9d8d6ee9787ea416d788be64736f6c63430008120033",
  "immutableReferences": {},
  "source": "// SPDX-License-Identifier: GPL-3.0\r\npragma solidity >=0.7.0 <0.9.0;\r\n\r\nimport \"./Medical_2.sol\";\r\n\r\ncontract HealthManagement is HealthManagement2 {\r\n\r\n    \r\n    \r\n    constructor(){\r\n        patientCount = 0;\r\n        doctorCount = 0;\r\n        appointmentCount = 0;\r\n        owner_ = msg.sender;\r\n    }\r\n\r\n    // all funciton members : \r\n\r\n    \r\n\r\n  \r\n   // register doctor \r\n\r\n   function addDoctor(\r\n        string memory name,\r\n        address payable address_,\r\n        uint256 basefee\r\n        ) public  {\r\n\r\n        require(isDoctor[msg.sender] == false,\"You are already a doctor \");\r\n        \r\n        alldoctors.push(msg.sender);\r\n        allDoctors[msg.sender].name = name;\r\n        allDoctors[msg.sender].address_ = address_;\r\n        allDoctors[msg.sender].basefee = basefee;\r\n        allDoctors[msg.sender].starCount = 0;\r\n        allDoctors[msg.sender].totalPatients = 0;\r\n        // allDoctors[msg.sender].records_ = Record [](0);\r\n        doctorCount += 1;\r\n        \r\n   }\r\n\r\n   function payFees(address to)public payable returns (bool sentt) {\r\n       require(msg.value >= allDoctors[to].basefee , \" Insufficient funds \");\r\n       (bool sent, bytes memory data) = (address(payable(to))).call{value: msg.value}(\"\");\r\n        return sent;\r\n        // require(sent, \"Failed to send Ether\");\r\n   }\r\n\r\n   function takeAppointment(address payable docAddr,uint256 slot) public {\r\n        bool done =  payFees(docAddr);\r\n        require(done , \"Failed to send Ether\");\r\n        Appointment memory a = Appointment(false, payable(msg.sender),docAddr,allPatients[msg.sender].name , allDoctors[docAddr].name , slot,0,0);\r\n        allDoctors[docAddr].appointments_.push(a);\r\n        allPatients[msg.sender].myAppointments.push(a);\r\n        // add to patients appointments too \r\n   }\r\n\r\n    function startAppointment(uint256 index,uint256 start) public {\r\n        require(allDoctors[msg.sender].appointments_[index].status == false,\"You have completed this appointment\");\r\n        allDoctors[msg.sender].appointments_[index].status = true;\r\n        allDoctors[msg.sender].appointments_[index].timeStart = start;\r\n    }\r\n\r\n    function endAppointment(uint256 index,uint256 end) public{\r\n       require(allDoctors[msg.sender].appointments_[index].status == true,\"You have not completed this appointment\");\r\n        allDoctors[msg.sender].appointments_[index].timeEnd = end;\r\n    }\r\n    \r\n    function getAllDoctor() public view returns(Doctor [] memory alldocs ) {\r\n        Doctor [] memory docs = new Doctor[](doctorCount);\r\n        for(uint i = 0; i < doctorCount ; i++)docs[i] = allDoctors[ alldoctors[i] ];\r\n        return docs;\r\n    }\r\n\r\n    function getOneDoctor(address addr) public view returns (Doctor memory doc){\r\n        Doctor memory d = allDoctors[addr];\r\n        return d;\r\n    }\r\n\r\n}",
  "sourcePath": "G:\\coding\\Projects\\pro-10-bc\\front-2\\truffle\\contracts\\Medical.sol",
  "compiler": {
    "name": "solc",
    "version": "0.8.18+commit.87f61d96.Emscripten.clang"
  },
  "schemaVersion": "3.4.12",
  "updatedAt": "2023-04-15T15:27:08.559Z",
  "networkType": "ethereum",
  "devdoc": {
    "kind": "dev",
    "methods": {},
    "version": 1
  },
  "userdoc": {
    "kind": "user",
    "methods": {},
    "version": 1
  }
}