{
  "contractName": "HealthManagement",
  "abi": [
    {
      "inputs": [],
      "stateMutability": "nonpayable",
      "type": "constructor"
    },
    {
      "inputs": [
        {
          "internalType": "string",
          "name": "name",
          "type": "string"
        },
        {
          "internalType": "uint256",
          "name": "phone",
          "type": "uint256"
        },
        {
          "internalType": "uint256",
          "name": "age",
          "type": "uint256"
        },
        {
          "internalType": "uint256",
          "name": "dob",
          "type": "uint256"
        },
        {
          "internalType": "string",
          "name": "email",
          "type": "string"
        }
      ],
      "name": "addPatient",
      "outputs": [],
      "stateMutability": "nonpayable",
      "type": "function"
    },
    {
      "inputs": [
        {
          "internalType": "string",
          "name": "currentfiles",
          "type": "string"
        },
        {
          "internalType": "string",
          "name": "presciptions",
          "type": "string"
        },
        {
          "internalType": "address payable",
          "name": "doctor_",
          "type": "address"
        },
        {
          "internalType": "string",
          "name": "docname",
          "type": "string"
        },
        {
          "internalType": "string",
          "name": "patientName",
          "type": "string"
        },
        {
          "internalType": "address payable",
          "name": "patientaddr",
          "type": "address"
        }
      ],
      "name": "addPatientRecord",
      "outputs": [],
      "stateMutability": "payable",
      "type": "function",
      "payable": true
    },
    {
      "inputs": [
        {
          "internalType": "uint256",
          "name": "",
          "type": "uint256"
        }
      ],
      "name": "allAppointments",
      "outputs": [
        {
          "internalType": "bool",
          "name": "status",
          "type": "bool"
        },
        {
          "internalType": "address payable",
          "name": "patient_",
          "type": "address"
        },
        {
          "internalType": "address payable",
          "name": "doctor_",
          "type": "address"
        },
        {
          "internalType": "string",
          "name": "patientName",
          "type": "string"
        },
        {
          "internalType": "string",
          "name": "docname",
          "type": "string"
        },
        {
          "internalType": "uint256",
          "name": "timeslot_",
          "type": "uint256"
        },
        {
          "internalType": "uint256",
          "name": "timeStart",
          "type": "uint256"
        },
        {
          "internalType": "uint256",
          "name": "timeEnd",
          "type": "uint256"
        }
      ],
      "stateMutability": "view",
      "type": "function",
      "constant": true
    },
    {
      "inputs": [
        {
          "internalType": "address",
          "name": "",
          "type": "address"
        }
      ],
      "name": "allDoctors",
      "outputs": [
        {
          "internalType": "string",
          "name": "name",
          "type": "string"
        },
        {
          "internalType": "string",
          "name": "email",
          "type": "string"
        },
        {
          "internalType": "address payable",
          "name": "address_",
          "type": "address"
        },
        {
          "internalType": "uint256",
          "name": "basefee",
          "type": "uint256"
        },
        {
          "internalType": "uint256",
          "name": "starCount",
          "type": "uint256"
        },
        {
          "internalType": "uint256",
          "name": "totalPatients",
          "type": "uint256"
        }
      ],
      "stateMutability": "view",
      "type": "function",
      "constant": true
    },
    {
      "inputs": [
        {
          "internalType": "address",
          "name": "",
          "type": "address"
        }
      ],
      "name": "allPatients",
      "outputs": [
        {
          "internalType": "string",
          "name": "name",
          "type": "string"
        },
        {
          "internalType": "string",
          "name": "email",
          "type": "string"
        },
        {
          "internalType": "address payable",
          "name": "address_",
          "type": "address"
        },
        {
          "internalType": "uint256",
          "name": "phone",
          "type": "uint256"
        },
        {
          "internalType": "uint256",
          "name": "age",
          "type": "uint256"
        },
        {
          "internalType": "string",
          "name": "bloodgroup",
          "type": "string"
        },
        {
          "internalType": "uint256",
          "name": "dob",
          "type": "uint256"
        }
      ],
      "stateMutability": "view",
      "type": "function",
      "constant": true
    },
    {
      "inputs": [
        {
          "internalType": "uint256",
          "name": "",
          "type": "uint256"
        }
      ],
      "name": "allPatientsList",
      "outputs": [
        {
          "internalType": "address",
          "name": "",
          "type": "address"
        }
      ],
      "stateMutability": "view",
      "type": "function",
      "constant": true
    },
    {
      "inputs": [
        {
          "internalType": "uint256",
          "name": "",
          "type": "uint256"
        }
      ],
      "name": "alldoctors",
      "outputs": [
        {
          "internalType": "address",
          "name": "",
          "type": "address"
        }
      ],
      "stateMutability": "view",
      "type": "function",
      "constant": true
    },
    {
      "inputs": [
        {
          "internalType": "address",
          "name": "docAdd",
          "type": "address"
        }
      ],
      "name": "getDoctorAppointment",
      "outputs": [
        {
          "components": [
            {
              "internalType": "bool",
              "name": "status",
              "type": "bool"
            },
            {
              "internalType": "address payable",
              "name": "patient_",
              "type": "address"
            },
            {
              "internalType": "address payable",
              "name": "doctor_",
              "type": "address"
            },
            {
              "internalType": "string",
              "name": "patientName",
              "type": "string"
            },
            {
              "internalType": "string",
              "name": "docname",
              "type": "string"
            },
            {
              "internalType": "uint256",
              "name": "timeslot_",
              "type": "uint256"
            },
            {
              "internalType": "uint256",
              "name": "timeStart",
              "type": "uint256"
            },
            {
              "internalType": "uint256",
              "name": "timeEnd",
              "type": "uint256"
            }
          ],
          "internalType": "struct HealthManagement2.Appointment[]",
          "name": "app",
          "type": "tuple[]"
        }
      ],
      "stateMutability": "view",
      "type": "function",
      "constant": true
    },
    {
      "inputs": [
        {
          "internalType": "address",
          "name": "addr",
          "type": "address"
        },
        {
          "internalType": "uint256",
          "name": "index",
          "type": "uint256"
        }
      ],
      "name": "getOneRecord",
      "outputs": [
        {
          "components": [
            {
              "internalType": "string",
              "name": "docname",
              "type": "string"
            },
            {
              "internalType": "string",
              "name": "fileHashes",
              "type": "string"
            },
            {
              "internalType": "string",
              "name": "presciptions",
              "type": "string"
            },
            {
              "internalType": "address payable",
              "name": "doctor_",
              "type": "address"
            },
            {
              "internalType": "uint256",
              "name": "timeStamp",
              "type": "uint256"
            },
            {
              "internalType": "uint256",
              "name": "amount",
              "type": "uint256"
            },
            {
              "internalType": "string",
              "name": "patientName",
              "type": "string"
            },
            {
              "internalType": "address payable",
              "name": "patientaddr",
              "type": "address"
            }
          ],
          "internalType": "struct HealthManagement2.Record",
          "name": "rec",
          "type": "tuple"
        }
      ],
      "stateMutability": "view",
      "type": "function",
      "constant": true
    },
    {
      "inputs": [
        {
          "internalType": "address",
          "name": "patAdd",
          "type": "address"
        }
      ],
      "name": "getPatientAppointment",
      "outputs": [
        {
          "components": [
            {
              "internalType": "bool",
              "name": "status",
              "type": "bool"
            },
            {
              "internalType": "address payable",
              "name": "patient_",
              "type": "address"
            },
            {
              "internalType": "address payable",
              "name": "doctor_",
              "type": "address"
            },
            {
              "internalType": "string",
              "name": "patientName",
              "type": "string"
            },
            {
              "internalType": "string",
              "name": "docname",
              "type": "string"
            },
            {
              "internalType": "uint256",
              "name": "timeslot_",
              "type": "uint256"
            },
            {
              "internalType": "uint256",
              "name": "timeStart",
              "type": "uint256"
            },
            {
              "internalType": "uint256",
              "name": "timeEnd",
              "type": "uint256"
            }
          ],
          "internalType": "struct HealthManagement2.Appointment[]",
          "name": "app",
          "type": "tuple[]"
        }
      ],
      "stateMutability": "view",
      "type": "function",
      "constant": true
    },
    {
      "inputs": [
        {
          "internalType": "address",
          "name": "addr",
          "type": "address"
        }
      ],
      "name": "getPatientDetails",
      "outputs": [
        {
          "internalType": "string",
          "name": "name",
          "type": "string"
        },
        {
          "internalType": "string",
          "name": "email",
          "type": "string"
        },
        {
          "internalType": "uint256",
          "name": "age",
          "type": "uint256"
        },
        {
          "internalType": "uint256",
          "name": "phone",
          "type": "uint256"
        },
        {
          "internalType": "string",
          "name": "bloodgroup",
          "type": "string"
        },
        {
          "internalType": "uint256",
          "name": "dob",
          "type": "uint256"
        },
        {
          "components": [
            {
              "internalType": "string",
              "name": "docname",
              "type": "string"
            },
            {
              "internalType": "string",
              "name": "fileHashes",
              "type": "string"
            },
            {
              "internalType": "string",
              "name": "presciptions",
              "type": "string"
            },
            {
              "internalType": "address payable",
              "name": "doctor_",
              "type": "address"
            },
            {
              "internalType": "uint256",
              "name": "timeStamp",
              "type": "uint256"
            },
            {
              "internalType": "uint256",
              "name": "amount",
              "type": "uint256"
            },
            {
              "internalType": "string",
              "name": "patientName",
              "type": "string"
            },
            {
              "internalType": "address payable",
              "name": "patientaddr",
              "type": "address"
            }
          ],
          "internalType": "struct HealthManagement2.Record[]",
          "name": "recordss",
          "type": "tuple[]"
        }
      ],
      "stateMutability": "view",
      "type": "function",
      "constant": true
    },
    {
      "inputs": [
        {
          "internalType": "address",
          "name": "addr",
          "type": "address"
        }
      ],
      "name": "getPatientRecords",
      "outputs": [
        {
          "components": [
            {
              "internalType": "string",
              "name": "docname",
              "type": "string"
            },
            {
              "internalType": "string",
              "name": "fileHashes",
              "type": "string"
            },
            {
              "internalType": "string",
              "name": "presciptions",
              "type": "string"
            },
            {
              "internalType": "address payable",
              "name": "doctor_",
              "type": "address"
            },
            {
              "internalType": "uint256",
              "name": "timeStamp",
              "type": "uint256"
            },
            {
              "internalType": "uint256",
              "name": "amount",
              "type": "uint256"
            },
            {
              "internalType": "string",
              "name": "patientName",
              "type": "string"
            },
            {
              "internalType": "address payable",
              "name": "patientaddr",
              "type": "address"
            }
          ],
          "internalType": "struct HealthManagement2.Record[]",
          "name": "records",
          "type": "tuple[]"
        }
      ],
      "stateMutability": "view",
      "type": "function",
      "constant": true
    },
    {
      "inputs": [
        {
          "internalType": "address",
          "name": "p",
          "type": "address"
        }
      ],
      "name": "getRecordOfOnePatient",
      "outputs": [
        {
          "components": [
            {
              "internalType": "string",
              "name": "docname",
              "type": "string"
            },
            {
              "internalType": "string",
              "name": "fileHashes",
              "type": "string"
            },
            {
              "internalType": "string",
              "name": "presciptions",
              "type": "string"
            },
            {
              "internalType": "address payable",
              "name": "doctor_",
              "type": "address"
            },
            {
              "internalType": "uint256",
              "name": "timeStamp",
              "type": "uint256"
            },
            {
              "internalType": "uint256",
              "name": "amount",
              "type": "uint256"
            },
            {
              "internalType": "string",
              "name": "patientName",
              "type": "string"
            },
            {
              "internalType": "address payable",
              "name": "patientaddr",
              "type": "address"
            }
          ],
          "internalType": "struct HealthManagement2.Record[]",
          "name": "doctorRecord",
          "type": "tuple[]"
        }
      ],
      "stateMutability": "view",
      "type": "function",
      "constant": true
    },
    {
      "inputs": [
        {
          "internalType": "address",
          "name": "",
          "type": "address"
        }
      ],
      "name": "isDoctor",
      "outputs": [
        {
          "internalType": "bool",
          "name": "",
          "type": "bool"
        }
      ],
      "stateMutability": "view",
      "type": "function",
      "constant": true
    },
    {
      "inputs": [
        {
          "internalType": "address",
          "name": "",
          "type": "address"
        }
      ],
      "name": "isPatient",
      "outputs": [
        {
          "internalType": "bool",
          "name": "",
          "type": "bool"
        }
      ],
      "stateMutability": "view",
      "type": "function",
      "constant": true
    },
    {
      "inputs": [
        {
          "internalType": "string",
          "name": "name",
          "type": "string"
        },
        {
          "internalType": "string",
          "name": "email",
          "type": "string"
        },
        {
          "internalType": "address payable",
          "name": "address_",
          "type": "address"
        },
        {
          "internalType": "uint256",
          "name": "basefee",
          "type": "uint256"
        }
      ],
      "name": "addDoctor",
      "outputs": [],
      "stateMutability": "nonpayable",
      "type": "function"
    },
    {
      "inputs": [
        {
          "internalType": "address",
          "name": "to",
          "type": "address"
        }
      ],
      "name": "payFees",
      "outputs": [
        {
          "internalType": "bool",
          "name": "sentt",
          "type": "bool"
        }
      ],
      "stateMutability": "payable",
      "type": "function",
      "payable": true
    },
    {
      "inputs": [
        {
          "internalType": "address",
          "name": "docAddr",
          "type": "address"
        },
        {
          "internalType": "uint256",
          "name": "slot",
          "type": "uint256"
        }
      ],
      "name": "takeAppointment",
      "outputs": [],
      "stateMutability": "nonpayable",
      "type": "function"
    },
    {
      "inputs": [
        {
          "internalType": "uint256",
          "name": "index",
          "type": "uint256"
        },
        {
          "internalType": "uint256",
          "name": "start",
          "type": "uint256"
        }
      ],
      "name": "startAppointment",
      "outputs": [],
      "stateMutability": "nonpayable",
      "type": "function"
    },
    {
      "inputs": [
        {
          "internalType": "uint256",
          "name": "index",
          "type": "uint256"
        },
        {
          "internalType": "uint256",
          "name": "end",
          "type": "uint256"
        }
      ],
      "name": "endAppointment",
      "outputs": [],
      "stateMutability": "nonpayable",
      "type": "function"
    },
    {
      "inputs": [],
      "name": "getAllDoctor",
      "outputs": [
        {
          "components": [
            {
              "internalType": "string",
              "name": "name",
              "type": "string"
            },
            {
              "internalType": "string",
              "name": "email",
              "type": "string"
            },
            {
              "internalType": "address payable",
              "name": "address_",
              "type": "address"
            },
            {
              "internalType": "uint256",
              "name": "basefee",
              "type": "uint256"
            },
            {
              "internalType": "uint256",
              "name": "starCount",
              "type": "uint256"
            },
            {
              "internalType": "uint256",
              "name": "totalPatients",
              "type": "uint256"
            },
            {
              "components": [
                {
                  "internalType": "bool",
                  "name": "status",
                  "type": "bool"
                },
                {
                  "internalType": "address payable",
                  "name": "patient_",
                  "type": "address"
                },
                {
                  "internalType": "address payable",
                  "name": "doctor_",
                  "type": "address"
                },
                {
                  "internalType": "string",
                  "name": "patientName",
                  "type": "string"
                },
                {
                  "internalType": "string",
                  "name": "docname",
                  "type": "string"
                },
                {
                  "internalType": "uint256",
                  "name": "timeslot_",
                  "type": "uint256"
                },
                {
                  "internalType": "uint256",
                  "name": "timeStart",
                  "type": "uint256"
                },
                {
                  "internalType": "uint256",
                  "name": "timeEnd",
                  "type": "uint256"
                }
              ],
              "internalType": "struct HealthManagement2.Appointment[]",
              "name": "appointments_",
              "type": "tuple[]"
            },
            {
              "components": [
                {
                  "internalType": "string",
                  "name": "docname",
                  "type": "string"
                },
                {
                  "internalType": "string",
                  "name": "fileHashes",
                  "type": "string"
                },
                {
                  "internalType": "string",
                  "name": "presciptions",
                  "type": "string"
                },
                {
                  "internalType": "address payable",
                  "name": "doctor_",
                  "type": "address"
                },
                {
                  "internalType": "uint256",
                  "name": "timeStamp",
                  "type": "uint256"
                },
                {
                  "internalType": "uint256",
                  "name": "amount",
                  "type": "uint256"
                },
                {
                  "internalType": "string",
                  "name": "patientName",
                  "type": "string"
                },
                {
                  "internalType": "address payable",
                  "name": "patientaddr",
                  "type": "address"
                }
              ],
              "internalType": "struct HealthManagement2.Record[]",
              "name": "records_",
              "type": "tuple[]"
            }
          ],
          "internalType": "struct HealthManagement2.Doctor[]",
          "name": "alldocs",
          "type": "tuple[]"
        }
      ],
      "stateMutability": "view",
      "type": "function",
      "constant": true
    },
    {
      "inputs": [
        {
          "internalType": "address",
          "name": "addr",
          "type": "address"
        }
      ],
      "name": "getOneDoctor",
      "outputs": [
        {
          "components": [
            {
              "internalType": "string",
              "name": "name",
              "type": "string"
            },
            {
              "internalType": "string",
              "name": "email",
              "type": "string"
            },
            {
              "internalType": "address payable",
              "name": "address_",
              "type": "address"
            },
            {
              "internalType": "uint256",
              "name": "basefee",
              "type": "uint256"
            },
            {
              "internalType": "uint256",
              "name": "starCount",
              "type": "uint256"
            },
            {
              "internalType": "uint256",
              "name": "totalPatients",
              "type": "uint256"
            },
            {
              "components": [
                {
                  "internalType": "bool",
                  "name": "status",
                  "type": "bool"
                },
                {
                  "internalType": "address payable",
                  "name": "patient_",
                  "type": "address"
                },
                {
                  "internalType": "address payable",
                  "name": "doctor_",
                  "type": "address"
                },
                {
                  "internalType": "string",
                  "name": "patientName",
                  "type": "string"
                },
                {
                  "internalType": "string",
                  "name": "docname",
                  "type": "string"
                },
                {
                  "internalType": "uint256",
                  "name": "timeslot_",
                  "type": "uint256"
                },
                {
                  "internalType": "uint256",
                  "name": "timeStart",
                  "type": "uint256"
                },
                {
                  "internalType": "uint256",
                  "name": "timeEnd",
                  "type": "uint256"
                }
              ],
              "internalType": "struct HealthManagement2.Appointment[]",
              "name": "appointments_",
              "type": "tuple[]"
            },
            {
              "components": [
                {
                  "internalType": "string",
                  "name": "docname",
                  "type": "string"
                },
                {
                  "internalType": "string",
                  "name": "fileHashes",
                  "type": "string"
                },
                {
                  "internalType": "string",
                  "name": "presciptions",
                  "type": "string"
                },
                {
                  "internalType": "address payable",
                  "name": "doctor_",
                  "type": "address"
                },
                {
                  "internalType": "uint256",
                  "name": "timeStamp",
                  "type": "uint256"
                },
                {
                  "internalType": "uint256",
                  "name": "amount",
                  "type": "uint256"
                },
                {
                  "internalType": "string",
                  "name": "patientName",
                  "type": "string"
                },
                {
                  "internalType": "address payable",
                  "name": "patientaddr",
                  "type": "address"
                }
              ],
              "internalType": "struct HealthManagement2.Record[]",
              "name": "records_",
              "type": "tuple[]"
            }
          ],
          "internalType": "struct HealthManagement2.Doctor",
          "name": "doc",
          "type": "tuple"
        }
      ],
      "stateMutability": "view",
      "type": "function",
      "constant": true
    }
  ],
  "bytecode": "0x608060405234801561001057600080fd5b50600060088190556009819055600a8190558054600160a060020a03191633179055614b61806100416000396000f3fe608060405260043610610152576000357c01000000000000000000000000000000000000000000000000000000009004806393699ad0116100c8578063b8f9197b1161008c578063b8f9197b146103e5578063cd25d7be146103f8578063e3a3bf9c1461042b578063efe2ccc11461045f578063fc8a4de414610492578063ff68115b146104b257600080fd5b806393699ad014610323578063996440c6146103435780639e066d0414610373578063a39b664314610393578063b6ad1015146103b357600080fd5b80633da288751161011a5780633da288751461021c57806350a8a0581461024957806359e9bf55146102695780637966c802146102965780638b0920fe146102c35780638f9c79ed146102e357600080fd5b8063036d6b311461015757806318bd48471461018d5780631a7906fa146101ad578063285a3807146101cf57806338638c8114610207575b600080fd5b34801561016357600080fd5b50610177610172366004614016565b6104d2565b604051610184919061418f565b60405180910390f35b34801561019957600080fd5b506101776101a8366004614016565b610d8f565b3480156101b957600080fd5b506101c26110ce565b604051610184919061435b565b3480156101db57600080fd5b506101ef6101ea3660046143bc565b6117e2565b604051600160a060020a039091168152602001610184565b61021a61021536600461448b565b61180c565b005b34801561022857600080fd5b5061023c610237366004614016565b611ae9565b6040516101849190614558565b34801561025557600080fd5b5061021a61026436600461462c565b611cd7565b34801561027557600080fd5b50610289610284366004614016565b611e32565b60405161018491906146aa565b3480156102a257600080fd5b506102b66102b13660046146bd565b612492565b60405161018491906146e9565b3480156102cf57600080fd5b5061021a6102de3660046146fc565b612773565b3480156102ef57600080fd5b506103136102fe366004614016565b60066020526000908152604090205460ff1681565b6040519015158152602001610184565b34801561032f57600080fd5b5061021a61033e36600461477d565b612b02565b34801561034f57600080fd5b5061031361035e366004614016565b60046020526000908152604090205460ff1681565b34801561037f57600080fd5b5061021a61038e3660046146bd565b612bf4565b34801561039f57600080fd5b5061021a6103ae36600461477d565b612f5e565b3480156103bf57600080fd5b506103d36103ce366004614016565b613094565b6040516101849695949392919061479f565b6103136103f3366004614016565b6131e3565b34801561040457600080fd5b50610418610413366004614016565b6132af565b60405161018497969594939291906147f3565b34801561043757600080fd5b5061044b6104463660046143bc565b613490565b60405161018498979695949392919061485c565b34801561046b57600080fd5b5061047f61047a366004614016565b613604565b60405161018497969594939291906148c6565b34801561049e57600080fd5b5061023c6104ad366004614016565b613d66565b3480156104be57600080fd5b506101ef6104cd3660046143bc565b613f49565b600160a060020a0381166000908152600760205260408082208151610120810190925280546060939291908290829061050a90614933565b80601f016020809104026020016040519081016040528092919081815260200182805461053690614933565b80156105835780601f1061055857610100808354040283529160200191610583565b820191906000526020600020905b81548152906001019060200180831161056657829003601f168201915b5050505050815260200160018201805461059c90614933565b80601f01602080910402602001604051908101604052809291908181526020018280546105c890614933565b80156106155780601f106105ea57610100808354040283529160200191610615565b820191906000526020600020905b8154815290600101906020018083116105f857829003601f168201915b505050505081526020016002820160009054906101000a9004600160a060020a0316600160a060020a0316600160a060020a03168152602001600382015481526020016004820154815260200160058201805480602002602001604051908101604052809291908181526020016000905b828210156109425783829060005260206000209060080201604051806101000160405290816000820180546106ba90614933565b80601f01602080910402602001604051908101604052809291908181526020018280546106e690614933565b80156107335780601f1061070857610100808354040283529160200191610733565b820191906000526020600020905b81548152906001019060200180831161071657829003601f168201915b5050505050815260200160018201805461074c90614933565b80601f016020809104026020016040519081016040528092919081815260200182805461077890614933565b80156107c55780601f1061079a576101008083540402835291602001916107c5565b820191906000526020600020905b8154815290600101906020018083116107a857829003601f168201915b505050505081526020016002820180546107de90614933565b80601f016020809104026020016040519081016040528092919081815260200182805461080a90614933565b80156108575780601f1061082c57610100808354040283529160200191610857565b820191906000526020600020905b81548152906001019060200180831161083a57829003601f168201915b50505091835250506003820154600160a060020a03166020820152600482015460408201526005820154606082015260068201805460809092019161089b90614933565b80601f01602080910402602001604051908101604052809291908181526020018280546108c790614933565b80156109145780601f106108e957610100808354040283529160200191610914565b820191906000526020600020905b8154815290600101906020018083116108f757829003601f168201915b505050918352505060079190910154600160a060020a03166020918201529082526001929092019101610686565b50505050815260200160068201805461095a90614933565b80601f016020809104026020016040519081016040528092919081815260200182805461098690614933565b80156109d35780601f106109a8576101008083540402835291602001916109d3565b820191906000526020600020905b8154815290600101906020018083116109b657829003601f168201915b505050505081526020016007820154815260200160088201805480602002602001604051908101604052809291908181526020016000905b82821015610bb357600084815260209081902060408051610100808201835260078702909301805460ff81161515835293909304600160a060020a0390811694820194909452600183015490931690830152600281018054606084019190610a7290614933565b80601f0160208091040260200160405190810160405280929190818152602001828054610a9e90614933565b8015610aeb5780601f10610ac057610100808354040283529160200191610aeb565b820191906000526020600020905b815481529060010190602001808311610ace57829003601f168201915b50505050508152602001600382018054610b0490614933565b80601f0160208091040260200160405190810160405280929190818152602001828054610b3090614933565b8015610b7d5780601f10610b5257610100808354040283529160200191610b7d565b820191906000526020600020905b815481529060010190602001808311610b6057829003601f168201915b50505050508152602001600482015481526020016005820154815260200160068201548152505081526020019060010190610a0b565b5050509152505060a0810151519091506000908181610c1c5760405160e560020a62461bcd02815260206004820152600760248201527f4e6f20646174610000000000000000000000000000000000000000000000000060448201526064015b60405180910390fd5b60005b8460a0015151811015610c865733600160a060020a03168560a001518281518110610c4c57610c4c61496a565b602002602001015160600151600160a060020a031603610c7457610c7160018561499c565b93505b80610c7e816149af565b915050610c1f565b5060008367ffffffffffffffff811115610ca257610ca26143d5565b604051908082528060200260200182016040528015610cdb57816020015b610cc8613f59565b815260200190600190039081610cc05790505b50905060005b8560a0015151811015610d845733600160a060020a03168660a001518281518110610d0e57610d0e61496a565b602002602001015160600151600160a060020a031603610d72578560a001518181518110610d3e57610d3e61496a565b6020026020010151828481518110610d5857610d5861496a565b60200260200101819052508280610d6e906149af565b9350505b80610d7c816149af565b915050610ce1565b509695505050505050565b600160a060020a03811660009081526006602052604090205460609060ff16610dcd5760405160e560020a62461bcd028152600401610c13906149c8565b600160a060020a038216600090815260076020908152604080832060050180548251818502810185019093528083529192909190849084015b828210156110c2578382906000526020600020906008020160405180610100016040529081600082018054610e3a90614933565b80601f0160208091040260200160405190810160405280929190818152602001828054610e6690614933565b8015610eb35780601f10610e8857610100808354040283529160200191610eb3565b820191906000526020600020905b815481529060010190602001808311610e9657829003601f168201915b50505050508152602001600182018054610ecc90614933565b80601f0160208091040260200160405190810160405280929190818152602001828054610ef890614933565b8015610f455780601f10610f1a57610100808354040283529160200191610f45565b820191906000526020600020905b815481529060010190602001808311610f2857829003601f168201915b50505050508152602001600282018054610f5e90614933565b80601f0160208091040260200160405190810160405280929190818152602001828054610f8a90614933565b8015610fd75780601f10610fac57610100808354040283529160200191610fd7565b820191906000526020600020905b815481529060010190602001808311610fba57829003601f168201915b50505091835250506003820154600160a060020a03166020820152600482015460408201526005820154606082015260068201805460809092019161101b90614933565b80601f016020809104026020016040519081016040528092919081815260200182805461104790614933565b80156110945780601f1061106957610100808354040283529160200191611094565b820191906000526020600020905b81548152906001019060200180831161107757829003601f168201915b505050918352505060079190910154600160a060020a03166020918201529082526001929092019101610e06565b50929695505050505050565b6060600060095467ffffffffffffffff8111156110ed576110ed6143d5565b60405190808252806020026020018201604052801561112657816020015b611113613fb0565b81526020019060019003908161110b5790505b50905060005b6009548110156117dc57600560006002838154811061114d5761114d61496a565b6000918252602080832090910154600160a060020a0316835282019290925260409081019091208151610100810190925280548290829061118d90614933565b80601f01602080910402602001604051908101604052809291908181526020018280546111b990614933565b80156112065780601f106111db57610100808354040283529160200191611206565b820191906000526020600020905b8154815290600101906020018083116111e957829003601f168201915b5050505050815260200160018201805461121f90614933565b80601f016020809104026020016040519081016040528092919081815260200182805461124b90614933565b80156112985780601f1061126d57610100808354040283529160200191611298565b820191906000526020600020905b81548152906001019060200180831161127b57829003601f168201915b505050505081526020016002820160009054906101000a9004600160a060020a0316600160a060020a0316600160a060020a0316815260200160038201548152602001600482015481526020016005820154815260200160068201805480602002602001604051908101604052809291908181526020016000905b828210156114bb57600084815260209081902060408051610100808201835260078702909301805460ff81161515835293909304600160a060020a039081169482019490945260018301549093169083015260028101805460608401919061137a90614933565b80601f01602080910402602001604051908101604052809291908181526020018280546113a690614933565b80156113f35780601f106113c8576101008083540402835291602001916113f3565b820191906000526020600020905b8154815290600101906020018083116113d657829003601f168201915b5050505050815260200160038201805461140c90614933565b80601f016020809104026020016040519081016040528092919081815260200182805461143890614933565b80156114855780601f1061145a57610100808354040283529160200191611485565b820191906000526020600020905b81548152906001019060200180831161146857829003601f168201915b50505050508152602001600482015481526020016005820154815260200160068201548152505081526020019060010190611313565b50505050815260200160078201805480602002602001604051908101604052809291908181526020016000905b828210156117a457838290600052602060002090600802016040518061010001604052908160008201805461151c90614933565b80601f016020809104026020016040519081016040528092919081815260200182805461154890614933565b80156115955780601f1061156a57610100808354040283529160200191611595565b820191906000526020600020905b81548152906001019060200180831161157857829003601f168201915b505050505081526020016001820180546115ae90614933565b80601f01602080910402602001604051908101604052809291908181526020018280546115da90614933565b80156116275780601f106115fc57610100808354040283529160200191611627565b820191906000526020600020905b81548152906001019060200180831161160a57829003601f168201915b5050505050815260200160028201805461164090614933565b80601f016020809104026020016040519081016040528092919081815260200182805461166c90614933565b80156116b95780601f1061168e576101008083540402835291602001916116b9565b820191906000526020600020905b81548152906001019060200180831161169c57829003601f168201915b50505091835250506003820154600160a060020a0316602082015260048201546040820152600582015460608201526006820180546080909201916116fd90614933565b80601f016020809104026020016040519081016040528092919081815260200182805461172990614933565b80156117765780601f1061174b57610100808354040283529160200191611776565b820191906000526020600020905b81548152906001019060200180831161175957829003601f168201915b505050918352505060079190910154600160a060020a031660209182015290825260019290920191016114e8565b50505050815250508282815181106117be576117be61496a565b602002602001018190525080806117d4906149af565b91505061112c565b50919050565b600281815481106117f257600080fd5b600091825260209091200154600160a060020a0316905081565b600160a060020a03811660009081526006602052604090205460ff166118475760405160e560020a62461bcd028152600401610c13906149c8565b3360009081526004602052604090205460ff166118a95760405160e560020a62461bcd02815260206004820152601460248201527f596f7520617265206e6f74206120446f63746f720000000000000000000000006044820152606401610c13565b600160a060020a0380821660008181526007602090815260408083208151610100810183528981528084018d90529182018b905294891660608201524260808201523460a082015260c0810187905260e08101939093526005909301805460018101825590825292902081519192600802019081906119289082614a4e565b506020820151600182019061193d9082614a4e565b50604082015160028201906119529082614a4e565b506060820151600382018054600160a060020a031916600160a060020a039092169190911790556080820151600482015560a0820151600582015560c082015160068201906119a19082614a4e565b5060e09182015160079182018054600160a060020a031916600160a060020a0392831617905586811660008181526005602090815260408083208151610100810183528b81528084018f90529182018d905260608201949094524260808201523460a082015260c081018990529387169584019590955292018054600181018255908352929091208151919260080201908190611a3e9082614a4e565b5060208201516001820190611a539082614a4e565b5060408201516002820190611a689082614a4e565b506060820151600382018054600160a060020a031916600160a060020a039092169190911790556080820151600482015560a0820151600582015560c08201516006820190611ab79082614a4e565b5060e0919091015160079091018054600160a060020a031916600160a060020a03909216919091179055505050505050565b600160a060020a0381166000908152600560209081526040808320600601805482518185028101850190935280835260609492939192909184015b82821015611ccc57600084815260209081902060408051610100808201835260078702909301805460ff81161515835293909304600160a060020a0390811694820194909452600183015490931690830152600281018054606084019190611b8b90614933565b80601f0160208091040260200160405190810160405280929190818152602001828054611bb790614933565b8015611c045780601f10611bd957610100808354040283529160200191611c04565b820191906000526020600020905b815481529060010190602001808311611be757829003601f168201915b50505050508152602001600382018054611c1d90614933565b80601f0160208091040260200160405190810160405280929190818152602001828054611c4990614933565b8015611c965780601f10611c6b57610100808354040283529160200191611c96565b820191906000526020600020905b815481529060010190602001808311611c7957829003601f168201915b50505050508152602001600482015481526020016005820154815260200160068201548152505081526020019060010190611b24565b505050509050919050565b3360009081526004602052604090205460ff1615611d3a5760405160e560020a62461bcd02815260206004820152601960248201527f596f752061726520616c7265616479206120646f63746f7220000000000000006044820152606401610c13565b60028054600181019091557f405787fa12a823e0f2b7631cc41b3ba8828b3321ca811111fa75cd3aa3bb5ace018054600160a060020a031916339081179091556000908152600560205260409020611d928582614a4e565b50336000908152600560205260409020600101611daf8482614a4e565b503360009081526005602052604090206002018054600160a060020a031916600160a060020a038416179055611ded81670de0b6b3a7640000614b14565b3360009081526005602081905260408220600381019390935560048301829055919091018190556009805460019290611e2790849061499c565b909155505050505050565b611e3a613fb0565b600160a060020a03821660009081526005602052604080822081516101008101909252805482908290611e6c90614933565b80601f0160208091040260200160405190810160405280929190818152602001828054611e9890614933565b8015611ee55780601f10611eba57610100808354040283529160200191611ee5565b820191906000526020600020905b815481529060010190602001808311611ec857829003601f168201915b50505050508152602001600182018054611efe90614933565b80601f0160208091040260200160405190810160405280929190818152602001828054611f2a90614933565b8015611f775780601f10611f4c57610100808354040283529160200191611f77565b820191906000526020600020905b815481529060010190602001808311611f5a57829003601f168201915b505050505081526020016002820160009054906101000a9004600160a060020a0316600160a060020a0316600160a060020a0316815260200160038201548152602001600482015481526020016005820154815260200160068201805480602002602001604051908101604052809291908181526020016000905b8282101561219a57600084815260209081902060408051610100808201835260078702909301805460ff81161515835293909304600160a060020a039081169482019490945260018301549093169083015260028101805460608401919061205990614933565b80601f016020809104026020016040519081016040528092919081815260200182805461208590614933565b80156120d25780601f106120a7576101008083540402835291602001916120d2565b820191906000526020600020905b8154815290600101906020018083116120b557829003601f168201915b505050505081526020016003820180546120eb90614933565b80601f016020809104026020016040519081016040528092919081815260200182805461211790614933565b80156121645780601f1061213957610100808354040283529160200191612164565b820191906000526020600020905b81548152906001019060200180831161214757829003601f168201915b50505050508152602001600482015481526020016005820154815260200160068201548152505081526020019060010190611ff2565b50505050815260200160078201805480602002602001604051908101604052809291908181526020016000905b828210156124835783829060005260206000209060080201604051806101000160405290816000820180546121fb90614933565b80601f016020809104026020016040519081016040528092919081815260200182805461222790614933565b80156122745780601f1061224957610100808354040283529160200191612274565b820191906000526020600020905b81548152906001019060200180831161225757829003601f168201915b5050505050815260200160018201805461228d90614933565b80601f01602080910402602001604051908101604052809291908181526020018280546122b990614933565b80156123065780601f106122db57610100808354040283529160200191612306565b820191906000526020600020905b8154815290600101906020018083116122e957829003601f168201915b5050505050815260200160028201805461231f90614933565b80601f016020809104026020016040519081016040528092919081815260200182805461234b90614933565b80156123985780601f1061236d57610100808354040283529160200191612398565b820191906000526020600020905b81548152906001019060200180831161237b57829003601f168201915b50505091835250506003820154600160a060020a0316602082015260048201546040820152600582015460608201526006820180546080909201916123dc90614933565b80601f016020809104026020016040519081016040528092919081815260200182805461240890614933565b80156124555780601f1061242a57610100808354040283529160200191612455565b820191906000526020600020905b81548152906001019060200180831161243857829003601f168201915b505050918352505060079190910154600160a060020a031660209182015290825260019290920191016121c7565b50505091525090949350505050565b61249a613f59565b600160a060020a03831660009081526007602052604081206005018054849081106124c7576124c761496a565b9060005260206000209060080201604051806101000160405290816000820180546124f190614933565b80601f016020809104026020016040519081016040528092919081815260200182805461251d90614933565b801561256a5780601f1061253f5761010080835404028352916020019161256a565b820191906000526020600020905b81548152906001019060200180831161254d57829003601f168201915b5050505050815260200160018201805461258390614933565b80601f01602080910402602001604051908101604052809291908181526020018280546125af90614933565b80156125fc5780601f106125d1576101008083540402835291602001916125fc565b820191906000526020600020905b8154815290600101906020018083116125df57829003601f168201915b5050505050815260200160028201805461261590614933565b80601f016020809104026020016040519081016040528092919081815260200182805461264190614933565b801561268e5780601f106126635761010080835404028352916020019161268e565b820191906000526020600020905b81548152906001019060200180831161267157829003601f168201915b50505091835250506003820154600160a060020a0316602082015260048201546040820152600582015460608201526006820180546080909201916126d290614933565b80601f01602080910402602001604051908101604052809291908181526020018280546126fe90614933565b801561274b5780601f106127205761010080835404028352916020019161274b565b820191906000526020600020905b81548152906001019060200180831161272e57829003601f168201915b505050918352505060079190910154600160a060020a03166020909101529150505b92915050565b3360009081526006602052604090205460ff16156127d65760405160e560020a62461bcd02815260206004820152601a60248201527f596f752061726520616c726561647920612070617469656e74200000000000006044820152606401610c13565b336000908152600660209081526040808320805460ff19166001179055600790915290206128048682614a4e565b50336000818152600760208190526040909120600281018054600160a060020a0319169093179092556004820185905560038201869055810183905560010161284d8282614a4e565b506040805161014081018252600161010082018181527f610000000000000000000000000000000000000000000000000000000000000061012084018190529083528351808501855282815260208181018390528085019190915284518086018652838152808201839052848601523360608501819052600a6080860181905260a0860152855180870187528481528083019390935260c085019290925260e084018290526000918252600781529381206005018054928301815581529290922081519192839260089091029091019081906129299082614a4e565b506020820151600182019061293e9082614a4e565b50604082015160028201906129539082614a4e565b506060820151600382018054600160a060020a031916600160a060020a039092169190911790556080820151600482015560a0820151600582015560c082015160068201906129a29082614a4e565b5060e0919091015160079182018054600160a060020a031916600160a060020a03909216919091179055336000908152602091825260408120600501805460018101825590825291902082518392600802909101908190612a039082614a4e565b5060208201516001820190612a189082614a4e565b5060408201516002820190612a2d9082614a4e565b506060820151600382018054600160a060020a031916600160a060020a039092169190911790556080820151600482015560a0820151600582015560c08201516006820190612a7c9082614a4e565b5060e0919091015160079091018054600160a060020a03909216600160a060020a0319928316179055600380546001818101835560009283527fc2575a0e9e593c00f959f8c92f12db2869c3395a3b0502d05e2516446f71f85b9091018054909316331790925560088054909190612af590849061499c565b9091555050505050505050565b336000908152600560205260409020600601805483908110612b2657612b2661496a565b600091825260209091206007909102015460ff161515600114612bb45760405160e560020a62461bcd02815260206004820152602760248201527f596f752068617665206e6f7420636f6d706c657465642074686973206170706f60448201527f696e746d656e74000000000000000000000000000000000000000000000000006064820152608401610c13565b336000908152600560205260409020600601805482919084908110612bdb57612bdb61496a565b9060005260206000209060070201600601819055505050565b60408051610100810182526000808252336020808401829052600160a060020a03871684860152908252600790529182208054606083019190612c3690614933565b80601f0160208091040260200160405190810160405280929190818152602001828054612c6290614933565b8015612caf5780601f10612c8457610100808354040283529160200191612caf565b820191906000526020600020905b815481529060010190602001808311612c9257829003601f168201915b505050505081526020016005600086600160a060020a0316600160a060020a031681526020019081526020016000206000018054612cec90614933565b80601f0160208091040260200160405190810160405280929190818152602001828054612d1890614933565b8015612d655780601f10612d3a57610100808354040283529160200191612d65565b820191906000526020600020905b815481529060010190602001808311612d4857829003601f168201915b50505091835250506020808201859052600060408084018290526060938401829052600160a060020a0380891683526005845281832060060180546001818101835591855293859020875160079095020180549588015183166101000274ffffffffffffffffffffffffffffffffffffffff00199515159590951674ffffffffffffffffffffffffffffffffffffffffff199096169590951793909317845590850151918301805492909116600160a060020a03199092169190911790559082015191925082916002820190612e3b9082614a4e565b5060808201516003820190612e509082614a4e565b5060a0820151600482015560c0820151600582015560e0909101516006909101553360009081526007602081815260408084206008018054600180820183559186529483902086519590940290930180549286015174ffffffffffffffffffffffffffffffffffffffffff1990931694151574ffffffffffffffffffffffffffffffffffffffff00191694909417610100600160a060020a03938416021784558401519183018054600160a060020a0319169290911691909117905560608201518291906002820190612f239082614a4e565b5060808201516003820190612f389082614a4e565b5060a0820151816004015560c0820151816005015560e082015181600601555050505050565b336000908152600560205260409020600601805483908110612f8257612f8261496a565b600091825260209091206007909102015460ff161561300c5760405160e560020a62461bcd02815260206004820152602360248201527f596f75206861766520636f6d706c657465642074686973206170706f696e746d60448201527f656e7400000000000000000000000000000000000000000000000000000000006064820152608401610c13565b336000908152600560205260409020600601805460019190849081106130345761303461496a565b60009182526020808320600792909202909101805460ff19169315159390931790925533815260059091526040902060060180548291908490811061307b5761307b61496a565b9060005260206000209060070201600501819055505050565b6005602052600090815260409020805481906130af90614933565b80601f01602080910402602001604051908101604052809291908181526020018280546130db90614933565b80156131285780601f106130fd57610100808354040283529160200191613128565b820191906000526020600020905b81548152906001019060200180831161310b57829003601f168201915b50505050509080600101805461313d90614933565b80601f016020809104026020016040519081016040528092919081815260200182805461316990614933565b80156131b65780601f1061318b576101008083540402835291602001916131b6565b820191906000526020600020905b81548152906001019060200180831161319957829003601f168201915b505050506002830154600384015460048501546005909501549394600160a060020a039092169390925086565b600160a060020a0381166000908152600560205260408120600301543410156132515760405160e560020a62461bcd02815260206004820152601460248201527f20496e73756666696369656e742066756e6473200000000000000000000000006044820152606401610c13565b60008083600160a060020a03163460405160006040518083038185875af1925050503d806000811461329f576040519150601f19603f3d011682016040523d82523d6000602084013e6132a4565b606091505b509095945050505050565b6007602052600090815260409020805481906132ca90614933565b80601f01602080910402602001604051908101604052809291908181526020018280546132f690614933565b80156133435780601f1061331857610100808354040283529160200191613343565b820191906000526020600020905b81548152906001019060200180831161332657829003601f168201915b50505050509080600101805461335890614933565b80601f016020809104026020016040519081016040528092919081815260200182805461338490614933565b80156133d15780601f106133a6576101008083540402835291602001916133d1565b820191906000526020600020905b8154815290600101906020018083116133b457829003601f168201915b5050506002840154600385015460048601546006870180549697600160a060020a03909416969295509093509061340790614933565b80601f016020809104026020016040519081016040528092919081815260200182805461343390614933565b80156134805780601f1061345557610100808354040283529160200191613480565b820191906000526020600020905b81548152906001019060200180831161346357829003601f168201915b5050505050908060070154905087565b600181815481106134a057600080fd5b600091825260209091206007909102018054600182015460028301805460ff84169550610100909304600160a060020a03908116949216926134e190614933565b80601f016020809104026020016040519081016040528092919081815260200182805461350d90614933565b801561355a5780601f1061352f5761010080835404028352916020019161355a565b820191906000526020600020905b81548152906001019060200180831161353d57829003601f168201915b50505050509080600301805461356f90614933565b80601f016020809104026020016040519081016040528092919081815260200182805461359b90614933565b80156135e85780601f106135bd576101008083540402835291602001916135e8565b820191906000526020600020905b8154815290600101906020018083116135cb57829003601f168201915b5050505050908060040154908060050154908060060154905088565b600160a060020a0381166000908152600660205260408120546060918291819083908290829060ff1661364c5760405160e560020a62461bcd028152600401610c13906149c8565b600160a060020a0388166000908152600760205260408082208151610120810190925280548290829061367e90614933565b80601f01602080910402602001604051908101604052809291908181526020018280546136aa90614933565b80156136f75780601f106136cc576101008083540402835291602001916136f7565b820191906000526020600020905b8154815290600101906020018083116136da57829003601f168201915b5050505050815260200160018201805461371090614933565b80601f016020809104026020016040519081016040528092919081815260200182805461373c90614933565b80156137895780601f1061375e57610100808354040283529160200191613789565b820191906000526020600020905b81548152906001019060200180831161376c57829003601f168201915b505050505081526020016002820160009054906101000a9004600160a060020a0316600160a060020a0316600160a060020a03168152602001600382015481526020016004820154815260200160058201805480602002602001604051908101604052809291908181526020016000905b82821015613ab657838290600052602060002090600802016040518061010001604052908160008201805461382e90614933565b80601f016020809104026020016040519081016040528092919081815260200182805461385a90614933565b80156138a75780601f1061387c576101008083540402835291602001916138a7565b820191906000526020600020905b81548152906001019060200180831161388a57829003601f168201915b505050505081526020016001820180546138c090614933565b80601f01602080910402602001604051908101604052809291908181526020018280546138ec90614933565b80156139395780601f1061390e57610100808354040283529160200191613939565b820191906000526020600020905b81548152906001019060200180831161391c57829003601f168201915b5050505050815260200160028201805461395290614933565b80601f016020809104026020016040519081016040528092919081815260200182805461397e90614933565b80156139cb5780601f106139a0576101008083540402835291602001916139cb565b820191906000526020600020905b8154815290600101906020018083116139ae57829003601f168201915b50505091835250506003820154600160a060020a031660208201526004820154604082015260058201546060820152600682018054608090920191613a0f90614933565b80601f0160208091040260200160405190810160405280929190818152602001828054613a3b90614933565b8015613a885780601f10613a5d57610100808354040283529160200191613a88565b820191906000526020600020905b815481529060010190602001808311613a6b57829003601f168201915b505050918352505060079190910154600160a060020a031660209182015290825260019290920191016137fa565b505050508152602001600682018054613ace90614933565b80601f0160208091040260200160405190810160405280929190818152602001828054613afa90614933565b8015613b475780601f10613b1c57610100808354040283529160200191613b47565b820191906000526020600020905b815481529060010190602001808311613b2a57829003601f168201915b505050505081526020016007820154815260200160088201805480602002602001604051908101604052809291908181526020016000905b82821015613d2757600084815260209081902060408051610100808201835260078702909301805460ff81161515835293909304600160a060020a0390811694820194909452600183015490931690830152600281018054606084019190613be690614933565b80601f0160208091040260200160405190810160405280929190818152602001828054613c1290614933565b8015613c5f5780601f10613c3457610100808354040283529160200191613c5f565b820191906000526020600020905b815481529060010190602001808311613c4257829003601f168201915b50505050508152602001600382018054613c7890614933565b80601f0160208091040260200160405190810160405280929190818152602001828054613ca490614933565b8015613cf15780601f10613cc657610100808354040283529160200191613cf1565b820191906000526020600020905b815481529060010190602001808311613cd457829003601f168201915b50505050508152602001600482015481526020016005820154815260200160068201548152505081526020019060010190613b7f565b50505091525050805160208201516080830151606084015160c085015160e086015160a090960151949f939e50919c509a509850919650945092505050565b600160a060020a0381166000908152600760209081526040808320600801805482518185028101850190935280835260609492939192909184015b82821015611ccc57600084815260209081902060408051610100808201835260078702909301805460ff81161515835293909304600160a060020a0390811694820194909452600183015490931690830152600281018054606084019190613e0890614933565b80601f0160208091040260200160405190810160405280929190818152602001828054613e3490614933565b8015613e815780601f10613e5657610100808354040283529160200191613e81565b820191906000526020600020905b815481529060010190602001808311613e6457829003601f168201915b50505050508152602001600382018054613e9a90614933565b80601f0160208091040260200160405190810160405280929190818152602001828054613ec690614933565b8015613f135780601f10613ee857610100808354040283529160200191613f13565b820191906000526020600020905b815481529060010190602001808311613ef657829003601f168201915b50505050508152602001600482015481526020016005820154815260200160068201548152505081526020019060010190613da1565b600381815481106117f257600080fd5b6040518061010001604052806060815260200160608152602001606081526020016000600160a060020a031681526020016000815260200160008152602001606081526020016000600160a060020a031681525090565b60405180610100016040528060608152602001606081526020016000600160a060020a0316815260200160008152602001600081526020016000815260200160608152602001606081525090565b600160a060020a038116811461401357600080fd5b50565b60006020828403121561402857600080fd5b813561403381613ffe565b9392505050565b6000815180845260005b8181101561406057602081850181015186830182015201614044565b506000602082860101526020601f19601f83011685010191505092915050565b600061010082518185526140968286018261403a565b915050602083015184820360208601526140b0828261403a565b915050604083015184820360408601526140ca828261403a565b91505060608301516140e76060860182600160a060020a03169052565b506080830151608085015260a083015160a085015260c083015184820360c0860152614113828261403a565b91505060e083015161413060e0860182600160a060020a03169052565b509392505050565b6000828251808552602080860195508081830284010181860160005b8481101561418257601f19868403018952614170838351614080565b98840198925090830190600101614154565b5090979650505050505050565b6020815260006140336020830184614138565b6000828251808552602080860195508081830284010181860160005b8481101561418257858303601f19018952815180511515845284810151600160a060020a038116868601526101009050604082810151600160a060020a038116878301525050606080830151828288015261421b8388018261403a565b9250505060808083015186830382880152614236838261403a565b60a0858101519089015260c0808601519089015260e094850151949097019390935250505097830197908301906001016141be565b6000828251808552602080860195508081830284010181860160005b8481101561418257601f198684030189526142a3838351614080565b98840198925090830190600101614287565b600061010082518185526142cb8286018261403a565b915050602083015184820360208601526142e5828261403a565b91505060408301516143026040860182600160a060020a03169052565b50606083015160608501526080830151608085015260a083015160a085015260c083015184820360c086015261433882826141a2565b91505060e083015184820360e0860152614352828261426b565b95945050505050565b600060208083018184528085518083526040860191506040848202870101925083870160005b828110156143af57603f1988860301845261439d8583516142b5565b94509285019290850190600101614381565b5092979650505050505050565b6000602082840312156143ce57600080fd5b5035919050565b60e060020a634e487b7102600052604160045260246000fd5b600082601f8301126143ff57600080fd5b813567ffffffffffffffff8082111561441a5761441a6143d5565b604051601f8301601f19908116603f01168101908282118183101715614442576144426143d5565b8160405283815286602085880101111561445b57600080fd5b836020870160208301376000602085830101528094505050505092915050565b803561448681613ffe565b919050565b60008060008060008060c087890312156144a457600080fd5b863567ffffffffffffffff808211156144bc57600080fd5b6144c88a838b016143ee565b975060208901359150808211156144de57600080fd5b6144ea8a838b016143ee565b96506144f860408a0161447b565b9550606089013591508082111561450e57600080fd5b61451a8a838b016143ee565b9450608089013591508082111561453057600080fd5b5061453d89828a016143ee565b92505061454c60a0880161447b565b90509295509295509295565b60208082528251828201819052600091906040908185019080840286018301878501865b8381101561461e57603f19898403018552815180511515845287810151600160a060020a039081168986015287820151168785015260608082015161010082870181905291906145ce8388018261403a565b92505050608080830151868303828801526145e9838261403a565b60a0858101519089015260c0808601519089015260e0948501519490970193909352505050938601939086019060010161457c565b509098975050505050505050565b6000806000806080858703121561464257600080fd5b843567ffffffffffffffff8082111561465a57600080fd5b614666888389016143ee565b9550602087013591508082111561467c57600080fd5b50614689878288016143ee565b935050604085013561469a81613ffe565b9396929550929360600135925050565b60208152600061403360208301846142b5565b600080604083850312156146d057600080fd5b82356146db81613ffe565b946020939093013593505050565b6020815260006140336020830184614080565b600080600080600060a0868803121561471457600080fd5b853567ffffffffffffffff8082111561472c57600080fd5b61473889838a016143ee565b9650602088013595506040880135945060608801359350608088013591508082111561476357600080fd5b50614770888289016143ee565b9150509295509295909350565b6000806040838503121561479057600080fd5b50508035926020909101359150565b60c0815260006147b260c083018961403a565b82810360208401526147c4818961403a565b915050600160a060020a03861660408301528460608301528360808301528260a0830152979650505050505050565b60e08152600061480660e083018a61403a565b8281036020840152614818818a61403a565b9050600160a060020a038816604084015286606084015285608084015282810360a0840152614847818661403a565b9150508260c083015298975050505050505050565b60006101008a15158352600160a060020a03808b166020850152808a166040850152508060608401526148918184018961403a565b905082810360808401526148a5818861403a565b60a0840196909652505060c081019290925260e09091015295945050505050565b60e0815260006148d960e083018a61403a565b82810360208401526148eb818a61403a565b9050876040840152866060840152828103608084015261490b818761403a565b90508460a084015282810360c08401526149258185614138565b9a9950505050505050505050565b60028104600182168061494757607f821691505b6020821081036117dc5760e060020a634e487b7102600052602260045260246000fd5b60e060020a634e487b7102600052603260045260246000fd5b60e060020a634e487b7102600052601160045260246000fd5b8082018082111561276d5761276d614983565b6000600182016149c1576149c1614983565b5060010190565b60208082526015908201527f596f7520617265206e6f7420612070617469656e740000000000000000000000604082015260600190565b601f821115614a49576000818152602081206020601f86010481016020861015614a265750805b6020601f860104820191505b81811015614a4557828155600101614a32565b5050505b505050565b815167ffffffffffffffff811115614a6857614a686143d5565b614a7c81614a768454614933565b846149ff565b602080601f831160018114614ab55760008415614a995750858301515b60028086026008870290910a6000190419821617865550614a45565b600085815260208120601f198616915b82811015614ae457888601518255948401946001909101908401614ac5565b5085821015614b0457878501516008601f88160260020a60001904191681555b5050505050600202600101905550565b808202811582820484141761276d5761276d61498356fea2646970667358221220e6576c1929b952d35c0d370d0c4232283e654bbe36d5e178cb4c40510ec7477664736f6c63430008120033",
  "immutableReferences": {},
  "source": "// SPDX-License-Identifier: GPL-3.0\r\npragma solidity >=0.7.0 <0.9.0;\r\n\r\nimport \"./Medical_2.sol\";\r\n\r\ncontract HealthManagement is HealthManagement2 {\r\n\r\n    constructor(){\r\n        patientCount = 0;\r\n        doctorCount = 0;\r\n        appointmentCount = 0;\r\n        owner_ = msg.sender;\r\n    }\r\n    \r\n   function addDoctor(\r\n        string memory name,\r\n        string memory email,\r\n        address payable address_,\r\n        uint256 basefee\r\n        ) public  {\r\n\r\n        require(isDoctor[msg.sender] == false,\"You are already a doctor \");\r\n        \r\n        alldoctors.push(msg.sender);\r\n        allDoctors[msg.sender].name = name;\r\n        allDoctors[msg.sender].email = email;\r\n        allDoctors[msg.sender].address_ = address_;\r\n        allDoctors[msg.sender].basefee = basefee*(1 ether);\r\n        allDoctors[msg.sender].starCount = 0;\r\n        allDoctors[msg.sender].totalPatients = 0;\r\n        // allDoctors[msg.sender].records_ = Record [](0);\r\n        doctorCount += 1;\r\n        \r\n   }\r\n\r\n   function payFees(address to)public payable returns (bool sentt) {\r\n       require(msg.value >= allDoctors[to].basefee , \" Insufficient funds \");\r\n       (bool sent, bytes memory data) = (address(payable(to))).call{value: msg.value}(\"\");\r\n        return sent;\r\n        // require(sent, \"Failed to send Ether\");\r\n   }\r\n\r\n   function takeAppointment(address docAddr,uint256 slot) public {\r\n\r\n        Appointment memory a = Appointment(false, payable(msg.sender),payable(docAddr),allPatients[msg.sender].name , allDoctors[docAddr].name , slot,0,0);\r\n        allDoctors[docAddr].appointments_.push(a);\r\n        allPatients[msg.sender].myAppointments.push(a);\r\n        // add to patients appointments too \r\n   }\r\n\r\n    function startAppointment(uint256 index,uint256 start) public {\r\n        require(allDoctors[msg.sender].appointments_[index].status == false,\"You have completed this appointment\");\r\n        allDoctors[msg.sender].appointments_[index].status = true;\r\n        allDoctors[msg.sender].appointments_[index].timeStart = start;\r\n    }\r\n\r\n    function endAppointment(uint256 index,uint256 end) public{\r\n       require(allDoctors[msg.sender].appointments_[index].status == true,\"You have not completed this appointment\");\r\n        allDoctors[msg.sender].appointments_[index].timeEnd = end;\r\n    }\r\n    \r\n    function getAllDoctor() public view returns(Doctor [] memory alldocs ) {\r\n        Doctor [] memory docs = new Doctor[](doctorCount);\r\n        for(uint i = 0; i < doctorCount ; i++)docs[i] = allDoctors[ alldoctors[i] ];\r\n        return docs;\r\n    }\r\n\r\n    function getOneDoctor(address addr) public view returns (Doctor memory doc){\r\n        Doctor memory d = allDoctors[addr];\r\n        return d;\r\n    }\r\n\r\n}",
  "sourcePath": "G:\\coding\\Projects\\pro-10-bc\\front-2\\truffle\\contracts\\Medical.sol",
  "compiler": {
    "name": "solc",
    "version": "0.8.18+commit.87f61d96.Emscripten.clang"
  },
  "schemaVersion": "3.4.12",
  "updatedAt": "2023-04-17T06:56:08.026Z",
  "networkType": "ethereum",
  "devdoc": {
    "kind": "dev",
    "methods": {},
    "version": 1
  },
  "userdoc": {
    "kind": "user",
    "methods": {},
    "version": 1
  }
}