{
  "contractName": "HealthManagement2",
  "abi": [
    {
      "inputs": [
        {
          "internalType": "uint256",
          "name": "",
          "type": "uint256"
        }
      ],
      "name": "allAppointments",
      "outputs": [
        {
          "internalType": "bool",
          "name": "status",
          "type": "bool"
        },
        {
          "internalType": "address payable",
          "name": "patient_",
          "type": "address"
        },
        {
          "internalType": "address payable",
          "name": "doctor_",
          "type": "address"
        },
        {
          "internalType": "string",
          "name": "patientName",
          "type": "string"
        },
        {
          "internalType": "string",
          "name": "docname",
          "type": "string"
        },
        {
          "internalType": "uint256",
          "name": "timeslot_",
          "type": "uint256"
        },
        {
          "internalType": "uint256",
          "name": "timeStart",
          "type": "uint256"
        },
        {
          "internalType": "uint256",
          "name": "timeEnd",
          "type": "uint256"
        }
      ],
      "stateMutability": "view",
      "type": "function",
      "constant": true
    },
    {
      "inputs": [
        {
          "internalType": "address",
          "name": "",
          "type": "address"
        }
      ],
      "name": "allDoctors",
      "outputs": [
        {
          "internalType": "string",
          "name": "name",
          "type": "string"
        },
        {
          "internalType": "address payable",
          "name": "address_",
          "type": "address"
        },
        {
          "internalType": "uint256",
          "name": "basefee",
          "type": "uint256"
        },
        {
          "internalType": "uint256",
          "name": "starCount",
          "type": "uint256"
        },
        {
          "internalType": "uint256",
          "name": "totalPatients",
          "type": "uint256"
        }
      ],
      "stateMutability": "view",
      "type": "function",
      "constant": true
    },
    {
      "inputs": [
        {
          "internalType": "address",
          "name": "",
          "type": "address"
        }
      ],
      "name": "allPatients",
      "outputs": [
        {
          "internalType": "string",
          "name": "name",
          "type": "string"
        },
        {
          "internalType": "string",
          "name": "email",
          "type": "string"
        },
        {
          "internalType": "address payable",
          "name": "address_",
          "type": "address"
        },
        {
          "internalType": "uint256",
          "name": "phone",
          "type": "uint256"
        },
        {
          "internalType": "uint256",
          "name": "age",
          "type": "uint256"
        },
        {
          "internalType": "string",
          "name": "bloodgroup",
          "type": "string"
        },
        {
          "internalType": "uint256",
          "name": "dob",
          "type": "uint256"
        }
      ],
      "stateMutability": "view",
      "type": "function",
      "constant": true
    },
    {
      "inputs": [
        {
          "internalType": "uint256",
          "name": "",
          "type": "uint256"
        }
      ],
      "name": "allPatientsList",
      "outputs": [
        {
          "internalType": "address",
          "name": "",
          "type": "address"
        }
      ],
      "stateMutability": "view",
      "type": "function",
      "constant": true
    },
    {
      "inputs": [
        {
          "internalType": "uint256",
          "name": "",
          "type": "uint256"
        }
      ],
      "name": "alldoctors",
      "outputs": [
        {
          "internalType": "address",
          "name": "",
          "type": "address"
        }
      ],
      "stateMutability": "view",
      "type": "function",
      "constant": true
    },
    {
      "inputs": [
        {
          "internalType": "address",
          "name": "",
          "type": "address"
        }
      ],
      "name": "isDoctor",
      "outputs": [
        {
          "internalType": "bool",
          "name": "",
          "type": "bool"
        }
      ],
      "stateMutability": "view",
      "type": "function",
      "constant": true
    },
    {
      "inputs": [
        {
          "internalType": "address",
          "name": "",
          "type": "address"
        }
      ],
      "name": "isPatient",
      "outputs": [
        {
          "internalType": "bool",
          "name": "",
          "type": "bool"
        }
      ],
      "stateMutability": "view",
      "type": "function",
      "constant": true
    },
    {
      "inputs": [
        {
          "internalType": "string",
          "name": "name",
          "type": "string"
        },
        {
          "internalType": "uint256",
          "name": "phone",
          "type": "uint256"
        },
        {
          "internalType": "uint256",
          "name": "age",
          "type": "uint256"
        },
        {
          "internalType": "uint256",
          "name": "dob",
          "type": "uint256"
        },
        {
          "internalType": "string",
          "name": "email",
          "type": "string"
        }
      ],
      "name": "addPatient",
      "outputs": [],
      "stateMutability": "nonpayable",
      "type": "function"
    },
    {
      "inputs": [
        {
          "internalType": "address",
          "name": "addr",
          "type": "address"
        }
      ],
      "name": "getPatientDetails",
      "outputs": [
        {
          "internalType": "string",
          "name": "name",
          "type": "string"
        },
        {
          "internalType": "string",
          "name": "email",
          "type": "string"
        },
        {
          "internalType": "uint256",
          "name": "age",
          "type": "uint256"
        },
        {
          "internalType": "uint256",
          "name": "phone",
          "type": "uint256"
        },
        {
          "internalType": "string",
          "name": "bloodgroup",
          "type": "string"
        },
        {
          "internalType": "uint256",
          "name": "dob",
          "type": "uint256"
        },
        {
          "components": [
            {
              "internalType": "string",
              "name": "docname",
              "type": "string"
            },
            {
              "internalType": "string",
              "name": "fileHashes",
              "type": "string"
            },
            {
              "internalType": "string",
              "name": "presciptions",
              "type": "string"
            },
            {
              "internalType": "address payable",
              "name": "doctor_",
              "type": "address"
            },
            {
              "internalType": "uint256",
              "name": "timeStamp",
              "type": "uint256"
            },
            {
              "internalType": "uint256",
              "name": "amount",
              "type": "uint256"
            },
            {
              "internalType": "string",
              "name": "patientName",
              "type": "string"
            },
            {
              "internalType": "address payable",
              "name": "patientaddr",
              "type": "address"
            }
          ],
          "internalType": "struct HealthManagement2.Record[]",
          "name": "recordss",
          "type": "tuple[]"
        }
      ],
      "stateMutability": "view",
      "type": "function",
      "constant": true
    },
    {
      "inputs": [
        {
          "internalType": "string",
          "name": "currentfiles",
          "type": "string"
        },
        {
          "internalType": "string",
          "name": "presciptions",
          "type": "string"
        },
        {
          "internalType": "address payable",
          "name": "doctor_",
          "type": "address"
        },
        {
          "internalType": "string",
          "name": "docname",
          "type": "string"
        },
        {
          "internalType": "string",
          "name": "patientName",
          "type": "string"
        },
        {
          "internalType": "address payable",
          "name": "patientaddr",
          "type": "address"
        }
      ],
      "name": "addPatientRecord",
      "outputs": [],
      "stateMutability": "payable",
      "type": "function",
      "payable": true
    },
    {
      "inputs": [
        {
          "internalType": "address",
          "name": "addr",
          "type": "address"
        }
      ],
      "name": "getPatientRecords",
      "outputs": [
        {
          "components": [
            {
              "internalType": "string",
              "name": "docname",
              "type": "string"
            },
            {
              "internalType": "string",
              "name": "fileHashes",
              "type": "string"
            },
            {
              "internalType": "string",
              "name": "presciptions",
              "type": "string"
            },
            {
              "internalType": "address payable",
              "name": "doctor_",
              "type": "address"
            },
            {
              "internalType": "uint256",
              "name": "timeStamp",
              "type": "uint256"
            },
            {
              "internalType": "uint256",
              "name": "amount",
              "type": "uint256"
            },
            {
              "internalType": "string",
              "name": "patientName",
              "type": "string"
            },
            {
              "internalType": "address payable",
              "name": "patientaddr",
              "type": "address"
            }
          ],
          "internalType": "struct HealthManagement2.Record[]",
          "name": "records",
          "type": "tuple[]"
        }
      ],
      "stateMutability": "view",
      "type": "function",
      "constant": true
    },
    {
      "inputs": [
        {
          "internalType": "address",
          "name": "addr",
          "type": "address"
        },
        {
          "internalType": "uint256",
          "name": "index",
          "type": "uint256"
        }
      ],
      "name": "getOneRecord",
      "outputs": [
        {
          "components": [
            {
              "internalType": "string",
              "name": "docname",
              "type": "string"
            },
            {
              "internalType": "string",
              "name": "fileHashes",
              "type": "string"
            },
            {
              "internalType": "string",
              "name": "presciptions",
              "type": "string"
            },
            {
              "internalType": "address payable",
              "name": "doctor_",
              "type": "address"
            },
            {
              "internalType": "uint256",
              "name": "timeStamp",
              "type": "uint256"
            },
            {
              "internalType": "uint256",
              "name": "amount",
              "type": "uint256"
            },
            {
              "internalType": "string",
              "name": "patientName",
              "type": "string"
            },
            {
              "internalType": "address payable",
              "name": "patientaddr",
              "type": "address"
            }
          ],
          "internalType": "struct HealthManagement2.Record",
          "name": "rec",
          "type": "tuple"
        }
      ],
      "stateMutability": "view",
      "type": "function",
      "constant": true
    }
  ],
  "bytecode": "0x608060405234801561001057600080fd5b5061230c806100206000396000f3fe6080604052600436106100c4576000357c010000000000000000000000000000000000000000000000000000000090048063996440c611610081578063996440c6146101d9578063b6ad101514610209578063cd25d7be1461023a578063e3a3bf9c1461026d578063efe2ccc1146102a1578063ff68115b146102d457600080fd5b806318bd4847146100c9578063285a3807146100ff57806338638c81146101375780637966c8021461014c5780638b0920fe146101795780638f9c79ed14610199575b600080fd5b3480156100d557600080fd5b506100e96100e4366004611ba8565b6102f4565b6040516100f69190611d21565b60405180910390f35b34801561010b57600080fd5b5061011f61011a366004611d34565b61063c565b604051600160a060020a0390911681526020016100f6565b61014a610145366004611e03565b610666565b005b34801561015857600080fd5b5061016c610167366004611ed0565b610946565b6040516100f69190611efc565b34801561018557600080fd5b5061014a610194366004611f0f565b610c79565b3480156101a557600080fd5b506101c96101b4366004611ba8565b60066020526000908152604090205460ff1681565b60405190151581526020016100f6565b3480156101e557600080fd5b506101c96101f4366004611ba8565b60046020526000908152604090205460ff1681565b34801561021557600080fd5b50610229610224366004611ba8565b611008565b6040516100f6959493929190611f90565b34801561024657600080fd5b5061025a610255366004611ba8565b6110c9565b6040516100f69796959493929190611fd0565b34801561027957600080fd5b5061028d610288366004611d34565b6112aa565b6040516100f6989796959493929190612039565b3480156102ad57600080fd5b506102c16102bc366004611ba8565b61141e565b6040516100f697969594939291906120a3565b3480156102e057600080fd5b5061011f6102ef366004611d34565b611b80565b600160a060020a03811660009081526006602052604090205460609060ff1661033b5760405160e560020a62461bcd02815260040161033290612110565b60405180910390fd5b600160a060020a038216600090815260076020908152604080832060050180548251818502810185019093528083529192909190849084015b828210156106305783829060005260206000209060080201604051806101000160405290816000820180546103a890612147565b80601f01602080910402602001604051908101604052809291908181526020018280546103d490612147565b80156104215780601f106103f657610100808354040283529160200191610421565b820191906000526020600020905b81548152906001019060200180831161040457829003601f168201915b5050505050815260200160018201805461043a90612147565b80601f016020809104026020016040519081016040528092919081815260200182805461046690612147565b80156104b35780601f10610488576101008083540402835291602001916104b3565b820191906000526020600020905b81548152906001019060200180831161049657829003601f168201915b505050505081526020016002820180546104cc90612147565b80601f01602080910402602001604051908101604052809291908181526020018280546104f890612147565b80156105455780601f1061051a57610100808354040283529160200191610545565b820191906000526020600020905b81548152906001019060200180831161052857829003601f168201915b50505091835250506003820154600160a060020a03166020820152600482015460408201526005820154606082015260068201805460809092019161058990612147565b80601f01602080910402602001604051908101604052809291908181526020018280546105b590612147565b80156106025780601f106105d757610100808354040283529160200191610602565b820191906000526020600020905b8154815290600101906020018083116105e557829003601f168201915b505050918352505060079190910154600160a060020a03166020918201529082526001929092019101610374565b50929695505050505050565b6002818154811061064c57600080fd5b600091825260209091200154600160a060020a0316905081565b600160a060020a03811660009081526006602052604090205460ff166106a15760405160e560020a62461bcd02815260040161033290612110565b3360009081526004602052604090205460ff166107035760405160e560020a62461bcd02815260206004820152601460248201527f596f7520617265206e6f74206120446f63746f720000000000000000000000006044820152606401610332565b600160a060020a0380821660008181526007602090815260408083208151610100810183528981528084018d90529182018b905294891660608201524260808201523460a082015260c0810187905260e081019390935260059093018054600181018255908252929020815191926008020190819061078290826121d3565b506020820151600182019061079790826121d3565b50604082015160028201906107ac90826121d3565b506060820151600382018054600160a060020a031916600160a060020a039092169190911790556080820151600482015560a0820151600582015560c082015160068201906107fb90826121d3565b5060e0918201516007919091018054600160a060020a031916600160a060020a0392831617905585811660008181526005602090815260408083208151610100810183528a81528084018e90529182018c905260608201949094524260808201523460a082015260c081018890529386169484019490945260069091018054600181018255908252929020815191926008020190819061089b90826121d3565b50602082015160018201906108b090826121d3565b50604082015160028201906108c590826121d3565b506060820151600382018054600160a060020a031916600160a060020a039092169190911790556080820151600482015560a0820151600582015560c0820151600682019061091490826121d3565b5060e0919091015160079091018054600160a060020a031916600160a060020a03909216919091179055505050505050565b6109a06040518061010001604052806060815260200160608152602001606081526020016000600160a060020a031681526020016000815260200160008152602001606081526020016000600160a060020a031681525090565b600160a060020a03831660009081526007602052604081206005018054849081106109cd576109cd612299565b9060005260206000209060080201604051806101000160405290816000820180546109f790612147565b80601f0160208091040260200160405190810160405280929190818152602001828054610a2390612147565b8015610a705780601f10610a4557610100808354040283529160200191610a70565b820191906000526020600020905b815481529060010190602001808311610a5357829003601f168201915b50505050508152602001600182018054610a8990612147565b80601f0160208091040260200160405190810160405280929190818152602001828054610ab590612147565b8015610b025780601f10610ad757610100808354040283529160200191610b02565b820191906000526020600020905b815481529060010190602001808311610ae557829003601f168201915b50505050508152602001600282018054610b1b90612147565b80601f0160208091040260200160405190810160405280929190818152602001828054610b4790612147565b8015610b945780601f10610b6957610100808354040283529160200191610b94565b820191906000526020600020905b815481529060010190602001808311610b7757829003601f168201915b50505091835250506003820154600160a060020a031660208201526004820154604082015260058201546060820152600682018054608090920191610bd890612147565b80601f0160208091040260200160405190810160405280929190818152602001828054610c0490612147565b8015610c515780601f10610c2657610100808354040283529160200191610c51565b820191906000526020600020905b815481529060010190602001808311610c3457829003601f168201915b505050918352505060079190910154600160a060020a03166020909101529150505b92915050565b3360009081526006602052604090205460ff1615610cdc5760405160e560020a62461bcd02815260206004820152601a60248201527f596f752061726520616c726561647920612070617469656e74200000000000006044820152606401610332565b336000908152600660209081526040808320805460ff1916600117905560079091529020610d0a86826121d3565b50336000818152600760208190526040909120600281018054600160a060020a03191690931790925560048201859055600382018690558101839055600101610d5382826121d3565b506040805161014081018252600161010082018181527f610000000000000000000000000000000000000000000000000000000000000061012084018190529083528351808501855282815260208181018390528085019190915284518086018652838152808201839052848601523360608501819052600a6080860181905260a0860152855180870187528481528083019390935260c085019290925260e08401829052600091825260078152938120600501805492830181558152929092208151919283926008909102909101908190610e2f90826121d3565b5060208201516001820190610e4490826121d3565b5060408201516002820190610e5990826121d3565b506060820151600382018054600160a060020a031916600160a060020a039092169190911790556080820151600482015560a0820151600582015560c08201516006820190610ea890826121d3565b5060e0919091015160079182018054600160a060020a031916600160a060020a03909216919091179055336000908152602091825260408120600501805460018101825590825291902082518392600802909101908190610f0990826121d3565b5060208201516001820190610f1e90826121d3565b5060408201516002820190610f3390826121d3565b506060820151600382018054600160a060020a031916600160a060020a039092169190911790556080820151600482015560a0820151600582015560c08201516006820190610f8290826121d3565b5060e0919091015160079091018054600160a060020a03909216600160a060020a0319928316179055600380546001818101835560009283527fc2575a0e9e593c00f959f8c92f12db2869c3395a3b0502d05e2516446f71f85b9091018054909316331790925560088054909190610ffb9084906122b2565b9091555050505050505050565b60056020526000908152604090208054819061102390612147565b80601f016020809104026020016040519081016040528092919081815260200182805461104f90612147565b801561109c5780601f106110715761010080835404028352916020019161109c565b820191906000526020600020905b81548152906001019060200180831161107f57829003601f168201915b505050506001830154600284015460038501546004909501549394600160a060020a039092169390925085565b6007602052600090815260409020805481906110e490612147565b80601f016020809104026020016040519081016040528092919081815260200182805461111090612147565b801561115d5780601f106111325761010080835404028352916020019161115d565b820191906000526020600020905b81548152906001019060200180831161114057829003601f168201915b50505050509080600101805461117290612147565b80601f016020809104026020016040519081016040528092919081815260200182805461119e90612147565b80156111eb5780601f106111c0576101008083540402835291602001916111eb565b820191906000526020600020905b8154815290600101906020018083116111ce57829003601f168201915b5050506002840154600385015460048601546006870180549697600160a060020a03909416969295509093509061122190612147565b80601f016020809104026020016040519081016040528092919081815260200182805461124d90612147565b801561129a5780601f1061126f5761010080835404028352916020019161129a565b820191906000526020600020905b81548152906001019060200180831161127d57829003601f168201915b5050505050908060070154905087565b600181815481106112ba57600080fd5b600091825260209091206007909102018054600182015460028301805460ff84169550610100909304600160a060020a03908116949216926112fb90612147565b80601f016020809104026020016040519081016040528092919081815260200182805461132790612147565b80156113745780601f1061134957610100808354040283529160200191611374565b820191906000526020600020905b81548152906001019060200180831161135757829003601f168201915b50505050509080600301805461138990612147565b80601f01602080910402602001604051908101604052809291908181526020018280546113b590612147565b80156114025780601f106113d757610100808354040283529160200191611402565b820191906000526020600020905b8154815290600101906020018083116113e557829003601f168201915b5050505050908060040154908060050154908060060154905088565b600160a060020a0381166000908152600660205260408120546060918291819083908290829060ff166114665760405160e560020a62461bcd02815260040161033290612110565b600160a060020a0388166000908152600760205260408082208151610120810190925280548290829061149890612147565b80601f01602080910402602001604051908101604052809291908181526020018280546114c490612147565b80156115115780601f106114e657610100808354040283529160200191611511565b820191906000526020600020905b8154815290600101906020018083116114f457829003601f168201915b5050505050815260200160018201805461152a90612147565b80601f016020809104026020016040519081016040528092919081815260200182805461155690612147565b80156115a35780601f10611578576101008083540402835291602001916115a3565b820191906000526020600020905b81548152906001019060200180831161158657829003601f168201915b505050505081526020016002820160009054906101000a9004600160a060020a0316600160a060020a0316600160a060020a03168152602001600382015481526020016004820154815260200160058201805480602002602001604051908101604052809291908181526020016000905b828210156118d057838290600052602060002090600802016040518061010001604052908160008201805461164890612147565b80601f016020809104026020016040519081016040528092919081815260200182805461167490612147565b80156116c15780601f10611696576101008083540402835291602001916116c1565b820191906000526020600020905b8154815290600101906020018083116116a457829003601f168201915b505050505081526020016001820180546116da90612147565b80601f016020809104026020016040519081016040528092919081815260200182805461170690612147565b80156117535780601f1061172857610100808354040283529160200191611753565b820191906000526020600020905b81548152906001019060200180831161173657829003601f168201915b5050505050815260200160028201805461176c90612147565b80601f016020809104026020016040519081016040528092919081815260200182805461179890612147565b80156117e55780601f106117ba576101008083540402835291602001916117e5565b820191906000526020600020905b8154815290600101906020018083116117c857829003601f168201915b50505091835250506003820154600160a060020a03166020820152600482015460408201526005820154606082015260068201805460809092019161182990612147565b80601f016020809104026020016040519081016040528092919081815260200182805461185590612147565b80156118a25780601f10611877576101008083540402835291602001916118a2565b820191906000526020600020905b81548152906001019060200180831161188557829003601f168201915b505050918352505060079190910154600160a060020a03166020918201529082526001929092019101611614565b5050505081526020016006820180546118e890612147565b80601f016020809104026020016040519081016040528092919081815260200182805461191490612147565b80156119615780601f1061193657610100808354040283529160200191611961565b820191906000526020600020905b81548152906001019060200180831161194457829003601f168201915b505050505081526020016007820154815260200160088201805480602002602001604051908101604052809291908181526020016000905b82821015611b4157600084815260209081902060408051610100808201835260078702909301805460ff81161515835293909304600160a060020a0390811694820194909452600183015490931690830152600281018054606084019190611a0090612147565b80601f0160208091040260200160405190810160405280929190818152602001828054611a2c90612147565b8015611a795780601f10611a4e57610100808354040283529160200191611a79565b820191906000526020600020905b815481529060010190602001808311611a5c57829003601f168201915b50505050508152602001600382018054611a9290612147565b80601f0160208091040260200160405190810160405280929190818152602001828054611abe90612147565b8015611b0b5780601f10611ae057610100808354040283529160200191611b0b565b820191906000526020600020905b815481529060010190602001808311611aee57829003601f168201915b50505050508152602001600482015481526020016005820154815260200160068201548152505081526020019060010190611999565b50505091525050805160208201516080830151606084015160c085015160e086015160a090960151949f939e50919c509a509850919650945092505050565b6003818154811061064c57600080fd5b600160a060020a0381168114611ba557600080fd5b50565b600060208284031215611bba57600080fd5b8135611bc581611b90565b9392505050565b6000815180845260005b81811015611bf257602081850181015186830182015201611bd6565b506000602082860101526020601f19601f83011685010191505092915050565b60006101008251818552611c2882860182611bcc565b91505060208301518482036020860152611c428282611bcc565b91505060408301518482036040860152611c5c8282611bcc565b9150506060830151611c796060860182600160a060020a03169052565b506080830151608085015260a083015160a085015260c083015184820360c0860152611ca58282611bcc565b91505060e0830151611cc260e0860182600160a060020a03169052565b509392505050565b6000828251808552602080860195508081830284010181860160005b84811015611d1457601f19868403018952611d02838351611c12565b98840198925090830190600101611ce6565b5090979650505050505050565b602081526000611bc56020830184611cca565b600060208284031215611d4657600080fd5b5035919050565b60e060020a634e487b7102600052604160045260246000fd5b600082601f830112611d7757600080fd5b813567ffffffffffffffff80821115611d9257611d92611d4d565b604051601f8301601f19908116603f01168101908282118183101715611dba57611dba611d4d565b81604052838152866020858801011115611dd357600080fd5b836020870160208301376000602085830101528094505050505092915050565b8035611dfe81611b90565b919050565b60008060008060008060c08789031215611e1c57600080fd5b863567ffffffffffffffff80821115611e3457600080fd5b611e408a838b01611d66565b97506020890135915080821115611e5657600080fd5b611e628a838b01611d66565b9650611e7060408a01611df3565b95506060890135915080821115611e8657600080fd5b611e928a838b01611d66565b94506080890135915080821115611ea857600080fd5b50611eb589828a01611d66565b925050611ec460a08801611df3565b90509295509295509295565b60008060408385031215611ee357600080fd5b8235611eee81611b90565b946020939093013593505050565b602081526000611bc56020830184611c12565b600080600080600060a08688031215611f2757600080fd5b853567ffffffffffffffff80821115611f3f57600080fd5b611f4b89838a01611d66565b96506020880135955060408801359450606088013593506080880135915080821115611f7657600080fd5b50611f8388828901611d66565b9150509295509295909350565b60a081526000611fa360a0830188611bcc565b9050600160a060020a03861660208301528460408301528360608301528260808301529695505050505050565b60e081526000611fe360e083018a611bcc565b8281036020840152611ff5818a611bcc565b9050600160a060020a038816604084015286606084015285608084015282810360a08401526120248186611bcc565b9150508260c083015298975050505050505050565b60006101008a15158352600160a060020a03808b166020850152808a1660408501525080606084015261206e81840189611bcc565b905082810360808401526120828188611bcc565b60a0840196909652505060c081019290925260e09091015295945050505050565b60e0815260006120b660e083018a611bcc565b82810360208401526120c8818a611bcc565b905087604084015286606084015282810360808401526120e88187611bcc565b90508460a084015282810360c08401526121028185611cca565b9a9950505050505050505050565b60208082526015908201527f596f7520617265206e6f7420612070617469656e740000000000000000000000604082015260600190565b60028104600182168061215b57607f821691505b60208210810361217e5760e060020a634e487b7102600052602260045260246000fd5b50919050565b601f8211156121ce576000818152602081206020601f860104810160208610156121ab5750805b6020601f860104820191505b818110156121ca578281556001016121b7565b5050505b505050565b815167ffffffffffffffff8111156121ed576121ed611d4d565b612201816121fb8454612147565b84612184565b602080601f83116001811461223a576000841561221e5750858301515b60028086026008870290910a60001904198216178655506121ca565b600085815260208120601f198616915b828110156122695788860151825594840194600190910190840161224a565b508582101561228957878501516008601f88160260020a60001904191681555b5050505050600202600101905550565b60e060020a634e487b7102600052603260045260246000fd5b80820180821115610c735760e060020a634e487b7102600052601160045260246000fdfea264697066735822122057eff1715e5d099638d0faeefdcd401b85fd5fc49c304ebb3980b83e63576ffe64736f6c63430008120033",
  "immutableReferences": {},
  "source": "// SPDX-License-Identifier: GPL-3.0\r\npragma solidity >=0.7.0 <0.9.0;\r\n\r\ncontract HealthManagement2 {\r\n  struct Record{\r\n        // string [] fileHashes;\r\n        string docname;\r\n        string fileHashes;\r\n        string presciptions;\r\n        address payable doctor_;\r\n        uint256 timeStamp;\r\n        uint256 amount;\r\n        string patientName;\r\n        address payable patientaddr;\r\n        // MedicinePrescription[] medicines;    \r\n    }\r\n\r\n    struct Appointment{\r\n        // address doctor_;\r\n        bool status;\r\n        address payable patient_;\r\n        address payable doctor_;\r\n        string patientName;\r\n        string docname;\r\n        uint256 timeslot_;\r\n        uint256 timeStart;\r\n        uint256 timeEnd;\r\n    }\r\n\r\n    // PATIENTS :\r\n    struct Patient{\r\n        string name;\r\n        string email;\r\n        address payable address_;\r\n        uint256 phone;\r\n        uint256 age;\r\n        Record [] records_;\r\n        string bloodgroup;\r\n        uint256 dob;\r\n        Appointment [] myAppointments;\r\n    }\r\n\r\n    struct Doctor{\r\n        string name;\r\n        address payable address_;\r\n        // address [] doctorToPatient;\r\n        uint256 basefee;\r\n        uint256 starCount;\r\n        uint256 totalPatients;\r\n        Appointment []  appointments_;\r\n        Record [] records_;\r\n        // mapping( address => uint) myPatients;\r\n    }\r\n\r\n    address owner_;\r\n\r\n    Appointment [] public allAppointments;\r\n    address [] public alldoctors;\r\n    address []public allPatientsList;\r\n\r\n    mapping (address=>bool)public isDoctor;\r\n    mapping (address => Doctor)public allDoctors;\r\n    mapping( address => bool)public isPatient;\r\n    // mapping( address => bool)public isDoctor;\r\n    mapping( address => Patient) public allPatients;\r\n    // mapping( address => Record []) public patientRecords;\r\n\r\n    uint256 patientCount;\r\n    uint256 doctorCount ;\r\n    uint256 appointmentCount;\r\n\r\n    \r\n    function  addPatient(string memory name,uint256 phone,uint256 age,uint256 dob,string memory email) public {\r\n        require(isPatient[msg.sender] == false,\"You are already a patient \");\r\n        isPatient[msg.sender] = true;\r\n        allPatients[msg.sender].name= name;\r\n        allPatients[msg.sender].address_= payable((msg.sender));\r\n        allPatients[msg.sender].age= age;\r\n        allPatients[msg.sender].phone= phone;\r\n        allPatients[msg.sender].dob= dob;\r\n        allPatients[msg.sender].email= email;\r\n        Record memory r1= Record(\r\n            \"a\",\"a\",\"a\",payable(msg.sender),10,10,\"a\",payable(msg.sender)\r\n        );\r\n        allPatients[msg.sender].records_.push(r1);\r\n        allPatients[msg.sender].records_.push(r1);\r\n        // Record [] records_\r\n        // allPatients[msg.sender].records_ =Record [] ;\r\n        // allPatients[msg.sender].records_= new Record[](0)  ;\r\n        // Record [] storage  r = new Record [](0) ; \r\n        // Record [] memory r = new Record [](0) ;\r\n        // allPatients[msg.sender].records_=r;\r\n        allPatientsList.push(msg.sender);\r\n        patientCount+=1;\r\n    } \r\n\r\n    function getPatientDetails(address addr) public view returns(\r\n        string memory name,string memory email,uint256  age, uint256  phone,\r\n        string memory bloodgroup , uint256  dob ,Record [] memory recordss) {\r\n\r\n        require(isPatient[addr],\"You are not a patient\");\r\n        Patient memory p = allPatients[addr];\r\n        return (p.name,p.email,p.age,p.phone,p.bloodgroup,p.dob,p.records_);\r\n    }\r\n    \r\n    function addPatientRecord(\r\n        string memory currentfiles,\r\n        string memory presciptions,\r\n        address payable doctor_,\r\n        string memory docname,\r\n        string memory patientName,\r\n        address payable patientaddr\r\n        ) public payable {\r\n\r\n        require(isPatient[patientaddr],\"You are not a patient\");\r\n        require(isDoctor[msg.sender],\"You are not a Doctor\");\r\n        // might have to do storage\r\n\r\n        allPatients[patientaddr].records_.push(Record(docname,currentfiles,presciptions,doctor_,block.timestamp,msg.value  ,patientName,patientaddr));\r\n        allDoctors[doctor_].records_.push(Record(docname,currentfiles,presciptions,doctor_,block.timestamp,msg.value,patientName,patientaddr));\r\n        \r\n    }\r\n    \r\n    function getPatientRecords(address addr) public view returns( Record[] memory records ) {\r\n        require(isPatient[addr],\"You are not a patient\");\r\n        Record [] memory r = allPatients[addr].records_;\r\n        return (r);\r\n    }\r\n\r\n    function getOneRecord(address addr,uint256 index) public view returns (Record memory rec) {\r\n        Record memory r = allPatients[addr].records_[index];\r\n        return (r);\r\n    }\r\n\r\n    // function getRecordOfOnePatient(address p) public view returns ( Record[] memory doctorRecord ){\r\n    //     Patient memory P = allPatients[p];\r\n    //     uint count = 0;\r\n    //     uint len = P.records_.length;\r\n    //     uint pos = 0;\r\n    //     require(len > 0 ,\"No data\");\r\n    //     // if(len == 0)return ;\r\n    //     for(uint i=0 ; i < P.records_.length  ;i++)\r\n    //         if(P.records_[i].doctor_ == msg.sender)count+=1;\r\n        \r\n    //     Record [] memory temp = new Record[](count) ;\r\n\r\n    //     for(uint i=0 ; i < P.records_.length  ;i++)\r\n    //         if(P.records_[i].doctor_ == msg.sender){\r\n    //            temp[pos] = P.records_[i];\r\n    //            pos++;\r\n    //         }\r\n\r\n    //     return (temp);\r\n    // }\r\n   \r\n}",
  "sourcePath": "G:\\coding\\Projects\\pro-10-bc\\front-2\\truffle\\contracts\\Medical_2.sol",
  "compiler": {
    "name": "solc",
    "version": "0.8.18+commit.87f61d96.Emscripten.clang"
  },
  "schemaVersion": "3.4.12",
  "updatedAt": "2023-04-15T15:27:10.090Z",
  "networkType": "ethereum",
  "devdoc": {
    "kind": "dev",
    "methods": {},
    "version": 1
  },
  "userdoc": {
    "kind": "user",
    "methods": {},
    "version": 1
  }
}