{
  "contractName": "HealthManagement",
  "abi": [
    {
      "inputs": [],
      "stateMutability": "nonpayable",
      "type": "constructor"
    },
    {
      "inputs": [
        {
          "internalType": "string",
          "name": "name",
          "type": "string"
        },
        {
          "internalType": "uint256",
          "name": "phone",
          "type": "uint256"
        },
        {
          "internalType": "uint256",
          "name": "age",
          "type": "uint256"
        },
        {
          "internalType": "uint256",
          "name": "dob",
          "type": "uint256"
        },
        {
          "internalType": "string",
          "name": "email",
          "type": "string"
        }
      ],
      "name": "addPatient",
      "outputs": [],
      "stateMutability": "nonpayable",
      "type": "function"
    },
    {
      "inputs": [
        {
          "internalType": "string",
          "name": "currentfiles",
          "type": "string"
        },
        {
          "internalType": "string",
          "name": "presciptions",
          "type": "string"
        },
        {
          "internalType": "string",
          "name": "finalRemarks",
          "type": "string"
        },
        {
          "internalType": "address",
          "name": "doctor_",
          "type": "address"
        },
        {
          "internalType": "address",
          "name": "patientaddr",
          "type": "address"
        }
      ],
      "name": "addPatientRecord",
      "outputs": [],
      "stateMutability": "payable",
      "type": "function",
      "payable": true
    },
    {
      "inputs": [
        {
          "internalType": "uint256",
          "name": "",
          "type": "uint256"
        }
      ],
      "name": "allAppointments",
      "outputs": [
        {
          "internalType": "bool",
          "name": "status",
          "type": "bool"
        },
        {
          "internalType": "address payable",
          "name": "patient_",
          "type": "address"
        },
        {
          "internalType": "address payable",
          "name": "doctor_",
          "type": "address"
        },
        {
          "internalType": "string",
          "name": "patientName",
          "type": "string"
        },
        {
          "internalType": "string",
          "name": "docname",
          "type": "string"
        },
        {
          "internalType": "uint256",
          "name": "timeslot_",
          "type": "uint256"
        },
        {
          "internalType": "uint256",
          "name": "timeStart",
          "type": "uint256"
        },
        {
          "internalType": "uint256",
          "name": "timeEnd",
          "type": "uint256"
        },
        {
          "internalType": "uint256",
          "name": "id",
          "type": "uint256"
        }
      ],
      "stateMutability": "view",
      "type": "function",
      "constant": true
    },
    {
      "inputs": [
        {
          "internalType": "address",
          "name": "",
          "type": "address"
        }
      ],
      "name": "allDoctors",
      "outputs": [
        {
          "internalType": "string",
          "name": "name",
          "type": "string"
        },
        {
          "internalType": "string",
          "name": "email",
          "type": "string"
        },
        {
          "internalType": "address payable",
          "name": "address_",
          "type": "address"
        },
        {
          "internalType": "uint256",
          "name": "basefee",
          "type": "uint256"
        },
        {
          "internalType": "uint256",
          "name": "starCount",
          "type": "uint256"
        },
        {
          "internalType": "uint256",
          "name": "totalPatients",
          "type": "uint256"
        }
      ],
      "stateMutability": "view",
      "type": "function",
      "constant": true
    },
    {
      "inputs": [
        {
          "internalType": "address",
          "name": "",
          "type": "address"
        }
      ],
      "name": "allPatients",
      "outputs": [
        {
          "internalType": "string",
          "name": "name",
          "type": "string"
        },
        {
          "internalType": "string",
          "name": "email",
          "type": "string"
        },
        {
          "internalType": "address payable",
          "name": "address_",
          "type": "address"
        },
        {
          "internalType": "uint256",
          "name": "phone",
          "type": "uint256"
        },
        {
          "internalType": "uint256",
          "name": "age",
          "type": "uint256"
        },
        {
          "internalType": "string",
          "name": "bloodgroup",
          "type": "string"
        },
        {
          "internalType": "uint256",
          "name": "dob",
          "type": "uint256"
        }
      ],
      "stateMutability": "view",
      "type": "function",
      "constant": true
    },
    {
      "inputs": [
        {
          "internalType": "uint256",
          "name": "",
          "type": "uint256"
        }
      ],
      "name": "allPatientsList",
      "outputs": [
        {
          "internalType": "address",
          "name": "",
          "type": "address"
        }
      ],
      "stateMutability": "view",
      "type": "function",
      "constant": true
    },
    {
      "inputs": [
        {
          "internalType": "uint256",
          "name": "",
          "type": "uint256"
        }
      ],
      "name": "alldoctors",
      "outputs": [
        {
          "internalType": "address",
          "name": "",
          "type": "address"
        }
      ],
      "stateMutability": "view",
      "type": "function",
      "constant": true
    },
    {
      "inputs": [
        {
          "internalType": "address",
          "name": "docAdd",
          "type": "address"
        }
      ],
      "name": "getDoctorAppointment",
      "outputs": [
        {
          "components": [
            {
              "internalType": "bool",
              "name": "status",
              "type": "bool"
            },
            {
              "internalType": "address payable",
              "name": "patient_",
              "type": "address"
            },
            {
              "internalType": "address payable",
              "name": "doctor_",
              "type": "address"
            },
            {
              "internalType": "string",
              "name": "patientName",
              "type": "string"
            },
            {
              "internalType": "string",
              "name": "docname",
              "type": "string"
            },
            {
              "internalType": "uint256",
              "name": "timeslot_",
              "type": "uint256"
            },
            {
              "internalType": "uint256",
              "name": "timeStart",
              "type": "uint256"
            },
            {
              "internalType": "uint256",
              "name": "timeEnd",
              "type": "uint256"
            },
            {
              "internalType": "uint256",
              "name": "id",
              "type": "uint256"
            }
          ],
          "internalType": "struct HealthManagement2.Appointment[]",
          "name": "app",
          "type": "tuple[]"
        }
      ],
      "stateMutability": "view",
      "type": "function",
      "constant": true
    },
    {
      "inputs": [
        {
          "internalType": "address",
          "name": "addr",
          "type": "address"
        },
        {
          "internalType": "uint256",
          "name": "index",
          "type": "uint256"
        }
      ],
      "name": "getOneRecord",
      "outputs": [
        {
          "components": [
            {
              "internalType": "string",
              "name": "docname",
              "type": "string"
            },
            {
              "internalType": "string",
              "name": "fileHashes",
              "type": "string"
            },
            {
              "internalType": "string",
              "name": "presciptions",
              "type": "string"
            },
            {
              "internalType": "string",
              "name": "finalRemarks",
              "type": "string"
            },
            {
              "internalType": "address payable",
              "name": "doctor_",
              "type": "address"
            },
            {
              "internalType": "uint256",
              "name": "timeStamp",
              "type": "uint256"
            },
            {
              "internalType": "uint256",
              "name": "amount",
              "type": "uint256"
            },
            {
              "internalType": "string",
              "name": "patientName",
              "type": "string"
            },
            {
              "internalType": "address payable",
              "name": "patientaddr",
              "type": "address"
            }
          ],
          "internalType": "struct HealthManagement2.Record",
          "name": "rec",
          "type": "tuple"
        }
      ],
      "stateMutability": "view",
      "type": "function",
      "constant": true
    },
    {
      "inputs": [
        {
          "internalType": "address",
          "name": "patAdd",
          "type": "address"
        }
      ],
      "name": "getPatientAppointment",
      "outputs": [
        {
          "components": [
            {
              "internalType": "bool",
              "name": "status",
              "type": "bool"
            },
            {
              "internalType": "address payable",
              "name": "patient_",
              "type": "address"
            },
            {
              "internalType": "address payable",
              "name": "doctor_",
              "type": "address"
            },
            {
              "internalType": "string",
              "name": "patientName",
              "type": "string"
            },
            {
              "internalType": "string",
              "name": "docname",
              "type": "string"
            },
            {
              "internalType": "uint256",
              "name": "timeslot_",
              "type": "uint256"
            },
            {
              "internalType": "uint256",
              "name": "timeStart",
              "type": "uint256"
            },
            {
              "internalType": "uint256",
              "name": "timeEnd",
              "type": "uint256"
            },
            {
              "internalType": "uint256",
              "name": "id",
              "type": "uint256"
            }
          ],
          "internalType": "struct HealthManagement2.Appointment[]",
          "name": "app",
          "type": "tuple[]"
        }
      ],
      "stateMutability": "view",
      "type": "function",
      "constant": true
    },
    {
      "inputs": [
        {
          "internalType": "address",
          "name": "addr",
          "type": "address"
        }
      ],
      "name": "getPatientDetails",
      "outputs": [
        {
          "internalType": "string",
          "name": "name",
          "type": "string"
        },
        {
          "internalType": "string",
          "name": "email",
          "type": "string"
        },
        {
          "internalType": "uint256",
          "name": "age",
          "type": "uint256"
        },
        {
          "internalType": "uint256",
          "name": "phone",
          "type": "uint256"
        },
        {
          "internalType": "string",
          "name": "bloodgroup",
          "type": "string"
        },
        {
          "internalType": "uint256",
          "name": "dob",
          "type": "uint256"
        },
        {
          "components": [
            {
              "internalType": "string",
              "name": "docname",
              "type": "string"
            },
            {
              "internalType": "string",
              "name": "fileHashes",
              "type": "string"
            },
            {
              "internalType": "string",
              "name": "presciptions",
              "type": "string"
            },
            {
              "internalType": "string",
              "name": "finalRemarks",
              "type": "string"
            },
            {
              "internalType": "address payable",
              "name": "doctor_",
              "type": "address"
            },
            {
              "internalType": "uint256",
              "name": "timeStamp",
              "type": "uint256"
            },
            {
              "internalType": "uint256",
              "name": "amount",
              "type": "uint256"
            },
            {
              "internalType": "string",
              "name": "patientName",
              "type": "string"
            },
            {
              "internalType": "address payable",
              "name": "patientaddr",
              "type": "address"
            }
          ],
          "internalType": "struct HealthManagement2.Record[]",
          "name": "recordss",
          "type": "tuple[]"
        }
      ],
      "stateMutability": "view",
      "type": "function",
      "constant": true
    },
    {
      "inputs": [
        {
          "internalType": "address",
          "name": "addr",
          "type": "address"
        }
      ],
      "name": "getPatientRecords",
      "outputs": [
        {
          "components": [
            {
              "internalType": "string",
              "name": "docname",
              "type": "string"
            },
            {
              "internalType": "string",
              "name": "fileHashes",
              "type": "string"
            },
            {
              "internalType": "string",
              "name": "presciptions",
              "type": "string"
            },
            {
              "internalType": "string",
              "name": "finalRemarks",
              "type": "string"
            },
            {
              "internalType": "address payable",
              "name": "doctor_",
              "type": "address"
            },
            {
              "internalType": "uint256",
              "name": "timeStamp",
              "type": "uint256"
            },
            {
              "internalType": "uint256",
              "name": "amount",
              "type": "uint256"
            },
            {
              "internalType": "string",
              "name": "patientName",
              "type": "string"
            },
            {
              "internalType": "address payable",
              "name": "patientaddr",
              "type": "address"
            }
          ],
          "internalType": "struct HealthManagement2.Record[]",
          "name": "records",
          "type": "tuple[]"
        }
      ],
      "stateMutability": "view",
      "type": "function",
      "constant": true
    },
    {
      "inputs": [
        {
          "internalType": "address",
          "name": "p",
          "type": "address"
        }
      ],
      "name": "getRecordOfOnePatient",
      "outputs": [
        {
          "components": [
            {
              "internalType": "string",
              "name": "docname",
              "type": "string"
            },
            {
              "internalType": "string",
              "name": "fileHashes",
              "type": "string"
            },
            {
              "internalType": "string",
              "name": "presciptions",
              "type": "string"
            },
            {
              "internalType": "string",
              "name": "finalRemarks",
              "type": "string"
            },
            {
              "internalType": "address payable",
              "name": "doctor_",
              "type": "address"
            },
            {
              "internalType": "uint256",
              "name": "timeStamp",
              "type": "uint256"
            },
            {
              "internalType": "uint256",
              "name": "amount",
              "type": "uint256"
            },
            {
              "internalType": "string",
              "name": "patientName",
              "type": "string"
            },
            {
              "internalType": "address payable",
              "name": "patientaddr",
              "type": "address"
            }
          ],
          "internalType": "struct HealthManagement2.Record[]",
          "name": "doctorRecord",
          "type": "tuple[]"
        }
      ],
      "stateMutability": "view",
      "type": "function",
      "constant": true
    },
    {
      "inputs": [
        {
          "internalType": "address",
          "name": "",
          "type": "address"
        }
      ],
      "name": "isDoctor",
      "outputs": [
        {
          "internalType": "bool",
          "name": "",
          "type": "bool"
        }
      ],
      "stateMutability": "view",
      "type": "function",
      "constant": true
    },
    {
      "inputs": [
        {
          "internalType": "address",
          "name": "",
          "type": "address"
        }
      ],
      "name": "isPatient",
      "outputs": [
        {
          "internalType": "bool",
          "name": "",
          "type": "bool"
        }
      ],
      "stateMutability": "view",
      "type": "function",
      "constant": true
    },
    {
      "inputs": [
        {
          "internalType": "address",
          "name": "docAddr",
          "type": "address"
        }
      ],
      "name": "updateRecordAccess",
      "outputs": [],
      "stateMutability": "nonpayable",
      "type": "function"
    },
    {
      "inputs": [
        {
          "internalType": "string",
          "name": "name",
          "type": "string"
        },
        {
          "internalType": "string",
          "name": "email",
          "type": "string"
        },
        {
          "internalType": "address payable",
          "name": "address_",
          "type": "address"
        },
        {
          "internalType": "uint256",
          "name": "basefee",
          "type": "uint256"
        }
      ],
      "name": "addDoctor",
      "outputs": [],
      "stateMutability": "nonpayable",
      "type": "function"
    },
    {
      "inputs": [
        {
          "internalType": "address",
          "name": "to",
          "type": "address"
        }
      ],
      "name": "payFees",
      "outputs": [
        {
          "internalType": "bool",
          "name": "sentt",
          "type": "bool"
        }
      ],
      "stateMutability": "payable",
      "type": "function",
      "payable": true
    },
    {
      "inputs": [
        {
          "internalType": "address",
          "name": "docAddr",
          "type": "address"
        },
        {
          "internalType": "uint256",
          "name": "slot",
          "type": "uint256"
        },
        {
          "internalType": "uint256",
          "name": "id",
          "type": "uint256"
        }
      ],
      "name": "takeAppointment",
      "outputs": [],
      "stateMutability": "nonpayable",
      "type": "function"
    },
    {
      "inputs": [
        {
          "internalType": "uint256",
          "name": "index",
          "type": "uint256"
        },
        {
          "internalType": "uint256",
          "name": "start",
          "type": "uint256"
        }
      ],
      "name": "startAppointment",
      "outputs": [],
      "stateMutability": "nonpayable",
      "type": "function"
    },
    {
      "inputs": [
        {
          "internalType": "uint256",
          "name": "index",
          "type": "uint256"
        },
        {
          "internalType": "uint256",
          "name": "end",
          "type": "uint256"
        }
      ],
      "name": "endAppointment",
      "outputs": [],
      "stateMutability": "nonpayable",
      "type": "function"
    },
    {
      "inputs": [],
      "name": "getAllDoctor",
      "outputs": [
        {
          "components": [
            {
              "internalType": "string",
              "name": "name",
              "type": "string"
            },
            {
              "internalType": "string",
              "name": "email",
              "type": "string"
            },
            {
              "internalType": "address payable",
              "name": "address_",
              "type": "address"
            },
            {
              "internalType": "uint256",
              "name": "basefee",
              "type": "uint256"
            },
            {
              "internalType": "uint256",
              "name": "starCount",
              "type": "uint256"
            },
            {
              "internalType": "uint256",
              "name": "totalPatients",
              "type": "uint256"
            },
            {
              "components": [
                {
                  "internalType": "bool",
                  "name": "status",
                  "type": "bool"
                },
                {
                  "internalType": "address payable",
                  "name": "patient_",
                  "type": "address"
                },
                {
                  "internalType": "address payable",
                  "name": "doctor_",
                  "type": "address"
                },
                {
                  "internalType": "string",
                  "name": "patientName",
                  "type": "string"
                },
                {
                  "internalType": "string",
                  "name": "docname",
                  "type": "string"
                },
                {
                  "internalType": "uint256",
                  "name": "timeslot_",
                  "type": "uint256"
                },
                {
                  "internalType": "uint256",
                  "name": "timeStart",
                  "type": "uint256"
                },
                {
                  "internalType": "uint256",
                  "name": "timeEnd",
                  "type": "uint256"
                },
                {
                  "internalType": "uint256",
                  "name": "id",
                  "type": "uint256"
                }
              ],
              "internalType": "struct HealthManagement2.Appointment[]",
              "name": "appointments_",
              "type": "tuple[]"
            },
            {
              "components": [
                {
                  "internalType": "string",
                  "name": "docname",
                  "type": "string"
                },
                {
                  "internalType": "string",
                  "name": "fileHashes",
                  "type": "string"
                },
                {
                  "internalType": "string",
                  "name": "presciptions",
                  "type": "string"
                },
                {
                  "internalType": "string",
                  "name": "finalRemarks",
                  "type": "string"
                },
                {
                  "internalType": "address payable",
                  "name": "doctor_",
                  "type": "address"
                },
                {
                  "internalType": "uint256",
                  "name": "timeStamp",
                  "type": "uint256"
                },
                {
                  "internalType": "uint256",
                  "name": "amount",
                  "type": "uint256"
                },
                {
                  "internalType": "string",
                  "name": "patientName",
                  "type": "string"
                },
                {
                  "internalType": "address payable",
                  "name": "patientaddr",
                  "type": "address"
                }
              ],
              "internalType": "struct HealthManagement2.Record[]",
              "name": "records_",
              "type": "tuple[]"
            }
          ],
          "internalType": "struct HealthManagement2.Doctor[]",
          "name": "alldocs",
          "type": "tuple[]"
        }
      ],
      "stateMutability": "view",
      "type": "function",
      "constant": true
    },
    {
      "inputs": [
        {
          "internalType": "address",
          "name": "addr",
          "type": "address"
        }
      ],
      "name": "getOneDoctor",
      "outputs": [
        {
          "components": [
            {
              "internalType": "string",
              "name": "name",
              "type": "string"
            },
            {
              "internalType": "string",
              "name": "email",
              "type": "string"
            },
            {
              "internalType": "address payable",
              "name": "address_",
              "type": "address"
            },
            {
              "internalType": "uint256",
              "name": "basefee",
              "type": "uint256"
            },
            {
              "internalType": "uint256",
              "name": "starCount",
              "type": "uint256"
            },
            {
              "internalType": "uint256",
              "name": "totalPatients",
              "type": "uint256"
            },
            {
              "components": [
                {
                  "internalType": "bool",
                  "name": "status",
                  "type": "bool"
                },
                {
                  "internalType": "address payable",
                  "name": "patient_",
                  "type": "address"
                },
                {
                  "internalType": "address payable",
                  "name": "doctor_",
                  "type": "address"
                },
                {
                  "internalType": "string",
                  "name": "patientName",
                  "type": "string"
                },
                {
                  "internalType": "string",
                  "name": "docname",
                  "type": "string"
                },
                {
                  "internalType": "uint256",
                  "name": "timeslot_",
                  "type": "uint256"
                },
                {
                  "internalType": "uint256",
                  "name": "timeStart",
                  "type": "uint256"
                },
                {
                  "internalType": "uint256",
                  "name": "timeEnd",
                  "type": "uint256"
                },
                {
                  "internalType": "uint256",
                  "name": "id",
                  "type": "uint256"
                }
              ],
              "internalType": "struct HealthManagement2.Appointment[]",
              "name": "appointments_",
              "type": "tuple[]"
            },
            {
              "components": [
                {
                  "internalType": "string",
                  "name": "docname",
                  "type": "string"
                },
                {
                  "internalType": "string",
                  "name": "fileHashes",
                  "type": "string"
                },
                {
                  "internalType": "string",
                  "name": "presciptions",
                  "type": "string"
                },
                {
                  "internalType": "string",
                  "name": "finalRemarks",
                  "type": "string"
                },
                {
                  "internalType": "address payable",
                  "name": "doctor_",
                  "type": "address"
                },
                {
                  "internalType": "uint256",
                  "name": "timeStamp",
                  "type": "uint256"
                },
                {
                  "internalType": "uint256",
                  "name": "amount",
                  "type": "uint256"
                },
                {
                  "internalType": "string",
                  "name": "patientName",
                  "type": "string"
                },
                {
                  "internalType": "address payable",
                  "name": "patientaddr",
                  "type": "address"
                }
              ],
              "internalType": "struct HealthManagement2.Record[]",
              "name": "records_",
              "type": "tuple[]"
            }
          ],
          "internalType": "struct HealthManagement2.Doctor",
          "name": "doc",
          "type": "tuple"
        }
      ],
      "stateMutability": "view",
      "type": "function",
      "constant": true
    }
  ],
  "bytecode": "0x608060405234801561001057600080fd5b50600060088190556009819055600a8190558054600160a060020a03191633179055614b1f806100416000396000f3fe60806040526004361061015d576000357c010000000000000000000000000000000000000000000000000000000090048063996440c6116100d3578063e3a3bf9c1161008c578063e3a3bf9c14610423578063efe2ccc114610458578063f1e85ee51461048b578063fc8a4de4146104ab578063fddfa7f2146104cb578063ff68115b146104de57600080fd5b8063996440c61461033b5780639cf3cbae1461036b578063a39b66431461038b578063b6ad1015146103ab578063b8f9197b146103dd578063cd25d7be146103f057600080fd5b806350a8a0581161012557806350a8a0581461023f57806359e9bf55146102615780637966c8021461028e5780638b0920fe146102bb5780638f9c79ed146102db57806393699ad01461031b57600080fd5b8063036d6b311461016257806318bd4847146101985780631a7906fa146101b8578063285a3807146101da5780633da2887514610212575b600080fd5b34801561016e57600080fd5b5061018261017d366004613f93565b6104fe565b60405161018f9190614126565b60405180910390f35b3480156101a457600080fd5b506101826101b3366004613f93565b610a21565b3480156101c457600080fd5b506101cd610e80565b60405161018f91906142f6565b3480156101e657600080fd5b506101fa6101f5366004614357565b611633565b604051600160a060020a03909116815260200161018f565b34801561021e57600080fd5b5061023261022d366004613f93565b61165d565b60405161018f9190614370565b34801561024b57600080fd5b5061025f61025a3660046144fc565b611858565b005b34801561026d57600080fd5b5061028161027c366004613f93565b6119ca565b60405161018f919061457a565b34801561029a57600080fd5b506102ae6102a936600461458d565b6120c9565b60405161018f91906145b9565b3480156102c757600080fd5b5061025f6102d63660046145cc565b61243c565b3480156102e757600080fd5b5061030b6102f6366004613f93565b60066020526000908152604090205460ff1681565b604051901515815260200161018f565b34801561032757600080fd5b5061025f61033636600461464d565b61257a565b34801561034757600080fd5b5061030b610356366004613f93565b60046020526000908152604090205460ff1681565b34801561037757600080fd5b5061025f610386366004613f93565b61266c565b34801561039757600080fd5b5061025f6103a636600461464d565b61271e565b3480156103b757600080fd5b506103cb6103c6366004613f93565b612854565b60405161018f9695949392919061466f565b61030b6103eb366004613f93565b6129a3565b3480156103fc57600080fd5b5061041061040b366004613f93565b612a6f565b60405161018f97969594939291906146c3565b34801561042f57600080fd5b5061044361043e366004614357565b612c50565b60405161018f9998979695949392919061472c565b34801561046457600080fd5b50610478610473366004613f93565b612dca565b60405161018f979695949392919061479f565b34801561049757600080fd5b5061025f6104a636600461480c565b61338d565b3480156104b757600080fd5b506102326104c6366004613f93565b613718565b61025f6104d9366004614841565b613908565b3480156104ea57600080fd5b506101fa6104f9366004614357565b613ebf565b600160a060020a038116600090815260076020526040812060058101546060929081816105755760405160e560020a62461bcd02815260206004820152600760248201527f4e6f20646174610000000000000000000000000000000000000000000000000060448201526064015b60405180910390fd5b60005b60058501548110156105e55733600160a060020a03168560050182815481106105a3576105a36148f1565b6000918252602090912060046009909202010154600160a060020a0316036105d3576105d0600185614923565b93505b806105dd81614936565b915050610578565b5060008367ffffffffffffffff81111561060157610601614456565b60405190808252806020026020018201604052801561063a57816020015b610627613ecf565b81526020019060019003908161061f5790505b50905060005b6005860154811015610a165733600160a060020a031686600501828154811061066b5761066b6148f1565b6000918252602090912060046009909202010154600160a060020a031603610a04578560050181815481106106a2576106a26148f1565b9060005260206000209060090201604051806101200160405290816000820180546106cc9061494f565b80601f01602080910402602001604051908101604052809291908181526020018280546106f89061494f565b80156107455780601f1061071a57610100808354040283529160200191610745565b820191906000526020600020905b81548152906001019060200180831161072857829003601f168201915b5050505050815260200160018201805461075e9061494f565b80601f016020809104026020016040519081016040528092919081815260200182805461078a9061494f565b80156107d75780601f106107ac576101008083540402835291602001916107d7565b820191906000526020600020905b8154815290600101906020018083116107ba57829003601f168201915b505050505081526020016002820180546107f09061494f565b80601f016020809104026020016040519081016040528092919081815260200182805461081c9061494f565b80156108695780601f1061083e57610100808354040283529160200191610869565b820191906000526020600020905b81548152906001019060200180831161084c57829003601f168201915b505050505081526020016003820180546108829061494f565b80601f01602080910402602001604051908101604052809291908181526020018280546108ae9061494f565b80156108fb5780601f106108d0576101008083540402835291602001916108fb565b820191906000526020600020905b8154815290600101906020018083116108de57829003601f168201915b50505091835250506004820154600160a060020a03166020820152600582015460408201526006820154606082015260078201805460809092019161093f9061494f565b80601f016020809104026020016040519081016040528092919081815260200182805461096b9061494f565b80156109b85780601f1061098d576101008083540402835291602001916109b8565b820191906000526020600020905b81548152906001019060200180831161099b57829003601f168201915b505050918352505060089190910154600160a060020a031660209091015282518390859081106109ea576109ea6148f1565b60200260200101819052508280610a0090614936565b9350505b80610a0e81614936565b915050610640565b509695505050505050565b600160a060020a03811660009081526006602052604090205460609060ff16610a5f5760405160e560020a62461bcd02815260040161056c90614986565b33600160a060020a03831614610aed57600160a060020a038216600090815260076020908152604080832033845260090190915290205460ff161515600114610aed5760405160e560020a62461bcd02815260206004820152601e60248201527f596f7520617265206e6f7420617574686f72697a656420746f20766965770000604482015260640161056c565b600160a060020a038216600090815260076020908152604080832060050180548251818502810185019093528083529192909190849084015b82821015610e74578382906000526020600020906009020160405180610120016040529081600082018054610b5a9061494f565b80601f0160208091040260200160405190810160405280929190818152602001828054610b869061494f565b8015610bd35780601f10610ba857610100808354040283529160200191610bd3565b820191906000526020600020905b815481529060010190602001808311610bb657829003601f168201915b50505050508152602001600182018054610bec9061494f565b80601f0160208091040260200160405190810160405280929190818152602001828054610c189061494f565b8015610c655780601f10610c3a57610100808354040283529160200191610c65565b820191906000526020600020905b815481529060010190602001808311610c4857829003601f168201915b50505050508152602001600282018054610c7e9061494f565b80601f0160208091040260200160405190810160405280929190818152602001828054610caa9061494f565b8015610cf75780601f10610ccc57610100808354040283529160200191610cf7565b820191906000526020600020905b815481529060010190602001808311610cda57829003601f168201915b50505050508152602001600382018054610d109061494f565b80601f0160208091040260200160405190810160405280929190818152602001828054610d3c9061494f565b8015610d895780601f10610d5e57610100808354040283529160200191610d89565b820191906000526020600020905b815481529060010190602001808311610d6c57829003601f168201915b50505091835250506004820154600160a060020a031660208201526005820154604082015260068201546060820152600782018054608090920191610dcd9061494f565b80601f0160208091040260200160405190810160405280929190818152602001828054610df99061494f565b8015610e465780601f10610e1b57610100808354040283529160200191610e46565b820191906000526020600020905b815481529060010190602001808311610e2957829003601f168201915b505050918352505060089190910154600160a060020a03166020918201529082526001929092019101610b26565b50929695505050505050565b6060600060095467ffffffffffffffff811115610e9f57610e9f614456565b604051908082528060200260200182016040528015610ed857816020015b610ec5613f2d565b815260200190600190039081610ebd5790505b50905060005b60095481101561162d576005600060028381548110610eff57610eff6148f1565b6000918252602080832090910154600160a060020a03168352820192909252604090810190912081516101008101909252805482908290610f3f9061494f565b80601f0160208091040260200160405190810160405280929190818152602001828054610f6b9061494f565b8015610fb85780601f10610f8d57610100808354040283529160200191610fb8565b820191906000526020600020905b815481529060010190602001808311610f9b57829003601f168201915b50505050508152602001600182018054610fd19061494f565b80601f0160208091040260200160405190810160405280929190818152602001828054610ffd9061494f565b801561104a5780601f1061101f5761010080835404028352916020019161104a565b820191906000526020600020905b81548152906001019060200180831161102d57829003601f168201915b505050505081526020016002820160009054906101000a9004600160a060020a0316600160a060020a0316600160a060020a0316815260200160038201548152602001600482015481526020016005820154815260200160068201805480602002602001604051908101604052809291908181526020016000905b8282101561127a576000848152602090819020604080516101208101825260088602909201805460ff811615158452600160a060020a0361010090910481169484019490945260018101549093169082015260028201805491929160608401919061112f9061494f565b80601f016020809104026020016040519081016040528092919081815260200182805461115b9061494f565b80156111a85780601f1061117d576101008083540402835291602001916111a8565b820191906000526020600020905b81548152906001019060200180831161118b57829003601f168201915b505050505081526020016003820180546111c19061494f565b80601f01602080910402602001604051908101604052809291908181526020018280546111ed9061494f565b801561123a5780601f1061120f5761010080835404028352916020019161123a565b820191906000526020600020905b81548152906001019060200180831161121d57829003601f168201915b50505050508152602001600482015481526020016005820154815260200160068201548152602001600782015481525050815260200190600101906110c5565b50505050815260200160078201805480602002602001604051908101604052809291908181526020016000905b828210156115f55783829060005260206000209060090201604051806101200160405290816000820180546112db9061494f565b80601f01602080910402602001604051908101604052809291908181526020018280546113079061494f565b80156113545780601f1061132957610100808354040283529160200191611354565b820191906000526020600020905b81548152906001019060200180831161133757829003601f168201915b5050505050815260200160018201805461136d9061494f565b80601f01602080910402602001604051908101604052809291908181526020018280546113999061494f565b80156113e65780601f106113bb576101008083540402835291602001916113e6565b820191906000526020600020905b8154815290600101906020018083116113c957829003601f168201915b505050505081526020016002820180546113ff9061494f565b80601f016020809104026020016040519081016040528092919081815260200182805461142b9061494f565b80156114785780601f1061144d57610100808354040283529160200191611478565b820191906000526020600020905b81548152906001019060200180831161145b57829003601f168201915b505050505081526020016003820180546114919061494f565b80601f01602080910402602001604051908101604052809291908181526020018280546114bd9061494f565b801561150a5780601f106114df5761010080835404028352916020019161150a565b820191906000526020600020905b8154815290600101906020018083116114ed57829003601f168201915b50505091835250506004820154600160a060020a03166020820152600582015460408201526006820154606082015260078201805460809092019161154e9061494f565b80601f016020809104026020016040519081016040528092919081815260200182805461157a9061494f565b80156115c75780601f1061159c576101008083540402835291602001916115c7565b820191906000526020600020905b8154815290600101906020018083116115aa57829003601f168201915b505050918352505060089190910154600160a060020a031660209182015290825260019290920191016112a7565b505050508152505082828151811061160f5761160f6148f1565b6020026020010181905250808061162590614936565b915050610ede565b50919050565b6002818154811061164357600080fd5b600091825260209091200154600160a060020a0316905081565b600160a060020a0381166000908152600560209081526040808320600601805482518185028101850190935280835260609492939192909184015b8282101561184d576000848152602090819020604080516101208101825260088602909201805460ff811615158452600160a060020a036101009091048116948401949094526001810154909316908201526002820180549192916060840191906117029061494f565b80601f016020809104026020016040519081016040528092919081815260200182805461172e9061494f565b801561177b5780601f106117505761010080835404028352916020019161177b565b820191906000526020600020905b81548152906001019060200180831161175e57829003601f168201915b505050505081526020016003820180546117949061494f565b80601f01602080910402602001604051908101604052809291908181526020018280546117c09061494f565b801561180d5780601f106117e25761010080835404028352916020019161180d565b820191906000526020600020905b8154815290600101906020018083116117f057829003601f168201915b5050505050815260200160048201548152602001600582015481526020016006820154815260200160078201548152505081526020019060010190611698565b505050509050919050565b3360009081526004602052604090205460ff16156118bb5760405160e560020a62461bcd02815260206004820152601960248201527f596f752061726520616c7265616479206120646f63746f722000000000000000604482015260640161056c565b60028054600181019091557f405787fa12a823e0f2b7631cc41b3ba8828b3321ca811111fa75cd3aa3bb5ace018054600160a060020a0319163390811790915560009081526005602052604090206119138582614a0c565b503360009081526005602052604090206001016119308482614a0c565b503360009081526005602052604090206002018054600160a060020a031916600160a060020a03841617905561196e81670de0b6b3a7640000614ad2565b336000908152600560208181526040808420600381019590955560048086018590559490920183905592909252908120805460ff1916600190811790915560098054919290916119bf908490614923565b909155505050505050565b6119d2613f2d565b600160a060020a03821660009081526005602052604080822081516101008101909252805482908290611a049061494f565b80601f0160208091040260200160405190810160405280929190818152602001828054611a309061494f565b8015611a7d5780601f10611a5257610100808354040283529160200191611a7d565b820191906000526020600020905b815481529060010190602001808311611a6057829003601f168201915b50505050508152602001600182018054611a969061494f565b80601f0160208091040260200160405190810160405280929190818152602001828054611ac29061494f565b8015611b0f5780601f10611ae457610100808354040283529160200191611b0f565b820191906000526020600020905b815481529060010190602001808311611af257829003601f168201915b505050505081526020016002820160009054906101000a9004600160a060020a0316600160a060020a0316600160a060020a0316815260200160038201548152602001600482015481526020016005820154815260200160068201805480602002602001604051908101604052809291908181526020016000905b82821015611d3f576000848152602090819020604080516101208101825260088602909201805460ff811615158452600160a060020a03610100909104811694840194909452600181015490931690820152600282018054919291606084019190611bf49061494f565b80601f0160208091040260200160405190810160405280929190818152602001828054611c209061494f565b8015611c6d5780601f10611c4257610100808354040283529160200191611c6d565b820191906000526020600020905b815481529060010190602001808311611c5057829003601f168201915b50505050508152602001600382018054611c869061494f565b80601f0160208091040260200160405190810160405280929190818152602001828054611cb29061494f565b8015611cff5780601f10611cd457610100808354040283529160200191611cff565b820191906000526020600020905b815481529060010190602001808311611ce257829003601f168201915b5050505050815260200160048201548152602001600582015481526020016006820154815260200160078201548152505081526020019060010190611b8a565b50505050815260200160078201805480602002602001604051908101604052809291908181526020016000905b828210156120ba578382906000526020600020906009020160405180610120016040529081600082018054611da09061494f565b80601f0160208091040260200160405190810160405280929190818152602001828054611dcc9061494f565b8015611e195780601f10611dee57610100808354040283529160200191611e19565b820191906000526020600020905b815481529060010190602001808311611dfc57829003601f168201915b50505050508152602001600182018054611e329061494f565b80601f0160208091040260200160405190810160405280929190818152602001828054611e5e9061494f565b8015611eab5780601f10611e8057610100808354040283529160200191611eab565b820191906000526020600020905b815481529060010190602001808311611e8e57829003601f168201915b50505050508152602001600282018054611ec49061494f565b80601f0160208091040260200160405190810160405280929190818152602001828054611ef09061494f565b8015611f3d5780601f10611f1257610100808354040283529160200191611f3d565b820191906000526020600020905b815481529060010190602001808311611f2057829003601f168201915b50505050508152602001600382018054611f569061494f565b80601f0160208091040260200160405190810160405280929190818152602001828054611f829061494f565b8015611fcf5780601f10611fa457610100808354040283529160200191611fcf565b820191906000526020600020905b815481529060010190602001808311611fb257829003601f168201915b50505091835250506004820154600160a060020a0316602082015260058201546040820152600682015460608201526007820180546080909201916120139061494f565b80601f016020809104026020016040519081016040528092919081815260200182805461203f9061494f565b801561208c5780601f106120615761010080835404028352916020019161208c565b820191906000526020600020905b81548152906001019060200180831161206f57829003601f168201915b505050918352505060089190910154600160a060020a03166020918201529082526001929092019101611d6c565b50505091525090949350505050565b6120d1613ecf565b600160a060020a03831660009081526007602052604081206005018054849081106120fe576120fe6148f1565b9060005260206000209060090201604051806101200160405290816000820180546121289061494f565b80601f01602080910402602001604051908101604052809291908181526020018280546121549061494f565b80156121a15780601f10612176576101008083540402835291602001916121a1565b820191906000526020600020905b81548152906001019060200180831161218457829003601f168201915b505050505081526020016001820180546121ba9061494f565b80601f01602080910402602001604051908101604052809291908181526020018280546121e69061494f565b80156122335780601f1061220857610100808354040283529160200191612233565b820191906000526020600020905b81548152906001019060200180831161221657829003601f168201915b5050505050815260200160028201805461224c9061494f565b80601f01602080910402602001604051908101604052809291908181526020018280546122789061494f565b80156122c55780601f1061229a576101008083540402835291602001916122c5565b820191906000526020600020905b8154815290600101906020018083116122a857829003601f168201915b505050505081526020016003820180546122de9061494f565b80601f016020809104026020016040519081016040528092919081815260200182805461230a9061494f565b80156123575780601f1061232c57610100808354040283529160200191612357565b820191906000526020600020905b81548152906001019060200180831161233a57829003601f168201915b50505091835250506004820154600160a060020a03166020820152600582015460408201526006820154606082015260078201805460809092019161239b9061494f565b80601f01602080910402602001604051908101604052809291908181526020018280546123c79061494f565b80156124145780601f106123e957610100808354040283529160200191612414565b820191906000526020600020905b8154815290600101906020018083116123f757829003601f168201915b505050918352505060089190910154600160a060020a03166020909101529150505b92915050565b3360009081526006602052604090205460ff161561249f5760405160e560020a62461bcd02815260206004820152601a60248201527f596f752061726520616c726561647920612070617469656e7420000000000000604482015260640161056c565b336000908152600660209081526040808320805460ff19166001179055600790915290206124cd8682614a0c565b50336000818152600760208190526040909120600281018054600160a060020a031916909317909255600482018590556003820186905581018390556001016125168282614a0c565b50600380546001818101835560009283527fc2575a0e9e593c00f959f8c92f12db2869c3395a3b0502d05e2516446f71f85b9091018054600160a060020a03191633179055600880549192909161256e908490614923565b90915550505050505050565b33600090815260056020526040902060060180548390811061259e5761259e6148f1565b600091825260209091206008909102015460ff16151560011461262c5760405160e560020a62461bcd02815260206004820152602760248201527f596f752068617665206e6f7420636f6d706c657465642074686973206170706f60448201527f696e746d656e7400000000000000000000000000000000000000000000000000606482015260840161056c565b336000908152600560205260409020600601805482919084908110612653576126536148f1565b9060005260206000209060080201600601819055505050565b336000908152600760209081526040808320600160a060020a0385168452600981019092529091205460ff16156126e85760405160e560020a62461bcd02815260206004820152601860248201527f596f75206861766520616c726561647920757064617465640000000000000000604482015260640161056c565b50336000908152600760209081526040808320600160a060020a039490941683526009909301905220805460ff19166001179055565b336000908152600560205260409020600601805483908110612742576127426148f1565b600091825260209091206008909102015460ff16156127cc5760405160e560020a62461bcd02815260206004820152602360248201527f596f75206861766520636f6d706c657465642074686973206170706f696e746d60448201527f656e740000000000000000000000000000000000000000000000000000000000606482015260840161056c565b336000908152600560205260409020600601805460019190849081106127f4576127f46148f1565b60009182526020808320600892909202909101805460ff19169315159390931790925533815260059091526040902060060180548291908490811061283b5761283b6148f1565b9060005260206000209060080201600501819055505050565b60056020526000908152604090208054819061286f9061494f565b80601f016020809104026020016040519081016040528092919081815260200182805461289b9061494f565b80156128e85780601f106128bd576101008083540402835291602001916128e8565b820191906000526020600020905b8154815290600101906020018083116128cb57829003601f168201915b5050505050908060010180546128fd9061494f565b80601f01602080910402602001604051908101604052809291908181526020018280546129299061494f565b80156129765780601f1061294b57610100808354040283529160200191612976565b820191906000526020600020905b81548152906001019060200180831161295957829003601f168201915b505050506002830154600384015460048501546005909501549394600160a060020a039092169390925086565b600160a060020a038116600090815260056020526040812060030154341015612a115760405160e560020a62461bcd02815260206004820152601460248201527f20496e73756666696369656e742066756e647320000000000000000000000000604482015260640161056c565b60008083600160a060020a03163460405160006040518083038185875af1925050503d8060008114612a5f576040519150601f19603f3d011682016040523d82523d6000602084013e612a64565b606091505b509095945050505050565b600760205260009081526040902080548190612a8a9061494f565b80601f0160208091040260200160405190810160405280929190818152602001828054612ab69061494f565b8015612b035780601f10612ad857610100808354040283529160200191612b03565b820191906000526020600020905b815481529060010190602001808311612ae657829003601f168201915b505050505090806001018054612b189061494f565b80601f0160208091040260200160405190810160405280929190818152602001828054612b449061494f565b8015612b915780601f10612b6657610100808354040283529160200191612b91565b820191906000526020600020905b815481529060010190602001808311612b7457829003601f168201915b5050506002840154600385015460048601546006870180549697600160a060020a039094169692955090935090612bc79061494f565b80601f0160208091040260200160405190810160405280929190818152602001828054612bf39061494f565b8015612c405780601f10612c1557610100808354040283529160200191612c40565b820191906000526020600020905b815481529060010190602001808311612c2357829003601f168201915b5050505050908060070154905087565b60018181548110612c6057600080fd5b600091825260209091206008909102018054600182015460028301805460ff84169550610100909304600160a060020a0390811694921692612ca19061494f565b80601f0160208091040260200160405190810160405280929190818152602001828054612ccd9061494f565b8015612d1a5780601f10612cef57610100808354040283529160200191612d1a565b820191906000526020600020905b815481529060010190602001808311612cfd57829003601f168201915b505050505090806003018054612d2f9061494f565b80601f0160208091040260200160405190810160405280929190818152602001828054612d5b9061494f565b8015612da85780601f10612d7d57610100808354040283529160200191612da8565b820191906000526020600020905b815481529060010190602001808311612d8b57829003601f168201915b5050505050908060040154908060050154908060060154908060070154905089565b600160a060020a0381166000908152600660205260408120546060918291819083908290829060ff16612e125760405160e560020a62461bcd02815260040161056c90614986565b6000600760008a600160a060020a0316600160a060020a03168152602001908152602001600020905080600001816001018260040154836003015484600601856007015486600501868054612e669061494f565b80601f0160208091040260200160405190810160405280929190818152602001828054612e929061494f565b8015612edf5780601f10612eb457610100808354040283529160200191612edf565b820191906000526020600020905b815481529060010190602001808311612ec257829003601f168201915b50505050509650858054612ef29061494f565b80601f0160208091040260200160405190810160405280929190818152602001828054612f1e9061494f565b8015612f6b5780601f10612f4057610100808354040283529160200191612f6b565b820191906000526020600020905b815481529060010190602001808311612f4e57829003601f168201915b50505050509550828054612f7e9061494f565b80601f0160208091040260200160405190810160405280929190818152602001828054612faa9061494f565b8015612ff75780601f10612fcc57610100808354040283529160200191612ff7565b820191906000526020600020905b815481529060010190602001808311612fda57829003601f168201915b5050505050925080805480602002602001604051908101604052809291908181526020016000905b8282101561336d5783829060005260206000209060090201604051806101200160405290816000820180546130539061494f565b80601f016020809104026020016040519081016040528092919081815260200182805461307f9061494f565b80156130cc5780601f106130a1576101008083540402835291602001916130cc565b820191906000526020600020905b8154815290600101906020018083116130af57829003601f168201915b505050505081526020016001820180546130e59061494f565b80601f01602080910402602001604051908101604052809291908181526020018280546131119061494f565b801561315e5780601f106131335761010080835404028352916020019161315e565b820191906000526020600020905b81548152906001019060200180831161314157829003601f168201915b505050505081526020016002820180546131779061494f565b80601f01602080910402602001604051908101604052809291908181526020018280546131a39061494f565b80156131f05780601f106131c5576101008083540402835291602001916131f0565b820191906000526020600020905b8154815290600101906020018083116131d357829003601f168201915b505050505081526020016003820180546132099061494f565b80601f01602080910402602001604051908101604052809291908181526020018280546132359061494f565b80156132825780601f1061325757610100808354040283529160200191613282565b820191906000526020600020905b81548152906001019060200180831161326557829003601f168201915b50505091835250506004820154600160a060020a0316602082015260058201546040820152600682015460608201526007820180546080909201916132c69061494f565b80601f01602080910402602001604051908101604052809291908181526020018280546132f29061494f565b801561333f5780601f106133145761010080835404028352916020019161333f565b820191906000526020600020905b81548152906001019060200180831161332257829003601f168201915b505050918352505060089190910154600160a060020a0316602091820152908252600192909201910161301f565b505050509050975097509750975097509750975050919395979092949650565b60408051610120810182526000808252336020808401829052600160a060020a038816848601529082526007905291822080546060830191906133cf9061494f565b80601f01602080910402602001604051908101604052809291908181526020018280546133fb9061494f565b80156134485780601f1061341d57610100808354040283529160200191613448565b820191906000526020600020905b81548152906001019060200180831161342b57829003601f168201915b505050505081526020016005600087600160a060020a0316600160a060020a0316815260200190815260200160002060000180546134859061494f565b80601f01602080910402602001604051908101604052809291908181526020018280546134b19061494f565b80156134fe5780601f106134d3576101008083540402835291602001916134fe565b820191906000526020600020905b8154815290600101906020018083116134e157829003601f168201915b505050918352505060208082018690526000604080840182905260608085018390526080909401879052600160a060020a03808a1683526005845281832060060180546001818101835591855293859020875160089095020180549588015183166101000274ffffffffffffffffffffffffffffffffffffffff00199515159590951674ffffffffffffffffffffffffffffffffffffffffff199096169590951793909317845590850151918301805492909116600160a060020a031990921691909117905590820151919250829160028201906135dc9082614a0c565b50608082015160038201906135f19082614a0c565b5060a0820151600482015560c0820151600582015560e08201516006820155610100918201516007918201553360009081526020918252604080822060089081018054600180820183559185529385902087519490920290910180549487015174ffffffffffffffffffffffffffffffffffffffffff1990951693151574ffffffffffffffffffffffffffffffffffffffff00191693909317600160a060020a039485169095029490941782558401519281018054600160a060020a03191693909216929092179055606082015182919060028201906136d19082614a0c565b50608082015160038201906136e69082614a0c565b5060a0820151816004015560c0820151816005015560e082015181600601556101008201518160070155505050505050565b600160a060020a0381166000908152600760209081526040808320600801805482518185028101850190935280835260609492939192909184015b8282101561184d576000848152602090819020604080516101208101825260088602909201805460ff811615158452600160a060020a036101009091048116948401949094526001810154909316908201526002820180549192916060840191906137bd9061494f565b80601f01602080910402602001604051908101604052809291908181526020018280546137e99061494f565b80156138365780601f1061380b57610100808354040283529160200191613836565b820191906000526020600020905b81548152906001019060200180831161381957829003601f168201915b5050505050815260200160038201805461384f9061494f565b80601f016020809104026020016040519081016040528092919081815260200182805461387b9061494f565b80156138c85780601f1061389d576101008083540402835291602001916138c8565b820191906000526020600020905b8154815290600101906020018083116138ab57829003601f168201915b5050505050815260200160048201548152602001600582015481526020016006820154815260200160078201548152505081526020019060010190613753565b600160a060020a03811660009081526006602052604090205460ff166139435760405160e560020a62461bcd02815260040161056c90614986565b3360009081526004602052604090205460ff166139a55760405160e560020a62461bcd02815260206004820152601460248201527f596f7520617265206e6f74206120446f63746f72000000000000000000000000604482015260640161056c565b600160a060020a03808216600090815260076020908152604080832081516101208101835294871684526005928390529220805491909201929182916139ea9061494f565b80601f0160208091040260200160405190810160405280929190818152602001828054613a169061494f565b8015613a635780601f10613a3857610100808354040283529160200191613a63565b820191906000526020600020905b815481529060010190602001808311613a4657829003601f168201915b5050505050815260200187815260200186815260200185815260200184600160a060020a031681526020014281526020013481526020016007600085600160a060020a0316600160a060020a031681526020019081526020016000206000018054613acd9061494f565b80601f0160208091040260200160405190810160405280929190818152602001828054613af99061494f565b8015613b465780601f10613b1b57610100808354040283529160200191613b46565b820191906000526020600020905b815481529060010190602001808311613b2957829003601f168201915b5050509183525050600160a060020a0384166020918201528254600181018455600093845292208151919260090201908190613b829082614a0c565b5060208201516001820190613b979082614a0c565b5060408201516002820190613bac9082614a0c565b5060608201516003820190613bc19082614a0c565b506080820151600482018054600160a060020a031916600160a060020a0390921691909117905560a0820151600582015560c0820151600682015560e08201516007820190613c109082614a0c565b50610100919091015160089091018054600160a060020a031916600160a060020a039283161790558216600090815260056020526040908190208151610120810190925280546007820192918291613c679061494f565b80601f0160208091040260200160405190810160405280929190818152602001828054613c939061494f565b8015613ce05780601f10613cb557610100808354040283529160200191613ce0565b820191906000526020600020905b815481529060010190602001808311613cc357829003601f168201915b5050505050815260200187815260200186815260200185815260200184600160a060020a031681526020014281526020013481526020016007600085600160a060020a0316600160a060020a031681526020019081526020016000206000018054613d4a9061494f565b80601f0160208091040260200160405190810160405280929190818152602001828054613d769061494f565b8015613dc35780601f10613d9857610100808354040283529160200191613dc3565b820191906000526020600020905b815481529060010190602001808311613da657829003601f168201915b5050509183525050600160a060020a0384166020918201528254600181018455600093845292208151919260090201908190613dff9082614a0c565b5060208201516001820190613e149082614a0c565b5060408201516002820190613e299082614a0c565b5060608201516003820190613e3e9082614a0c565b506080820151600482018054600160a060020a031916600160a060020a0390921691909117905560a0820151600582015560c0820151600682015560e08201516007820190613e8d9082614a0c565b50610100919091015160089091018054600160a060020a031916600160a060020a039092169190911790555050505050565b6003818154811061164357600080fd5b604051806101200160405280606081526020016060815260200160608152602001606081526020016000600160a060020a031681526020016000815260200160008152602001606081526020016000600160a060020a031681525090565b60405180610100016040528060608152602001606081526020016000600160a060020a0316815260200160008152602001600081526020016000815260200160608152602001606081525090565b600160a060020a0381168114613f9057600080fd5b50565b600060208284031215613fa557600080fd5b8135613fb081613f7b565b9392505050565b6000815180845260005b81811015613fdd57602081850181015186830182015201613fc1565b506000602082860101526020601f19601f83011685010191505092915050565b6000610120825181855261401382860182613fb7565b9150506020830151848203602086015261402d8282613fb7565b915050604083015184820360408601526140478282613fb7565b915050606083015184820360608601526140618282613fb7565b915050608083015161407e6080860182600160a060020a03169052565b5060a083015160a085015260c083015160c085015260e083015184820360e08601526140aa8282613fb7565b915050610100808401516140c882870182600160a060020a03169052565b5090949350505050565b600081518084526020808501808196508284028101915082860160005b85811015614119578284038952614107848351613ffd565b988501989350908401906001016140ef565b5091979650505050505050565b602081526000613fb060208301846140d2565b600081518084526020808501808196508284028101915082860160005b85811015614119578284038952815180511515855261012081870151600160a060020a0381168789015250604082810151600160a060020a03811688830152505060608083015182828901526141ae83890182613fb7565b92505050608080830151878303828901526141c98382613fb7565b60a085810151908a015260c080860151908a015260e080860151908a01526101009485015194909801939093525050509784019790840190600101614156565b600081518084526020808501808196508284028101915082860160005b8581101561411957828403895261423e848351613ffd565b98850198935090840190600101614226565b6000610100825181855261426682860182613fb7565b915050602083015184820360208601526142808282613fb7565b915050604083015161429d6040860182600160a060020a03169052565b50606083015160608501526080830151608085015260a083015160a085015260c083015184820360c08601526142d38282614139565b91505060e083015184820360e08601526142ed8282614209565b95945050505050565b600060208083018184528085518083526040860191506040848202870101925083870160005b8281101561434a57603f19888603018452614338858351614250565b9450928501929085019060010161431c565b5092979650505050505050565b60006020828403121561436957600080fd5b5035919050565b60208082528251828201819052600091906040908185019080840286018301878501865b8381101561444857888303603f19018552815180511515845261012081890151600160a060020a038116868b01525081880151600160a060020a038116868a01525060608083015182828801526143ed83880182613fb7565b92505050608080830151868303828801526144088382613fb7565b60a0858101519089015260c0808601519089015260e080860151908901526101009485015194909701939093525050509386019390860190600101614394565b509098975050505050505050565b60e060020a634e487b7102600052604160045260246000fd5b600082601f83011261448057600080fd5b813567ffffffffffffffff8082111561449b5761449b614456565b604051601f8301601f19908116603f011681019082821181831017156144c3576144c3614456565b816040528381528660208588010111156144dc57600080fd5b836020870160208301376000602085830101528094505050505092915050565b6000806000806080858703121561451257600080fd5b843567ffffffffffffffff8082111561452a57600080fd5b6145368883890161446f565b9550602087013591508082111561454c57600080fd5b506145598782880161446f565b935050604085013561456a81613f7b565b9396929550929360600135925050565b602081526000613fb06020830184614250565b600080604083850312156145a057600080fd5b82356145ab81613f7b565b946020939093013593505050565b602081526000613fb06020830184613ffd565b600080600080600060a086880312156145e457600080fd5b853567ffffffffffffffff808211156145fc57600080fd5b61460889838a0161446f565b9650602088013595506040880135945060608801359350608088013591508082111561463357600080fd5b506146408882890161446f565b9150509295509295909350565b6000806040838503121561466057600080fd5b50508035926020909101359150565b60c08152600061468260c0830189613fb7565b82810360208401526146948189613fb7565b915050600160a060020a03861660408301528460608301528360808301528260a0830152979650505050505050565b60e0815260006146d660e083018a613fb7565b82810360208401526146e8818a613fb7565b9050600160a060020a038816604084015286606084015285608084015282810360a08401526147178186613fb7565b9150508260c083015298975050505050505050565b60006101208b15158352600160a060020a03808c166020850152808b166040850152508060608401526147618184018a613fb7565b905082810360808401526147758189613fb7565b9150508560a08301528460c08301528360e0830152826101008301529a9950505050505050505050565b60e0815260006147b260e083018a613fb7565b82810360208401526147c4818a613fb7565b905087604084015286606084015282810360808401526147e48187613fb7565b90508460a084015282810360c08401526147fe81856140d2565b9a9950505050505050505050565b60008060006060848603121561482157600080fd5b833561482c81613f7b565b95602085013595506040909401359392505050565b600080600080600060a0868803121561485957600080fd5b853567ffffffffffffffff8082111561487157600080fd5b61487d89838a0161446f565b9650602088013591508082111561489357600080fd5b61489f89838a0161446f565b955060408801359150808211156148b557600080fd5b506148c28882890161446f565b93505060608601356148d381613f7b565b915060808601356148e381613f7b565b809150509295509295909350565b60e060020a634e487b7102600052603260045260246000fd5b60e060020a634e487b7102600052601160045260246000fd5b808201808211156124365761243661490a565b6000600182016149485761494861490a565b5060010190565b60028104600182168061496357607f821691505b60208210810361162d5760e060020a634e487b7102600052602260045260246000fd5b60208082526015908201527f596f7520617265206e6f7420612070617469656e740000000000000000000000604082015260600190565b601f821115614a07576000818152602081206020601f860104810160208610156149e45750805b6020601f860104820191505b81811015614a03578281556001016149f0565b5050505b505050565b815167ffffffffffffffff811115614a2657614a26614456565b614a3a81614a34845461494f565b846149bd565b602080601f831160018114614a735760008415614a575750858301515b60028086026008870290910a6000190419821617865550614a03565b600085815260208120601f198616915b82811015614aa257888601518255948401946001909101908401614a83565b5085821015614ac257878501516008601f88160260020a60001904191681555b5050505050600202600101905550565b80820281158282048414176124365761243661490a56fea2646970667358221220f4f7fe9d4ea8ea75e5e2e59b3c5197f03ffe471658da13ebed609dbad5de7f2d64736f6c63430008120033",
  "immutableReferences": {},
  "source": "// SPDX-License-Identifier: GPL-3.0\r\npragma solidity >=0.7.0 <0.9.0;\r\n\r\nimport \"./Medical_2.sol\";\r\n\r\ncontract HealthManagement is HealthManagement2 {\r\n\r\n    constructor(){\r\n        patientCount = 0;\r\n        doctorCount = 0;\r\n        appointmentCount = 0;\r\n        owner_ = msg.sender;\r\n    }\r\n    \r\n   function addDoctor(\r\n        string memory name,\r\n        string memory email,\r\n        address payable address_,\r\n        uint256 basefee\r\n        ) public  {\r\n\r\n        require(isDoctor[msg.sender] == false,\"You are already a doctor \");\r\n        \r\n        alldoctors.push(msg.sender);\r\n        allDoctors[msg.sender].name = name;\r\n        allDoctors[msg.sender].email = email;\r\n        allDoctors[msg.sender].address_ = address_;\r\n        allDoctors[msg.sender].basefee = basefee*(1 ether);\r\n        allDoctors[msg.sender].starCount = 0;\r\n        allDoctors[msg.sender].totalPatients = 0;\r\n        isDoctor[msg.sender] = true;\r\n        // allDoctors[msg.sender].records_ = Record [](0);\r\n        doctorCount += 1;\r\n        \r\n   }\r\n\r\n   function payFees(address to)public payable returns (bool sentt) {\r\n       require(msg.value >= allDoctors[to].basefee , \" Insufficient funds \");\r\n       (bool sent, bytes memory data) = (address(payable(to))).call{value: msg.value}(\"\");\r\n        return sent;\r\n        // require(sent, \"Failed to send Ether\");\r\n   }\r\n// uint256 id\r\n   function takeAppointment(address docAddr,uint256 slot,uint256 id) public {\r\n\r\n        Appointment memory a = Appointment(false, payable(msg.sender),payable(docAddr),allPatients[msg.sender].name , allDoctors[docAddr].name , slot,0,0,id);\r\n        allDoctors[docAddr].appointments_.push(a);\r\n        allPatients[msg.sender].myAppointments.push(a);\r\n        // add to patients appointments too \r\n   }\r\n\r\n// uint256 id\r\n    function startAppointment(uint256 index,uint256 start) public {\r\n        require(allDoctors[msg.sender].appointments_[index].status == false,\"You have completed this appointment\");\r\n        allDoctors[msg.sender].appointments_[index].status = true;\r\n        // allDoctors[msg.sender].appointments_[index].id = id;\r\n        // allPatients[msg.sender].appointments_[index].id = id;\r\n        allDoctors[msg.sender].appointments_[index].timeStart = start;\r\n    }\r\n\r\n    function endAppointment(uint256 index,uint256 end) public{\r\n       require(allDoctors[msg.sender].appointments_[index].status == true,\"You have not completed this appointment\");\r\n        allDoctors[msg.sender].appointments_[index].timeEnd = end;\r\n    }\r\n    \r\n    function getAllDoctor() public view returns(Doctor [] memory alldocs ) {\r\n        Doctor [] memory docs = new Doctor[](doctorCount);\r\n        for(uint i = 0; i < doctorCount ; i++)docs[i] = allDoctors[ alldoctors[i] ];\r\n        return docs;\r\n    }\r\n\r\n    function getOneDoctor(address addr) public view returns (Doctor memory doc){\r\n        Doctor memory d = allDoctors[addr];\r\n        return d;\r\n    }\r\n\r\n}",
  "sourcePath": "G:\\coding\\Projects\\pro-10-bc\\front-2\\truffle\\contracts\\Medical.sol",
  "compiler": {
    "name": "solc",
    "version": "0.8.18+commit.87f61d96.Emscripten.clang"
  },
  "schemaVersion": "3.4.12",
  "updatedAt": "2023-04-30T07:45:38.299Z",
  "networkType": "ethereum",
  "devdoc": {
    "kind": "dev",
    "methods": {},
    "version": 1
  },
  "userdoc": {
    "kind": "user",
    "methods": {},
    "version": 1
  }
}