{
  "contractName": "HealthManagement2",
  "abi": [
    {
      "inputs": [
        {
          "internalType": "uint256",
          "name": "",
          "type": "uint256"
        }
      ],
      "name": "allAppointments",
      "outputs": [
        {
          "internalType": "bool",
          "name": "status",
          "type": "bool"
        },
        {
          "internalType": "address payable",
          "name": "patient_",
          "type": "address"
        },
        {
          "internalType": "address payable",
          "name": "doctor_",
          "type": "address"
        },
        {
          "internalType": "string",
          "name": "patientName",
          "type": "string"
        },
        {
          "internalType": "string",
          "name": "docname",
          "type": "string"
        },
        {
          "internalType": "uint256",
          "name": "timeslot_",
          "type": "uint256"
        },
        {
          "internalType": "uint256",
          "name": "timeStart",
          "type": "uint256"
        },
        {
          "internalType": "uint256",
          "name": "timeEnd",
          "type": "uint256"
        }
      ],
      "stateMutability": "view",
      "type": "function",
      "constant": true
    },
    {
      "inputs": [
        {
          "internalType": "address",
          "name": "",
          "type": "address"
        }
      ],
      "name": "allDoctors",
      "outputs": [
        {
          "internalType": "string",
          "name": "name",
          "type": "string"
        },
        {
          "internalType": "string",
          "name": "email",
          "type": "string"
        },
        {
          "internalType": "address payable",
          "name": "address_",
          "type": "address"
        },
        {
          "internalType": "uint256",
          "name": "basefee",
          "type": "uint256"
        },
        {
          "internalType": "uint256",
          "name": "starCount",
          "type": "uint256"
        },
        {
          "internalType": "uint256",
          "name": "totalPatients",
          "type": "uint256"
        }
      ],
      "stateMutability": "view",
      "type": "function",
      "constant": true
    },
    {
      "inputs": [
        {
          "internalType": "address",
          "name": "",
          "type": "address"
        }
      ],
      "name": "allPatients",
      "outputs": [
        {
          "internalType": "string",
          "name": "name",
          "type": "string"
        },
        {
          "internalType": "string",
          "name": "email",
          "type": "string"
        },
        {
          "internalType": "address payable",
          "name": "address_",
          "type": "address"
        },
        {
          "internalType": "uint256",
          "name": "phone",
          "type": "uint256"
        },
        {
          "internalType": "uint256",
          "name": "age",
          "type": "uint256"
        },
        {
          "internalType": "string",
          "name": "bloodgroup",
          "type": "string"
        },
        {
          "internalType": "uint256",
          "name": "dob",
          "type": "uint256"
        }
      ],
      "stateMutability": "view",
      "type": "function",
      "constant": true
    },
    {
      "inputs": [
        {
          "internalType": "uint256",
          "name": "",
          "type": "uint256"
        }
      ],
      "name": "allPatientsList",
      "outputs": [
        {
          "internalType": "address",
          "name": "",
          "type": "address"
        }
      ],
      "stateMutability": "view",
      "type": "function",
      "constant": true
    },
    {
      "inputs": [
        {
          "internalType": "uint256",
          "name": "",
          "type": "uint256"
        }
      ],
      "name": "alldoctors",
      "outputs": [
        {
          "internalType": "address",
          "name": "",
          "type": "address"
        }
      ],
      "stateMutability": "view",
      "type": "function",
      "constant": true
    },
    {
      "inputs": [
        {
          "internalType": "address",
          "name": "",
          "type": "address"
        }
      ],
      "name": "isDoctor",
      "outputs": [
        {
          "internalType": "bool",
          "name": "",
          "type": "bool"
        }
      ],
      "stateMutability": "view",
      "type": "function",
      "constant": true
    },
    {
      "inputs": [
        {
          "internalType": "address",
          "name": "",
          "type": "address"
        }
      ],
      "name": "isPatient",
      "outputs": [
        {
          "internalType": "bool",
          "name": "",
          "type": "bool"
        }
      ],
      "stateMutability": "view",
      "type": "function",
      "constant": true
    },
    {
      "inputs": [
        {
          "internalType": "string",
          "name": "name",
          "type": "string"
        },
        {
          "internalType": "uint256",
          "name": "phone",
          "type": "uint256"
        },
        {
          "internalType": "uint256",
          "name": "age",
          "type": "uint256"
        },
        {
          "internalType": "uint256",
          "name": "dob",
          "type": "uint256"
        },
        {
          "internalType": "string",
          "name": "email",
          "type": "string"
        }
      ],
      "name": "addPatient",
      "outputs": [],
      "stateMutability": "nonpayable",
      "type": "function"
    },
    {
      "inputs": [
        {
          "internalType": "address",
          "name": "addr",
          "type": "address"
        }
      ],
      "name": "getPatientDetails",
      "outputs": [
        {
          "internalType": "string",
          "name": "name",
          "type": "string"
        },
        {
          "internalType": "string",
          "name": "email",
          "type": "string"
        },
        {
          "internalType": "uint256",
          "name": "age",
          "type": "uint256"
        },
        {
          "internalType": "uint256",
          "name": "phone",
          "type": "uint256"
        },
        {
          "internalType": "string",
          "name": "bloodgroup",
          "type": "string"
        },
        {
          "internalType": "uint256",
          "name": "dob",
          "type": "uint256"
        },
        {
          "components": [
            {
              "internalType": "string",
              "name": "docname",
              "type": "string"
            },
            {
              "internalType": "string",
              "name": "fileHashes",
              "type": "string"
            },
            {
              "internalType": "string",
              "name": "presciptions",
              "type": "string"
            },
            {
              "internalType": "string",
              "name": "finalRemarks",
              "type": "string"
            },
            {
              "internalType": "address payable",
              "name": "doctor_",
              "type": "address"
            },
            {
              "internalType": "uint256",
              "name": "timeStamp",
              "type": "uint256"
            },
            {
              "internalType": "uint256",
              "name": "amount",
              "type": "uint256"
            },
            {
              "internalType": "string",
              "name": "patientName",
              "type": "string"
            },
            {
              "internalType": "address payable",
              "name": "patientaddr",
              "type": "address"
            }
          ],
          "internalType": "struct HealthManagement2.Record[]",
          "name": "recordss",
          "type": "tuple[]"
        }
      ],
      "stateMutability": "view",
      "type": "function",
      "constant": true
    },
    {
      "inputs": [
        {
          "internalType": "string",
          "name": "currentfiles",
          "type": "string"
        },
        {
          "internalType": "string",
          "name": "presciptions",
          "type": "string"
        },
        {
          "internalType": "string",
          "name": "finalRemarks",
          "type": "string"
        },
        {
          "internalType": "address",
          "name": "doctor_",
          "type": "address"
        },
        {
          "internalType": "address",
          "name": "patientaddr",
          "type": "address"
        }
      ],
      "name": "addPatientRecord",
      "outputs": [],
      "stateMutability": "payable",
      "type": "function",
      "payable": true
    },
    {
      "inputs": [
        {
          "internalType": "address",
          "name": "addr",
          "type": "address"
        }
      ],
      "name": "getPatientRecords",
      "outputs": [
        {
          "components": [
            {
              "internalType": "string",
              "name": "docname",
              "type": "string"
            },
            {
              "internalType": "string",
              "name": "fileHashes",
              "type": "string"
            },
            {
              "internalType": "string",
              "name": "presciptions",
              "type": "string"
            },
            {
              "internalType": "string",
              "name": "finalRemarks",
              "type": "string"
            },
            {
              "internalType": "address payable",
              "name": "doctor_",
              "type": "address"
            },
            {
              "internalType": "uint256",
              "name": "timeStamp",
              "type": "uint256"
            },
            {
              "internalType": "uint256",
              "name": "amount",
              "type": "uint256"
            },
            {
              "internalType": "string",
              "name": "patientName",
              "type": "string"
            },
            {
              "internalType": "address payable",
              "name": "patientaddr",
              "type": "address"
            }
          ],
          "internalType": "struct HealthManagement2.Record[]",
          "name": "records",
          "type": "tuple[]"
        }
      ],
      "stateMutability": "view",
      "type": "function",
      "constant": true
    },
    {
      "inputs": [
        {
          "internalType": "address",
          "name": "addr",
          "type": "address"
        },
        {
          "internalType": "uint256",
          "name": "index",
          "type": "uint256"
        }
      ],
      "name": "getOneRecord",
      "outputs": [
        {
          "components": [
            {
              "internalType": "string",
              "name": "docname",
              "type": "string"
            },
            {
              "internalType": "string",
              "name": "fileHashes",
              "type": "string"
            },
            {
              "internalType": "string",
              "name": "presciptions",
              "type": "string"
            },
            {
              "internalType": "string",
              "name": "finalRemarks",
              "type": "string"
            },
            {
              "internalType": "address payable",
              "name": "doctor_",
              "type": "address"
            },
            {
              "internalType": "uint256",
              "name": "timeStamp",
              "type": "uint256"
            },
            {
              "internalType": "uint256",
              "name": "amount",
              "type": "uint256"
            },
            {
              "internalType": "string",
              "name": "patientName",
              "type": "string"
            },
            {
              "internalType": "address payable",
              "name": "patientaddr",
              "type": "address"
            }
          ],
          "internalType": "struct HealthManagement2.Record",
          "name": "rec",
          "type": "tuple"
        }
      ],
      "stateMutability": "view",
      "type": "function",
      "constant": true
    },
    {
      "inputs": [
        {
          "internalType": "address",
          "name": "p",
          "type": "address"
        }
      ],
      "name": "getRecordOfOnePatient",
      "outputs": [
        {
          "components": [
            {
              "internalType": "string",
              "name": "docname",
              "type": "string"
            },
            {
              "internalType": "string",
              "name": "fileHashes",
              "type": "string"
            },
            {
              "internalType": "string",
              "name": "presciptions",
              "type": "string"
            },
            {
              "internalType": "string",
              "name": "finalRemarks",
              "type": "string"
            },
            {
              "internalType": "address payable",
              "name": "doctor_",
              "type": "address"
            },
            {
              "internalType": "uint256",
              "name": "timeStamp",
              "type": "uint256"
            },
            {
              "internalType": "uint256",
              "name": "amount",
              "type": "uint256"
            },
            {
              "internalType": "string",
              "name": "patientName",
              "type": "string"
            },
            {
              "internalType": "address payable",
              "name": "patientaddr",
              "type": "address"
            }
          ],
          "internalType": "struct HealthManagement2.Record[]",
          "name": "doctorRecord",
          "type": "tuple[]"
        }
      ],
      "stateMutability": "view",
      "type": "function",
      "constant": true
    },
    {
      "inputs": [
        {
          "internalType": "address",
          "name": "docAdd",
          "type": "address"
        }
      ],
      "name": "getDoctorAppointment",
      "outputs": [
        {
          "components": [
            {
              "internalType": "bool",
              "name": "status",
              "type": "bool"
            },
            {
              "internalType": "address payable",
              "name": "patient_",
              "type": "address"
            },
            {
              "internalType": "address payable",
              "name": "doctor_",
              "type": "address"
            },
            {
              "internalType": "string",
              "name": "patientName",
              "type": "string"
            },
            {
              "internalType": "string",
              "name": "docname",
              "type": "string"
            },
            {
              "internalType": "uint256",
              "name": "timeslot_",
              "type": "uint256"
            },
            {
              "internalType": "uint256",
              "name": "timeStart",
              "type": "uint256"
            },
            {
              "internalType": "uint256",
              "name": "timeEnd",
              "type": "uint256"
            }
          ],
          "internalType": "struct HealthManagement2.Appointment[]",
          "name": "app",
          "type": "tuple[]"
        }
      ],
      "stateMutability": "view",
      "type": "function",
      "constant": true
    },
    {
      "inputs": [
        {
          "internalType": "address",
          "name": "patAdd",
          "type": "address"
        }
      ],
      "name": "getPatientAppointment",
      "outputs": [
        {
          "components": [
            {
              "internalType": "bool",
              "name": "status",
              "type": "bool"
            },
            {
              "internalType": "address payable",
              "name": "patient_",
              "type": "address"
            },
            {
              "internalType": "address payable",
              "name": "doctor_",
              "type": "address"
            },
            {
              "internalType": "string",
              "name": "patientName",
              "type": "string"
            },
            {
              "internalType": "string",
              "name": "docname",
              "type": "string"
            },
            {
              "internalType": "uint256",
              "name": "timeslot_",
              "type": "uint256"
            },
            {
              "internalType": "uint256",
              "name": "timeStart",
              "type": "uint256"
            },
            {
              "internalType": "uint256",
              "name": "timeEnd",
              "type": "uint256"
            }
          ],
          "internalType": "struct HealthManagement2.Appointment[]",
          "name": "app",
          "type": "tuple[]"
        }
      ],
      "stateMutability": "view",
      "type": "function",
      "constant": true
    },
    {
      "inputs": [
        {
          "internalType": "address",
          "name": "docAddr",
          "type": "address"
        }
      ],
      "name": "updateRecordAccess",
      "outputs": [],
      "stateMutability": "nonpayable",
      "type": "function"
    }
  ],
  "bytecode": "0x608060405234801561001057600080fd5b50612fea806100206000396000f3fe608060405260043610610110576000357c0100000000000000000000000000000000000000000000000000000000900480639cf3cbae116100a7578063efe2ccc111610076578063efe2ccc114610348578063fc8a4de41461037b578063fddfa7f21461039b578063ff68115b146103ae57600080fd5b80639cf3cbae1461028f578063b6ad1015146102af578063cd25d7be146102e1578063e3a3bf9c1461031457600080fd5b80637966c802116100e35780637966c802146101d05780638b0920fe146101fd5780638f9c79ed1461021f578063996440c61461025f57600080fd5b8063036d6b311461011557806318bd48471461014b578063285a38071461016b5780633da28875146101a3575b600080fd5b34801561012157600080fd5b50610135610130366004612797565b6103ce565b604051610142919061292b565b60405180910390f35b34801561015757600080fd5b50610135610166366004612797565b6108f1565b34801561017757600080fd5b5061018b61018636600461293e565b610d50565b604051600160a060020a039091168152602001610142565b3480156101af57600080fd5b506101c36101be366004612797565b610d7a565b6040516101429190612957565b3480156101dc57600080fd5b506101f06101eb366004612a2b565b610f68565b6040516101429190612a55565b34801561020957600080fd5b5061021d610218366004612b0e565b6112db565b005b34801561022b57600080fd5b5061024f61023a366004612797565b60066020526000908152604090205460ff1681565b6040519015158152602001610142565b34801561026b57600080fd5b5061024f61027a366004612797565b60046020526000908152604090205460ff1681565b34801561029b57600080fd5b5061021d6102aa366004612797565b611433565b3480156102bb57600080fd5b506102cf6102ca366004612797565b6114d8565b60405161014296959493929190612b8f565b3480156102ed57600080fd5b506103016102fc366004612797565b611627565b6040516101429796959493929190612be3565b34801561032057600080fd5b5061033461032f36600461293e565b611808565b604051610142989796959493929190612c4c565b34801561035457600080fd5b50610368610363366004612797565b61197c565b6040516101429796959493929190612cb6565b34801561038757600080fd5b506101c3610396366004612797565b611f3f565b61021d6103a9366004612d23565b612122565b3480156103ba57600080fd5b5061018b6103c936600461293e565b61270d565b600160a060020a038116600090815260076020526040812060058101546060929081816104455760405160e560020a62461bcd02815260206004820152600760248201527f4e6f20646174610000000000000000000000000000000000000000000000000060448201526064015b60405180910390fd5b60005b60058501548110156104b55733600160a060020a031685600501828154811061047357610473612dcd565b6000918252602090912060046009909202010154600160a060020a0316036104a3576104a0600185612dff565b93505b806104ad81612e12565b915050610448565b5060008367ffffffffffffffff8111156104d1576104d1612a68565b60405190808252806020026020018201604052801561050a57816020015b6104f761271d565b8152602001906001900390816104ef5790505b50905060005b60058601548110156108e65733600160a060020a031686600501828154811061053b5761053b612dcd565b6000918252602090912060046009909202010154600160a060020a0316036108d45785600501818154811061057257610572612dcd565b90600052602060002090600902016040518061012001604052908160008201805461059c90612e2b565b80601f01602080910402602001604051908101604052809291908181526020018280546105c890612e2b565b80156106155780601f106105ea57610100808354040283529160200191610615565b820191906000526020600020905b8154815290600101906020018083116105f857829003601f168201915b5050505050815260200160018201805461062e90612e2b565b80601f016020809104026020016040519081016040528092919081815260200182805461065a90612e2b565b80156106a75780601f1061067c576101008083540402835291602001916106a7565b820191906000526020600020905b81548152906001019060200180831161068a57829003601f168201915b505050505081526020016002820180546106c090612e2b565b80601f01602080910402602001604051908101604052809291908181526020018280546106ec90612e2b565b80156107395780601f1061070e57610100808354040283529160200191610739565b820191906000526020600020905b81548152906001019060200180831161071c57829003601f168201915b5050505050815260200160038201805461075290612e2b565b80601f016020809104026020016040519081016040528092919081815260200182805461077e90612e2b565b80156107cb5780601f106107a0576101008083540402835291602001916107cb565b820191906000526020600020905b8154815290600101906020018083116107ae57829003601f168201915b50505091835250506004820154600160a060020a03166020820152600582015460408201526006820154606082015260078201805460809092019161080f90612e2b565b80601f016020809104026020016040519081016040528092919081815260200182805461083b90612e2b565b80156108885780601f1061085d57610100808354040283529160200191610888565b820191906000526020600020905b81548152906001019060200180831161086b57829003601f168201915b505050918352505060089190910154600160a060020a031660209091015282518390859081106108ba576108ba612dcd565b602002602001018190525082806108d090612e12565b9350505b806108de81612e12565b915050610510565b509695505050505050565b600160a060020a03811660009081526006602052604090205460609060ff1661092f5760405160e560020a62461bcd02815260040161043c90612e68565b33600160a060020a038316146109bd57600160a060020a038216600090815260076020908152604080832033845260090190915290205460ff1615156001146109bd5760405160e560020a62461bcd02815260206004820152601e60248201527f596f7520617265206e6f7420617574686f72697a656420746f20766965770000604482015260640161043c565b600160a060020a038216600090815260076020908152604080832060050180548251818502810185019093528083529192909190849084015b82821015610d44578382906000526020600020906009020160405180610120016040529081600082018054610a2a90612e2b565b80601f0160208091040260200160405190810160405280929190818152602001828054610a5690612e2b565b8015610aa35780601f10610a7857610100808354040283529160200191610aa3565b820191906000526020600020905b815481529060010190602001808311610a8657829003601f168201915b50505050508152602001600182018054610abc90612e2b565b80601f0160208091040260200160405190810160405280929190818152602001828054610ae890612e2b565b8015610b355780601f10610b0a57610100808354040283529160200191610b35565b820191906000526020600020905b815481529060010190602001808311610b1857829003601f168201915b50505050508152602001600282018054610b4e90612e2b565b80601f0160208091040260200160405190810160405280929190818152602001828054610b7a90612e2b565b8015610bc75780601f10610b9c57610100808354040283529160200191610bc7565b820191906000526020600020905b815481529060010190602001808311610baa57829003601f168201915b50505050508152602001600382018054610be090612e2b565b80601f0160208091040260200160405190810160405280929190818152602001828054610c0c90612e2b565b8015610c595780601f10610c2e57610100808354040283529160200191610c59565b820191906000526020600020905b815481529060010190602001808311610c3c57829003601f168201915b50505091835250506004820154600160a060020a031660208201526005820154604082015260068201546060820152600782018054608090920191610c9d90612e2b565b80601f0160208091040260200160405190810160405280929190818152602001828054610cc990612e2b565b8015610d165780601f10610ceb57610100808354040283529160200191610d16565b820191906000526020600020905b815481529060010190602001808311610cf957829003601f168201915b505050918352505060089190910154600160a060020a031660209182015290825260019290920191016109f6565b50929695505050505050565b60028181548110610d6057600080fd5b600091825260209091200154600160a060020a0316905081565b600160a060020a0381166000908152600560209081526040808320600601805482518185028101850190935280835260609492939192909184015b82821015610f5d57600084815260209081902060408051610100808201835260078702909301805460ff81161515835293909304600160a060020a0390811694820194909452600183015490931690830152600281018054606084019190610e1c90612e2b565b80601f0160208091040260200160405190810160405280929190818152602001828054610e4890612e2b565b8015610e955780601f10610e6a57610100808354040283529160200191610e95565b820191906000526020600020905b815481529060010190602001808311610e7857829003601f168201915b50505050508152602001600382018054610eae90612e2b565b80601f0160208091040260200160405190810160405280929190818152602001828054610eda90612e2b565b8015610f275780601f10610efc57610100808354040283529160200191610f27565b820191906000526020600020905b815481529060010190602001808311610f0a57829003601f168201915b50505050508152602001600482015481526020016005820154815260200160068201548152505081526020019060010190610db5565b505050509050919050565b610f7061271d565b600160a060020a0383166000908152600760205260408120600501805484908110610f9d57610f9d612dcd565b906000526020600020906009020160405180610120016040529081600082018054610fc790612e2b565b80601f0160208091040260200160405190810160405280929190818152602001828054610ff390612e2b565b80156110405780601f1061101557610100808354040283529160200191611040565b820191906000526020600020905b81548152906001019060200180831161102357829003601f168201915b5050505050815260200160018201805461105990612e2b565b80601f016020809104026020016040519081016040528092919081815260200182805461108590612e2b565b80156110d25780601f106110a7576101008083540402835291602001916110d2565b820191906000526020600020905b8154815290600101906020018083116110b557829003601f168201915b505050505081526020016002820180546110eb90612e2b565b80601f016020809104026020016040519081016040528092919081815260200182805461111790612e2b565b80156111645780601f1061113957610100808354040283529160200191611164565b820191906000526020600020905b81548152906001019060200180831161114757829003601f168201915b5050505050815260200160038201805461117d90612e2b565b80601f01602080910402602001604051908101604052809291908181526020018280546111a990612e2b565b80156111f65780601f106111cb576101008083540402835291602001916111f6565b820191906000526020600020905b8154815290600101906020018083116111d957829003601f168201915b50505091835250506004820154600160a060020a03166020820152600582015460408201526006820154606082015260078201805460809092019161123a90612e2b565b80601f016020809104026020016040519081016040528092919081815260200182805461126690612e2b565b80156112b35780601f10611288576101008083540402835291602001916112b3565b820191906000526020600020905b81548152906001019060200180831161129657829003601f168201915b505050918352505060089190910154600160a060020a03166020909101529150505b92915050565b3360009081526006602052604090205460ff161561133e5760405160e560020a62461bcd02815260206004820152601a60248201527f596f752061726520616c726561647920612070617469656e7420000000000000604482015260640161043c565b336000908152600660209081526040808320805460ff191660011790556007909152902061136c8682612eee565b5033600081815260076020819052604090912060028101805473ffffffffffffffffffffffffffffffffffffffff1916909317909255600482018590556003820186905581018390556001016113c28282612eee565b50600380546001818101835560009283527fc2575a0e9e593c00f959f8c92f12db2869c3395a3b0502d05e2516446f71f85b909101805473ffffffffffffffffffffffffffffffffffffffff1916331790556008805491929091611427908490612dff565b90915550505050505050565b336000908152600760209081526040808320600160a060020a0385168452600981019092529091205460ff16156114af5760405160e560020a62461bcd02815260206004820152601860248201527f596f75206861766520616c726561647920757064617465640000000000000000604482015260640161043c565b600160a060020a039091166000908152600990910160205260409020805460ff19166001179055565b6005602052600090815260409020805481906114f390612e2b565b80601f016020809104026020016040519081016040528092919081815260200182805461151f90612e2b565b801561156c5780601f106115415761010080835404028352916020019161156c565b820191906000526020600020905b81548152906001019060200180831161154f57829003601f168201915b50505050509080600101805461158190612e2b565b80601f01602080910402602001604051908101604052809291908181526020018280546115ad90612e2b565b80156115fa5780601f106115cf576101008083540402835291602001916115fa565b820191906000526020600020905b8154815290600101906020018083116115dd57829003601f168201915b505050506002830154600384015460048501546005909501549394600160a060020a039092169390925086565b60076020526000908152604090208054819061164290612e2b565b80601f016020809104026020016040519081016040528092919081815260200182805461166e90612e2b565b80156116bb5780601f10611690576101008083540402835291602001916116bb565b820191906000526020600020905b81548152906001019060200180831161169e57829003601f168201915b5050505050908060010180546116d090612e2b565b80601f01602080910402602001604051908101604052809291908181526020018280546116fc90612e2b565b80156117495780601f1061171e57610100808354040283529160200191611749565b820191906000526020600020905b81548152906001019060200180831161172c57829003601f168201915b5050506002840154600385015460048601546006870180549697600160a060020a03909416969295509093509061177f90612e2b565b80601f01602080910402602001604051908101604052809291908181526020018280546117ab90612e2b565b80156117f85780601f106117cd576101008083540402835291602001916117f8565b820191906000526020600020905b8154815290600101906020018083116117db57829003601f168201915b5050505050908060070154905087565b6001818154811061181857600080fd5b600091825260209091206007909102018054600182015460028301805460ff84169550610100909304600160a060020a039081169492169261185990612e2b565b80601f016020809104026020016040519081016040528092919081815260200182805461188590612e2b565b80156118d25780601f106118a7576101008083540402835291602001916118d2565b820191906000526020600020905b8154815290600101906020018083116118b557829003601f168201915b5050505050908060030180546118e790612e2b565b80601f016020809104026020016040519081016040528092919081815260200182805461191390612e2b565b80156119605780601f1061193557610100808354040283529160200191611960565b820191906000526020600020905b81548152906001019060200180831161194357829003601f168201915b5050505050908060040154908060050154908060060154905088565b600160a060020a0381166000908152600660205260408120546060918291819083908290829060ff166119c45760405160e560020a62461bcd02815260040161043c90612e68565b6000600760008a600160a060020a0316600160a060020a03168152602001908152602001600020905080600001816001018260040154836003015484600601856007015486600501868054611a1890612e2b565b80601f0160208091040260200160405190810160405280929190818152602001828054611a4490612e2b565b8015611a915780601f10611a6657610100808354040283529160200191611a91565b820191906000526020600020905b815481529060010190602001808311611a7457829003601f168201915b50505050509650858054611aa490612e2b565b80601f0160208091040260200160405190810160405280929190818152602001828054611ad090612e2b565b8015611b1d5780601f10611af257610100808354040283529160200191611b1d565b820191906000526020600020905b815481529060010190602001808311611b0057829003601f168201915b50505050509550828054611b3090612e2b565b80601f0160208091040260200160405190810160405280929190818152602001828054611b5c90612e2b565b8015611ba95780601f10611b7e57610100808354040283529160200191611ba9565b820191906000526020600020905b815481529060010190602001808311611b8c57829003601f168201915b5050505050925080805480602002602001604051908101604052809291908181526020016000905b82821015611f1f578382906000526020600020906009020160405180610120016040529081600082018054611c0590612e2b565b80601f0160208091040260200160405190810160405280929190818152602001828054611c3190612e2b565b8015611c7e5780601f10611c5357610100808354040283529160200191611c7e565b820191906000526020600020905b815481529060010190602001808311611c6157829003601f168201915b50505050508152602001600182018054611c9790612e2b565b80601f0160208091040260200160405190810160405280929190818152602001828054611cc390612e2b565b8015611d105780601f10611ce557610100808354040283529160200191611d10565b820191906000526020600020905b815481529060010190602001808311611cf357829003601f168201915b50505050508152602001600282018054611d2990612e2b565b80601f0160208091040260200160405190810160405280929190818152602001828054611d5590612e2b565b8015611da25780601f10611d7757610100808354040283529160200191611da2565b820191906000526020600020905b815481529060010190602001808311611d8557829003601f168201915b50505050508152602001600382018054611dbb90612e2b565b80601f0160208091040260200160405190810160405280929190818152602001828054611de790612e2b565b8015611e345780601f10611e0957610100808354040283529160200191611e34565b820191906000526020600020905b815481529060010190602001808311611e1757829003601f168201915b50505091835250506004820154600160a060020a031660208201526005820154604082015260068201546060820152600782018054608090920191611e7890612e2b565b80601f0160208091040260200160405190810160405280929190818152602001828054611ea490612e2b565b8015611ef15780601f10611ec657610100808354040283529160200191611ef1565b820191906000526020600020905b815481529060010190602001808311611ed457829003601f168201915b505050918352505060089190910154600160a060020a03166020918201529082526001929092019101611bd1565b505050509050975097509750975097509750975050919395979092949650565b600160a060020a0381166000908152600760209081526040808320600801805482518185028101850190935280835260609492939192909184015b82821015610f5d57600084815260209081902060408051610100808201835260078702909301805460ff81161515835293909304600160a060020a0390811694820194909452600183015490931690830152600281018054606084019190611fe190612e2b565b80601f016020809104026020016040519081016040528092919081815260200182805461200d90612e2b565b801561205a5780601f1061202f5761010080835404028352916020019161205a565b820191906000526020600020905b81548152906001019060200180831161203d57829003601f168201915b5050505050815260200160038201805461207390612e2b565b80601f016020809104026020016040519081016040528092919081815260200182805461209f90612e2b565b80156120ec5780601f106120c1576101008083540402835291602001916120ec565b820191906000526020600020905b8154815290600101906020018083116120cf57829003601f168201915b50505050508152602001600482015481526020016005820154815260200160068201548152505081526020019060010190611f7a565b600160a060020a03811660009081526006602052604090205460ff1661215d5760405160e560020a62461bcd02815260040161043c90612e68565b3360009081526004602052604090205460ff166121bf5760405160e560020a62461bcd02815260206004820152601460248201527f596f7520617265206e6f74206120446f63746f72000000000000000000000000604482015260640161043c565b600160a060020a038082166000908152600760209081526040808320815161012081018352948716845260059283905292208054919092019291829161220490612e2b565b80601f016020809104026020016040519081016040528092919081815260200182805461223090612e2b565b801561227d5780601f106122525761010080835404028352916020019161227d565b820191906000526020600020905b81548152906001019060200180831161226057829003601f168201915b5050505050815260200187815260200186815260200185815260200184600160a060020a031681526020014281526020013481526020016007600085600160a060020a0316600160a060020a0316815260200190815260200160002060000180546122e790612e2b565b80601f016020809104026020016040519081016040528092919081815260200182805461231390612e2b565b80156123605780601f1061233557610100808354040283529160200191612360565b820191906000526020600020905b81548152906001019060200180831161234357829003601f168201915b5050509183525050600160a060020a038416602091820152825460018101845560009384529220815191926009020190819061239c9082612eee565b50602082015160018201906123b19082612eee565b50604082015160028201906123c69082612eee565b50606082015160038201906123db9082612eee565b50608082015160048201805473ffffffffffffffffffffffffffffffffffffffff1916600160a060020a0390921691909117905560a0820151600582015560c0820151600682015560e082015160078201906124379082612eee565b5061010091909101516008909101805473ffffffffffffffffffffffffffffffffffffffff1916600160a060020a03928316179055821660009081526005602052604090819020815161012081019092528054600782019291829161249b90612e2b565b80601f01602080910402602001604051908101604052809291908181526020018280546124c790612e2b565b80156125145780601f106124e957610100808354040283529160200191612514565b820191906000526020600020905b8154815290600101906020018083116124f757829003601f168201915b5050505050815260200187815260200186815260200185815260200184600160a060020a031681526020014281526020013481526020016007600085600160a060020a0316600160a060020a03168152602001908152602001600020600001805461257e90612e2b565b80601f01602080910402602001604051908101604052809291908181526020018280546125aa90612e2b565b80156125f75780601f106125cc576101008083540402835291602001916125f7565b820191906000526020600020905b8154815290600101906020018083116125da57829003601f168201915b5050509183525050600160a060020a03841660209182015282546001810184556000938452922081519192600902019081906126339082612eee565b50602082015160018201906126489082612eee565b506040820151600282019061265d9082612eee565b50606082015160038201906126729082612eee565b50608082015160048201805473ffffffffffffffffffffffffffffffffffffffff1916600160a060020a0390921691909117905560a0820151600582015560c0820151600682015560e082015160078201906126ce9082612eee565b5061010091909101516008909101805473ffffffffffffffffffffffffffffffffffffffff1916600160a060020a039092169190911790555050505050565b60038181548110610d6057600080fd5b604051806101200160405280606081526020016060815260200160608152602001606081526020016000600160a060020a031681526020016000815260200160008152602001606081526020016000600160a060020a031681525090565b8035600160a060020a038116811461279257600080fd5b919050565b6000602082840312156127a957600080fd5b6127b28261277b565b9392505050565b6000815180845260005b818110156127df576020818501810151868301820152016127c3565b506000602082860101526020601f19601f83011685010191505092915050565b60006101208251818552612815828601826127b9565b9150506020830151848203602086015261282f82826127b9565b9150506040830151848203604086015261284982826127b9565b9150506060830151848203606086015261286382826127b9565b91505060808301516128806080860182600160a060020a03169052565b5060a083015160a085015260c083015160c085015260e083015184820360e08601526128ac82826127b9565b915050610100808401516128ca82870182600160a060020a03169052565b5090949350505050565b6000828251808552602080860195508081830284010181860160005b8481101561291e57601f1986840301895261290c8383516127ff565b988401989250908301906001016128f0565b5090979650505050505050565b6020815260006127b260208301846128d4565b60006020828403121561295057600080fd5b5035919050565b60208082528251828201819052600091906040908185019080840286018301878501865b83811015612a1d57603f19898403018552815180511515845287810151600160a060020a039081168986015287820151168785015260608082015161010082870181905291906129cd838801826127b9565b92505050608080830151868303828801526129e883826127b9565b60a0858101519089015260c0808601519089015260e0948501519490970193909352505050938601939086019060010161297b565b509098975050505050505050565b60008060408385031215612a3e57600080fd5b612a478361277b565b946020939093013593505050565b6020815260006127b260208301846127ff565b60e060020a634e487b7102600052604160045260246000fd5b600082601f830112612a9257600080fd5b813567ffffffffffffffff80821115612aad57612aad612a68565b604051601f8301601f19908116603f01168101908282118183101715612ad557612ad5612a68565b81604052838152866020858801011115612aee57600080fd5b836020870160208301376000602085830101528094505050505092915050565b600080600080600060a08688031215612b2657600080fd5b853567ffffffffffffffff80821115612b3e57600080fd5b612b4a89838a01612a81565b96506020880135955060408801359450606088013593506080880135915080821115612b7557600080fd5b50612b8288828901612a81565b9150509295509295909350565b60c081526000612ba260c08301896127b9565b8281036020840152612bb481896127b9565b915050600160a060020a03861660408301528460608301528360808301528260a0830152979650505050505050565b60e081526000612bf660e083018a6127b9565b8281036020840152612c08818a6127b9565b9050600160a060020a038816604084015286606084015285608084015282810360a0840152612c3781866127b9565b9150508260c083015298975050505050505050565b60006101008a15158352600160a060020a03808b166020850152808a16604085015250806060840152612c81818401896127b9565b90508281036080840152612c9581886127b9565b60a0840196909652505060c081019290925260e09091015295945050505050565b60e081526000612cc960e083018a6127b9565b8281036020840152612cdb818a6127b9565b90508760408401528660608401528281036080840152612cfb81876127b9565b90508460a084015282810360c0840152612d1581856128d4565b9a9950505050505050505050565b600080600080600060a08688031215612d3b57600080fd5b853567ffffffffffffffff80821115612d5357600080fd5b612d5f89838a01612a81565b96506020880135915080821115612d7557600080fd5b612d8189838a01612a81565b95506040880135915080821115612d9757600080fd5b50612da488828901612a81565b935050612db36060870161277b565b9150612dc16080870161277b565b90509295509295909350565b60e060020a634e487b7102600052603260045260246000fd5b60e060020a634e487b7102600052601160045260246000fd5b808201808211156112d5576112d5612de6565b600060018201612e2457612e24612de6565b5060010190565b600281046001821680612e3f57607f821691505b602082108103612e625760e060020a634e487b7102600052602260045260246000fd5b50919050565b60208082526015908201527f596f7520617265206e6f7420612070617469656e740000000000000000000000604082015260600190565b601f821115612ee9576000818152602081206020601f86010481016020861015612ec65750805b6020601f860104820191505b81811015612ee557828155600101612ed2565b5050505b505050565b815167ffffffffffffffff811115612f0857612f08612a68565b612f1c81612f168454612e2b565b84612e9f565b602080601f831160018114612f555760008415612f395750858301515b60028086026008870290910a6000190419821617865550612ee5565b600085815260208120601f198616915b82811015612f8457888601518255948401946001909101908401612f65565b5085821015612fa457878501516008601f88160260020a60001904191681555b505050505060020260010190555056fea2646970667358221220dee10b26e88680930f050389c548d8e2d7838fb5c662e1ebe269635f96a4479864736f6c63430008120033",
  "immutableReferences": {},
  "source": "// SPDX-License-Identifier: GPL-3.0\r\npragma solidity >=0.7.0 <0.9.0;\r\n\r\ncontract HealthManagement2 {\r\n    struct Record{\r\n        // string [] fileHashes;\r\n        string docname;\r\n        string fileHashes;\r\n        string presciptions;\r\n        string finalRemarks;\r\n        address payable doctor_;\r\n        uint256 timeStamp;\r\n        uint256 amount;\r\n        string patientName;\r\n        address payable patientaddr;\r\n        // MedicinePrescription[] medicines;    \r\n    }\r\n\r\n    struct Appointment{\r\n        // address doctor_;\r\n        bool status;\r\n        address payable patient_;\r\n        address payable doctor_;\r\n        string patientName;\r\n        string docname;\r\n        uint256 timeslot_;\r\n        uint256 timeStart;\r\n        uint256 timeEnd;\r\n    }\r\n\r\n    // PATIENTS :\r\n    struct Patient{\r\n        string name;\r\n        string email;\r\n        address payable address_;\r\n        uint256 phone;\r\n        uint256 age;\r\n        Record [] records_;\r\n        string bloodgroup;\r\n        uint256 dob;\r\n        Appointment [] myAppointments;\r\n        mapping (address => bool) recordAccess;\r\n    }\r\n\r\n    struct Doctor{\r\n        string name;\r\n        string email;\r\n        address payable address_;\r\n        // address [] doctorToPatient;\r\n        uint256 basefee;\r\n        uint256 starCount;\r\n        uint256 totalPatients;\r\n        Appointment []  appointments_;\r\n        Record [] records_;\r\n        // mapping( address => uint) myPatients;\r\n    }\r\n\r\n    address owner_;\r\n\r\n    Appointment [] public allAppointments;\r\n    address [] public alldoctors;\r\n    address []public allPatientsList;\r\n\r\n    mapping (address=>bool)public isDoctor;\r\n    mapping (address => Doctor)public allDoctors;\r\n    mapping( address => bool)public isPatient;\r\n    // mapping( address => bool)public isDoctor;\r\n    mapping( address => Patient) public allPatients;\r\n    // mapping( address => Record []) public patientRecords;\r\n\r\n    uint256 patientCount;\r\n    uint256 doctorCount ;\r\n    uint256 appointmentCount;\r\n\r\n    \r\n    function  addPatient(string memory name,uint256 phone,uint256 age,uint256 dob,string memory email) public {\r\n        require(isPatient[msg.sender] == false,\"You are already a patient \");\r\n        isPatient[msg.sender] = true;\r\n        allPatients[msg.sender].name= name;\r\n        allPatients[msg.sender].address_= payable((msg.sender));\r\n        allPatients[msg.sender].age= age;\r\n        allPatients[msg.sender].phone= phone;\r\n        allPatients[msg.sender].dob= dob;\r\n        allPatients[msg.sender].email= email;\r\n        allPatientsList.push(msg.sender);\r\n        patientCount+=1;\r\n    } \r\n\r\n    function getPatientDetails(address addr) public view returns(\r\n        string memory name,string memory email,uint256  age, uint256  phone,\r\n        string memory bloodgroup , uint256  dob ,Record [] memory recordss) {\r\n\r\n        require(isPatient[addr],\"You are not a patient\");\r\n        Patient storage p = allPatients[addr];\r\n        return (p.name,p.email,p.age,p.phone,p.bloodgroup,p.dob,p.records_);\r\n    \r\n    }\r\n    \r\n    function addPatientRecord(\r\n        string memory currentfiles,\r\n        string memory presciptions,\r\n        string memory finalRemarks,\r\n        address doctor_,\r\n        // string memory docname,\r\n        // string memory patientName,\r\n        address  patientaddr\r\n        ) public payable {\r\n\r\n        require(isPatient[patientaddr],\"You are not a patient\");\r\n        require(isDoctor[msg.sender],\"You are not a Doctor\");\r\n        // might have to do storage\r\n\r\n        allPatients[patientaddr].records_.push(Record(allDoctors[doctor_].name,currentfiles,presciptions,finalRemarks,payable(doctor_),block.timestamp,msg.value,allPatients[patientaddr].name,payable(patientaddr)));\r\n        allDoctors[doctor_].records_.push(Record(allDoctors[doctor_].name,currentfiles,presciptions,finalRemarks,payable(doctor_),block.timestamp,msg.value,allPatients[patientaddr].name,payable(patientaddr)));\r\n        \r\n    }\r\n    \r\n    function getPatientRecords(address addr) public view returns( Record[] memory records ) {\r\n        // require(addr==msg.sender,\"You are not the owner\");\r\n        require(isPatient[addr],\"You are not a patient\");\r\n        if(msg.sender != addr){\r\n            require(allPatients[addr].recordAccess[msg.sender] == true,\"You are not authorized to view\");\r\n        }\r\n        Record [] memory r = allPatients[addr].records_;\r\n        return (r);\r\n    }\r\n\r\n    function getOneRecord(address addr,uint256 index) public view returns (Record memory rec) {\r\n        Record memory r = allPatients[addr].records_[index];\r\n        return (r);\r\n    }\r\n\r\n    function getRecordOfOnePatient(address p) public view returns ( Record[] memory doctorRecord ){\r\n        Patient storage P = allPatients[p];\r\n        uint count = 0;\r\n        uint len = P.records_.length;\r\n        uint pos = 0;\r\n        require(len > 0 ,\"No data\");\r\n        // if(len == 0)return ;\r\n        for(uint i=0 ; i < P.records_.length  ;i++)\r\n            if(P.records_[i].doctor_ == msg.sender)count+=1;\r\n        \r\n        Record [] memory temp = new Record[](count) ;\r\n\r\n        for(uint i=0 ; i < P.records_.length  ;i++)\r\n            if(P.records_[i].doctor_ == msg.sender){\r\n               temp[pos] = P.records_[i];\r\n               pos++;\r\n            }\r\n\r\n        return (temp);\r\n    }\r\n    \r\n    function getDoctorAppointment(address docAdd)public view returns(Appointment [] memory app ){\r\n        return (allDoctors[docAdd].appointments_);\r\n    }\r\n\r\n    function getPatientAppointment(address patAdd)public view returns(Appointment [] memory app ){\r\n        return (allPatients[patAdd].myAppointments);\r\n    }\r\n\r\n    function updateRecordAccess (address docAddr)public {\r\n        Patient storage P = allPatients[msg.sender];\r\n        require(P.recordAccess[docAddr]==false,\"You have already updated\");\r\n        P.recordAccess[docAddr] = true;\r\n    }\r\n\r\n    // function ve\r\n\r\n    // ADD PPPROVAL\r\n}",
  "sourcePath": "G:\\coding\\Projects\\pro-10-bc\\front-2\\truffle\\contracts\\Medical_2.sol",
  "compiler": {
    "name": "solc",
    "version": "0.8.18+commit.87f61d96.Emscripten.clang"
  },
  "schemaVersion": "3.4.12",
  "updatedAt": "2023-04-29T11:12:32.721Z",
  "networkType": "ethereum",
  "devdoc": {
    "kind": "dev",
    "methods": {},
    "version": 1
  },
  "userdoc": {
    "kind": "user",
    "methods": {},
    "version": 1
  }
}